{
  "contractName": "Campaign",
  "abi": [
    {
      "inputs": [
        {
          "internalType": "uint256",
          "name": "_id",
          "type": "uint256"
        },
        {
          "internalType": "string",
          "name": "_name",
          "type": "string"
        },
        {
          "internalType": "uint256",
          "name": "_goal",
          "type": "uint256"
        },
        {
          "internalType": "string",
          "name": "_description",
          "type": "string"
        },
        {
          "internalType": "uint256",
          "name": "_endTimeStamp",
          "type": "uint256"
        },
        {
          "internalType": "address payable",
          "name": "_beneficiary",
          "type": "address"
        },
        {
          "internalType": "address",
          "name": "_nft",
          "type": "address"
        }
      ],
      "stateMutability": "nonpayable",
      "type": "constructor"
    },
    {
      "anonymous": false,
      "inputs": [
        {
          "indexed": false,
          "internalType": "uint256",
          "name": "amount",
          "type": "uint256"
        },
        {
          "indexed": false,
          "internalType": "uint256",
          "name": "campaignId",
          "type": "uint256"
        },
        {
          "indexed": false,
          "internalType": "string",
          "name": "name",
          "type": "string"
        },
        {
          "indexed": false,
          "internalType": "string",
          "name": "mail",
          "type": "string"
        }
      ],
      "name": "Donated",
      "type": "event"
    },
    {
      "anonymous": false,
      "inputs": [
        {
          "indexed": false,
          "internalType": "uint256",
          "name": "totalFund",
          "type": "uint256"
        },
        {
          "indexed": false,
          "internalType": "uint256",
          "name": "goal",
          "type": "uint256"
        },
        {
          "indexed": false,
          "internalType": "uint256",
          "name": "campaignId",
          "type": "uint256"
        },
        {
          "indexed": false,
          "internalType": "string",
          "name": "name",
          "type": "string"
        },
        {
          "indexed": false,
          "internalType": "string[]",
          "name": "mails",
          "type": "string[]"
        }
      ],
      "name": "GoalReached",
      "type": "event"
    },
    {
      "inputs": [],
      "name": "currFund",
      "outputs": [
        {
          "internalType": "uint256",
          "name": "",
          "type": "uint256"
        }
      ],
      "stateMutability": "view",
      "type": "function"
    },
    {
      "inputs": [],
      "name": "description",
      "outputs": [
        {
          "internalType": "string",
          "name": "",
          "type": "string"
        }
      ],
      "stateMutability": "view",
      "type": "function"
    },
    {
      "inputs": [],
      "name": "endTimeStamp",
      "outputs": [
        {
          "internalType": "uint256",
          "name": "",
          "type": "uint256"
        }
      ],
      "stateMutability": "view",
      "type": "function"
    },
    {
      "inputs": [],
      "name": "finished",
      "outputs": [
        {
          "internalType": "bool",
          "name": "",
          "type": "bool"
        }
      ],
      "stateMutability": "view",
      "type": "function"
    },
    {
      "inputs": [],
      "name": "goal",
      "outputs": [
        {
          "internalType": "uint256",
          "name": "",
          "type": "uint256"
        }
      ],
      "stateMutability": "view",
      "type": "function"
    },
    {
      "inputs": [],
      "name": "id",
      "outputs": [
        {
          "internalType": "uint256",
          "name": "",
          "type": "uint256"
        }
      ],
      "stateMutability": "view",
      "type": "function"
    },
    {
      "inputs": [],
      "name": "mailCount",
      "outputs": [
        {
          "internalType": "uint256",
          "name": "",
          "type": "uint256"
        }
      ],
      "stateMutability": "view",
      "type": "function"
    },
    {
      "inputs": [
        {
          "internalType": "uint256",
          "name": "",
          "type": "uint256"
        }
      ],
      "name": "mails",
      "outputs": [
        {
          "internalType": "string",
          "name": "",
          "type": "string"
        }
      ],
      "stateMutability": "view",
      "type": "function"
    },
    {
      "inputs": [],
      "name": "name",
      "outputs": [
        {
          "internalType": "string",
          "name": "",
          "type": "string"
        }
      ],
      "stateMutability": "view",
      "type": "function"
    },
    {
      "inputs": [],
      "name": "nfts",
      "outputs": [
        {
          "internalType": "contract SimpleNFT",
          "name": "",
          "type": "address"
        }
      ],
      "stateMutability": "view",
      "type": "function"
    },
    {
      "inputs": [],
      "name": "owner",
      "outputs": [
        {
          "internalType": "address payable",
          "name": "",
          "type": "address"
        }
      ],
      "stateMutability": "view",
      "type": "function"
    },
    {
      "inputs": [
        {
          "internalType": "string",
          "name": "_mail",
          "type": "string"
        },
        {
          "internalType": "string",
          "name": "_uri",
          "type": "string"
        }
      ],
      "name": "donate",
      "outputs": [
        {
          "internalType": "bool",
          "name": "sufficient",
          "type": "bool"
        }
      ],
      "stateMutability": "payable",
      "type": "function"
    },
    {
      "inputs": [],
      "name": "expiredWithdraw",
      "outputs": [],
      "stateMutability": "nonpayable",
      "type": "function"
    }
  ],
  "bytecode": "0x60806040526000600460146101000a8162000019620001a3565b8160ff021916908315150217906200003062000208565b5050503480156200004b57600080620000486200026f565b50505b5060405162002580380380620025808339818101604052810190620000719190620004a2565b86600081906200008062000208565b50505085600190805190602001906200009b929190620002df565b50600060028190620000ac62000208565b5050508460038190620000be62000208565b5050508360059080519060200190620000d9929190620002df565b5081600460006101000a81620000ee620001a3565b8173ffffffffffffffffffffffffffffffffffffffff021916908373ffffffffffffffffffffffffffffffffffffffff160217906200012c62000208565b50505082600881906200013e62000208565b50505080600a60006101000a8162000155620001a3565b8173ffffffffffffffffffffffffffffffffffffffff021916908373ffffffffffffffffffffffffffffffffffffffff160217906200019362000208565b5050505050505050505062000702565b6303daa959598160e01b8152836004820152602081602483336000905af158600e01573d6000803e3d6000fd5b3d6001141558600a015760016000f35b8051935060005b60408110156200020357600081830152602081019050620001e7565b505050565b6322bd64c0598160e01b8152836004820152846024820152600081604483336000905af158600e01573d6000803e3d6000fd5b3d6001141558600a015760016000f35b60005b60408110156200026a576000818301526020810190506200024e565b505050565b632a2a7adb598160e01b8152600481016020815285602082015260005b86811015620002ac5780860151816040840101526020810190506200028c565b506020828760640184336000905af158600e01573d6000803e3d6000fd5b3d6001141558600a015760016000f35b505050565b8280620002eb620001a3565b600181600116156101000203166002900490600052602060002090601f0160209004810192826200032b576000856200032362000208565b505062000398565b82601f106200035157805160ff191683800117856200034962000208565b505062000398565b828001600101856200036262000208565b5050821562000398579182015b8281111562000397578251826200038562000208565b5050916020019190600101906200036f565b5b509050620003a79190620003ab565b5090565b5b80821115620003d157600081600090620003c562000208565b505050600101620003ac565b5090565b6000620003ec620003e684620005d6565b620005a2565b90508281526020810184848401111562000410576000806200040d6200026f565b50505b6200041d8482856200065b565b509392505050565b600081519050620004368162000693565b92915050565b6000815190506200044d81620006b8565b92915050565b600082601f83011262000470576000806200046d6200026f565b50505b815162000482848260208601620003d5565b91505092915050565b6000815190506200049c81620006dd565b92915050565b600080600080600080600060e0888a031215620004c957600080620004c66200026f565b50505b6000620004d98a828b016200048b565b975050602088015167ffffffffffffffff8111156200050257600080620004ff6200026f565b50505b620005108a828b0162000453565b9650506040620005238a828b016200048b565b955050606088015167ffffffffffffffff8111156200054c57600080620005496200026f565b50505b6200055a8a828b0162000453565b94505060806200056d8a828b016200048b565b93505060a0620005808a828b016200043c565b92505060c0620005938a828b0162000425565b91505092959891949750929550565b6000604051905081810181811067ffffffffffffffff82111715620005cc57620005cb62000691565b5b8060405250919050565b600067ffffffffffffffff821115620005f457620005f362000691565b5b601f19601f8301169050602081019050919050565b6000620006168262000631565b9050919050565b60006200062a8262000631565b9050919050565b600073ffffffffffffffffffffffffffffffffffffffff82169050919050565b6000819050919050565b60005b838110156200067b5780820151818401526020810190506200065e565b838111156200068b576000848401525b50505050565bfe5b6200069e8162000609565b8114620006b557600080620006b26200026f565b50505b50565b620006c3816200061d565b8114620006da57600080620006d76200026f565b50505b50565b620006e88162000651565b8114620006ff57600080620006fc6200026f565b50505b50565b611e6e80620007126000396000f3fe6080604052600436106100c25760003560e01c806351906bb01161007f578063af640d0f11610059578063af640d0f1461029e578063bb66834e146102d2578063bef4876b14610306578063dec978281461033a576100c2565b806351906bb0146102025780637284e416146102365780638da5cb5b1461026a576100c2565b806306fdde03146100d05780631653441c146101045780631714f2e0146101345780631eaa1c8b146101685780632fdef9c31461018857806340193883146101ce575b6000806100cd610f6b565b50505b3480156100e5576000806100e2610f6b565b50505b506100ee61036e565b6040516100fb9190611b02565b60405180910390f35b61011e60048036038101906101199190611541565b610428565b60405161012b9190611acc565b60405180910390f35b34801561014957600080610146610f6b565b50505b506101526108b6565b60405161015f9190611ae7565b60405180910390f35b34801561017d5760008061017a610f6b565b50505b506101866108e3565b005b34801561019d5760008061019a610f6b565b50505b506101b860048036038101906101b391906115c8565b610b91565b6040516101c59190611b02565b60405180910390f35b3480156101e3576000806101e0610f6b565b50505b506101ec610c79565b6040516101f99190611bc4565b60405180910390f35b34801561021757600080610214610f6b565b50505b50610220610c86565b60405161022d9190611bc4565b60405180910390f35b34801561024b57600080610248610f6b565b50505b50610254610c93565b6040516102619190611b02565b60405180910390f35b34801561027f5760008061027c610f6b565b50505b50610288610d4d565b6040516102959190611ab1565b60405180910390f35b3480156102b3576000806102b0610f6b565b50505b506102bc610d7a565b6040516102c99190611bc4565b60405180910390f35b3480156102e7576000806102e4610f6b565b50505b506102f0610d87565b6040516102fd9190611bc4565b60405180910390f35b34801561031b57600080610318610f6b565b50505b50610324610d94565b6040516103319190611acc565b60405180910390f35b34801561034f5760008061034c610f6b565b50505b50610358610dae565b6040516103659190611bc4565b60405180910390f35b600180610379610fd9565b600181600116156101000203166002900480601f016020809104026020016040519081016040528092919081815260200182806103b4610fd9565b600181600116156101000203166002900480156104205780601f106103ee5761010080836103e0610fd9565b040283529160200191610420565b820191906000526020600020905b81610405610fd9565b815290600101906020018083116103fc57829003601f168201915b505050505081565b60008073420000000000000000000000000000000000000673ffffffffffffffffffffffffffffffffffffffff166370a082315a63996d79a5598160e01b8152602081600483336000905af158600e01573d6000803e3d6000fd5b3d6001141558600a015760016000f35b8051925060005b60408110156104b45760008183015260208101905061049a565b5050506040518263ffffffff1660e01b81526004016104d39190611a96565b60206040518083038186806104e661103c565b1580156104fb576000806104f8610f6b565b50505b505a61050561109f565b5050505050158015610524573d6000803e3d6000610521610f6b565b50505b505050506040513d601f19601f8201168201806040525081019061054891906115fa565b905034811015610596576040517f08c379a000000000000000000000000000000000000000000000000000000000815260040161058490611b44565b60405180910390610593610f6b565b50505b5a61059f61119f565b60086105a9610fd9565b116105f2576040517f08c379a00000000000000000000000000000000000000000000000000000000081526004016105e090611b84565b604051809103906105ef610f6b565b50505b60036105fc610fd9565b346002610607610fd9565b011115610652576040517f08c379a000000000000000000000000000000000000000000000000000000000815260040161064090611b24565b6040518091039061064f610f6b565b50505b34600260008282610661610fd9565b01925050819061066f6111fc565b5050506006849080600181610682610fd9565b01808261068d6111fc565b505080915050600190039060005260206000200160009091909190915090805190602001906106bd929190611261565b5060076000816106cb610fd9565b809291906001019190506106dd6111fc565b50505060036106ea610fd9565b60026106f4610fd9565b141561078b577f314217ebdf17981d4a26c0519c8810c5b95359d28c649f331ae684df59190db26002610725610fd9565b600361072f610fd9565b6000610739610fd9565b6001600660405161074e959493929190611c32565b60405180910390a16001600460146101000a81610769610fd9565b8160ff0219169083151502179061077e6111fc565b505050610789610dbb565b505b7f603e3549dc91f5ea5c20e81f07db1876962790e50a9c3d3bbdc07821b0b045cd3460006107b7610fd9565b6001876040516107ca9493929190611bdf565b60405180910390a160001515600960005a6107e361131a565b73ffffffffffffffffffffffffffffffffffffffff1673ffffffffffffffffffffffffffffffffffffffff168152602001908152602001600020600090610828610fd9565b906101000a900460ff16151514156108ab576001600960005a61084961131a565b73ffffffffffffffffffffffffffffffffffffffff1673ffffffffffffffffffffffffffffffffffffffff16815260200190815260200160002060006101000a81610892610fd9565b8160ff021916908315150217906108a76111fc565b5050505b600191505092915050565b600a6000906108c3610fd9565b906101000a900473ffffffffffffffffffffffffffffffffffffffff1681565b5a6108ec61119f565b60086108f6610fd9565b1061093f576040517f08c379a000000000000000000000000000000000000000000000000000000000815260040161092d90611ba4565b6040518091039061093c610f6b565b50505b600460009061094c610fd9565b906101000a900473ffffffffffffffffffffffffffffffffffffffff1673ffffffffffffffffffffffffffffffffffffffff165a61098861131a565b73ffffffffffffffffffffffffffffffffffffffff16146109e7576040517f08c379a00000000000000000000000000000000000000000000000000000000081526004016109d590611b64565b604051809103906109e4610f6b565b50505b600073420000000000000000000000000000000000000673ffffffffffffffffffffffffffffffffffffffff166370a082315a63996d79a5598160e01b8152602081600483336000905af158600e01573d6000803e3d6000fd5b3d6001141558600a015760016000f35b8051925060005b6040811015610a7257600081830152602081019050610a58565b5050506040518263ffffffff1660e01b8152600401610a919190611a96565b6020604051808303818680610aa461103c565b158015610ab957600080610ab6610f6b565b50505b505a610ac361109f565b5050505050158015610ae2573d6000803e3d6000610adf610f6b565b50505b505050506040513d601f19601f82011682018060405250810190610b0691906115fa565b90506004600090610b15610fd9565b906101000a900473ffffffffffffffffffffffffffffffffffffffff1673ffffffffffffffffffffffffffffffffffffffff166108fc829081150290604051600060405180830381858888610b68611377565b5050505050509350505050158015610b8d573d6000803e3d6000610b8a610f6b565b50505b5050565b60068181610b9d610fd9565b8110610bb157600080610bae610f6b565b50505b9060005260206000200160009150905080610bca610fd9565b600181600116156101000203166002900480601f01602080910402602001604051908101604052809291908181526020018280610c05610fd9565b60018160011615610100020316600290048015610c715780601f10610c3f576101008083610c31610fd9565b040283529160200191610c71565b820191906000526020600020905b81610c56610fd9565b81529060010190602001808311610c4d57829003601f168201915b505050505081565b6003610c83610fd9565b81565b6008610c90610fd9565b81565b600580610c9e610fd9565b600181600116156101000203166002900480601f01602080910402602001604051908101604052809291908181526020018280610cd9610fd9565b60018160011615610100020316600290048015610d455780601f10610d13576101008083610d05610fd9565b040283529160200191610d45565b820191906000526020600020905b81610d2a610fd9565b81529060010190602001808311610d2157829003601f168201915b505050505081565b6004600090610d5a610fd9565b906101000a900473ffffffffffffffffffffffffffffffffffffffff1681565b6000610d84610fd9565b81565b6002610d91610fd9565b81565b6004601490610da1610fd9565b906101000a900460ff1681565b6007610db8610fd9565b81565b60008073420000000000000000000000000000000000000673ffffffffffffffffffffffffffffffffffffffff166370a082315a63996d79a5598160e01b8152602081600483336000905af158600e01573d6000803e3d6000fd5b3d6001141558600a015760016000f35b8051925060005b6040811015610e4757600081830152602081019050610e2d565b5050506040518263ffffffff1660e01b8152600401610e669190611a96565b6020604051808303818680610e7961103c565b158015610e8e57600080610e8b610f6b565b50505b505a610e9861109f565b5050505050158015610eb7573d6000803e3d6000610eb4610f6b565b50505b505050506040513d601f19601f82011682018060405250810190610edb91906115fa565b90506004600090610eea610fd9565b906101000a900473ffffffffffffffffffffffffffffffffffffffff1673ffffffffffffffffffffffffffffffffffffffff166108fc829081150290604051600060405180830381858888610f3d611377565b5050505050509350505050158015610f62573d6000803e3d6000610f5f610f6b565b50505b50600191505090565b632a2a7adb598160e01b8152600481016020815285602082015260005b86811015610fa6578086015181604084010152602081019050610f88565b506020828760640184336000905af158600e01573d6000803e3d6000fd5b3d6001141558600a015760016000f35b505050565b6303daa959598160e01b8152836004820152602081602483336000905af158600e01573d6000803e3d6000fd5b3d6001141558600a015760016000f35b8051935060005b60408110156110375760008183015260208101905061101d565b505050565b638435035b598160e01b8152836004820152602081602483336000905af158600e01573d6000803e3d6000fd5b3d6001141558600a015760016000f35b8051935060005b604081101561109a57600081830152602081019050611080565b505050565b638540661f598160e01b81526110de565b6000819050818311156110c1578290505b92915050565b6000819050818310156110d8578290505b92915050565b836004820152846024820152606060448201528660648201526084810160005b888110156111195780880151818301526020810190506110fe565b506060828960a40184336000905af158600e01573d6000803e3d6000fd5b3d6001141558600a015760016000f35b815160408301513d6000853e8b8b82606087013350600060045af1505961116e8d3d6110c7565b8c0161117a81876110b0565b5b82811015611192576000815260208101905061117b565b50839d5050505050505050565b63bdbf8c36598160e01b8152602081600483336000905af158600e01573d6000803e3d6000fd5b3d6001141558600a015760016000f35b8051935060005b60408110156111f7576000818301526020810190506111dd565b505050565b6322bd64c0598160e01b8152836004820152846024820152600081604483336000905af158600e01573d6000803e3d6000fd5b3d6001141558600a015760016000f35b60005b604081101561125c57600081830152602081019050611242565b505050565b828061126b610fd9565b600181600116156101000203166002900490600052602060002090601f0160209004810192826112a7576000856112a06111fc565b5050611309565b82601f106112c957805160ff191683800117856112c26111fc565b5050611309565b828001600101856112d86111fc565b50508215611309579182015b82811115611308578251826112f76111fc565b5050916020019190600101906112e4565b5b5090506113169190611477565b5090565b6373509064598160e01b8152602081600483336000905af158600e01573d6000803e3d6000fd5b3d6001141558600a015760016000f35b8051935060005b604081101561137257600081830152602081019050611358565b505050565b6385979f76598160e01b81526113b6565b600081905081831115611399578290505b92915050565b6000819050818310156113b0578290505b92915050565b836004820152846024820152606060448201528760648201526084810160005b898110156113f15780890151818301526020810190506113d6565b506060828a60a40184336000905af158600e01573d6000803e3d6000fd5b3d6001141558600a015760016000f35b815160408301513d6000853e8c8c82606087013350600060045af150596114468e3d61139f565b8d016114528187611388565b5b8281101561146a5760008152602081019050611453565b50839e5050505050505050565b5b808211156114995760008160009061148e6111fc565b505050600101611478565b5090565b60006114b06114ab84611cc4565b611c93565b9050828152602081018484840111156114d1576000806114ce610f6b565b50505b6114dc848285611df9565b509392505050565b600082601f8301126114fe576000806114fb610f6b565b50505b813561150e84826020860161149d565b91505092915050565b60008135905061152681611e4e565b92915050565b60008151905061153b81611e4e565b92915050565b6000806040838503121561155d5760008061155a610f6b565b50505b600083013567ffffffffffffffff8111156115805760008061157d610f6b565b50505b61158c858286016114e4565b925050602083013567ffffffffffffffff8111156115b2576000806115af610f6b565b50505b6115be858286016114e4565b9150509250929050565b6000602082840312156115e3576000806115e0610f6b565b50505b60006115f184828501611517565b91505092915050565b60006020828403121561161557600080611612610f6b565b50505b60006116238482850161152c565b91505092915050565b60006116388383611729565b905092915050565b61164981611d8d565b82525050565b61165881611d7b565b82525050565b600061166982611d1e565b6116738185611d48565b93508360208202850161168585611cf4565b8060005b858110156116c0578484038952816116a1858261162c565b94506116ac83611d3b565b925060208a01995050600181019050611689565b50829750879550505050505092915050565b6116db81611d9f565b82525050565b6116ea81611dd5565b82525050565b60006116fb82611d30565b6117058185611d6a565b9350611715818560208601611e08565b61171e81611e3d565b840191505092915050565b600081611734610fd9565b600181166000811461174d5760018114611773576117be565b607f600283041661175e8187611d59565b955060ff1983168652602086019350506117be565b600282046117818187611d59565b955061178c85611d09565b60005b828110156117b557816117a0610fd9565b8189015260018201915060208101905061178f565b80880195505050505b505092915050565b6000816117d1610fd9565b60018116600081146117ea57600181146118105761185b565b607f60028304166117fb8187611d6a565b955060ff19831686526020860193505061185b565b6002820461181e8187611d6a565b955061182985611d09565b60005b82811015611852578161183d610fd9565b8189015260018201915060208101905061182c565b80880195505050505b505092915050565b6000611870602283611d6a565b91507f43616d706169676e3a3a646f6e6174653a20486172642063617020726561636860008301527f65640000000000000000000000000000000000000000000000000000000000006020830152604082019050919050565b60006118d6602383611d6a565b91507f43616d706169676e3a3a646f6e6174653a20496e737566696369656e7420667560008301527f6e647300000000000000000000000000000000000000000000000000000000006020830152604082019050919050565b600061193c604683611d6a565b91507f63616d706169676e3a3a6578706972656457697468647261773a204f6e6c792060008301527f7468652062656e65666963696172792063616e2077697468647261772074686560208301527f2066756e647300000000000000000000000000000000000000000000000000006040830152606082019050919050565b60006119c8603483611d6a565b91507f43616d706169676e3a3a646f6e6174653a20546869732063616d706169676e2060008301527f68617320616c72656164792066696e69736865640000000000000000000000006020830152604082019050919050565b6000611a2e603883611d6a565b91507f43616d706169676e3a3a6578706972656457697468647261773a20546869732060008301527f63616d706169676e206973207374696c6c2061637469766500000000000000006020830152604082019050919050565b611a9081611dcb565b82525050565b6000602082019050611aab600083018461164f565b92915050565b6000602082019050611ac66000830184611640565b92915050565b6000602082019050611ae160008301846116d2565b92915050565b6000602082019050611afc60008301846116e1565b92915050565b60006020820190508181036000830152611b1c81846116f0565b905092915050565b60006020820190508181036000830152611b3d81611863565b9050919050565b60006020820190508181036000830152611b5d816118c9565b9050919050565b60006020820190508181036000830152611b7d8161192f565b9050919050565b60006020820190508181036000830152611b9d816119bb565b9050919050565b60006020820190508181036000830152611bbd81611a21565b9050919050565b6000602082019050611bd96000830184611a87565b92915050565b6000608082019050611bf46000830187611a87565b611c016020830186611a87565b8181036040830152611c1381856117c6565b90508181036060830152611c2781846116f0565b905095945050505050565b600060a082019050611c476000830188611a87565b611c546020830187611a87565b611c616040830186611a87565b8181036060830152611c7381856117c6565b90508181036080830152611c87818461165e565b90509695505050505050565b6000604051905081810181811067ffffffffffffffff82111715611cba57611cb9611e3b565b5b8060405250919050565b600067ffffffffffffffff821115611cdf57611cde611e3b565b5b601f19601f8301169050602081019050919050565b60008190508160005260206000209050919050565b60008190508160005260206000209050919050565b600081611d29610fd9565b9050919050565b600081519050919050565b6000600182019050919050565b600082825260208201905092915050565b600082825260208201905092915050565b600082825260208201905092915050565b6000611d8682611dab565b9050919050565b6000611d9882611dab565b9050919050565b60008115159050919050565b600073ffffffffffffffffffffffffffffffffffffffff82169050919050565b6000819050919050565b6000611de082611de7565b9050919050565b6000611df282611dab565b9050919050565b82818337600083830152505050565b60005b83811015611e26578082015181840152602081019050611e0b565b83811115611e35576000848401525b50505050565bfe5b6000601f19601f8301169050919050565b611e5781611dcb565b8114611e6b57600080611e68610f6b565b50505b5056",
  "immutableReferences": {},
  "source": "pragma solidity 0.7.6;\npragma abicoder v2;\nimport \"@openzeppelin/contracts/access/Ownable.sol\";\nimport \"@openzeppelin/contracts/math/SafeMath.sol\";\nimport \"@openzeppelin/contracts/token/ERC20/SafeERC20.sol\";\nimport \"@openzeppelin/contracts/token/ERC20/IERC20.sol\";\nimport \"./4_SimpleNFT.sol\";\n\n// SPDX-License-Identifier: MIT\n\ncontract Campaign {\n    \n    using SafeMath for uint;\n    using SafeERC20 for IERC20;\n    \n    uint public id;\n    string public name;\n    uint public currFund;\n    uint public goal;\n    address payable public owner;\n    bool public finished = false;\n    string public description;\n    string[] public mails;\n    uint public mailCount;\n    uint public endTimeStamp;\n    mapping(address => bool) donators;\n    SimpleNFT public nfts;\n    \n    constructor(uint _id, string memory _name, uint _goal, string memory _description, uint _endTimeStamp, address payable _beneficiary, address _nft){\n        id = _id;\n        name = _name;\n        currFund = 0;\n        goal = _goal;\n        description = _description;\n        owner = _beneficiary;\n        endTimeStamp = _endTimeStamp;\n        nfts = SimpleNFT(_nft);\n    }\n    event GoalReached(uint totalFund, uint goal, uint campaignId, string name, string[] mails);\n    event Donated(uint amount, uint campaignId, string name, string mail);\n    \n    function donate(string memory _mail, string memory _uri) public payable returns(bool sufficient) {\n        uint256 balance = IERC20(0x4200000000000000000000000000000000000006).balanceOf(address(this));\n        require(balance >= msg.value, \"Campaign::donate: Insuficient funds\");\n        require(endTimeStamp > block.timestamp, \"Campaign::donate: This campaign has already finished\");\n        require(currFund + msg.value <= goal, \"Campaign::donate: Hard cap reached\");\n        currFund += msg.value;\n        mails.push(_mail);\n        mailCount++;\n        \n        if (currFund == goal) {\n            emit GoalReached(currFund, goal, id, name, mails);\n            finished = true;\n            withdraw();\n        }\n        emit Donated(msg.value, id, name, _mail);\n        if (donators[msg.sender] == false){\n            //nfts.createSimpleNFT(_uri);\n            donators[msg.sender] = true;\n        }\n        return true;\n        \n        \n    }\n    \n    function expiredWithdraw() public {\n        require(endTimeStamp < block.timestamp, \"Campaign::expiredWithdraw: This campaign is still active\");\n        require(msg.sender == owner, \"campaign::expiredWithdraw: Only the beneficiary can withdraw the funds\");\n        uint256 balance = IERC20(0x4200000000000000000000000000000000000006).balanceOf(address(this));\n        owner.transfer(balance);\n    }\n\n    function withdraw() private returns(bool sufficient) {\n        uint256 balance = IERC20(0x4200000000000000000000000000000000000006).balanceOf(address(this));\n        owner.transfer(balance);\n        return true;\n        }\n    \n}",
  "sourcePath": "/Users/Karlo/faks/Web3/challenge3/eth-dapp/truffle project/contracts/1_Campaign.sol",
  "compiler": {
    "name": "solc",
    "version": "0.7.6"
  },
  "schemaVersion": "3.4.1",
  "updatedAt": "2021-08-28T21:24:03.221Z",
  "networkType": "ethereum",
  "devdoc": {
    "kind": "dev",
    "methods": {},
    "version": 1
  },
  "userdoc": {
    "kind": "user",
    "methods": {},
    "version": 1
  }
}