{
  "contractName": "Campaign",
  "abi": [
    {
      "inputs": [
        {
          "internalType": "uint256",
          "name": "_id",
          "type": "uint256"
        },
        {
          "internalType": "string",
          "name": "_name",
          "type": "string"
        },
        {
          "internalType": "uint256",
          "name": "_goal",
          "type": "uint256"
        }
      ],
      "stateMutability": "nonpayable",
      "type": "constructor"
    },
    {
      "anonymous": false,
      "inputs": [
        {
          "indexed": false,
          "internalType": "uint256",
          "name": "totalFund",
          "type": "uint256"
        },
        {
          "indexed": false,
          "internalType": "uint256",
          "name": "campaignId",
          "type": "uint256"
        },
        {
          "indexed": false,
          "internalType": "string",
          "name": "name",
          "type": "string"
        },
        {
          "indexed": false,
          "internalType": "address[]",
          "name": "funders",
          "type": "address[]"
        }
      ],
      "name": "goalReached",
      "type": "event"
    },
    {
      "inputs": [],
      "name": "currFund",
      "outputs": [
        {
          "internalType": "uint256",
          "name": "",
          "type": "uint256"
        }
      ],
      "stateMutability": "view",
      "type": "function",
      "constant": true
    },
    {
      "inputs": [
        {
          "internalType": "uint256",
          "name": "",
          "type": "uint256"
        }
      ],
      "name": "funders",
      "outputs": [
        {
          "internalType": "address",
          "name": "",
          "type": "address"
        }
      ],
      "stateMutability": "view",
      "type": "function",
      "constant": true
    },
    {
      "inputs": [],
      "name": "goal",
      "outputs": [
        {
          "internalType": "uint256",
          "name": "",
          "type": "uint256"
        }
      ],
      "stateMutability": "view",
      "type": "function",
      "constant": true
    },
    {
      "inputs": [],
      "name": "id",
      "outputs": [
        {
          "internalType": "uint256",
          "name": "",
          "type": "uint256"
        }
      ],
      "stateMutability": "view",
      "type": "function",
      "constant": true
    },
    {
      "inputs": [],
      "name": "name",
      "outputs": [
        {
          "internalType": "string",
          "name": "",
          "type": "string"
        }
      ],
      "stateMutability": "view",
      "type": "function",
      "constant": true
    },
    {
      "inputs": [],
      "name": "zast",
      "outputs": [
        {
          "internalType": "bool",
          "name": "",
          "type": "bool"
        }
      ],
      "stateMutability": "view",
      "type": "function",
      "constant": true
    },
    {
      "inputs": [],
      "name": "donate",
      "outputs": [
        {
          "internalType": "bool",
          "name": "sufficient",
          "type": "bool"
        }
      ],
      "stateMutability": "payable",
      "type": "function",
      "payable": true
    },
    {
      "inputs": [
        {
          "internalType": "address",
          "name": "_addr",
          "type": "address"
        }
      ],
      "name": "getBalanceInEth",
      "outputs": [
        {
          "internalType": "uint256",
          "name": "",
          "type": "uint256"
        }
      ],
      "stateMutability": "view",
      "type": "function",
      "constant": true
    }
  ],
  "bytecode": "0x60806040526000600560006101000a81548160ff02191690831515021790555034801561002b57600080fd5b506040516108123803806108128339818101604052606081101561004e57600080fd5b81019080805190602001909291908051604051939291908464010000000082111561007857600080fd5b8382019150602082018581111561008e57600080fd5b82518660018202830111640100000000821117156100ab57600080fd5b8083526020830192505050908051906020019080838360005b838110156100df5780820151818401526020810190506100c4565b50505050905090810190601f16801561010c5780820380516001836020036101000a031916815260200191505b506040526020018051906020019092919050505082600081905550816001908051906020019061013d929190610155565b50600060028190555080600381905550505050610200565b828054600181600116156101000203166002900490600052602060002090601f01602090048101928261018b57600085556101d2565b82601f106101a457805160ff19168380011785556101d2565b828001600101855582156101d2579182015b828111156101d15782518255916020019190600101906101b6565b5b5090506101df91906101e3565b5090565b5b808211156101fc5760008160009055506001016101e4565b5090565b6106038061020f6000396000f3fe60806040526004361061007b5760003560e01c8063af640d0f1161004e578063af640d0f146101cd578063bb66834e146101f8578063dc0d3dff14610223578063ed88c68e146102885761007b565b806306fdde031461008057806340193883146101105780637bd703e81461013b578063a7e6f451146101a0575b600080fd5b34801561008c57600080fd5b506100956102a8565b6040518080602001828103825283818151815260200191508051906020019080838360005b838110156100d55780820151818401526020810190506100ba565b50505050905090810190601f1680156101025780820380516001836020036101000a031916815260200191505b509250505060405180910390f35b34801561011c57600080fd5b50610125610346565b6040518082815260200191505060405180910390f35b34801561014757600080fd5b5061018a6004803603602081101561015e57600080fd5b81019080803573ffffffffffffffffffffffffffffffffffffffff16906020019092919050505061034c565b6040518082815260200191505060405180910390f35b3480156101ac57600080fd5b506101b5610358565b60405180821515815260200191505060405180910390f35b3480156101d957600080fd5b506101e261036b565b6040518082815260200191505060405180910390f35b34801561020457600080fd5b5061020d610371565b6040518082815260200191505060405180910390f35b34801561022f57600080fd5b5061025c6004803603602081101561024657600080fd5b8101908080359060200190929190505050610377565b604051808273ffffffffffffffffffffffffffffffffffffffff16815260200191505060405180910390f35b6102906103b6565b60405180821515815260200191505060405180910390f35b60018054600181600116156101000203166002900480601f01602080910402602001604051908101604052809291908181526020018280546001816001161561010002031660029004801561033e5780601f106103135761010080835404028352916020019161033e565b820191906000526020600020905b81548152906001019060200180831161032157829003601f168201915b505050505081565b60035481565b60006002549050919050565b600560009054906101000a900460ff1681565b60005481565b60025481565b6004818154811061038757600080fd5b906000526020600020016000915054906101000a900473ffffffffffffffffffffffffffffffffffffffff1681565b6000343273ffffffffffffffffffffffffffffffffffffffff163110156103e057600090506105ca565b346002600082825401925050819055506004329080600181540180825580915050600190039060005260206000200160009091909190916101000a81548173ffffffffffffffffffffffffffffffffffffffff021916908373ffffffffffffffffffffffffffffffffffffffff160217905550600354600254106105c5576001600560006101000a81548160ff0219169083151502179055507f5b110612d85522d35d519fa9da02750d715661f0de0073f62f0fa5a6a656455e6002546000546001600460405180858152602001848152602001806020018060200183810383528581815460018160011615610100020316600290048152602001915080546001816001161561010002031660029004801561053d5780601f106105125761010080835404028352916020019161053d565b820191906000526020600020905b81548152906001019060200180831161052057829003601f168201915b505083810382528481815481526020019150805480156105b257602002820191906000526020600020905b8160009054906101000a900473ffffffffffffffffffffffffffffffffffffffff1673ffffffffffffffffffffffffffffffffffffffff1681526020019060010190808311610568575b5050965050505050505060405180910390a15b600190505b9056fea264697066735822122073586e4d104982cdebeba244e0c2f030ed2cc84409020ba8240732f96867079a64736f6c63430007060033",
  "immutableReferences": {},
  "source": "pragma solidity >=0.7.0 <0.9.0;\n\ncontract Campaign {\n    \n    uint public id;\n    string public name;\n    uint public currFund;\n    uint public goal;\n    address[] public funders;\n    bool public zast = false;\n    \n    constructor(uint _id, string memory _name, uint _goal){\n        id = _id;\n        name = _name;\n        currFund = 0;\n        goal = _goal;\n    }\n    \n    event goalReached(uint totalFund, uint campaignId, string name, address[] funders);\n    \n    function donate() public payable returns(bool sufficient) {\n        if (tx.origin.balance < msg.value) return false;\n        currFund += msg.value; // ?\n        //msg.sender.balance -= msg.value;\n        //address(this).balance += msg.value;\n        funders.push(tx.origin);\n        \n        if (currFund >= goal) {\n            zast = true;\n            emit goalReached(currFund, id, name, funders);\n        }\n        return true;\n    }\n\n    function getBalanceInEth(address _addr) public view returns(uint){\n        return currFund;\n        //return ConvertLib.convert(_addr.balance+i,2);\n    }\n    \n}",
  "sourcePath": "/Users/Lara/FER/Web3.0/challenge1/eth-dapp/truffle project/contracts/1_Campaign.sol",
  "compiler": {
    "name": "solc",
    "version": "0.7.6+commit.7338295f.Emscripten.clang"
  },
  "schemaVersion": "3.2.3",
  "updatedAt": "2021-07-22T15:39:11.245Z",
  "networkType": "ethereum",
  "devdoc": {
    "kind": "dev",
    "methods": {},
    "version": 1
  },
  "userdoc": {
    "kind": "user",
    "methods": {},
    "version": 1
  }
}