{
  "contractName": "Organisation",
  "abi": [
    {
      "inputs": [],
      "stateMutability": "nonpayable",
      "type": "constructor"
    },
    {
      "inputs": [],
      "name": "campaignCounter",
      "outputs": [
        {
          "internalType": "uint256",
          "name": "",
          "type": "uint256"
        }
      ],
      "stateMutability": "view",
      "type": "function",
      "constant": true
    },
    {
      "inputs": [
        {
          "internalType": "uint256",
          "name": "",
          "type": "uint256"
        }
      ],
      "name": "campaigns",
      "outputs": [
        {
          "internalType": "contract Campaign",
          "name": "",
          "type": "address"
        }
      ],
      "stateMutability": "view",
      "type": "function",
      "constant": true
    },
    {
      "inputs": [
        {
          "internalType": "address",
          "name": "",
          "type": "address"
        }
      ],
      "name": "members",
      "outputs": [
        {
          "internalType": "uint256",
          "name": "",
          "type": "uint256"
        }
      ],
      "stateMutability": "view",
      "type": "function",
      "constant": true
    },
    {
      "inputs": [],
      "name": "owner",
      "outputs": [
        {
          "internalType": "address",
          "name": "",
          "type": "address"
        }
      ],
      "stateMutability": "view",
      "type": "function",
      "constant": true
    },
    {
      "inputs": [
        {
          "internalType": "string",
          "name": "_name",
          "type": "string"
        },
        {
          "internalType": "uint256",
          "name": "_goal",
          "type": "uint256"
        }
      ],
      "name": "addCampaign",
      "outputs": [],
      "stateMutability": "nonpayable",
      "type": "function"
    },
    {
      "inputs": [
        {
          "internalType": "address",
          "name": "_member",
          "type": "address"
        }
      ],
      "name": "addMember",
      "outputs": [],
      "stateMutability": "nonpayable",
      "type": "function"
    }
  ],
  "bytecode": "0x608060405234801561001057600080fd5b5033600160006101000a81548173ffffffffffffffffffffffffffffffffffffffff021916908373ffffffffffffffffffffffffffffffffffffffff160217905550600160026000600160009054906101000a900473ffffffffffffffffffffffffffffffffffffffff1673ffffffffffffffffffffffffffffffffffffffff1673ffffffffffffffffffffffffffffffffffffffff16815260200190815260200160002081905550610fb4806100c86000396000f3fe608060405234801561001057600080fd5b50600436106100625760003560e01c806308ae4b0c146100675780630eb66687146100bf578063141961bc146101845780638da5cb5b146101dc578063ca6d56dc14610210578063fca604d714610254575b600080fd5b6100a96004803603602081101561007d57600080fd5b81019080803573ffffffffffffffffffffffffffffffffffffffff169060200190929190505050610272565b6040518082815260200191505060405180910390f35b610182600480360360408110156100d557600080fd5b81019080803590602001906401000000008111156100f257600080fd5b82018360208201111561010457600080fd5b8035906020019184600183028401116401000000008311171561012657600080fd5b91908080601f016020809104026020016040519081016040528093929190818152602001838380828437600081840152601f19601f8201169050808301925050505050505091929192908035906020019092919050505061028a565b005b6101b06004803603602081101561019a57600080fd5b81019080803590602001909291905050506103e8565b604051808273ffffffffffffffffffffffffffffffffffffffff16815260200191505060405180910390f35b6101e461041b565b604051808273ffffffffffffffffffffffffffffffffffffffff16815260200191505060405180910390f35b6102526004803603602081101561022657600080fd5b81019080803573ffffffffffffffffffffffffffffffffffffffff169060200190929190505050610441565b005b61025c6104e3565b6040518082815260200191505060405180910390f35b60026020528060005260406000206000915090505481565b6001600260003373ffffffffffffffffffffffffffffffffffffffff1673ffffffffffffffffffffffffffffffffffffffff16815260200190815260200160002054146102d657600080fd5b600080815480929190600101919050555060005482826040516102f8906104e9565b8084815260200180602001838152602001828103825284818151815260200191508051906020019080838360005b83811015610341578082015181840152602081019050610326565b50505050905090810190601f16801561036e5780820380516001836020036101000a031916815260200191505b50945050505050604051809103906000f080158015610391573d6000803e3d6000fd5b50600360008054815260200190815260200160002060006101000a81548173ffffffffffffffffffffffffffffffffffffffff021916908373ffffffffffffffffffffffffffffffffffffffff1602179055505050565b60036020528060005260406000206000915054906101000a900473ffffffffffffffffffffffffffffffffffffffff1681565b600160009054906101000a900473ffffffffffffffffffffffffffffffffffffffff1681565b3373ffffffffffffffffffffffffffffffffffffffff16600160009054906101000a900473ffffffffffffffffffffffffffffffffffffffff1673ffffffffffffffffffffffffffffffffffffffff161461049b57600080fd5b6001600260008373ffffffffffffffffffffffffffffffffffffffff1673ffffffffffffffffffffffffffffffffffffffff1681526020019081526020016000208190555050565b60005481565b610a88806104f78339019056fe60806040526000600760006101000a81548160ff02191690831515021790555034801561002b57600080fd5b50604051610a88380380610a888339818101604052606081101561004e57600080fd5b81019080805190602001909291908051604051939291908464010000000082111561007857600080fd5b8382019150602082018581111561008e57600080fd5b82518660018202830111640100000000821117156100ab57600080fd5b8083526020830192505050908051906020019080838360005b838110156100df5780820151818401526020810190506100c4565b50505050905090810190601f16801561010c5780820380516001836020036101000a031916815260200191505b506040526020018051906020019092919050505082600081905550816001908051906020019061013d929190610196565b5060006002819055508060038190555032600560006101000a81548173ffffffffffffffffffffffffffffffffffffffff021916908373ffffffffffffffffffffffffffffffffffffffff160217905550505050610241565b828054600181600116156101000203166002900490600052602060002090601f0160209004810192826101cc5760008555610213565b82601f106101e557805160ff1916838001178555610213565b82800160010185558215610213579182015b828111156102125782518255916020019190600101906101f7565b5b5090506102209190610224565b5090565b5b8082111561023d576000816000905550600101610225565b5090565b610838806102506000396000f3fe6080604052600436106100915760003560e01c8063bb66834e11610059578063bb66834e14610217578063bef4876b14610242578063dc0d3dff1461026f578063ed88c68e146102d4578063f00b03d2146102f457610091565b806306fdde0314610096578063401938831461012657806351cff8d9146101515780638da5cb5b146101ab578063af640d0f146101ec575b600080fd5b3480156100a257600080fd5b506100ab610359565b6040518080602001828103825283818151815260200191508051906020019080838360005b838110156100eb5780820151818401526020810190506100d0565b50505050905090810190601f1680156101185780820380516001836020036101000a031916815260200191505b509250505060405180910390f35b34801561013257600080fd5b5061013b6103f7565b6040518082815260200191505060405180910390f35b6101936004803603602081101561016757600080fd5b81019080803573ffffffffffffffffffffffffffffffffffffffff1690602001909291905050506103fd565b60405180821515815260200191505060405180910390f35b3480156101b757600080fd5b506101c0610502565b604051808273ffffffffffffffffffffffffffffffffffffffff16815260200191505060405180910390f35b3480156101f857600080fd5b50610201610528565b6040518082815260200191505060405180910390f35b34801561022357600080fd5b5061022c61052e565b6040518082815260200191505060405180910390f35b34801561024e57600080fd5b50610257610534565b60405180821515815260200191505060405180910390f35b34801561027b57600080fd5b506102a86004803603602081101561029257600080fd5b8101908080359060200190929190505050610547565b604051808273ffffffffffffffffffffffffffffffffffffffff16815260200191505060405180910390f35b6102dc610586565b60405180821515815260200191505060405180910390f35b34801561030057600080fd5b506103436004803603602081101561031757600080fd5b81019080803573ffffffffffffffffffffffffffffffffffffffff1690602001909291905050506107ea565b6040518082815260200191505060405180910390f35b60018054600181600116156101000203166002900480601f0160208091040260200160405190810160405280929190818152602001828054600181600116156101000203166002900480156103ef5780601f106103c4576101008083540402835291602001916103ef565b820191906000526020600020905b8154815290600101906020018083116103d257829003601f168201915b505050505081565b60035481565b6000600560009054906101000a900473ffffffffffffffffffffffffffffffffffffffff1673ffffffffffffffffffffffffffffffffffffffff168273ffffffffffffffffffffffffffffffffffffffff161480156104a95750600560009054906101000a900473ffffffffffffffffffffffffffffffffffffffff1673ffffffffffffffffffffffffffffffffffffffff163373ffffffffffffffffffffffffffffffffffffffff16145b6104b257600080fd5b8173ffffffffffffffffffffffffffffffffffffffff166108fc479081150290604051600060405180830381858888f193505050501580156104f8573d6000803e3d6000fd5b5060019050919050565b600560009054906101000a900473ffffffffffffffffffffffffffffffffffffffff1681565b60005481565b60025481565b600760009054906101000a900460ff1681565b6004818154811061055757600080fd5b906000526020600020016000915054906101000a900473ffffffffffffffffffffffffffffffffffffffff1681565b6000343273ffffffffffffffffffffffffffffffffffffffff163110156105b057600090506107e7565b3460026000828254019250508190555034600660003373ffffffffffffffffffffffffffffffffffffffff1673ffffffffffffffffffffffffffffffffffffffff168152602001908152602001600020600082825401925050819055506004329080600181540180825580915050600190039060005260206000200160009091909190916101000a81548173ffffffffffffffffffffffffffffffffffffffff021916908373ffffffffffffffffffffffffffffffffffffffff160217905550600354600254106107e2577f5b110612d85522d35d519fa9da02750d715661f0de0073f62f0fa5a6a656455e6002546000546001600460405180858152602001848152602001806020018060200183810383528581815460018160011615610100020316600290048152602001915080546001816001161561010002031660029004801561073f5780601f106107145761010080835404028352916020019161073f565b820191906000526020600020905b81548152906001019060200180831161072257829003601f168201915b505083810382528481815481526020019150805480156107b457602002820191906000526020600020905b8160009054906101000a900473ffffffffffffffffffffffffffffffffffffffff1673ffffffffffffffffffffffffffffffffffffffff168152602001906001019080831161076a575b5050965050505050505060405180910390a16001600760006101000a81548160ff0219169083151502179055505b600190505b90565b6006602052806000526040600020600091509050548156fea2646970667358221220bd78a1557aed59edd8f7100657156a6b57a3cbd95fafc4404d6a15481f25299264736f6c63430007060033a26469706673582212204731d8441309917f9397adc5f190e67bff8ad4d862c0bcdb866bfb0837e4227264736f6c63430007060033",
  "immutableReferences": {},
  "source": "pragma solidity >=0.7.0 <0.9.0;\n\nimport \"./1_Campaign.sol\";\n\ncontract Organisation {\n    \n    uint public campaignCounter;\n    address public owner;\n    mapping(address => uint) public members;\n    mapping(uint => Campaign) public campaigns;\n    \n    constructor(){\n        owner = msg.sender;\n        members[owner] = 1;\n    }\n    \n    \n    function addCampaign(string memory _name, uint _goal) public {\n        require(members[msg.sender] == 1);\n        campaignCounter ++;\n        campaigns[campaignCounter] = new Campaign(campaignCounter, _name, _goal);\n    }\n    \n    function addMember(address _member) public {\n        require(owner == msg.sender);\n        members[_member] = 1;\n    }\n}",
  "sourcePath": "/Users/Lara/FER/Web3.0/challenge1/eth-dapp/truffle project/contracts/2_Organisation.sol",
  "compiler": {
    "name": "solc",
    "version": "0.7.6+commit.7338295f.Emscripten.clang"
  },
  "schemaVersion": "3.2.3",
  "updatedAt": "2021-07-24T15:02:16.221Z",
  "networkType": "ethereum",
  "devdoc": {
    "kind": "dev",
    "methods": {},
    "version": 1
  },
  "userdoc": {
    "kind": "user",
    "methods": {},
    "version": 1
  }
}