{
  "contractName": "Organisation",
  "abi": [
    {
      "inputs": [],
      "stateMutability": "nonpayable",
      "type": "constructor"
    },
    {
      "inputs": [],
      "name": "campaignCounter",
      "outputs": [
        {
          "internalType": "uint256",
          "name": "",
          "type": "uint256"
        }
      ],
      "stateMutability": "view",
      "type": "function"
    },
    {
      "inputs": [
        {
          "internalType": "uint256",
          "name": "",
          "type": "uint256"
        }
      ],
      "name": "campaigns",
      "outputs": [
        {
          "internalType": "contract Campaign",
          "name": "",
          "type": "address"
        }
      ],
      "stateMutability": "view",
      "type": "function"
    },
    {
      "inputs": [
        {
          "internalType": "address",
          "name": "",
          "type": "address"
        }
      ],
      "name": "members",
      "outputs": [
        {
          "internalType": "uint256",
          "name": "",
          "type": "uint256"
        }
      ],
      "stateMutability": "view",
      "type": "function"
    },
    {
      "inputs": [],
      "name": "owner",
      "outputs": [
        {
          "internalType": "address",
          "name": "",
          "type": "address"
        }
      ],
      "stateMutability": "view",
      "type": "function"
    },
    {
      "inputs": [
        {
          "internalType": "string",
          "name": "_name",
          "type": "string"
        },
        {
          "internalType": "uint256",
          "name": "_goal",
          "type": "uint256"
        }
      ],
      "name": "addCampaign",
      "outputs": [],
      "stateMutability": "nonpayable",
      "type": "function"
    },
    {
      "inputs": [
        {
          "internalType": "address",
          "name": "_member",
          "type": "address"
        }
      ],
      "name": "addMember",
      "outputs": [],
      "stateMutability": "nonpayable",
      "type": "function"
    }
  ],
  "bytecode": "0x608060405234801561001057600080fd5b5033600160006101000a81548173ffffffffffffffffffffffffffffffffffffffff021916908373ffffffffffffffffffffffffffffffffffffffff160217905550600160026000600160009054906101000a900473ffffffffffffffffffffffffffffffffffffffff1673ffffffffffffffffffffffffffffffffffffffff1673ffffffffffffffffffffffffffffffffffffffff16815260200190815260200160002081905550610f10806100c86000396000f3fe608060405234801561001057600080fd5b50600436106100625760003560e01c806308ae4b0c146100675780630eb66687146100bf578063141961bc146101845780638da5cb5b146101dc578063ca6d56dc14610210578063fca604d714610254575b600080fd5b6100a96004803603602081101561007d57600080fd5b81019080803573ffffffffffffffffffffffffffffffffffffffff169060200190929190505050610272565b6040518082815260200191505060405180910390f35b610182600480360360408110156100d557600080fd5b81019080803590602001906401000000008111156100f257600080fd5b82018360208201111561010457600080fd5b8035906020019184600183028401116401000000008311171561012657600080fd5b91908080601f016020809104026020016040519081016040528093929190818152602001838380828437600081840152601f19601f8201169050808301925050505050505091929192908035906020019092919050505061028a565b005b6101b06004803603602081101561019a57600080fd5b81019080803590602001909291905050506103e8565b604051808273ffffffffffffffffffffffffffffffffffffffff16815260200191505060405180910390f35b6101e461041b565b604051808273ffffffffffffffffffffffffffffffffffffffff16815260200191505060405180910390f35b6102526004803603602081101561022657600080fd5b81019080803573ffffffffffffffffffffffffffffffffffffffff169060200190929190505050610441565b005b61025c6104e3565b6040518082815260200191505060405180910390f35b60026020528060005260406000206000915090505481565b6001600260003373ffffffffffffffffffffffffffffffffffffffff1673ffffffffffffffffffffffffffffffffffffffff16815260200190815260200160002054146102d657600080fd5b600080815480929190600101919050555060005482826040516102f8906104e9565b8084815260200180602001838152602001828103825284818151815260200191508051906020019080838360005b83811015610341578082015181840152602081019050610326565b50505050905090810190601f16801561036e5780820380516001836020036101000a031916815260200191505b50945050505050604051809103906000f080158015610391573d6000803e3d6000fd5b50600360008054815260200190815260200160002060006101000a81548173ffffffffffffffffffffffffffffffffffffffff021916908373ffffffffffffffffffffffffffffffffffffffff1602179055505050565b60036020528060005260406000206000915054906101000a900473ffffffffffffffffffffffffffffffffffffffff1681565b600160009054906101000a900473ffffffffffffffffffffffffffffffffffffffff1681565b3373ffffffffffffffffffffffffffffffffffffffff16600160009054906101000a900473ffffffffffffffffffffffffffffffffffffffff1673ffffffffffffffffffffffffffffffffffffffff161461049b57600080fd5b6001600260008373ffffffffffffffffffffffffffffffffffffffff1673ffffffffffffffffffffffffffffffffffffffff1681526020019081526020016000208190555050565b60005481565b6109e4806104f78339019056fe60806040526000600760006101000a81548160ff02191690831515021790555034801561002b57600080fd5b506040516109e43803806109e48339818101604052606081101561004e57600080fd5b81019080805190602001909291908051604051939291908464010000000082111561007857600080fd5b8382019150602082018581111561008e57600080fd5b82518660018202830111640100000000821117156100ab57600080fd5b8083526020830192505050908051906020019080838360005b838110156100df5780820151818401526020810190506100c4565b50505050905090810190601f16801561010c5780820380516001836020036101000a031916815260200191505b506040526020018051906020019092919050505082600081905550816001908051906020019061013d929190610196565b5060006002819055508060038190555033600560006101000a81548173ffffffffffffffffffffffffffffffffffffffff021916908373ffffffffffffffffffffffffffffffffffffffff160217905550505050610241565b828054600181600116156101000203166002900490600052602060002090601f0160209004810192826101cc5760008555610213565b82601f106101e557805160ff1916838001178555610213565b82800160010185558215610213579182015b828111156102125782518255916020019190600101906101f7565b5b5090506102209190610224565b5090565b5b8082111561023d576000816000905550600101610225565b5090565b610794806102506000396000f3fe6080604052600436106100865760003560e01c8063af640d0f11610059578063af640d0f146101e1578063bb66834e1461020c578063dc0d3dff14610237578063ed88c68e1461029c578063f00b03d2146102bc57610086565b806306fdde031461008b578063401938831461011b57806351cff8d9146101465780638da5cb5b146101a0575b600080fd5b34801561009757600080fd5b506100a0610321565b6040518080602001828103825283818151815260200191508051906020019080838360005b838110156100e05780820151818401526020810190506100c5565b50505050905090810190601f16801561010d5780820380516001836020036101000a031916815260200191505b509250505060405180910390f35b34801561012757600080fd5b506101306103bf565b6040518082815260200191505060405180910390f35b6101886004803603602081101561015c57600080fd5b81019080803573ffffffffffffffffffffffffffffffffffffffff1690602001909291905050506103c5565b60405180821515815260200191505060405180910390f35b3480156101ac57600080fd5b506101b5610471565b604051808273ffffffffffffffffffffffffffffffffffffffff16815260200191505060405180910390f35b3480156101ed57600080fd5b506101f6610497565b6040518082815260200191505060405180910390f35b34801561021857600080fd5b5061022161049d565b6040518082815260200191505060405180910390f35b34801561024357600080fd5b506102706004803603602081101561025a57600080fd5b81019080803590602001909291905050506104a3565b604051808273ffffffffffffffffffffffffffffffffffffffff16815260200191505060405180910390f35b6102a46104e2565b60405180821515815260200191505060405180910390f35b3480156102c857600080fd5b5061030b600480360360208110156102df57600080fd5b81019080803573ffffffffffffffffffffffffffffffffffffffff169060200190929190505050610746565b6040518082815260200191505060405180910390f35b60018054600181600116156101000203166002900480601f0160208091040260200160405190810160405280929190818152602001828054600181600116156101000203166002900480156103b75780601f1061038c576101008083540402835291602001916103b7565b820191906000526020600020905b81548152906001019060200180831161039a57829003601f168201915b505050505081565b60035481565b6000600560009054906101000a900473ffffffffffffffffffffffffffffffffffffffff1673ffffffffffffffffffffffffffffffffffffffff168273ffffffffffffffffffffffffffffffffffffffff161461042157600080fd5b8173ffffffffffffffffffffffffffffffffffffffff166108fc479081150290604051600060405180830381858888f19350505050158015610467573d6000803e3d6000fd5b5060019050919050565b600560009054906101000a900473ffffffffffffffffffffffffffffffffffffffff1681565b60005481565b60025481565b600481815481106104b357600080fd5b906000526020600020016000915054906101000a900473ffffffffffffffffffffffffffffffffffffffff1681565b6000343273ffffffffffffffffffffffffffffffffffffffff1631101561050c5760009050610743565b3460026000828254019250508190555034600660003373ffffffffffffffffffffffffffffffffffffffff1673ffffffffffffffffffffffffffffffffffffffff168152602001908152602001600020600082825401925050819055506004329080600181540180825580915050600190039060005260206000200160009091909190916101000a81548173ffffffffffffffffffffffffffffffffffffffff021916908373ffffffffffffffffffffffffffffffffffffffff1602179055506003546002541061073e577f5b110612d85522d35d519fa9da02750d715661f0de0073f62f0fa5a6a656455e6002546000546001600460405180858152602001848152602001806020018060200183810383528581815460018160011615610100020316600290048152602001915080546001816001161561010002031660029004801561069b5780601f106106705761010080835404028352916020019161069b565b820191906000526020600020905b81548152906001019060200180831161067e57829003601f168201915b5050838103825284818154815260200191508054801561071057602002820191906000526020600020905b8160009054906101000a900473ffffffffffffffffffffffffffffffffffffffff1673ffffffffffffffffffffffffffffffffffffffff16815260200190600101908083116106c6575b5050965050505050505060405180910390a16001600760006101000a81548160ff0219169083151502179055505b600190505b90565b6006602052806000526040600020600091509050548156fea264697066735822122030bdc1bab5df5de7b544c5006328c2bfd6f5b461e78f5cefbfb8626b4e4d13b564736f6c63430007060033a26469706673582212207241a5b9c9678b959d6e8650efc5ba9214510728774edb3e146dca2ca905bc7064736f6c63430007060033",
  "immutableReferences": {},
  "source": "pragma solidity >=0.7.0 <0.9.0;\n\nimport \"./1_Campaign.sol\";\n\ncontract Organisation {\n    \n    uint public campaignCounter;\n    address public owner;\n    mapping(address => uint) public members;\n    mapping(uint => Campaign) public campaigns;\n    \n    constructor(){\n        owner = msg.sender;\n        members[owner] = 1;\n    }\n    \n    \n    function addCampaign(string memory _name, uint _goal) public {\n        require(members[msg.sender] == 1);\n        campaignCounter ++;\n        campaigns[campaignCounter] = new Campaign(campaignCounter, _name, _goal);\n    }\n    \n    function addMember(address _member) public {\n        require(owner == msg.sender);\n        members[_member] = 1;\n    }\n}",
  "sourcePath": "/Users/Lara/FER/Web3.0/challenge1/eth-dapp/truffle project/contracts/2_Organisation.sol",
  "compiler": {
    "name": "solc",
    "version": "0.7.6+commit.7338295f.Emscripten.clang"
  },
  "schemaVersion": "3.2.3",
  "updatedAt": "2021-07-24T11:48:16.309Z",
  "devdoc": {
    "kind": "dev",
    "methods": {},
    "version": 1
  },
  "userdoc": {
    "kind": "user",
    "methods": {},
    "version": 1
  }
}