{
  "contractName": "Organisation",
  "abi": [
    {
      "inputs": [],
      "stateMutability": "nonpayable",
      "type": "constructor"
    },
    {
      "inputs": [],
      "name": "campaignCounter",
      "outputs": [
        {
          "internalType": "uint256",
          "name": "",
          "type": "uint256"
        }
      ],
      "stateMutability": "view",
      "type": "function",
      "constant": true
    },
    {
      "inputs": [
        {
          "internalType": "uint256",
          "name": "",
          "type": "uint256"
        }
      ],
      "name": "campaigns",
      "outputs": [
        {
          "internalType": "contract Campaign",
          "name": "",
          "type": "address"
        }
      ],
      "stateMutability": "view",
      "type": "function",
      "constant": true
    },
    {
      "inputs": [
        {
          "internalType": "address",
          "name": "",
          "type": "address"
        }
      ],
      "name": "members",
      "outputs": [
        {
          "internalType": "uint256",
          "name": "",
          "type": "uint256"
        }
      ],
      "stateMutability": "view",
      "type": "function",
      "constant": true
    },
    {
      "inputs": [],
      "name": "owner",
      "outputs": [
        {
          "internalType": "address",
          "name": "",
          "type": "address"
        }
      ],
      "stateMutability": "view",
      "type": "function",
      "constant": true
    },
    {
      "inputs": [
        {
          "internalType": "string",
          "name": "_name",
          "type": "string"
        },
        {
          "internalType": "uint256",
          "name": "_goal",
          "type": "uint256"
        },
        {
          "internalType": "string",
          "name": "_description",
          "type": "string"
        }
      ],
      "name": "addCampaign",
      "outputs": [],
      "stateMutability": "nonpayable",
      "type": "function"
    },
    {
      "inputs": [
        {
          "internalType": "address",
          "name": "_member",
          "type": "address"
        }
      ],
      "name": "addMember",
      "outputs": [],
      "stateMutability": "nonpayable",
      "type": "function"
    }
  ],
  "bytecode": "0x608060405234801561001057600080fd5b5033600160006101000a81548173ffffffffffffffffffffffffffffffffffffffff021916908373ffffffffffffffffffffffffffffffffffffffff160217905550600160026000600160009054906101000a900473ffffffffffffffffffffffffffffffffffffffff1673ffffffffffffffffffffffffffffffffffffffff1673ffffffffffffffffffffffffffffffffffffffff168152602001908152602001600020819055506112e7806100c86000396000f3fe608060405234801561001057600080fd5b50600436106100625760003560e01c806308ae4b0c14610067578063141961bc146100bf5780638da5cb5b14610117578063c1e6bcf61461014b578063ca6d56dc146102a7578063fca604d7146102eb575b600080fd5b6100a96004803603602081101561007d57600080fd5b81019080803573ffffffffffffffffffffffffffffffffffffffff169060200190929190505050610309565b6040518082815260200191505060405180910390f35b6100eb600480360360208110156100d557600080fd5b8101908080359060200190929190505050610321565b604051808273ffffffffffffffffffffffffffffffffffffffff16815260200191505060405180910390f35b61011f610354565b604051808273ffffffffffffffffffffffffffffffffffffffff16815260200191505060405180910390f35b6102a56004803603606081101561016157600080fd5b810190808035906020019064010000000081111561017e57600080fd5b82018360208201111561019057600080fd5b803590602001918460018302840111640100000000831117156101b257600080fd5b91908080601f016020809104026020016040519081016040528093929190818152602001838380828437600081840152601f19601f820116905080830192505050505050509192919290803590602001909291908035906020019064010000000081111561021f57600080fd5b82018360208201111561023157600080fd5b8035906020019184600183028401116401000000008311171561025357600080fd5b91908080601f016020809104026020016040519081016040528093929190818152602001838380828437600081840152601f19601f82011690508083019250505050505050919291929050505061037a565b005b6102e9600480360360208110156102bd57600080fd5b81019080803573ffffffffffffffffffffffffffffffffffffffff169060200190929190505050610546565b005b6102f36105e8565b6040518082815260200191505060405180910390f35b60026020528060005260406000206000915090505481565b60036020528060005260406000206000915054906101000a900473ffffffffffffffffffffffffffffffffffffffff1681565b600160009054906101000a900473ffffffffffffffffffffffffffffffffffffffff1681565b6001600260003373ffffffffffffffffffffffffffffffffffffffff1673ffffffffffffffffffffffffffffffffffffffff16815260200190815260200160002054146103c657600080fd5b60008081548092919060010191905055506000548383836040516103e9906105ee565b808581526020018060200184815260200180602001838103835286818151815260200191508051906020019080838360005b8381101561043657808201518184015260208101905061041b565b50505050905090810190601f1680156104635780820380516001836020036101000a031916815260200191505b50838103825284818151815260200191508051906020019080838360005b8381101561049c578082015181840152602081019050610481565b50505050905090810190601f1680156104c95780820380516001836020036101000a031916815260200191505b509650505050505050604051809103906000f0801580156104ee573d6000803e3d6000fd5b50600360008054815260200190815260200160002060006101000a81548173ffffffffffffffffffffffffffffffffffffffff021916908373ffffffffffffffffffffffffffffffffffffffff160217905550505050565b3373ffffffffffffffffffffffffffffffffffffffff16600160009054906101000a900473ffffffffffffffffffffffffffffffffffffffff1673ffffffffffffffffffffffffffffffffffffffff16146105a057600080fd5b6001600260008373ffffffffffffffffffffffffffffffffffffffff1673ffffffffffffffffffffffffffffffffffffffff1681526020019081526020016000208190555050565b60005481565b610cb6806105fc8339019056fe60806040526000600760006101000a81548160ff0219169083151502179055503480156200002c57600080fd5b5060405162000cb638038062000cb6833981810160405260808110156200005257600080fd5b8101908080519060200190929190805160405193929190846401000000008211156200007d57600080fd5b838201915060208201858111156200009457600080fd5b8251866001820283011164010000000082111715620000b257600080fd5b8083526020830192505050908051906020019080838360005b83811015620000e8578082015181840152602081019050620000cb565b50505050905090810190601f168015620001165780820380516001836020036101000a031916815260200191505b5060405260200180519060200190929190805160405193929190846401000000008211156200014457600080fd5b838201915060208201858111156200015b57600080fd5b82518660018202830111640100000000821117156200017957600080fd5b8083526020830192505050908051906020019080838360005b83811015620001af57808201518184015260208101905062000192565b50505050905090810190601f168015620001dd5780820380516001836020036101000a031916815260200191505b506040525050508360008190555082600190805190602001906200020392919062000277565b5060006002819055508160038190555080600890805190602001906200022b92919062000277565b5032600560006101000a81548173ffffffffffffffffffffffffffffffffffffffff021916908373ffffffffffffffffffffffffffffffffffffffff160217905550505050506200032d565b828054600181600116156101000203166002900490600052602060002090601f016020900481019282620002af5760008555620002fb565b82601f10620002ca57805160ff1916838001178555620002fb565b82800160010185558215620002fb579182015b82811115620002fa578251825591602001919060010190620002dd565b5b5090506200030a91906200030e565b5090565b5b80821115620003295760008160009055506001016200030f565b5090565b610979806200033d6000396000f3fe60806040526004361061009c5760003560e01c8063af640d0f11610064578063af640d0f14610287578063bb66834e146102b2578063bef4876b146102dd578063dc0d3dff1461030a578063ed88c68e1461036f578063f00b03d21461038f5761009c565b806306fdde03146100a1578063401938831461013157806351cff8d91461015c5780637284e416146101b65780638da5cb5b14610246575b600080fd5b3480156100ad57600080fd5b506100b66103f4565b6040518080602001828103825283818151815260200191508051906020019080838360005b838110156100f65780820151818401526020810190506100db565b50505050905090810190601f1680156101235780820380516001836020036101000a031916815260200191505b509250505060405180910390f35b34801561013d57600080fd5b50610146610492565b6040518082815260200191505060405180910390f35b61019e6004803603602081101561017257600080fd5b81019080803573ffffffffffffffffffffffffffffffffffffffff169060200190929190505050610498565b60405180821515815260200191505060405180910390f35b3480156101c257600080fd5b506101cb6105a5565b6040518080602001828103825283818151815260200191508051906020019080838360005b8381101561020b5780820151818401526020810190506101f0565b50505050905090810190601f1680156102385780820380516001836020036101000a031916815260200191505b509250505060405180910390f35b34801561025257600080fd5b5061025b610643565b604051808273ffffffffffffffffffffffffffffffffffffffff16815260200191505060405180910390f35b34801561029357600080fd5b5061029c610669565b6040518082815260200191505060405180910390f35b3480156102be57600080fd5b506102c761066f565b6040518082815260200191505060405180910390f35b3480156102e957600080fd5b506102f2610675565b60405180821515815260200191505060405180910390f35b34801561031657600080fd5b506103436004803603602081101561032d57600080fd5b8101908080359060200190929190505050610688565b604051808273ffffffffffffffffffffffffffffffffffffffff16815260200191505060405180910390f35b6103776106c7565b60405180821515815260200191505060405180910390f35b34801561039b57600080fd5b506103de600480360360208110156103b257600080fd5b81019080803573ffffffffffffffffffffffffffffffffffffffff16906020019092919050505061092b565b6040518082815260200191505060405180910390f35b60018054600181600116156101000203166002900480601f01602080910402602001604051908101604052809291908181526020018280546001816001161561010002031660029004801561048a5780601f1061045f5761010080835404028352916020019161048a565b820191906000526020600020905b81548152906001019060200180831161046d57829003601f168201915b505050505081565b60035481565b6000600560009054906101000a900473ffffffffffffffffffffffffffffffffffffffff1673ffffffffffffffffffffffffffffffffffffffff168273ffffffffffffffffffffffffffffffffffffffff161480156105445750600560009054906101000a900473ffffffffffffffffffffffffffffffffffffffff1673ffffffffffffffffffffffffffffffffffffffff163373ffffffffffffffffffffffffffffffffffffffff16145b61054d57600080fd5b8173ffffffffffffffffffffffffffffffffffffffff166108fc479081150290604051600060405180830381858888f19350505050158015610593573d6000803e3d6000fd5b50600060028190555060019050919050565b60088054600181600116156101000203166002900480601f01602080910402602001604051908101604052809291908181526020018280546001816001161561010002031660029004801561063b5780601f106106105761010080835404028352916020019161063b565b820191906000526020600020905b81548152906001019060200180831161061e57829003601f168201915b505050505081565b600560009054906101000a900473ffffffffffffffffffffffffffffffffffffffff1681565b60005481565b60025481565b600760009054906101000a900460ff1681565b6004818154811061069857600080fd5b906000526020600020016000915054906101000a900473ffffffffffffffffffffffffffffffffffffffff1681565b6000343273ffffffffffffffffffffffffffffffffffffffff163110156106f15760009050610928565b3460026000828254019250508190555034600660003373ffffffffffffffffffffffffffffffffffffffff1673ffffffffffffffffffffffffffffffffffffffff168152602001908152602001600020600082825401925050819055506004329080600181540180825580915050600190039060005260206000200160009091909190916101000a81548173ffffffffffffffffffffffffffffffffffffffff021916908373ffffffffffffffffffffffffffffffffffffffff16021790555060035460025410610923577f5b110612d85522d35d519fa9da02750d715661f0de0073f62f0fa5a6a656455e600254600054600160046040518085815260200184815260200180602001806020018381038352858181546001816001161561010002031660029004815260200191508054600181600116156101000203166002900480156108805780601f1061085557610100808354040283529160200191610880565b820191906000526020600020905b81548152906001019060200180831161086357829003601f168201915b505083810382528481815481526020019150805480156108f557602002820191906000526020600020905b8160009054906101000a900473ffffffffffffffffffffffffffffffffffffffff1673ffffffffffffffffffffffffffffffffffffffff16815260200190600101908083116108ab575b5050965050505050505060405180910390a16001600760006101000a81548160ff0219169083151502179055505b600190505b90565b6006602052806000526040600020600091509050548156fea26469706673582212202e596216145d3cff46be1a4e594b78525d69d936b6d148b593d10cd138d70dd464736f6c63430007060033a2646970667358221220df59ec18c873e830934245c9ad293fded171fa5faf9e5a953042e7eafcd77d1d64736f6c63430007060033",
  "immutableReferences": {},
  "source": "pragma solidity >=0.7.0 <0.9.0;\n\nimport \"./1_Campaign.sol\";\n\ncontract Organisation {\n    \n    uint public campaignCounter;\n    address public owner;\n    mapping(address => uint) public members;\n    mapping(uint => Campaign) public campaigns;\n    \n    constructor(){\n        owner = msg.sender;\n        members[owner] = 1;\n    }\n    \n    \n    function addCampaign(string memory _name, uint _goal, string memory _description) public {\n        require(members[msg.sender] == 1);\n        campaignCounter ++;\n        campaigns[campaignCounter] = new Campaign(campaignCounter, _name, _goal, _description);\n    }\n    \n    function addMember(address _member) public {\n        require(owner == msg.sender);\n        members[_member] = 1;\n    }\n}",
  "sourcePath": "/Users/Lara/FER/Web3.0/challenge1/eth-dapp/truffle project/contracts/2_Organisation.sol",
  "compiler": {
    "name": "solc",
    "version": "0.7.6+commit.7338295f.Emscripten.clang"
  },
  "schemaVersion": "3.2.3",
  "updatedAt": "2021-07-26T11:18:36.235Z",
  "networkType": "ethereum",
  "devdoc": {
    "kind": "dev",
    "methods": {},
    "version": 1
  },
  "userdoc": {
    "kind": "user",
    "methods": {},
    "version": 1
  }
}