{
  "contractName": "Organisation",
  "abi": [
    {
      "inputs": [],
      "stateMutability": "nonpayable",
      "type": "constructor"
    },
    {
      "inputs": [],
      "name": "campaignCounter",
      "outputs": [
        {
          "internalType": "uint256",
          "name": "",
          "type": "uint256"
        }
      ],
      "stateMutability": "view",
      "type": "function",
      "constant": true
    },
    {
      "inputs": [
        {
          "internalType": "uint256",
          "name": "",
          "type": "uint256"
        }
      ],
      "name": "campaigns",
      "outputs": [
        {
          "internalType": "contract Campaign",
          "name": "",
          "type": "address"
        }
      ],
      "stateMutability": "view",
      "type": "function",
      "constant": true
    },
    {
      "inputs": [
        {
          "internalType": "address",
          "name": "",
          "type": "address"
        }
      ],
      "name": "members",
      "outputs": [
        {
          "internalType": "uint256",
          "name": "",
          "type": "uint256"
        }
      ],
      "stateMutability": "view",
      "type": "function",
      "constant": true
    },
    {
      "inputs": [],
      "name": "owner",
      "outputs": [
        {
          "internalType": "address",
          "name": "",
          "type": "address"
        }
      ],
      "stateMutability": "view",
      "type": "function",
      "constant": true
    },
    {
      "inputs": [
        {
          "internalType": "string",
          "name": "_name",
          "type": "string"
        },
        {
          "internalType": "uint256",
          "name": "_goal",
          "type": "uint256"
        },
        {
          "internalType": "string",
          "name": "_description",
          "type": "string"
        }
      ],
      "name": "addCampaign",
      "outputs": [],
      "stateMutability": "nonpayable",
      "type": "function"
    },
    {
      "inputs": [
        {
          "internalType": "address",
          "name": "_member",
          "type": "address"
        }
      ],
      "name": "addMember",
      "outputs": [],
      "stateMutability": "nonpayable",
      "type": "function"
    }
  ],
  "bytecode": "0x608060405234801561001057600080fd5b5033600160006101000a81548173ffffffffffffffffffffffffffffffffffffffff021916908373ffffffffffffffffffffffffffffffffffffffff160217905550600160026000600160009054906101000a900473ffffffffffffffffffffffffffffffffffffffff1673ffffffffffffffffffffffffffffffffffffffff1673ffffffffffffffffffffffffffffffffffffffff16815260200190815260200160002081905550611952806100c86000396000f3fe608060405234801561001057600080fd5b50600436106100625760003560e01c806308ae4b0c14610067578063141961bc146100bf5780638da5cb5b14610117578063c1e6bcf61461014b578063ca6d56dc146102a7578063fca604d7146102eb575b600080fd5b6100a96004803603602081101561007d57600080fd5b81019080803573ffffffffffffffffffffffffffffffffffffffff169060200190929190505050610309565b6040518082815260200191505060405180910390f35b6100eb600480360360208110156100d557600080fd5b8101908080359060200190929190505050610321565b604051808273ffffffffffffffffffffffffffffffffffffffff16815260200191505060405180910390f35b61011f610354565b604051808273ffffffffffffffffffffffffffffffffffffffff16815260200191505060405180910390f35b6102a56004803603606081101561016157600080fd5b810190808035906020019064010000000081111561017e57600080fd5b82018360208201111561019057600080fd5b803590602001918460018302840111640100000000831117156101b257600080fd5b91908080601f016020809104026020016040519081016040528093929190818152602001838380828437600081840152601f19601f820116905080830192505050505050509192919290803590602001909291908035906020019064010000000081111561021f57600080fd5b82018360208201111561023157600080fd5b8035906020019184600183028401116401000000008311171561025357600080fd5b91908080601f016020809104026020016040519081016040528093929190818152602001838380828437600081840152601f19601f82011690508083019250505050505050919291929050505061037a565b005b6102e9600480360360208110156102bd57600080fd5b81019080803573ffffffffffffffffffffffffffffffffffffffff169060200190929190505050610546565b005b6102f36105e8565b6040518082815260200191505060405180910390f35b60026020528060005260406000206000915090505481565b60036020528060005260406000206000915054906101000a900473ffffffffffffffffffffffffffffffffffffffff1681565b600160009054906101000a900473ffffffffffffffffffffffffffffffffffffffff1681565b6001600260003373ffffffffffffffffffffffffffffffffffffffff1673ffffffffffffffffffffffffffffffffffffffff16815260200190815260200160002054146103c657600080fd5b60008081548092919060010191905055506000548383836040516103e9906105ee565b808581526020018060200184815260200180602001838103835286818151815260200191508051906020019080838360005b8381101561043657808201518184015260208101905061041b565b50505050905090810190601f1680156104635780820380516001836020036101000a031916815260200191505b50838103825284818151815260200191508051906020019080838360005b8381101561049c578082015181840152602081019050610481565b50505050905090810190601f1680156104c95780820380516001836020036101000a031916815260200191505b509650505050505050604051809103906000f0801580156104ee573d6000803e3d6000fd5b50600360008054815260200190815260200160002060006101000a81548173ffffffffffffffffffffffffffffffffffffffff021916908373ffffffffffffffffffffffffffffffffffffffff160217905550505050565b3373ffffffffffffffffffffffffffffffffffffffff16600160009054906101000a900473ffffffffffffffffffffffffffffffffffffffff1673ffffffffffffffffffffffffffffffffffffffff16146105a057600080fd5b6001600260008373ffffffffffffffffffffffffffffffffffffffff1673ffffffffffffffffffffffffffffffffffffffff1681526020019081526020016000208190555050565b60005481565b611321806105fc8339019056fe60806040526000600760006101000a81548160ff0219169083151502179055503480156200002c57600080fd5b506040516200132138038062001321833981810160405281019062000052919062000224565b83600081905550826001908051906020019062000071929190620000e5565b50600060028190555081600381905550806008908051906020019062000099929190620000e5565b5032600560006101000a81548173ffffffffffffffffffffffffffffffffffffffff021916908373ffffffffffffffffffffffffffffffffffffffff1602179055505050505062000385565b828054600181600116156101000203166002900490600052602060002090601f0160209004810192826200011d576000855562000169565b82601f106200013857805160ff191683800117855562000169565b8280016001018555821562000169579182015b82811115620001685782518255916020019190600101906200014b565b5b5090506200017891906200017c565b5090565b5b80821115620001975760008160009055506001016200017d565b5090565b6000620001b2620001ac84620002f6565b620002c2565b905082815260208101848484011115620001cb57600080fd5b620001d884828562000333565b509392505050565b600082601f830112620001f257600080fd5b8151620002048482602086016200019b565b91505092915050565b6000815190506200021e816200036b565b92915050565b600080600080608085870312156200023b57600080fd5b60006200024b878288016200020d565b945050602085015167ffffffffffffffff8111156200026957600080fd5b6200027787828801620001e0565b93505060406200028a878288016200020d565b925050606085015167ffffffffffffffff811115620002a857600080fd5b620002b687828801620001e0565b91505092959194509250565b6000604051905081810181811067ffffffffffffffff82111715620002ec57620002eb62000369565b5b8060405250919050565b600067ffffffffffffffff82111562000314576200031362000369565b5b601f19601f8301169050602081019050919050565b6000819050919050565b60005b838110156200035357808201518184015260208101905062000336565b8381111562000363576000848401525b50505050565bfe5b620003768162000329565b81146200038257600080fd5b50565b610f8c80620003956000396000f3fe6080604052600436106100c25760003560e01c8063af640d0f1161007f578063bef4876b11610059578063bef4876b14610266578063dc0d3dff14610291578063dec97828146102ce578063f00b03d2146102f9576100c2565b8063af640d0f146101e0578063b5aebc801461020b578063bb66834e1461023b576100c2565b806306fdde03146100c75780632fdef9c3146100f2578063401938831461012f57806351cff8d91461015a5780637284e4161461018a5780638da5cb5b146101b5575b600080fd5b3480156100d357600080fd5b506100dc610336565b6040516100e99190610ce3565b60405180910390f35b3480156100fe57600080fd5b5061011960048036038101906101149190610a78565b6103d4565b6040516101269190610ce3565b60405180910390f35b34801561013b57600080fd5b50610144610490565b6040516101519190610d05565b60405180910390f35b610174600480360381019061016f9190610a0e565b610496565b6040516101819190610cc8565b60405180910390f35b34801561019657600080fd5b5061019f6105a3565b6040516101ac9190610ce3565b60405180910390f35b3480156101c157600080fd5b506101ca610641565b6040516101d79190610cad565b60405180910390f35b3480156101ec57600080fd5b506101f5610667565b6040516102029190610d05565b60405180910390f35b61022560048036038101906102209190610a37565b61066d565b6040516102329190610cc8565b60405180910390f35b34801561024757600080fd5b5061025061081d565b60405161025d9190610d05565b60405180910390f35b34801561027257600080fd5b5061027b610823565b6040516102889190610cc8565b60405180910390f35b34801561029d57600080fd5b506102b860048036038101906102b39190610a78565b610836565b6040516102c59190610cad565b60405180910390f35b3480156102da57600080fd5b506102e3610875565b6040516102f09190610d05565b60405180910390f35b34801561030557600080fd5b50610320600480360381019061031b91906109e5565b61087b565b60405161032d9190610d05565b60405180910390f35b60018054600181600116156101000203166002900480601f0160208091040260200160405190810160405280929190818152602001828054600181600116156101000203166002900480156103cc5780601f106103a1576101008083540402835291602001916103cc565b820191906000526020600020905b8154815290600101906020018083116103af57829003601f168201915b505050505081565b600981815481106103e457600080fd5b906000526020600020016000915090508054600181600116156101000203166002900480601f0160208091040260200160405190810160405280929190818152602001828054600181600116156101000203166002900480156104885780601f1061045d57610100808354040283529160200191610488565b820191906000526020600020905b81548152906001019060200180831161046b57829003601f168201915b505050505081565b60035481565b6000600560009054906101000a900473ffffffffffffffffffffffffffffffffffffffff1673ffffffffffffffffffffffffffffffffffffffff168273ffffffffffffffffffffffffffffffffffffffff161480156105425750600560009054906101000a900473ffffffffffffffffffffffffffffffffffffffff1673ffffffffffffffffffffffffffffffffffffffff163373ffffffffffffffffffffffffffffffffffffffff16145b61054b57600080fd5b8173ffffffffffffffffffffffffffffffffffffffff166108fc479081150290604051600060405180830381858888f19350505050158015610591573d6000803e3d6000fd5b50600060028190555060019050919050565b60088054600181600116156101000203166002900480601f0160208091040260200160405190810160405280929190818152602001828054600181600116156101000203166002900480156106395780601f1061060e57610100808354040283529160200191610639565b820191906000526020600020905b81548152906001019060200180831161061c57829003601f168201915b505050505081565b600560009054906101000a900473ffffffffffffffffffffffffffffffffffffffff1681565b60005481565b6000343273ffffffffffffffffffffffffffffffffffffffff163110156106975760009050610818565b3460026000828254019250508190555034600660003373ffffffffffffffffffffffffffffffffffffffff1673ffffffffffffffffffffffffffffffffffffffff168152602001908152602001600020600082825401925050819055506004329080600181540180825580915050600190039060005260206000200160009091909190916101000a81548173ffffffffffffffffffffffffffffffffffffffff021916908373ffffffffffffffffffffffffffffffffffffffff160217905550600982908060018154018082558091505060019003906000526020600020016000909190919091509080519060200190610792929190610893565b50600a6000815480929190600101919050555060035460025410610813577fe0b6742fd999bde4c8ec00518522cc68d4c6f5a43e5e215bba2593f9a161cbcd600254600354600054600160096040516107ef959493929190610d20565b60405180910390a16001600760006101000a81548160ff0219169083151502179055505b600190505b919050565b60025481565b600760009054906101000a900460ff1681565b6004818154811061084657600080fd5b906000526020600020016000915054906101000a900473ffffffffffffffffffffffffffffffffffffffff1681565b600a5481565b60066020528060005260406000206000915090505481565b828054600181600116156101000203166002900490600052602060002090601f0160209004810192826108c95760008555610910565b82601f106108e257805160ff1916838001178555610910565b82800160010185558215610910579182015b8281111561090f5782518255916020019190600101906108f4565b5b50905061091d9190610921565b5090565b5b8082111561093a576000816000905550600101610922565b5090565b600061095161094c84610db2565b610d81565b90508281526020810184848401111561096957600080fd5b610974848285610ebc565b509392505050565b60008135905061098b81610f11565b92915050565b6000813590506109a081610f28565b92915050565b600082601f8301126109b757600080fd5b81356109c784826020860161093e565b91505092915050565b6000813590506109df81610f3f565b92915050565b6000602082840312156109f757600080fd5b6000610a058482850161097c565b91505092915050565b600060208284031215610a2057600080fd5b6000610a2e84828501610991565b91505092915050565b600060208284031215610a4957600080fd5b600082013567ffffffffffffffff811115610a6357600080fd5b610a6f848285016109a6565b91505092915050565b600060208284031215610a8a57600080fd5b6000610a98848285016109d0565b91505092915050565b6000610aad8383610b80565b905092915050565b610abe81610e62565b82525050565b6000610acf82610e0c565b610ad98185610e2f565b935083602082028501610aeb85610de2565b8060005b85811015610b2657848403895281610b078582610aa1565b9450610b1283610e22565b925060208a01995050600181019050610aef565b50829750879550505050505092915050565b610b4181610e86565b82525050565b6000610b5282610e17565b610b5c8185610e51565b9350610b6c818560208601610ecb565b610b7581610f00565b840191505092915050565b600081546001811660008114610b9d5760018114610bc357610c07565b607f6002830416610bae8187610e40565b955060ff198316865260208601935050610c07565b60028204610bd18187610e40565b9550610bdc85610df7565b60005b82811015610bfe57815481890152600182019150602081019050610bdf565b80880195505050505b505092915050565b600081546001811660008114610c2c5760018114610c5257610c96565b607f6002830416610c3d8187610e51565b955060ff198316865260208601935050610c96565b60028204610c608187610e51565b9550610c6b85610df7565b60005b82811015610c8d57815481890152600182019150602081019050610c6e565b80880195505050505b505092915050565b610ca781610eb2565b82525050565b6000602082019050610cc26000830184610ab5565b92915050565b6000602082019050610cdd6000830184610b38565b92915050565b60006020820190508181036000830152610cfd8184610b47565b905092915050565b6000602082019050610d1a6000830184610c9e565b92915050565b600060a082019050610d356000830188610c9e565b610d426020830187610c9e565b610d4f6040830186610c9e565b8181036060830152610d618185610c0f565b90508181036080830152610d758184610ac4565b90509695505050505050565b6000604051905081810181811067ffffffffffffffff82111715610da857610da7610efe565b5b8060405250919050565b600067ffffffffffffffff821115610dcd57610dcc610efe565b5b601f19601f8301169050602081019050919050565b60008190508160005260206000209050919050565b60008190508160005260206000209050919050565b600081549050919050565b600081519050919050565b6000600182019050919050565b600082825260208201905092915050565b600082825260208201905092915050565b600082825260208201905092915050565b6000610e6d82610e92565b9050919050565b6000610e7f82610e92565b9050919050565b60008115159050919050565b600073ffffffffffffffffffffffffffffffffffffffff82169050919050565b6000819050919050565b82818337600083830152505050565b60005b83811015610ee9578082015181840152602081019050610ece565b83811115610ef8576000848401525b50505050565bfe5b6000601f19601f8301169050919050565b610f1a81610e62565b8114610f2557600080fd5b50565b610f3181610e74565b8114610f3c57600080fd5b50565b610f4881610eb2565b8114610f5357600080fd5b5056fea264697066735822122051d0636ade2740963ce85aac85bbc8493b35246d91b71e9548c4a521a42d59b664736f6c63430007060033a2646970667358221220567b13d28b96b819bf99523467c417f630dc089622c5d62cff9e13b02c05770164736f6c63430007060033",
  "immutableReferences": {},
  "source": "pragma solidity >=0.7.0 <0.9.0;\n\nimport \"./1_Campaign.sol\";\n\ncontract Organisation {\n    \n    uint public campaignCounter;\n    address public owner;\n    mapping(address => uint) public members;\n    mapping(uint => Campaign) public campaigns;\n    \n    constructor(){\n        owner = msg.sender;\n        members[owner] = 1;\n    }\n    \n    \n    function addCampaign(string memory _name, uint _goal, string memory _description) public {\n        require(members[msg.sender] == 1);\n        campaignCounter ++;\n        campaigns[campaignCounter] = new Campaign(campaignCounter, _name, _goal, _description);\n    }\n    \n    function addMember(address _member) public {\n        require(owner == msg.sender);\n        members[_member] = 1;\n    }\n}",
  "sourcePath": "/Users/Karlo/faks/Web3/challenge1/eth-dapp/truffle project/contracts/2_Organisation.sol",
  "compiler": {
    "name": "solc",
    "version": "0.7.6+commit.7338295f.Emscripten.clang"
  },
  "schemaVersion": "3.4.1",
  "updatedAt": "2021-08-02T11:17:49.980Z",
  "networkType": "ethereum",
  "devdoc": {
    "kind": "dev",
    "methods": {},
    "version": 1
  },
  "userdoc": {
    "kind": "user",
    "methods": {},
    "version": 1
  }
}