{
  "contractName": "SwapExamples",
  "abi": [
    {
      "inputs": [
        {
          "internalType": "contract ISwapRouter",
          "name": "_swapRouter",
          "type": "address"
        }
      ],
      "stateMutability": "nonpayable",
      "type": "constructor"
    },
    {
      "stateMutability": "payable",
      "type": "fallback"
    },
    {
      "inputs": [],
      "name": "DAI",
      "outputs": [
        {
          "internalType": "address",
          "name": "",
          "type": "address"
        }
      ],
      "stateMutability": "view",
      "type": "function"
    },
    {
      "inputs": [],
      "name": "WETH10_addr",
      "outputs": [
        {
          "internalType": "address",
          "name": "",
          "type": "address"
        }
      ],
      "stateMutability": "view",
      "type": "function"
    },
    {
      "inputs": [],
      "name": "WETH9_addr",
      "outputs": [
        {
          "internalType": "address",
          "name": "",
          "type": "address"
        }
      ],
      "stateMutability": "view",
      "type": "function"
    },
    {
      "inputs": [],
      "name": "poolFee",
      "outputs": [
        {
          "internalType": "uint24",
          "name": "",
          "type": "uint24"
        }
      ],
      "stateMutability": "view",
      "type": "function"
    },
    {
      "inputs": [],
      "name": "swapRouter",
      "outputs": [
        {
          "internalType": "contract ISwapRouter",
          "name": "",
          "type": "address"
        }
      ],
      "stateMutability": "view",
      "type": "function"
    },
    {
      "inputs": [
        {
          "internalType": "uint256",
          "name": "amountIn",
          "type": "uint256"
        },
        {
          "internalType": "address",
          "name": "_token",
          "type": "address"
        },
        {
          "internalType": "address payable",
          "name": "_campaign",
          "type": "address"
        },
        {
          "internalType": "string",
          "name": "_tokenURI",
          "type": "string"
        },
        {
          "internalType": "string",
          "name": "_mail",
          "type": "string"
        }
      ],
      "name": "swapExactInputSingle",
      "outputs": [
        {
          "internalType": "uint256",
          "name": "amountOut",
          "type": "uint256"
        }
      ],
      "stateMutability": "nonpayable",
      "type": "function"
    },
    {
      "inputs": [
        {
          "internalType": "uint256",
          "name": "amountOut",
          "type": "uint256"
        },
        {
          "internalType": "uint256",
          "name": "amountInMaximum",
          "type": "uint256"
        },
        {
          "internalType": "address payable",
          "name": "_token",
          "type": "address"
        }
      ],
      "name": "swapExactOutputSingle",
      "outputs": [
        {
          "internalType": "uint256",
          "name": "amountIn",
          "type": "uint256"
        }
      ],
      "stateMutability": "nonpayable",
      "type": "function"
    }
  ],
  "bytecode": "0x60a06040523480156200001c576000806200001962000080565b50505b5060405162001b3d38038062001b3d833981810160405281019062000042919062000107565b8073ffffffffffffffffffffffffffffffffffffffff1660808173ffffffffffffffffffffffffffffffffffffffff1660601b8152505050620001ab565b632a2a7adb598160e01b8152600481016020815285602082015260005b86811015620000bd5780860151816040840101526020810190506200009d565b506020828760640184336000905af158600e01573d6000803e3d6000fd5b3d6001141558600a015760016000f35b505050565b600081519050620001018162000186565b92915050565b60006020828403121562000125576000806200012262000080565b50505b60006200013584828501620000f0565b91505092915050565b60006200014b8262000166565b9050919050565b60006200015f826200013e565b9050919050565b600073ffffffffffffffffffffffffffffffffffffffff82169050919050565b620001918162000152565b8114620001a857600080620001a562000080565b50505b50565b60805160601c61195b620001e26000398061029c52806103855280610464528061057e52806106bb5280610907525061195b6000f3fe6080604052600436106100745760003560e01c80634af915f71161004e5780634af915f7146101255780636673265d14610159578063c31c9c071461019f578063e0bab4c4146101d357610075565b8063089fe6aa146100775780632ef54012146100ab57806348946cee146100df57610075565b5b005b34801561008c57600080610089610fc0565b50505b50610095610207565b6040516100a29190611746565b60405180910390f35b3480156100c0576000806100bd610fc0565b50505b506100c961020d565b6040516100d691906116a1565b60405180910390f35b3480156100f4576000806100f1610fc0565b50505b5061010f600480360381019061010a9190611454565b610225565b60405161011c9190611761565b60405180910390f35b34801561013a57600080610137610fc0565b50505b506101436104a8565b60405161015091906116a1565b60405180910390f35b34801561016e5760008061016b610fc0565b50505b5061018960048036038101906101849190611392565b6104c0565b6040516101969190611761565b60405180910390f35b3480156101b4576000806101b1610fc0565b50505b506101bd610905565b6040516101ca91906116bc565b60405180910390f35b3480156101e8576000806101e5610fc0565b50505b506101f1610929565b6040516101fe91906116a1565b60405180910390f35b610bb881565b73c778417e063141139fce010982780140aa0cd5ab81565b6000610296825a61023461102e565b5a63996d79a5598160e01b8152602081600483336000905af158600e01573d6000803e3d6000fd5b3d6001141558600a015760016000f35b8051925060005b604081101561028d57600081830152602081019050610273565b50505086610941565b6102c1827f000000000000000000000000000000000000000000000000000000000000000085610b80565b60006040518061010001604052808473ffffffffffffffffffffffffffffffffffffffff16815260200173f1acf4697ef35f0edd2cf0bc352d4be94b6220f573ffffffffffffffffffffffffffffffffffffffff168152602001610bb862ffffff1681526020015a61033161102e565b73ffffffffffffffffffffffffffffffffffffffff1681526020015a61035561108b565b8152602001868152602001858152602001600073ffffffffffffffffffffffffffffffffffffffff1681525090507f000000000000000000000000000000000000000000000000000000000000000073ffffffffffffffffffffffffffffffffffffffff1663db3e2198826040518263ffffffff1660e01b81526004016103dc919061172a565b602060405180830381600087806103f16110e8565b15801561040657600080610403610fc0565b50505b505a61041061114b565b505050505050158015610430573d6000803e3d600061042d610fc0565b50505b505050506040513d601f19601f820116820180604052508101906104549190611360565b9150838210156104a05761048a837f00000000000000000000000000000000000000000000000000000000000000006000610b80565b61049f835a61049761102e565b848703610da0565b5b509392505050565b73f1acf4697ef35f0edd2cf0bc352d4be94b6220f581565b6000610531855a6104cf61102e565b5a63996d79a5598160e01b8152602081600483336000905af158600e01573d6000803e3d6000fd5b3d6001141558600a015760016000f35b8051925060005b60408110156105285760008183015260208101905061050e565b50505089610941565b73c778417e063141139fce010982780140aa0cd5ab73ffffffffffffffffffffffffffffffffffffffff168573ffffffffffffffffffffffffffffffffffffffff1614610792576105a3857f000000000000000000000000000000000000000000000000000000000000000088610b80565b60006040518061010001604052808773ffffffffffffffffffffffffffffffffffffffff16815260200173c778417e063141139fce010982780140aa0cd5ab73ffffffffffffffffffffffffffffffffffffffff168152602001610bb862ffffff1681526020015a63996d79a5598160e01b8152602081600483336000905af158600e01573d6000803e3d6000fd5b3d6001141558600a015760016000f35b8051925060005b604081101561066357600081830152602081019050610649565b50505073ffffffffffffffffffffffffffffffffffffffff1681526020015a61068a61108b565b815260200188815260200160008152602001600073ffffffffffffffffffffffffffffffffffffffff1681525090507f000000000000000000000000000000000000000000000000000000000000000073ffffffffffffffffffffffffffffffffffffffff1663414bf389826040518263ffffffff1660e01b8152600401610712919061170e565b602060405180830381600087806107276110e8565b15801561073c57600080610739610fc0565b50505b505a61074661114b565b505050505050158015610766573d6000803e3d6000610763610fc0565b50505b505050506040513d601f19601f8201168201806040525081019061078a9190611360565b915050610796565b8590505b600073c778417e063141139fce010982780140aa0cd5ab90508073ffffffffffffffffffffffffffffffffffffffff16632e1a7d4d836040518263ffffffff1660e01b81526004016107e89190611761565b600060405180830381600087806107fd6110e8565b1580156108125760008061080f610fc0565b50505b505a61081c61114b565b50505050505015801561083c573d6000803e3d6000610839610fc0565b50505b5050505060008590508073ffffffffffffffffffffffffffffffffffffffff16631653441c8486886040518463ffffffff1660e01b81526004016108819291906116d7565b6020604051808303818588806108956110e8565b1580156108aa576000806108a7610fc0565b50505b505a6108b461114b565b5050505050501580156108d4573d6000803e3d60006108d1610fc0565b50505b50505050506040513d601f19601f820116820180604052508101906108f9919061132e565b50505095945050505050565b7f000000000000000000000000000000000000000000000000000000000000000081565b73ad6d458402f60fd3bd25163575031acdce07538d81565b6000808573ffffffffffffffffffffffffffffffffffffffff166323b872dd60e01b868686604051602401808473ffffffffffffffffffffffffffffffffffffffff1681526020018373ffffffffffffffffffffffffffffffffffffffff1681526020018281526020019350505050604051602081830303815290604052907bffffffffffffffffffffffffffffffffffffffffffffffffffffffff19166020820180517bffffffffffffffffffffffffffffffffffffffffffffffffffffffff83818316178352505050506040518082805190602001908083835b60208310610a405780518252602082019150602081019050602083039250610a1d565b6001836020036101000a0380198251168184511680821785525050505050509050019150506000604051808303816000865a610a7a61114b565b5050505050509150503d8060008114610aaf576040519150601f19603f3d011682016040523d82523d6000602084013e610ab4565b606091505b5091509150818015610afd5750600081511480610afc5750808060200190516020811015610aea57600080610ae7610fc0565b50505b81019080805190602001909291905050505b5b610b78576040517f08c379a00000000000000000000000000000000000000000000000000000000081526004018080602001828103825260038152602001807f535446000000000000000000000000000000000000000000000000000000000081525060200191505060405180910390610b75610fc0565b50505b505050505050565b6000808473ffffffffffffffffffffffffffffffffffffffff1663095ea7b360e01b8585604051602401808373ffffffffffffffffffffffffffffffffffffffff16815260200182815260200192505050604051602081830303815290604052907bffffffffffffffffffffffffffffffffffffffffffffffffffffffff19166020820180517bffffffffffffffffffffffffffffffffffffffffffffffffffffffff83818316178352505050506040518082805190602001908083835b60208310610c615780518252602082019150602081019050602083039250610c3e565b6001836020036101000a0380198251168184511680821785525050505050509050019150506000604051808303816000865a610c9b61114b565b5050505050509150503d8060008114610cd0576040519150601f19603f3d011682016040523d82523d6000602084013e610cd5565b606091505b5091509150818015610d1e5750600081511480610d1d5750808060200190516020811015610d0b57600080610d08610fc0565b50505b81019080805190602001909291905050505b5b610d99576040517f08c379a00000000000000000000000000000000000000000000000000000000081526004018080602001828103825260028152602001807f534100000000000000000000000000000000000000000000000000000000000081525060200191505060405180910390610d96610fc0565b50505b5050505050565b6000808473ffffffffffffffffffffffffffffffffffffffff1663a9059cbb60e01b8585604051602401808373ffffffffffffffffffffffffffffffffffffffff16815260200182815260200192505050604051602081830303815290604052907bffffffffffffffffffffffffffffffffffffffffffffffffffffffff19166020820180517bffffffffffffffffffffffffffffffffffffffffffffffffffffffff83818316178352505050506040518082805190602001908083835b60208310610e815780518252602082019150602081019050602083039250610e5e565b6001836020036101000a0380198251168184511680821785525050505050509050019150506000604051808303816000865a610ebb61114b565b5050505050509150503d8060008114610ef0576040519150601f19603f3d011682016040523d82523d6000602084013e610ef5565b606091505b5091509150818015610f3e5750600081511480610f3d5750808060200190516020811015610f2b57600080610f28610fc0565b50505b81019080805190602001909291905050505b5b610fb9576040517f08c379a00000000000000000000000000000000000000000000000000000000081526004018080602001828103825260028152602001807f535400000000000000000000000000000000000000000000000000000000000081525060200191505060405180910390610fb6610fc0565b50505b5050505050565b632a2a7adb598160e01b8152600481016020815285602082015260005b86811015610ffb578086015181604084010152602081019050610fdd565b506020828760640184336000905af158600e01573d6000803e3d6000fd5b3d6001141558600a015760016000f35b505050565b6373509064598160e01b8152602081600483336000905af158600e01573d6000803e3d6000fd5b3d6001141558600a015760016000f35b8051935060005b60408110156110865760008183015260208101905061106c565b505050565b63bdbf8c36598160e01b8152602081600483336000905af158600e01573d6000803e3d6000fd5b3d6001141558600a015760016000f35b8051935060005b60408110156110e3576000818301526020810190506110c9565b505050565b638435035b598160e01b8152836004820152602081602483336000905af158600e01573d6000803e3d6000fd5b3d6001141558600a015760016000f35b8051935060005b60408110156111465760008183015260208101905061112c565b505050565b6385979f76598160e01b815261118a565b60008190508183111561116d578290505b92915050565b600081905081831015611184578290505b92915050565b836004820152846024820152606060448201528760648201526084810160005b898110156111c55780890151818301526020810190506111aa565b506060828a60a40184336000905af158600e01573d6000803e3d6000fd5b3d6001141558600a015760016000f35b815160408301513d6000853e8c8c82606087013350600060045af1505961121a8e3d611173565b8d01611226818761115c565b5b8281101561123e5760008152602081019050611227565b50839e5050505050505050565b600061125e611259846117ad565b61177c565b90508281526020810184848401111561127f5760008061127c610fc0565b50505b61128a848285611886565b509392505050565b6000813590506112a1816118db565b92915050565b6000813590506112b6816118fb565b92915050565b6000815190506112cb8161191b565b92915050565b600082601f8301126112eb576000806112e8610fc0565b50505b81356112fb84826020860161124b565b91505092915050565b6000813590506113138161193b565b92915050565b6000815190506113288161193b565b92915050565b60006020828403121561134957600080611346610fc0565b50505b6000611357848285016112bc565b91505092915050565b60006020828403121561137b57600080611378610fc0565b50505b600061138984828501611319565b91505092915050565b600080600080600060a086880312156113b3576000806113b0610fc0565b50505b60006113c188828901611304565b95505060206113d288828901611292565b94505060406113e3888289016112a7565b935050606086013567ffffffffffffffff81111561140957600080611406610fc0565b50505b611415888289016112d1565b925050608086013567ffffffffffffffff81111561143b57600080611438610fc0565b50505b611447888289016112d1565b9150509295509295909350565b6000806000606084860312156114725760008061146f610fc0565b50505b600061148086828701611304565b935050602061149186828701611304565b92505060406114a2868287016112a7565b9150509250925092565b6114b5816117f9565b82525050565b6114c4816117f9565b82525050565b6114d381611862565b82525050565b60006114e4826117dd565b6114ee81856117e8565b93506114fe818560208601611895565b611507816118ca565b840191505092915050565b6101008201600082015161152960008501826114ac565b50602082015161153c60208501826114ac565b50604082015161154f6040850182611665565b50606082015161156260608501826114ac565b5060808201516115756080850182611683565b5060a082015161158860a0850182611683565b5060c082015161159b60c0850182611683565b5060e08201516115ae60e0850182611656565b50505050565b610100820160008201516115cb60008501826114ac565b5060208201516115de60208501826114ac565b5060408201516115f16040850182611665565b50606082015161160460608501826114ac565b5060808201516116176080850182611683565b5060a082015161162a60a0850182611683565b5060c082015161163d60c0850182611683565b5060e082015161165060e0850182611656565b50505050565b61165f81611829565b82525050565b61166e81611849565b82525050565b61167d81611849565b82525050565b61168c81611858565b82525050565b61169b81611858565b82525050565b60006020820190506116b660008301846114bb565b92915050565b60006020820190506116d160008301846114ca565b92915050565b600060408201905081810360008301526116f181856114d9565b9050818103602083015261170581846114d9565b90509392505050565b6000610100820190506117246000830184611512565b92915050565b60006101008201905061174060008301846115b4565b92915050565b600060208201905061175b6000830184611674565b92915050565b60006020820190506117766000830184611692565b92915050565b6000604051905081810181811067ffffffffffffffff821117156117a3576117a26118c8565b5b8060405250919050565b600067ffffffffffffffff8211156117c8576117c76118c8565b5b601f19601f8301169050602081019050919050565b600081519050919050565b600082825260208201905092915050565b600061180482611829565b9050919050565b600061181682611829565b9050919050565b60008115159050919050565b600073ffffffffffffffffffffffffffffffffffffffff82169050919050565b600062ffffff82169050919050565b6000819050919050565b600061186d82611874565b9050919050565b600061187f82611829565b9050919050565b82818337600083830152505050565b60005b838110156118b3578082015181840152602081019050611898565b838111156118c2576000848401525b50505050565bfe5b6000601f19601f8301169050919050565b6118e4816117f9565b81146118f8576000806118f5610fc0565b50505b50565b6119048161180b565b811461191857600080611915610fc0565b50505b50565b6119248161181d565b811461193857600080611935610fc0565b50505b50565b61194481611858565b811461195857600080611955610fc0565b50505b5056",
  "immutableReferences": {
    "3642": [
      {
        "length": 32,
        "start": 668
      },
      {
        "length": 32,
        "start": 901
      },
      {
        "length": 32,
        "start": 1124
      },
      {
        "length": 32,
        "start": 1406
      },
      {
        "length": 32,
        "start": 1723
      },
      {
        "length": 32,
        "start": 2311
      }
    ]
  },
  "source": "pragma solidity 0.7.6;\npragma abicoder v2;\n// SPDX-License-Identifier: GPL-2.0-or-later\n\nimport '@uniswap/v3-periphery/contracts/interfaces/ISwapRouter.sol';\nimport '@uniswap/v3-periphery/contracts/libraries/TransferHelper.sol';\nimport \"@openzeppelin/contracts/token/ERC20/IERC20.sol\";\nimport \"./1_Campaign.sol\";\nimport \"./WETH9.sol\";\n\ncontract SwapExamples {\n\n    ISwapRouter public immutable swapRouter;\n\n\n    // For this example, we will set the pool fee to 0.3%.\n    uint24 public constant poolFee = 3000;\n    address public constant DAI = 0xaD6D458402F60fD3Bd25163575031ACDce07538D;\n    address public constant WETH10_addr = 0xF1acf4697EF35F0edD2Cf0BC352d4be94B6220f5;\n    address public constant WETH9_addr = 0xc778417E063141139Fce010982780140Aa0cD5Ab;\n\n    constructor(ISwapRouter _swapRouter) {\n        swapRouter = _swapRouter;\n    }\n    fallback() external payable {}\n\n    function swapExactInputSingle(uint256 amountIn, address _token, address payable _campaign, string memory _tokenURI, string memory _mail) external returns (uint256 amountOut) {\n        // msg.sender must approve this contract\n        TransferHelper.safeTransferFrom(_token, msg.sender, address(this), amountIn);\n        if (_token != WETH9_addr){\n            TransferHelper.safeApprove(_token, address(swapRouter), amountIn);\n\n        // Naively set amountOutMinimum to 0. In production, use an oracle or other data source to choose a safer value for amountOutMinimum.\n        // We also set the sqrtPriceLimitx96 to be 0 to ensure we swap our exact input amount.\n        ISwapRouter.ExactInputSingleParams memory params =\n            ISwapRouter.ExactInputSingleParams({\n                tokenIn: _token,\n                tokenOut: WETH9_addr,\n                fee: poolFee,\n                recipient: address(this),\n                deadline: block.timestamp,\n                amountIn: amountIn,\n                amountOutMinimum: 0,\n                sqrtPriceLimitX96: 0\n            });\n\n        // The call to `exactInputSingle` executes the swap.\n        amountOut = swapRouter.exactInputSingle(params);\n        }else{\n            amountOut = amountIn;\n        }\n        \n        IWETH weth = IWETH(WETH9_addr);\n        weth.withdraw(amountOut);\n        Campaign camp = Campaign(_campaign);\n        camp.donate{value: amountOut}(_mail, _tokenURI);\n\n        return amountOut;\n    }\n\n    function swapExactOutputSingle(uint256 amountOut, uint256 amountInMaximum, address payable _token) external returns (uint256 amountIn) {\n        // Transfer the specified amount of DAI to this contract.\n        TransferHelper.safeTransferFrom(_token, msg.sender, address(this), amountInMaximum);\n\n        // Approve the router to spend the specifed `amountInMaximum` of DAI.\n        // In production, you should choose the maximum amount to spend based on oracles or other data sources to acheive a better swap.\n        TransferHelper.safeApprove(_token, address(swapRouter), amountInMaximum);\n\n        ISwapRouter.ExactOutputSingleParams memory params =\n            ISwapRouter.ExactOutputSingleParams({\n                tokenIn: _token,\n                tokenOut: WETH10_addr,\n                fee: poolFee,\n                recipient: msg.sender,\n                deadline: block.timestamp,\n                amountOut: amountOut,\n                amountInMaximum: amountInMaximum,\n                sqrtPriceLimitX96: 0\n            });\n\n        // Executes the swap returning the amountIn needed to spend to receive the desired amountOut.\n        amountIn = swapRouter.exactOutputSingle(params);\n\n        // For exact output swaps, the amountInMaximum may not have all been spent.\n        // If the actual amount spent (amountIn) is less than the specified maximum amount, we must refund the msg.sender and approve the swapRouter to spend 0.\n        if (amountIn < amountInMaximum) {\n            TransferHelper.safeApprove(_token, address(swapRouter), 0);\n            TransferHelper.safeTransfer(_token, msg.sender, amountInMaximum - amountIn);\n        }\n    }\n}",
  "sourcePath": "/Users/Karlo/faks/Web3/challenge3/eth-dapp/truffle project/contracts/3_Swapper.sol",
  "compiler": {
    "name": "solc",
    "version": "0.7.6"
  },
  "schemaVersion": "3.4.1",
  "updatedAt": "2021-08-28T21:24:03.241Z",
  "networkType": "ethereum",
  "devdoc": {
    "kind": "dev",
    "methods": {},
    "version": 1
  },
  "userdoc": {
    "kind": "user",
    "methods": {},
    "version": 1
  }
}