{
  "contractName": "Campaign",
  "abi": [
    {
      "inputs": [
        {
          "internalType": "uint256",
          "name": "_id",
          "type": "uint256"
        },
        {
          "internalType": "string",
          "name": "_name",
          "type": "string"
        },
        {
          "internalType": "uint256",
          "name": "_goal",
          "type": "uint256"
        },
        {
          "internalType": "string",
          "name": "_description",
          "type": "string"
        },
        {
          "internalType": "uint256",
          "name": "_endTimeStamp",
          "type": "uint256"
        },
        {
          "internalType": "address",
          "name": "_wantToken",
          "type": "address"
        },
        {
          "internalType": "string",
          "name": "_uri",
          "type": "string"
        }
      ],
      "stateMutability": "nonpayable",
      "type": "constructor"
    },
    {
      "anonymous": false,
      "inputs": [
        {
          "indexed": false,
          "internalType": "uint256",
          "name": "amount",
          "type": "uint256"
        },
        {
          "indexed": false,
          "internalType": "uint256",
          "name": "campaignId",
          "type": "uint256"
        },
        {
          "indexed": false,
          "internalType": "string",
          "name": "name",
          "type": "string"
        },
        {
          "indexed": false,
          "internalType": "string",
          "name": "mail",
          "type": "string"
        },
        {
          "indexed": false,
          "internalType": "address",
          "name": "donorToken",
          "type": "address"
        }
      ],
      "name": "Donated",
      "type": "event"
    },
    {
      "anonymous": false,
      "inputs": [
        {
          "indexed": false,
          "internalType": "uint256",
          "name": "totalFund",
          "type": "uint256"
        },
        {
          "indexed": false,
          "internalType": "uint256",
          "name": "goal",
          "type": "uint256"
        },
        {
          "indexed": false,
          "internalType": "uint256",
          "name": "campaignId",
          "type": "uint256"
        },
        {
          "indexed": false,
          "internalType": "string",
          "name": "name",
          "type": "string"
        },
        {
          "indexed": false,
          "internalType": "string[]",
          "name": "mails",
          "type": "string[]"
        }
      ],
      "name": "GoalReached",
      "type": "event"
    },
    {
      "inputs": [],
      "name": "L1StandardBridge",
      "outputs": [
        {
          "internalType": "address",
          "name": "",
          "type": "address"
        }
      ],
      "stateMutability": "view",
      "type": "function"
    },
    {
      "inputs": [],
      "name": "L2",
      "outputs": [
        {
          "internalType": "address",
          "name": "",
          "type": "address"
        }
      ],
      "stateMutability": "view",
      "type": "function"
    },
    {
      "inputs": [],
      "name": "URI",
      "outputs": [
        {
          "internalType": "string",
          "name": "",
          "type": "string"
        }
      ],
      "stateMutability": "view",
      "type": "function"
    },
    {
      "inputs": [],
      "name": "WETH",
      "outputs": [
        {
          "internalType": "address",
          "name": "",
          "type": "address"
        }
      ],
      "stateMutability": "view",
      "type": "function"
    },
    {
      "inputs": [],
      "name": "currFund",
      "outputs": [
        {
          "internalType": "uint256",
          "name": "",
          "type": "uint256"
        }
      ],
      "stateMutability": "view",
      "type": "function"
    },
    {
      "inputs": [],
      "name": "description",
      "outputs": [
        {
          "internalType": "string",
          "name": "",
          "type": "string"
        }
      ],
      "stateMutability": "view",
      "type": "function"
    },
    {
      "inputs": [],
      "name": "endTimeStamp",
      "outputs": [
        {
          "internalType": "uint256",
          "name": "",
          "type": "uint256"
        }
      ],
      "stateMutability": "view",
      "type": "function"
    },
    {
      "inputs": [],
      "name": "finished",
      "outputs": [
        {
          "internalType": "bool",
          "name": "",
          "type": "bool"
        }
      ],
      "stateMutability": "view",
      "type": "function"
    },
    {
      "inputs": [],
      "name": "goal",
      "outputs": [
        {
          "internalType": "uint256",
          "name": "",
          "type": "uint256"
        }
      ],
      "stateMutability": "view",
      "type": "function"
    },
    {
      "inputs": [],
      "name": "id",
      "outputs": [
        {
          "internalType": "uint256",
          "name": "",
          "type": "uint256"
        }
      ],
      "stateMutability": "view",
      "type": "function"
    },
    {
      "inputs": [],
      "name": "mailCount",
      "outputs": [
        {
          "internalType": "uint256",
          "name": "",
          "type": "uint256"
        }
      ],
      "stateMutability": "view",
      "type": "function"
    },
    {
      "inputs": [
        {
          "internalType": "uint256",
          "name": "",
          "type": "uint256"
        }
      ],
      "name": "mails",
      "outputs": [
        {
          "internalType": "string",
          "name": "",
          "type": "string"
        }
      ],
      "stateMutability": "view",
      "type": "function"
    },
    {
      "inputs": [],
      "name": "name",
      "outputs": [
        {
          "internalType": "string",
          "name": "",
          "type": "string"
        }
      ],
      "stateMutability": "view",
      "type": "function"
    },
    {
      "inputs": [],
      "name": "owner",
      "outputs": [
        {
          "internalType": "address payable",
          "name": "",
          "type": "address"
        }
      ],
      "stateMutability": "view",
      "type": "function"
    },
    {
      "inputs": [],
      "name": "poolFee",
      "outputs": [
        {
          "internalType": "uint24",
          "name": "",
          "type": "uint24"
        }
      ],
      "stateMutability": "view",
      "type": "function"
    },
    {
      "inputs": [],
      "name": "v3factory",
      "outputs": [
        {
          "internalType": "address",
          "name": "",
          "type": "address"
        }
      ],
      "stateMutability": "view",
      "type": "function"
    },
    {
      "inputs": [],
      "name": "v3router",
      "outputs": [
        {
          "internalType": "address",
          "name": "",
          "type": "address"
        }
      ],
      "stateMutability": "view",
      "type": "function"
    },
    {
      "inputs": [
        {
          "internalType": "string",
          "name": "_mail",
          "type": "string"
        },
        {
          "internalType": "address",
          "name": "_donorToken",
          "type": "address"
        },
        {
          "internalType": "uint256",
          "name": "_amountIn",
          "type": "uint256"
        }
      ],
      "name": "donate",
      "outputs": [
        {
          "internalType": "bool",
          "name": "sufficient",
          "type": "bool"
        }
      ],
      "stateMutability": "payable",
      "type": "function"
    },
    {
      "inputs": [],
      "name": "expiredWithdraw",
      "outputs": [],
      "stateMutability": "nonpayable",
      "type": "function"
    },
    {
      "inputs": [
        {
          "internalType": "uint256",
          "name": "_endTimeStamp",
          "type": "uint256"
        }
      ],
      "name": "changeEndDate",
      "outputs": [],
      "stateMutability": "nonpayable",
      "type": "function"
    }
  ],
  "bytecode": "0x60806040526004805460ff60a01b19169055600d80546001600160a01b0319908116731f98431c8ad98523631ae4a59f267346ea31f98417909155600e8054821673e592427a0aece92de3edee1f18e0157c05861564179055600f80548216734200000000000000000000000000000000000006179055601280549091167322f24361d548e5faafb36d1437839f080363982b179055348015620000a257600080fd5b506040516200203938038062002039833981016040819052620000c59162000298565b60008790558551620000df90600190602089019062000151565b50600060025560038590558351620000ff90600590602087019062000151565b5060048054336001600160a01b0319918216179091556009849055600880549091166001600160a01b03841617905580516200014390600b90602084019062000151565b505050505050505062000364565b828054600181600116156101000203166002900490600052602060002090601f016020900481019282620001895760008555620001d4565b82601f10620001a457805160ff1916838001178555620001d4565b82800160010185558215620001d4579182015b82811115620001d4578251825591602001919060010190620001b7565b50620001e2929150620001e6565b5090565b5b80821115620001e25760008155600101620001e7565b600082601f8301126200020e578081fd5b81516001600160401b03808211156200022357fe5b6040516020601f8401601f19168201810183811183821017156200024357fe5b60405283825285840181018710156200025a578485fd5b8492505b838310156200027d57858301810151828401820152918201916200025e565b838311156200028e57848185840101525b5095945050505050565b600080600080600080600060e0888a031215620002b3578283fd5b875160208901519097506001600160401b0380821115620002d2578485fd5b620002e08b838c01620001fd565b975060408a0151965060608a0151915080821115620002fd578485fd5b6200030b8b838c01620001fd565b60808b015160a08c0151919750955091506001600160a01b038216821462000331578384fd5b60c08a01519193508082111562000346578283fd5b50620003558a828b01620001fd565b91505092959891949750929550565b611cc580620003746000396000f3fe60806040526004361061015f5760003560e01c80637284e416116100c0578063af640d0f11610074578063bef4876b11610059578063bef4876b14610329578063dec978281461033e578063dfca0922146103535761015f565b8063af640d0f146102ff578063bb66834e146103145761015f565b806387a22b22116100a557806387a22b22146102c05780638da5cb5b146102d5578063ad5c4648146102ea5761015f565b80637284e4161461029657806381426ec2146102ab5761015f565b80632fdef9c31161011757806345737b1e116100fc57806345737b1e1461024157806351906bb0146102615780635af7319c146102765761015f565b80632fdef9c3146101ff578063401938831461021f5761015f565b8063089fe6aa11610148578063089fe6aa146101b15780631141d7de146101d35780631eaa1c8b146101e85761015f565b806306fdde0314610164578063081752bb1461018f575b600080fd5b34801561017057600080fd5b50610179610368565b6040516101869190611821565b60405180910390f35b34801561019b57600080fd5b506101a46103f5565b604051610186919061179d565b3480156101bd57600080fd5b506101c6610404565b6040516101869190611ae5565b3480156101df57600080fd5b5061017961040a565b3480156101f457600080fd5b506101fd610465565b005b34801561020b57600080fd5b5061017961021a366004611692565b610582565b34801561022b57600080fd5b506102346105f8565b6040516101869190611af5565b34801561024d57600080fd5b506101fd61025c366004611692565b6105fe565b34801561026d57600080fd5b50610234610603565b6102896102843660046115e2565b610609565b6040516101869190611816565b3480156102a257600080fd5b50610179610c25565b3480156102b757600080fd5b506101a4610c80565b3480156102cc57600080fd5b506101a4610c8f565b3480156102e157600080fd5b506101a4610c9e565b3480156102f657600080fd5b506101a4610cad565b34801561030b57600080fd5b50610234610cbc565b34801561032057600080fd5b50610234610cc2565b34801561033557600080fd5b50610289610cc8565b34801561034a57600080fd5b50610234610cd8565b34801561035f57600080fd5b506101a4610cde565b60018054604080516020600284861615610100026000190190941693909304601f810184900484028201840190925281815292918301828280156103ed5780601f106103c2576101008083540402835291602001916103ed565b820191906000526020600020905b8154815290600101906020018083116103d057829003601f168201915b505050505081565b6011546001600160a01b031681565b610bb881565b600b805460408051602060026001851615610100026000190190941693909304601f810184900484028201840190925281815292918301828280156103ed5780601f106103c2576101008083540402835291602001916103ed565b426009541061048f5760405162461bcd60e51b8152600401610486906119b4565b60405180910390fd5b6004546001600160a01b031633146104b95760405162461bcd60e51b8152600401610486906118d4565b6040516370a0823160e01b8152600090734200000000000000000000000000000000000006906370a08231906104f390309060040161179d565b60206040518083038186803b15801561050b57600080fd5b505afa15801561051f573d6000803e3d6000fd5b505050506040513d601f19601f8201168201806040525081019061054391906116aa565b6004546040519192506001600160a01b03169082156108fc029083906000818181858888f1935050505015801561057e573d6000803e3d6000fd5b5050565b6006818154811061059257600080fd5b600091825260209182902001805460408051601f60026000196101006001871615020190941693909304928301859004850281018501909152818152935090918301828280156103ed5780601f106103c2576101008083540402835291602001916103ed565b60035481565b600955565b60095481565b600081836001600160a01b03166370a08231336040518263ffffffff1660e01b8152600401610638919061179d565b60206040518083038186803b15801561065057600080fd5b505afa158015610664573d6000803e3d6000fd5b505050506040513d601f19601f8201168201806040525081019061068891906116aa565b10156106a65760405162461bcd60e51b815260040161048690611834565b42600954116106c75760405162461bcd60e51b815260040161048690611957565b6001600160a01b0383166106ed5760405162461bcd60e51b815260040161048690611a11565b6008546000906001600160a01b03858116911614156107265761070f83610ced565b905061071c858583610d10565b6001915050610c1e565b600d54600854604051630b4c774160e11b81526000926001600160a01b0390811692631698ee8292610762928a921690610bb8906004016117d5565b60206040518083038186803b15801561077a57600080fd5b505afa15801561078e573d6000803e3d6000fd5b505050506040513d601f19601f820116820180604052508101906107b291906115a6565b6001600160a01b031614156107d95760405162461bcd60e51b815260040161048690611877565b604080516002808252606082018352600092602083019080368337019050509050848160008151811061080857fe5b6001600160a01b03928316602091820292909201015260085482519116908290600190811061083357fe5b6001600160a01b039283166020918202929092010152600854600091829161085f9188918a9116610ed1565b6040516323b872dd60e01b815291955091506001600160a01b038816906323b872dd90610894903390309089906004016117b1565b602060405180830381600087803b1580156108ae57600080fd5b505af11580156108c2573d6000803e3d6000fd5b505050506040513d601f19601f820116820180604052508101906108e691906115c2565b506001600160a01b03871660009081526010602052604090205460ff1615156001146109b957600e5460405163095ea7b360e01b81526001600160a01b038981169263095ea7b3926109429290911690600019906004016117fd565b602060405180830381600087803b15801561095c57600080fd5b505af1158015610970573d6000803e3d6000fd5b505050506040513d601f19601f8201168201806040525081019061099491906115c2565b506001600160a01b0387166000908152601060205260409020805460ff191660011790555b600080604051806101000160405280866000815181106109d557fe5b60200260200101516001600160a01b03168152602001866001815181106109f857fe5b6020908102919091018101516001600160a01b03168252610bb8908201523060408201526103e8420160608201526080810188905260a001610a48612710610a42876125e4610f2e565b90610f90565b81526000602090910152600e5460405163414bf38960e01b81529192506001600160a01b03169063414bf38990610a83908490600401611a6f565b602060405180830381600087803b158015610a9d57600080fd5b505af1158015610ab1573d6000803e3d6000fd5b505050506040513d601f19601f82011682018060405250810190610ad591906116aa565b6002805488019055600680546001810182556000919091528b51919350610b25917ff652222313e28459528d920b65115c16c04f3efc82aaedc97be59f3f377c0d3f9091019060208d01906114fa565b506007805460010190556003546002541415610b9f577f314217ebdf17981d4a26c0519c8810c5b95359d28c649f331ae684df59190db260025460035460005460016006604051610b7a959493929190611b4b565b60405180910390a16004805460ff60a01b1916600160a01b179055610b9d610fd2565b505b7f1c9e0c4c164a4cd3223a9c561d40e2223428d825bae108fdae97049add3dcfff3460005460018d8d604051610bd9959493929190611afe565b60405180910390a1336000908152600a602052604090205460ff16610c1357336000908152600a60205260409020805460ff191660011790555b600196505050505050505b9392505050565b6005805460408051602060026001851615610100026000190190941693909304601f810184900484028201840190925281815292918301828280156103ed5780601f106103c2576101008083540402835291602001916103ed565b6012546001600160a01b031681565b600d546001600160a01b031681565b6004546001600160a01b031681565b600f546001600160a01b031681565b60005481565b60025481565b600454600160a01b900460ff1681565b60075481565b600e546001600160a01b031681565b6002546003546000919003808311610d085782915050610d0b565b90505b919050565b6040516323b872dd60e01b81526001600160a01b038316906323b872dd90610d40903390309086906004016117b1565b602060405180830381600087803b158015610d5a57600080fd5b505af1158015610d6e573d6000803e3d6000fd5b505050506040513d601f19601f82011682018060405250810190610d9291906115c2565b506002805482019055600680546001810182556000919091528351610dde917ff652222313e28459528d920b65115c16c04f3efc82aaedc97be59f3f377c0d3f019060208601906114fa565b506007805460010190556003546002541415610e58577f314217ebdf17981d4a26c0519c8810c5b95359d28c649f331ae684df59190db260025460035460005460016006604051610e33959493929190611b4b565b60405180910390a16004805460ff60a01b1916600160a01b179055610e56610fd2565b505b7f1c9e0c4c164a4cd3223a9c561d40e2223428d825bae108fdae97049add3dcfff3460005460018686604051610e92959493929190611afe565b60405180910390a1336000908152600a602052604090205460ff16610ecc57336000908152600a60205260409020805460ff191660011790555b505050565b600d54600090819081908190610ef1906001600160a01b031687876110a2565b915091506000610f02888484611170565b90506000610f0f82610ced565b90506000610f1e828587611170565b9a91995090975050505050505050565b600082610f3d57506000610f8a565b82820282848281610f4a57fe5b0414610f875760405162461bcd60e51b8152600401808060200182810382526021815260200180611c446021913960400191505060405180910390fd5b90505b92915050565b6000610f8783836040518060400160405280601a81526020017f536166654d6174683a206469766973696f6e206279207a65726f000000000000815250611248565b6040516370a0823160e01b81526000908190734200000000000000000000000000000000000006906370a082319061100e90309060040161179d565b60206040518083038186803b15801561102657600080fd5b505afa15801561103a573d6000803e3d6000fd5b505050506040513d601f19601f8201168201806040525081019061105e91906116aa565b6004546040519192506001600160a01b03169082156108fc029083906000818181858888f19350505050158015611099573d6000803e3d6000fd5b50600191505090565b60008060006110b185856112ea565b5090506000806110c28888886113c8565b6001600160a01b0316630902f1ac6040518163ffffffff1660e01b815260040160606040518083038186803b1580156110fa57600080fd5b505afa15801561110e573d6000803e3d6000fd5b505050506040513d606081101561112457600080fd5b5080516020909101516dffffffffffffffffffffffffffff91821693501690506001600160a01b038781169084161461115e578082611161565b81815b90999098509650505050505050565b60008084116111b05760405162461bcd60e51b815260040180806020018281038252602b815260200180611c65602b913960400191505060405180910390fd5b6000831180156111c05750600082115b6111fb5760405162461bcd60e51b8152600401808060200182810382526028815260200180611c1c6028913960400191505060405180910390fd5b6000611209856103e5610f2e565b905060006112178285610f2e565b905060006112318361122b886103e8610f2e565b906114a0565b905080828161123c57fe5b04979650505050505050565b600081836112d45760405162461bcd60e51b81526004018080602001828103825283818151815260200191508051906020019080838360005b83811015611299578181015183820152602001611281565b50505050905090810190601f1680156112c65780820380516001836020036101000a031916815260200191505b509250505060405180910390fd5b5060008385816112e057fe5b0495945050505050565b600080826001600160a01b0316846001600160a01b0316141561133e5760405162461bcd60e51b8152600401808060200182810382526025815260200180611bf76025913960400191505060405180910390fd5b826001600160a01b0316846001600160a01b03161061135e578284611361565b83835b90925090506001600160a01b0382166113c1576040805162461bcd60e51b815260206004820152601e60248201527f556e697377617056324c6962726172793a205a45524f5f414444524553530000604482015290519081900360640190fd5b9250929050565b60008060006113d785856112ea565b604080516bffffffffffffffffffffffff19606094851b811660208084019190915293851b81166034830152825160288184030181526048830184528051908501207fff0000000000000000000000000000000000000000000000000000000000000060688401529a90941b9093166069840152607d8301989098527f96e8ac4277198ff8b6f785478aa9a39f403cb768dd02cbee326c3e7da348845f609d808401919091528851808403909101815260bd909201909752805196019590952095945050505050565b600082820183811015610f87576040805162461bcd60e51b815260206004820152601b60248201527f536166654d6174683a206164646974696f6e206f766572666c6f770000000000604482015290519081900360640190fd5b828054600181600116156101000203166002900490600052602060002090601f0160209004810192826115305760008555611576565b82601f1061154957805160ff1916838001178555611576565b82800160010185558215611576579182015b8281111561157657825182559160200191906001019061155b565b50611582929150611586565b5090565b5b808211156115825760008155600101611587565b8035610d0b81611bde565b6000602082840312156115b7578081fd5b8151610f8781611bde565b6000602082840312156115d3578081fd5b81518015158114610f87578182fd5b6000806000606084860312156115f6578182fd5b833567ffffffffffffffff8082111561160d578384fd5b818601915086601f830112611620578384fd5b813560208282111561162e57fe5b604051601f8301601f191681018201848111828210171561164b57fe5b60405282815284830182018a1015611661578687fd5b82828601838301378083018201879052965061167e88820161159b565b955050505050604084013590509250925092565b6000602082840312156116a3578081fd5b5035919050565b6000602082840312156116bb578081fd5b5051919050565b6001600160a01b03169052565b60008151808452815b818110156116f4576020818501810151868301820152016116d8565b818111156117055782602083870101525b50601f01601f19169290920160200192915050565b60008154600180821660008114611738576001811461175657611794565b60028304607f16865260ff1983166020870152604086019350611794565b6002830480875261176686611bd2565b60005b8281101561178a5781546020828b0101528482019150602081019050611769565b8801602001955050505b50505092915050565b6001600160a01b0391909116815260200190565b6001600160a01b039384168152919092166020820152604081019190915260600190565b6001600160a01b03938416815291909216602082015262ffffff909116604082015260600190565b6001600160a01b03929092168252602082015260400190565b901515815260200190565b600060208252610f8760208301846116cf565b60208082526023908201527f43616d706169676e3a3a646f6e6174653a20496e737566696369656e742066756040820152626e647360e81b606082015260800190565b6020808252602e908201527f537570706f72744368696c6472656e3a3a646f6e6174653a204e6f206469726560408201527f637420706f6f6c20657869737473000000000000000000000000000000000000606082015260800190565b60208082526046908201527f63616d706169676e3a3a6578706972656457697468647261773a204f6e6c792060408201527f7468652062656e65666963696172792063616e2077697468647261772074686560608201527f2066756e64730000000000000000000000000000000000000000000000000000608082015260a00190565b60208082526034908201527f43616d706169676e3a3a646f6e6174653a20546869732063616d706169676e2060408201527f68617320616c72656164792066696e6973686564000000000000000000000000606082015260800190565b60208082526038908201527f43616d706169676e3a3a6578706972656457697468647261773a20546869732060408201527f63616d706169676e206973207374696c6c206163746976650000000000000000606082015260800190565b602080825260409082018190527f537570706f72744368696c6472656e3a3a646f6e6174653a20646f6e6f72546f908201527f6b656e203d3d2030782c2075736520646f6e61746545544820696e7374656164606082015260800190565b6000610100820190506001600160a01b0380845116835280602085015116602084015262ffffff6040850151166040840152806060850151166060840152506080830151608083015260a083015160a083015260c083015160c083015260e0830151611ade60e08401826116c2565b5092915050565b62ffffff91909116815260200190565b90815260200190565b600086825285602083015260a06040830152611b1d60a083018661171a565b8281036060840152611b2f81866116cf565b9150506001600160a01b03831660808301529695505050505050565b60008682526020868184015285604084015260a06060840152611b7160a084018661171a565b8381036080850152808554808352838301915083848202840101878652848620865b83811015611bc057858303601f19018552611bae838361171a565b94870194925060019182019101611b93565b50909c9b505050505050505050505050565b60009081526020902090565b6001600160a01b0381168114611bf357600080fd5b5056fe556e697377617056324c6962726172793a204944454e544943414c5f414444524553534553556e697377617056324c6962726172793a20494e53554646494349454e545f4c4951554944495459536166654d6174683a206d756c7469706c69636174696f6e206f766572666c6f77556e697377617056324c6962726172793a20494e53554646494349454e545f494e5055545f414d4f554e54a2646970667358221220cfc898f0dd2dce3b67a3d8be0eced21ff2f98c74e8a0e51b4fcab059ad4b886e64736f6c63430007060033",
  "immutableReferences": {},
  "source": "pragma solidity 0.7.6;\npragma abicoder v2;\nimport \"@openzeppelin/contracts/access/Ownable.sol\";\nimport \"@openzeppelin/contracts/math/SafeMath.sol\";\nimport \"@openzeppelin/contracts/token/ERC20/SafeERC20.sol\";\nimport \"@openzeppelin/contracts/token/ERC20/IERC20.sol\";\nimport \"@eth-optimism/contracts/iOVM/bridge/tokens/iOVM_L1StandardBridge.sol\";\n//import \"./4_SimpleNFT.sol\";\n\nimport \"@uniswap/v3-periphery/contracts/interfaces/ISwapRouter.sol\";\nimport \"@uniswap/v3-core/contracts/interfaces/IUniswapV3Factory.sol\";\nimport {UniswapV2Library} from \"@uniswap/v2-periphery/contracts/libraries/UniswapV2Library.sol\";\n\n// SPDX-License-Identifier: MIT\n\ncontract Campaign {\n    \n    using SafeMath for uint;\n    using SafeERC20 for IERC20;\n    \n    uint256 constant MAX_UINT = 2 ** 256 - 1;\n    \n    uint public id;\n    string public name;\n    uint public currFund;\n    uint public goal;\n    address payable public owner;\n    bool public finished = false;\n    string public description;\n    string[] public mails;\n    uint public mailCount;\n    address wantToken;\n    uint public endTimeStamp;\n    mapping(address => bool) donators;\n    //SimpleNFT public nfts;\n    string public URI;\n    address wantTokenL2;\n    \n    address public v3factory=0x1F98431c8aD98523631AE4a59f267346ea31F984;\n    address public v3router=0xE592427A0AEce92De3Edee1F18E0157C05861564;\n    address public WETH=0x4200000000000000000000000000000000000006;\n    mapping(address => bool) private routerApprovedTokens;\n    address public L2;\n    address public L1StandardBridge = 0x22F24361D548e5FaAfb36d1437839f080363982B;\n    uint24 public constant poolFee = 3000;\n\n    constructor(uint _id, string memory _name, uint _goal, string memory _description, uint _endTimeStamp, address _wantToken, string memory _uri){\n        id = _id;\n        name = _name;\n        currFund = 0;\n        goal = _goal;\n        description = _description;\n        owner = msg.sender;\n        endTimeStamp = _endTimeStamp;\n        wantToken = _wantToken;\n        URI = _uri;\n    }\n    event GoalReached(uint totalFund, uint goal, uint campaignId, string name, string[] mails);\n    event Donated(uint amount, uint campaignId, string name, string mail, address donorToken);\n    \n    function donateTokens(string memory _mail, address _donorToken, uint256 _finalDonationAmount) private {\n        IERC20(_donorToken).transferFrom(\n                msg.sender,\n                address(this),\n                _finalDonationAmount\n            );\n            \n        currFund += _finalDonationAmount;\n        mails.push(_mail);\n        mailCount++;\n\n        if (currFund == goal) {\n            emit GoalReached(currFund, goal, id, name, mails);\n            finished = true;\n            withdraw();\n        }\n            \n        emit Donated(msg.value, id, name, _mail, _donorToken);\n        if (donators[msg.sender] == false){\n                //nfts.createSimpleNFT(_uri);\n            donators[msg.sender] = true;\n        }\n        return;\n    }\n    function getAmounts(uint256 _amountIn, address _donorToken, address wantToken) private returns(uint256, uint256){\n        (uint256 reserveA, uint256 reserveB) = UniswapV2Library.getReserves(\n            address(v3factory),\n            _donorToken,\n            wantToken\n        );\n\n        uint256 _amountInWantTokens = UniswapV2Library.getAmountOut(\n            _amountIn,\n            reserveA,\n            reserveB\n        );\n\n        uint256 _maxDonationAmountInWantTokens = getMaxDonationAmount(_amountInWantTokens);\n\n        uint256 _finalDonationAmount = UniswapV2Library.getAmountOut(\n            _maxDonationAmountInWantTokens,\n            reserveB,\n            reserveA\n        );\n        return (_finalDonationAmount, _maxDonationAmountInWantTokens);\n    }\n    function donate(string memory _mail, address _donorToken, uint256 _amountIn) public payable returns(bool sufficient) {\n        require(IERC20(_donorToken).balanceOf(msg.sender) >= _amountIn, \"Campaign::donate: Insuficient funds\");\n        require(endTimeStamp > block.timestamp, \"Campaign::donate: This campaign has already finished\");\n        //require(currFund + _amountIn <= goal, \"Campaign::donate: Hard cap reached\");\n        require(_donorToken != address(0), \"SupportChildren::donate: donorToken == 0x, use donateETH instead\");\n        \n        //bool isCampaignInETH = wantToken == address(0x4200000000000000000000000000000000000006);\n        uint256 _finalDonationAmount = 0;\n\n        if (wantToken == _donorToken) {\n            _finalDonationAmount = getMaxDonationAmount(_amountIn);\n            donateTokens(_mail, _donorToken, _finalDonationAmount);\n            return true;\n        }\n        \n        // if (isCampaignInETH) {\n        //     wantToken = WETH; // no direct pairs to eth in uniswap v2\n        // }\n        \n        require(\n            IUniswapV3Factory(v3factory).getPool(_donorToken, wantToken, poolFee) != address(0),\n            \"SupportChildren::donate: No direct pool exists\"\n        );\n\n        address[] memory path = new address[](2);\n        path[0] = _donorToken;\n        path[1] = wantToken;\n        uint256 _amountInWantTokens;\n        uint256 _maxDonationAmountInWantTokens;\n        (_finalDonationAmount, _maxDonationAmountInWantTokens) = getAmounts(_amountIn, _donorToken, wantToken);\n\n        IERC20(_donorToken).transferFrom(\n            msg.sender,\n            address(this),\n            _finalDonationAmount\n        );\n\n        if (routerApprovedTokens[_donorToken] != true) {\n            IERC20(_donorToken).approve(address(v3router), MAX_UINT);\n            routerApprovedTokens[_donorToken] = true;\n        }\n\n        uint256 _swapReturnValues;\n\n        // if (isCampaignInETH) {\n        //     ISwapRouter.ExactInputSingleParams memory params =\n        //     ISwapRouter.ExactInputSingleParams({\n        //         tokenIn: _donorToken,\n        //         tokenOut: WETH,\n        //         fee: poolFee,\n        //         recipient: address(this),\n        //         deadline: block.timestamp + 1000,\n        //         amountIn: _finalDonationAmount,\n        //         amountOutMinimum: _maxDonationAmountInWantTokens.mul(9700).div(10000),\n        //         sqrtPriceLimitX96: 0\n        //     });\n        //     _swapReturnValues = ISwapRouter(v3router).exactInputSingle(params);\n        //     if (L2 != address(0)){\n        //         iOVM_L1StandardBridge(L1StandardBridge).depositETHTo{value: address(this).balance}(L2,2000000,\"0x\");\n        //     }\n        // } else {\n            ISwapRouter.ExactInputSingleParams memory params =\n            ISwapRouter.ExactInputSingleParams({\n                tokenIn: path[0],\n                tokenOut: path[1],\n                fee: poolFee,\n                recipient: address(this),\n                deadline: block.timestamp + 1000,\n                amountIn: _finalDonationAmount,\n                amountOutMinimum: _maxDonationAmountInWantTokens.mul(9700).div(10000),\n                sqrtPriceLimitX96: 0\n            });\n            _swapReturnValues = ISwapRouter(v3router).exactInputSingle(params);\n            // if (L2 != address(0)){\n            //     iOVM_L1StandardBridge(L1StandardBridge).depositERC20To(wantToken, wantTokenL2, L2, IERC20(_donorToken).balanceOf(address(this)), 2000000, \"0x\");\n            // }\n        \n        currFund += _finalDonationAmount;\n            mails.push(_mail);\n            mailCount++;\n        \n        if (currFund == goal) {\n            emit GoalReached(currFund, goal, id, name, mails);\n            finished = true;\n            withdraw();\n        }\n        \n        emit Donated(msg.value, id, name, _mail, _donorToken);\n        if (donators[msg.sender] == false){\n            //nfts.createSimpleNFT(_uri);\n            donators[msg.sender] = true;\n        }\n        return true;\n        \n        \n    }\n    \n    function expiredWithdraw() public {\n        require(endTimeStamp < block.timestamp, \"Campaign::expiredWithdraw: This campaign is still active\");\n        require(msg.sender == owner, \"campaign::expiredWithdraw: Only the beneficiary can withdraw the funds\");\n        uint256 balance = IERC20(0x4200000000000000000000000000000000000006).balanceOf(address(this));\n        owner.transfer(balance);\n    }\n\n    function withdraw() private returns(bool sufficient) {\n        uint256 balance = IERC20(0x4200000000000000000000000000000000000006).balanceOf(address(this));\n        owner.transfer(balance);\n        return true;\n        }\n        \n    function changeEndDate(uint _endTimeStamp) public {\n        endTimeStamp = _endTimeStamp;\n    }\n    \n    // function donateETH(string memory _mail) external payable {\n    //     //uint256 balance = IERC20(0x4200000000000000000000000000000000000006).balanceOf(msg.sender);\n    //     //require(msg.sender.balance >= _amountIn, \"Campaign::donate: Insuficient funds\");\n    //     require(endTimeStamp > block.timestamp, \"Campaign::donate: This campaign has already finished\");\n    //     require(msg.value > 0, \"SupportChildren::donateETH: You must send ether\");\n\n    //     uint256 _finalDonationAmount = 0;\n\n    //     if (wantToken == address(0)) {\n\n    //         _finalDonationAmount = getMaxDonationAmount(msg.value);\n\n    //         //payable(_beneficiary).transfer(_finalDonationAmount);\n    //         currFund += _finalDonationAmount;\n\n    //         if (msg.value > _finalDonationAmount) {\n    //             payable(msg.sender).transfer(msg.value - _finalDonationAmount);\n    //         }\n\n    //         if (donators[msg.sender] == false){\n    //             donators[msg.sender] = true;\n    //         }\n\n    //         emit Donated(msg.value, id, name, _mail, WETH);\n    //         if (L2 != address(0)){\n    //             iOVM_L1StandardBridge(L1StandardBridge).depositETHTo{value: address(this).balance}(L2,2000000,\"0x\");\n    //         }\n    //         return;\n    //     }\n\n    //     require(IUniswapV3Factory(v3factory).getPool(WETH, wantToken, poolFee) != address(0), \"no direct pool exists\");\n\n    //     address[] memory path = new address[](2);\n    //     path[0] = WETH;\n    //     path[1] = wantToken;\n    //     uint256 _maxDonationAmountInWantTokens;\n    //     (_finalDonationAmount, _maxDonationAmountInWantTokens) = getAmounts(msg.value, path[0], wantToken);\n\n    //     ISwapRouter.ExactInputSingleParams memory params =\n    //         ISwapRouter.ExactInputSingleParams({\n    //             tokenIn: path[0],\n    //             tokenOut: path[1],\n    //             fee: poolFee,\n    //             recipient: address(this),\n    //             deadline: block.timestamp + 1000,\n    //             amountIn: _finalDonationAmount,\n    //             amountOutMinimum: _maxDonationAmountInWantTokens,\n    //             sqrtPriceLimitX96: 0\n    //         });\n    //     uint _swapReturnValues =\n    //     ISwapRouter(v3router).exactInputSingle{value: _finalDonationAmount}(params);\n\n    //     if (donators[msg.sender] == false){\n    //         donators[msg.sender] = true;\n    //     }\n\n    //     currFund += _swapReturnValues;\n\n    //     if (msg.value > _finalDonationAmount) {\n    //         payable(msg.sender).transfer(msg.value - _finalDonationAmount);\n    //     }\n\n    //     emit Donated(msg.value, id, name, _mail, WETH);\n    //     if (L2 != address(0)){\n    //             iOVM_L1StandardBridge(L1StandardBridge).depositERC20To(wantToken, wantTokenL2, L2, IERC20(wantToken).balanceOf(address(this)), 2000000, \"0x\");\n    //         }\n    //     return;\n    // }\n\n    function getMaxDonationAmount(uint256 _amountIn) internal view returns (uint256 maxDonationAmount) {\n        uint256 _maxPossibleDonation = goal - currFund;\n        if (_amountIn <= _maxPossibleDonation) {\n            return _amountIn;\n        }\n        return _maxPossibleDonation;\n    }\n    \n}",
  "sourcePath": "/Users/Karlo/faks/Web3/challenge3/eth-dapp/truffle project/contracts/1_CampaignOVM.sol",
  "compiler": {
    "name": "solc",
    "version": "0.7.6+commit.7338295f.Emscripten.clang"
  },
  "schemaVersion": "3.4.1",
  "updatedAt": "2021-09-02T21:42:29.528Z",
  "devdoc": {
    "kind": "dev",
    "methods": {},
    "version": 1
  },
  "userdoc": {
    "kind": "user",
    "methods": {},
    "version": 1
  }
}