{
  "contractName": "Campaign",
  "abi": [
    {
      "inputs": [
        {
          "internalType": "uint256",
          "name": "_id",
          "type": "uint256"
        },
        {
          "internalType": "string",
          "name": "_name",
          "type": "string"
        },
        {
          "internalType": "uint256",
          "name": "_goal",
          "type": "uint256"
        },
        {
          "internalType": "string",
          "name": "_description",
          "type": "string"
        },
        {
          "internalType": "uint256",
          "name": "_endTimeStamp",
          "type": "uint256"
        },
        {
          "internalType": "address",
          "name": "_wantToken",
          "type": "address"
        },
        {
          "internalType": "string",
          "name": "_uri",
          "type": "string"
        }
      ],
      "stateMutability": "nonpayable",
      "type": "constructor"
    },
    {
      "anonymous": false,
      "inputs": [
        {
          "indexed": false,
          "internalType": "uint256",
          "name": "amount",
          "type": "uint256"
        },
        {
          "indexed": false,
          "internalType": "uint256",
          "name": "campaignId",
          "type": "uint256"
        },
        {
          "indexed": false,
          "internalType": "string",
          "name": "name",
          "type": "string"
        },
        {
          "indexed": false,
          "internalType": "string",
          "name": "mail",
          "type": "string"
        },
        {
          "indexed": false,
          "internalType": "address",
          "name": "donorToken",
          "type": "address"
        }
      ],
      "name": "Donated",
      "type": "event"
    },
    {
      "anonymous": false,
      "inputs": [
        {
          "indexed": false,
          "internalType": "uint256",
          "name": "totalFund",
          "type": "uint256"
        },
        {
          "indexed": false,
          "internalType": "uint256",
          "name": "goal",
          "type": "uint256"
        },
        {
          "indexed": false,
          "internalType": "uint256",
          "name": "campaignId",
          "type": "uint256"
        },
        {
          "indexed": false,
          "internalType": "string",
          "name": "name",
          "type": "string"
        },
        {
          "indexed": false,
          "internalType": "string[]",
          "name": "mails",
          "type": "string[]"
        }
      ],
      "name": "GoalReached",
      "type": "event"
    },
    {
      "inputs": [],
      "name": "L1StandardBridge",
      "outputs": [
        {
          "internalType": "address",
          "name": "",
          "type": "address"
        }
      ],
      "stateMutability": "view",
      "type": "function"
    },
    {
      "inputs": [],
      "name": "L2",
      "outputs": [
        {
          "internalType": "address",
          "name": "",
          "type": "address"
        }
      ],
      "stateMutability": "view",
      "type": "function"
    },
    {
      "inputs": [],
      "name": "URI",
      "outputs": [
        {
          "internalType": "string",
          "name": "",
          "type": "string"
        }
      ],
      "stateMutability": "view",
      "type": "function"
    },
    {
      "inputs": [],
      "name": "WETH",
      "outputs": [
        {
          "internalType": "address",
          "name": "",
          "type": "address"
        }
      ],
      "stateMutability": "view",
      "type": "function"
    },
    {
      "inputs": [],
      "name": "currFund",
      "outputs": [
        {
          "internalType": "uint256",
          "name": "",
          "type": "uint256"
        }
      ],
      "stateMutability": "view",
      "type": "function"
    },
    {
      "inputs": [],
      "name": "description",
      "outputs": [
        {
          "internalType": "string",
          "name": "",
          "type": "string"
        }
      ],
      "stateMutability": "view",
      "type": "function"
    },
    {
      "inputs": [],
      "name": "endTimeStamp",
      "outputs": [
        {
          "internalType": "uint256",
          "name": "",
          "type": "uint256"
        }
      ],
      "stateMutability": "view",
      "type": "function"
    },
    {
      "inputs": [],
      "name": "finished",
      "outputs": [
        {
          "internalType": "bool",
          "name": "",
          "type": "bool"
        }
      ],
      "stateMutability": "view",
      "type": "function"
    },
    {
      "inputs": [],
      "name": "goal",
      "outputs": [
        {
          "internalType": "uint256",
          "name": "",
          "type": "uint256"
        }
      ],
      "stateMutability": "view",
      "type": "function"
    },
    {
      "inputs": [],
      "name": "id",
      "outputs": [
        {
          "internalType": "uint256",
          "name": "",
          "type": "uint256"
        }
      ],
      "stateMutability": "view",
      "type": "function"
    },
    {
      "inputs": [],
      "name": "mailCount",
      "outputs": [
        {
          "internalType": "uint256",
          "name": "",
          "type": "uint256"
        }
      ],
      "stateMutability": "view",
      "type": "function"
    },
    {
      "inputs": [
        {
          "internalType": "uint256",
          "name": "",
          "type": "uint256"
        }
      ],
      "name": "mails",
      "outputs": [
        {
          "internalType": "string",
          "name": "",
          "type": "string"
        }
      ],
      "stateMutability": "view",
      "type": "function"
    },
    {
      "inputs": [],
      "name": "name",
      "outputs": [
        {
          "internalType": "string",
          "name": "",
          "type": "string"
        }
      ],
      "stateMutability": "view",
      "type": "function"
    },
    {
      "inputs": [],
      "name": "owner",
      "outputs": [
        {
          "internalType": "address payable",
          "name": "",
          "type": "address"
        }
      ],
      "stateMutability": "view",
      "type": "function"
    },
    {
      "inputs": [],
      "name": "poolFee",
      "outputs": [
        {
          "internalType": "uint24",
          "name": "",
          "type": "uint24"
        }
      ],
      "stateMutability": "view",
      "type": "function"
    },
    {
      "inputs": [],
      "name": "v3factory",
      "outputs": [
        {
          "internalType": "address",
          "name": "",
          "type": "address"
        }
      ],
      "stateMutability": "view",
      "type": "function"
    },
    {
      "inputs": [],
      "name": "v3router",
      "outputs": [
        {
          "internalType": "address",
          "name": "",
          "type": "address"
        }
      ],
      "stateMutability": "view",
      "type": "function"
    },
    {
      "inputs": [
        {
          "internalType": "string",
          "name": "_mail",
          "type": "string"
        },
        {
          "internalType": "address",
          "name": "_donorToken",
          "type": "address"
        },
        {
          "internalType": "uint256",
          "name": "_amountIn",
          "type": "uint256"
        }
      ],
      "name": "donate",
      "outputs": [
        {
          "internalType": "bool",
          "name": "sufficient",
          "type": "bool"
        }
      ],
      "stateMutability": "payable",
      "type": "function"
    },
    {
      "inputs": [],
      "name": "expiredWithdraw",
      "outputs": [],
      "stateMutability": "nonpayable",
      "type": "function"
    },
    {
      "inputs": [
        {
          "internalType": "uint256",
          "name": "_endTimeStamp",
          "type": "uint256"
        }
      ],
      "name": "changeEndDate",
      "outputs": [],
      "stateMutability": "nonpayable",
      "type": "function"
    }
  ],
  "bytecode": "0x60806040526000600460146101000a81620000196200036a565b8160ff0219169083151502179062000030620003cf565b505050731f98431c8ad98523631ae4a59f267346ea31f984600d60006101000a816200005b6200036a565b8173ffffffffffffffffffffffffffffffffffffffff021916908373ffffffffffffffffffffffffffffffffffffffff1602179062000099620003cf565b50505073e592427a0aece92de3edee1f18e0157c05861564600e60006101000a81620000c46200036a565b8173ffffffffffffffffffffffffffffffffffffffff021916908373ffffffffffffffffffffffffffffffffffffffff1602179062000102620003cf565b505050734200000000000000000000000000000000000006600f60006101000a816200012d6200036a565b8173ffffffffffffffffffffffffffffffffffffffff021916908373ffffffffffffffffffffffffffffffffffffffff160217906200016b620003cf565b5050507322f24361d548e5faafb36d1437839f080363982b601260006101000a81620001966200036a565b8173ffffffffffffffffffffffffffffffffffffffff021916908373ffffffffffffffffffffffffffffffffffffffff16021790620001d4620003cf565b505050348015620001ef57600080620001ec62000436565b50505b5060405162004255380380620042558339818101604052810190620002159190620006b1565b866000819062000224620003cf565b50505085600190805190602001906200023f929190620004a6565b5060006002819062000250620003cf565b505050846003819062000262620003cf565b50505083600590805190602001906200027d929190620004a6565b505a6200028962000572565b600460006101000a816200029c6200036a565b8173ffffffffffffffffffffffffffffffffffffffff021916908373ffffffffffffffffffffffffffffffffffffffff16021790620002da620003cf565b5050508260098190620002ec620003cf565b50505081600860006101000a81620003036200036a565b8173ffffffffffffffffffffffffffffffffffffffff021916908373ffffffffffffffffffffffffffffffffffffffff1602179062000341620003cf565b50505080600b90805190602001906200035c929190620004a6565b5050505050505050620008fc565b6303daa959598160e01b8152836004820152602081602483336000905af158600e01573d6000803e3d6000fd5b3d6001141558600a015760016000f35b8051935060005b6040811015620003ca57600081830152602081019050620003ae565b505050565b6322bd64c0598160e01b8152836004820152846024820152600081604483336000905af158600e01573d6000803e3d6000fd5b3d6001141558600a015760016000f35b60005b6040811015620004315760008183015260208101905062000415565b505050565b632a2a7adb598160e01b8152600481016020815285602082015260005b868110156200047357808601518160408401015260208101905062000453565b506020828760640184336000905af158600e01573d6000803e3d6000fd5b3d6001141558600a015760016000f35b505050565b8280620004b26200036a565b600181600116156101000203166002900490600052602060002090601f016020900481019282620004f257600085620004ea620003cf565b50506200055f565b82601f106200051857805160ff1916838001178562000510620003cf565b50506200055f565b8280016001018562000529620003cf565b505082156200055f579182015b828111156200055e578251826200054c620003cf565b50509160200191906001019062000536565b5b5090506200056e9190620005d1565b5090565b6373509064598160e01b8152602081600483336000905af158600e01573d6000803e3d6000fd5b3d6001141558600a015760016000f35b8051935060005b6040811015620005cc57600081830152602081019050620005b0565b505050565b5b80821115620005f757600081600090620005eb620003cf565b505050600101620005d2565b5090565b6000620006126200060c8462000809565b620007d5565b90508281526020810184848401111562000636576000806200063362000436565b50505b620006438482856200087a565b509392505050565b6000815190506200065c81620008b2565b92915050565b600082601f8301126200067f576000806200067c62000436565b50505b815162000691848260208601620005fb565b91505092915050565b600081519050620006ab81620008d7565b92915050565b600080600080600080600060e0888a031215620006d857600080620006d562000436565b50505b6000620006e88a828b016200069a565b975050602088015167ffffffffffffffff81111562000711576000806200070e62000436565b50505b6200071f8a828b0162000662565b9650506040620007328a828b016200069a565b955050606088015167ffffffffffffffff8111156200075b576000806200075862000436565b50505b620007698a828b0162000662565b94505060806200077c8a828b016200069a565b93505060a06200078f8a828b016200064b565b92505060c088015167ffffffffffffffff811115620007b857600080620007b562000436565b50505b620007c68a828b0162000662565b91505092959891949750929550565b6000604051905081810181811067ffffffffffffffff82111715620007ff57620007fe620008b0565b5b8060405250919050565b600067ffffffffffffffff821115620008275762000826620008b0565b5b601f19601f8301169050602081019050919050565b6000620008498262000850565b9050919050565b600073ffffffffffffffffffffffffffffffffffffffff82169050919050565b6000819050919050565b60005b838110156200089a5780820151818401526020810190506200087d565b83811115620008aa576000848401525b50505050565bfe5b620008bd816200083c565b8114620008d457600080620008d162000436565b50505b50565b620008e28162000870565b8114620008f957600080620008f662000436565b50505b50565b613949806200090c6000396000f3fe60806040526004361061011f5760003560e01c80637284e416116100a0578063af640d0f11610064578063af640d0f14610431578063bb66834e14610465578063bef4876b14610499578063dec97828146104cd578063dfca0922146105015761011f565b80637284e4161461032d57806381426ec21461036157806387a22b22146103955780638da5cb5b146103c9578063ad5c4648146103fd5761011f565b80632fdef9c3116100e75780632fdef9c31461021d578063401938831461026357806345737b1e1461029757806351906bb0146102c95780635af7319c146102fd5761011f565b806306fdde031461012d578063081752bb14610161578063089fe6aa146101955780631141d7de146101c95780631eaa1c8b146101fd575b60008061012a612667565b50505b3480156101425760008061013f612667565b50505b5061014b610535565b604051610158919061347d565b60405180910390f35b34801561017657600080610173612667565b50505b5061017f6105ef565b60405161018c919061337a565b60405180910390f35b3480156101aa576000806101a7612667565b50505b506101b361061c565b6040516101c0919061357b565b60405180910390f35b3480156101de576000806101db612667565b50505b506101e7610622565b6040516101f4919061347d565b60405180910390f35b3480156102125760008061020f612667565b50505b5061021b6106dc565b005b3480156102325760008061022f612667565b50505b5061024d60048036038101906102489190612d59565b61098a565b60405161025a919061347d565b60405180910390f35b34801561027857600080610275612667565b50505b50610281610a72565b60405161028e9190613596565b60405180910390f35b3480156102ac576000806102a9612667565b50505b506102c760048036038101906102c29190612d59565b610a7f565b005b3480156102de576000806102db612667565b50505b506102e7610a92565b6040516102f49190613596565b60405180910390f35b61031760048036038101906103129190612ce0565b610a9f565b6040516103249190613462565b60405180910390f35b3480156103425760008061033f612667565b50505b5061034b61173e565b604051610358919061347d565b60405180910390f35b34801561037657600080610373612667565b50505b5061037f6117f8565b60405161038c919061337a565b60405180910390f35b3480156103aa576000806103a7612667565b50505b506103b3611825565b6040516103c0919061337a565b60405180910390f35b3480156103de576000806103db612667565b50505b506103e7611852565b6040516103f491906133b0565b60405180910390f35b3480156104125760008061040f612667565b50505b5061041b61187f565b604051610428919061337a565b60405180910390f35b34801561044657600080610443612667565b50505b5061044f6118ac565b60405161045c9190613596565b60405180910390f35b34801561047a57600080610477612667565b50505b506104836118b9565b6040516104909190613596565b60405180910390f35b3480156104ae576000806104ab612667565b50505b506104b76118c6565b6040516104c49190613462565b60405180910390f35b3480156104e2576000806104df612667565b50505b506104eb6118e0565b6040516104f89190613596565b60405180910390f35b34801561051657600080610513612667565b50505b5061051f6118ed565b60405161052c919061337a565b60405180910390f35b6001806105406126d5565b600181600116156101000203166002900480601f0160208091040260200160405190810160405280929190818152602001828061057b6126d5565b600181600116156101000203166002900480156105e75780601f106105b55761010080836105a76126d5565b0402835291602001916105e7565b820191906000526020600020905b816105cc6126d5565b815290600101906020018083116105c357829003601f168201915b505050505081565b60116000906105fc6126d5565b906101000a900473ffffffffffffffffffffffffffffffffffffffff1681565b610bb881565b600b8061062d6126d5565b600181600116156101000203166002900480601f016020809104026020016040519081016040528092919081815260200182806106686126d5565b600181600116156101000203166002900480156106d45780601f106106a25761010080836106946126d5565b0402835291602001916106d4565b820191906000526020600020905b816106b96126d5565b815290600101906020018083116106b057829003601f168201915b505050505081565b5a6106e5612738565b60096106ef6126d5565b10610738576040517f08c379a00000000000000000000000000000000000000000000000000000000081526004016107269061351f565b60405180910390610735612667565b50505b60046000906107456126d5565b906101000a900473ffffffffffffffffffffffffffffffffffffffff1673ffffffffffffffffffffffffffffffffffffffff165a610781612795565b73ffffffffffffffffffffffffffffffffffffffff16146107e0576040517f08c379a00000000000000000000000000000000000000000000000000000000081526004016107ce906134df565b604051809103906107dd612667565b50505b600073420000000000000000000000000000000000000673ffffffffffffffffffffffffffffffffffffffff166370a082315a63996d79a5598160e01b8152602081600483336000905af158600e01573d6000803e3d6000fd5b3d6001141558600a015760016000f35b8051925060005b604081101561086b57600081830152602081019050610851565b5050506040518263ffffffff1660e01b815260040161088a919061337a565b602060405180830381868061089d6127f2565b1580156108b2576000806108af612667565b50505b505a6108bc612855565b50505050501580156108db573d6000803e3d60006108d8612667565b50505b505050506040513d601f19601f820116820180604052508101906108ff9190612d8b565b9050600460009061090e6126d5565b906101000a900473ffffffffffffffffffffffffffffffffffffffff1673ffffffffffffffffffffffffffffffffffffffff166108fc829081150290604051600060405180830381858888610961612955565b5050505050509350505050158015610986573d6000803e3d6000610983612667565b50505b5050565b600681816109966126d5565b81106109aa576000806109a7612667565b50505b90600052602060002001600091509050806109c36126d5565b600181600116156101000203166002900480601f016020809104026020016040519081016040528092919081815260200182806109fe6126d5565b60018160011615610100020316600290048015610a6a5780601f10610a38576101008083610a2a6126d5565b040283529160200191610a6a565b820191906000526020600020905b81610a4f6126d5565b81529060010190602001808311610a4657829003601f168201915b505050505081565b6003610a7c6126d5565b81565b8060098190610a8c612a55565b50505050565b6009610a9c6126d5565b81565b6000818373ffffffffffffffffffffffffffffffffffffffff166370a082315a610ac7612795565b6040518263ffffffff1660e01b8152600401610ae39190613395565b6020604051808303818680610af66127f2565b158015610b0b57600080610b08612667565b50505b505a610b15612855565b5050505050158015610b34573d6000803e3d6000610b31612667565b50505b505050506040513d601f19601f82011682018060405250810190610b589190612d8b565b1015610ba2576040517f08c379a0000000000000000000000000000000000000000000000000000000008152600401610b909061349f565b60405180910390610b9f612667565b50505b5a610bab612738565b6009610bb56126d5565b11610bfe576040517f08c379a0000000000000000000000000000000000000000000000000000000008152600401610bec906134ff565b60405180910390610bfb612667565b50505b600073ffffffffffffffffffffffffffffffffffffffff168373ffffffffffffffffffffffffffffffffffffffff161415610c77576040517f08c379a0000000000000000000000000000000000000000000000000000000008152600401610c659061353f565b60405180910390610c74612667565b50505b60008373ffffffffffffffffffffffffffffffffffffffff166008600090610c9d6126d5565b906101000a900473ffffffffffffffffffffffffffffffffffffffff1673ffffffffffffffffffffffffffffffffffffffff161415610cf657610cdf8361191a565b9050610cec85858361194e565b6001915050611737565b600073ffffffffffffffffffffffffffffffffffffffff16600d600090610d1b6126d5565b906101000a900473ffffffffffffffffffffffffffffffffffffffff1673ffffffffffffffffffffffffffffffffffffffff16631698ee82866008600090610d616126d5565b906101000a900473ffffffffffffffffffffffffffffffffffffffff16610bb86040518463ffffffff1660e01b8152600401610d9f93929190613402565b6020604051808303818680610db26127f2565b158015610dc757600080610dc4612667565b50505b505a610dd1612855565b5050505050158015610df0573d6000803e3d6000610ded612667565b50505b505050506040513d601f19601f82011682018060405250810190610e149190612c7c565b73ffffffffffffffffffffffffffffffffffffffff161415610e74576040517f08c379a0000000000000000000000000000000000000000000000000000000008152600401610e62906134bf565b60405180910390610e71612667565b50505b6000600267ffffffffffffffff81118015610e9757600080610e94612667565b50505b50604051908082528060200260200182016040528015610ec65781602001602082028036833780820191505090505b5090508481600081518110610ed757fe5b602002602001019073ffffffffffffffffffffffffffffffffffffffff16908173ffffffffffffffffffffffffffffffffffffffff16815250506008600090610f1e6126d5565b906101000a900473ffffffffffffffffffffffffffffffffffffffff1681600181518110610f4857fe5b602002602001019073ffffffffffffffffffffffffffffffffffffffff16908173ffffffffffffffffffffffffffffffffffffffff1681525050600080610fb986886008600090610f976126d5565b906101000a900473ffffffffffffffffffffffffffffffffffffffff16611cc7565b80925081955050508673ffffffffffffffffffffffffffffffffffffffff166323b872dd5a610fe6612795565b5a63996d79a5598160e01b8152602081600483336000905af158600e01573d6000803e3d6000fd5b3d6001141558600a015760016000f35b8051925060005b604081101561103f57600081830152602081019050611025565b505050876040518463ffffffff1660e01b8152600401611061939291906133cb565b602060405180830381600087806110766127f2565b15801561108b57600080611088612667565b50505b505a611095612955565b5050505050501580156110b5573d6000803e3d60006110b2612667565b50505b505050506040513d601f19601f820116820180604052508101906110d99190612cae565b5060011515601060008973ffffffffffffffffffffffffffffffffffffffff1673ffffffffffffffffffffffffffffffffffffffff1681526020019081526020016000206000906111286126d5565b906101000a900460ff1615151461129f578673ffffffffffffffffffffffffffffffffffffffff1663095ea7b3600e6000906111626126d5565b906101000a900473ffffffffffffffffffffffffffffffffffffffff167fffffffffffffffffffffffffffffffffffffffffffffffffffffffffffffffff6040518363ffffffff1660e01b81526004016111bd929190613439565b602060405180830381600087806111d26127f2565b1580156111e7576000806111e4612667565b50505b505a6111f1612955565b505050505050158015611211573d6000803e3d600061120e612667565b50505b505050506040513d601f19601f820116820180604052508101906112359190612cae565b506001601060008973ffffffffffffffffffffffffffffffffffffffff1673ffffffffffffffffffffffffffffffffffffffff16815260200190815260200160002060006101000a816112866126d5565b8160ff0219169083151502179061129b612a55565b5050505b600080604051806101000160405280866000815181106112bb57fe5b602002602001015173ffffffffffffffffffffffffffffffffffffffff168152602001866001815181106112eb57fe5b602002602001015173ffffffffffffffffffffffffffffffffffffffff168152602001610bb862ffffff1681526020015a63996d79a5598160e01b8152602081600483336000905af158600e01573d6000803e3d6000fd5b3d6001141558600a015760016000f35b8051925060005b60408110156113745760008183015260208101905061135a565b50505073ffffffffffffffffffffffffffffffffffffffff1681526020016103e85a61139e612738565b0181526020018781526020016113d36127106113c56125e488611d4390919063ffffffff16565b611dd290919063ffffffff16565b8152602001600073ffffffffffffffffffffffffffffffffffffffff168152509050600e6000906114026126d5565b906101000a900473ffffffffffffffffffffffffffffffffffffffff1673ffffffffffffffffffffffffffffffffffffffff1663414bf389826040518263ffffffff1660e01b8152600401611457919061355f565b6020604051808303816000878061146c6127f2565b1580156114815760008061147e612667565b50505b505a61148b612955565b5050505050501580156114ab573d6000803e3d60006114a8612667565b50505b505050506040513d601f19601f820116820180604052508101906114cf9190612d8b565b9150856002600082826114e06126d5565b0192505081906114ee612a55565b50505060068a90806001816115016126d5565b01808261150c612a55565b5050809150506001900390600052602060002001600090919091909150908051906020019061153c929190612aba565b50600760008161154a6126d5565b8092919060010191905061155c612a55565b50505060036115696126d5565b60026115736126d5565b141561160a577f314217ebdf17981d4a26c0519c8810c5b95359d28c649f331ae684df59190db260026115a46126d5565b60036115ae6126d5565b60006115b86126d5565b600160066040516115cd959493929190613612565b60405180910390a16001600460146101000a816115e86126d5565b8160ff021916908315150217906115fd612a55565b505050611608611e1c565b505b7f1c9e0c4c164a4cd3223a9c561d40e2223428d825bae108fdae97049add3dcfff3460006116366126d5565b60018d8d60405161164b9594939291906135b1565b60405180910390a160001515600a60005a611664612795565b73ffffffffffffffffffffffffffffffffffffffff1673ffffffffffffffffffffffffffffffffffffffff1681526020019081526020016000206000906116a96126d5565b906101000a900460ff161515141561172c576001600a60005a6116ca612795565b73ffffffffffffffffffffffffffffffffffffffff1673ffffffffffffffffffffffffffffffffffffffff16815260200190815260200160002060006101000a816117136126d5565b8160ff02191690831515021790611728612a55565b5050505b600196505050505050505b9392505050565b6005806117496126d5565b600181600116156101000203166002900480601f016020809104026020016040519081016040528092919081815260200182806117846126d5565b600181600116156101000203166002900480156117f05780601f106117be5761010080836117b06126d5565b0402835291602001916117f0565b820191906000526020600020905b816117d56126d5565b815290600101906020018083116117cc57829003601f168201915b505050505081565b60126000906118056126d5565b906101000a900473ffffffffffffffffffffffffffffffffffffffff1681565b600d6000906118326126d5565b906101000a900473ffffffffffffffffffffffffffffffffffffffff1681565b600460009061185f6126d5565b906101000a900473ffffffffffffffffffffffffffffffffffffffff1681565b600f60009061188c6126d5565b906101000a900473ffffffffffffffffffffffffffffffffffffffff1681565b60006118b66126d5565b81565b60026118c36126d5565b81565b60046014906118d36126d5565b906101000a900460ff1681565b60076118ea6126d5565b81565b600e6000906118fa6126d5565b906101000a900473ffffffffffffffffffffffffffffffffffffffff1681565b60008060026119276126d5565b60036119316126d5565b0390508083116119445782915050611949565b809150505b919050565b8173ffffffffffffffffffffffffffffffffffffffff166323b872dd5a611973612795565b5a63996d79a5598160e01b8152602081600483336000905af158600e01573d6000803e3d6000fd5b3d6001141558600a015760016000f35b8051925060005b60408110156119cc576000818301526020810190506119b2565b505050846040518463ffffffff1660e01b81526004016119ee939291906133cb565b60206040518083038160008780611a036127f2565b158015611a1857600080611a15612667565b50505b505a611a22612955565b505050505050158015611a42573d6000803e3d6000611a3f612667565b50505b505050506040513d601f19601f82011682018060405250810190611a669190612cae565b5080600260008282611a766126d5565b019250508190611a84612a55565b5050506006839080600181611a976126d5565b018082611aa2612a55565b50508091505060019003906000526020600020016000909190919091509080519060200190611ad2929190612aba565b506007600081611ae06126d5565b80929190600101919050611af2612a55565b5050506003611aff6126d5565b6002611b096126d5565b1415611ba0577f314217ebdf17981d4a26c0519c8810c5b95359d28c649f331ae684df59190db26002611b3a6126d5565b6003611b446126d5565b6000611b4e6126d5565b60016006604051611b63959493929190613612565b60405180910390a16001600460146101000a81611b7e6126d5565b8160ff02191690831515021790611b93612a55565b505050611b9e611e1c565b505b7f1c9e0c4c164a4cd3223a9c561d40e2223428d825bae108fdae97049add3dcfff346000611bcc6126d5565b60018686604051611be19594939291906135b1565b60405180910390a160001515600a60005a611bfa612795565b73ffffffffffffffffffffffffffffffffffffffff1673ffffffffffffffffffffffffffffffffffffffff168152602001908152602001600020600090611c3f6126d5565b906101000a900460ff1615151415611cc2576001600a60005a611c60612795565b73ffffffffffffffffffffffffffffffffffffffff1673ffffffffffffffffffffffffffffffffffffffff16815260200190815260200160002060006101000a81611ca96126d5565b8160ff02191690831515021790611cbe612a55565b5050505b505050565b600080600080611d01600d600090611cdd6126d5565b906101000a900473ffffffffffffffffffffffffffffffffffffffff168787611fcc565b915091506000611d12888484612123565b90506000611d1f8261191a565b90506000611d2e828587612123565b90508082965096505050505050935093915050565b600080831415611d565760009050611dcc565b6000828402905082848281611d6757fe5b0414611dc7576040517f08c379a00000000000000000000000000000000000000000000000000000000081526004018080602001828103825260218152602001806138fd6021913960400191505060405180910390611dc4612667565b50505b809150505b92915050565b6000611e1483836040518060400160405280601a81526020017f536166654d6174683a206469766973696f6e206279207a65726f000000000000815250612265565b905092915050565b60008073420000000000000000000000000000000000000673ffffffffffffffffffffffffffffffffffffffff166370a082315a63996d79a5598160e01b8152602081600483336000905af158600e01573d6000803e3d6000fd5b3d6001141558600a015760016000f35b8051925060005b6040811015611ea857600081830152602081019050611e8e565b5050506040518263ffffffff1660e01b8152600401611ec7919061337a565b6020604051808303818680611eda6127f2565b158015611eef57600080611eec612667565b50505b505a611ef9612855565b5050505050158015611f18573d6000803e3d6000611f15612667565b50505b505050506040513d601f19601f82011682018060405250810190611f3c9190612d8b565b90506004600090611f4b6126d5565b906101000a900473ffffffffffffffffffffffffffffffffffffffff1673ffffffffffffffffffffffffffffffffffffffff166108fc829081150290604051600060405180830381858888611f9e612955565b5050505050509350505050158015611fc3573d6000803e3d6000611fc0612667565b50505b50600191505090565b6000806000611fdb8585612334565b509050600080611fec8888886124bd565b73ffffffffffffffffffffffffffffffffffffffff16630902f1ac6040518163ffffffff1660e01b8152600401606060405180830381868061202c6127f2565b1580156120415760008061203e612667565b50505b505a61204b612855565b505050505015801561206a573d6000803e3d6000612067612667565b50505b505050506040513d606081101561208957600080612086612667565b50505b81019080805190602001909291908051906020019092919080519060200190929190505050506dffffffffffffffffffffffffffff1691506dffffffffffffffffffffffffffff1691508273ffffffffffffffffffffffffffffffffffffffff168773ffffffffffffffffffffffffffffffffffffffff161461210d578082612110565b81815b8095508196505050505050935093915050565b6000808411612186576040517f08c379a000000000000000000000000000000000000000000000000000000000815260040180806020018281038252602b81526020018061391e602b913960400191505060405180910390612183612667565b50505b6000831180156121965750600082115b6121f4576040517f08c379a00000000000000000000000000000000000000000000000000000000081526004018080602001828103825260288152602001806138d560289139604001915050604051809103906121f1612667565b50505b600061220b6103e586611d4390919063ffffffff16565b905060006122228483611d4390919063ffffffff16565b9050600061224d8361223f6103e889611d4390919063ffffffff16565b6125d690919063ffffffff16565b905080828161225857fe5b0493505050509392505050565b6000808311829061231a576040517f08c379a00000000000000000000000000000000000000000000000000000000081526004018080602001828103825283818151815260200191508051906020019080838360005b838110156122d65780820151818401526020810190506122bb565b50505050905090810190601f1680156123035780820380516001836020036101000a031916815260200191505b509250505060405180910390612317612667565b50505b50600083858161232657fe5b049050809150509392505050565b6000808273ffffffffffffffffffffffffffffffffffffffff168473ffffffffffffffffffffffffffffffffffffffff1614156123c5576040517f08c379a00000000000000000000000000000000000000000000000000000000081526004018080602001828103825260258152602001806138b060259139604001915050604051809103906123c2612667565b50505b8273ffffffffffffffffffffffffffffffffffffffff168473ffffffffffffffffffffffffffffffffffffffff16106123ff578284612402565b83835b8092508193505050600073ffffffffffffffffffffffffffffffffffffffff168273ffffffffffffffffffffffffffffffffffffffff1614156124b6576040517f08c379a000000000000000000000000000000000000000000000000000000000815260040180806020018281038252601e8152602001807f556e697377617056324c6962726172793a205a45524f5f414444524553530000815250602001915050604051809103906124b3612667565b50505b9250929050565b60008060006124cc8585612334565b91509150858282604051602001808373ffffffffffffffffffffffffffffffffffffffff1660601b81526014018273ffffffffffffffffffffffffffffffffffffffff1660601b8152601401925050506040516020818303038152906040528051906020012060405160200180807fff000000000000000000000000000000000000000000000000000000000000008152506001018373ffffffffffffffffffffffffffffffffffffffff1660601b8152601401828152602001807f96e8ac4277198ff8b6f785478aa9a39f403cb768dd02cbee326c3e7da348845f815250602001925050506040516020818303038152906040528051906020012060001c925050509392505050565b60008082840190508381101561265d576040517f08c379a000000000000000000000000000000000000000000000000000000000815260040180806020018281038252601b8152602001807f536166654d6174683a206164646974696f6e206f766572666c6f7700000000008152506020019150506040518091039061265a612667565b50505b8091505092915050565b632a2a7adb598160e01b8152600481016020815285602082015260005b868110156126a2578086015181604084010152602081019050612684565b506020828760640184336000905af158600e01573d6000803e3d6000fd5b3d6001141558600a015760016000f35b505050565b6303daa959598160e01b8152836004820152602081602483336000905af158600e01573d6000803e3d6000fd5b3d6001141558600a015760016000f35b8051935060005b604081101561273357600081830152602081019050612719565b505050565b63bdbf8c36598160e01b8152602081600483336000905af158600e01573d6000803e3d6000fd5b3d6001141558600a015760016000f35b8051935060005b604081101561279057600081830152602081019050612776565b505050565b6373509064598160e01b8152602081600483336000905af158600e01573d6000803e3d6000fd5b3d6001141558600a015760016000f35b8051935060005b60408110156127ed576000818301526020810190506127d3565b505050565b638435035b598160e01b8152836004820152602081602483336000905af158600e01573d6000803e3d6000fd5b3d6001141558600a015760016000f35b8051935060005b604081101561285057600081830152602081019050612836565b505050565b638540661f598160e01b8152612894565b600081905081831115612877578290505b92915050565b60008190508183101561288e578290505b92915050565b836004820152846024820152606060448201528660648201526084810160005b888110156128cf5780880151818301526020810190506128b4565b506060828960a40184336000905af158600e01573d6000803e3d6000fd5b3d6001141558600a015760016000f35b815160408301513d6000853e8b8b82606087013350600060045af150596129248d3d61287d565b8c016129308187612866565b5b828110156129485760008152602081019050612931565b50839d5050505050505050565b6385979f76598160e01b8152612994565b600081905081831115612977578290505b92915050565b60008190508183101561298e578290505b92915050565b836004820152846024820152606060448201528760648201526084810160005b898110156129cf5780890151818301526020810190506129b4565b506060828a60a40184336000905af158600e01573d6000803e3d6000fd5b3d6001141558600a015760016000f35b815160408301513d6000853e8c8c82606087013350600060045af15059612a248e3d61297d565b8d01612a308187612966565b5b82811015612a485760008152602081019050612a31565b50839e5050505050505050565b6322bd64c0598160e01b8152836004820152846024820152600081604483336000905af158600e01573d6000803e3d6000fd5b3d6001141558600a015760016000f35b60005b6040811015612ab557600081830152602081019050612a9b565b505050565b8280612ac46126d5565b600181600116156101000203166002900490600052602060002090601f016020900481019282612b0057600085612af9612a55565b5050612b62565b82601f10612b2257805160ff19168380011785612b1b612a55565b5050612b62565b82800160010185612b31612a55565b50508215612b62579182015b82811115612b6157825182612b50612a55565b505091602001919060010190612b3d565b5b509050612b6f9190612b73565b5090565b5b80821115612b9557600081600090612b8a612a55565b505050600101612b74565b5090565b6000612bac612ba7846136a4565b613673565b905082815260208101848484011115612bcd57600080612bca612667565b50505b612bd88482856137fa565b509392505050565b600081359050612bef8161384f565b92915050565b600081519050612c048161384f565b92915050565b600081519050612c198161386f565b92915050565b600082601f830112612c3957600080612c36612667565b50505b8135612c49848260208601612b99565b91505092915050565b600081359050612c618161388f565b92915050565b600081519050612c768161388f565b92915050565b600060208284031215612c9757600080612c94612667565b50505b6000612ca584828501612bf5565b91505092915050565b600060208284031215612cc957600080612cc6612667565b50505b6000612cd784828501612c0a565b91505092915050565b600080600060608486031215612cfe57600080612cfb612667565b50505b600084013567ffffffffffffffff811115612d2157600080612d1e612667565b50505b612d2d86828701612c1f565b9350506020612d3e86828701612be0565b9250506040612d4f86828701612c52565b9150509250925092565b600060208284031215612d7457600080612d71612667565b50505b6000612d8284828501612c52565b91505092915050565b600060208284031215612da657600080612da3612667565b50505b6000612db484828501612c67565b91505092915050565b6000612dc98383612ec9565b905092915050565b612dda816137c4565b82525050565b612de98161376d565b82525050565b612df88161375b565b82525050565b612e078161375b565b82525050565b6000612e18826136fe565b612e228185613728565b935083602082028501612e34856136d4565b8060005b85811015612e6f57848403895281612e508582612dbd565b9450612e5b8361371b565b925060208a01995050600181019050612e38565b50829750879550505050505092915050565b612e8a8161377f565b82525050565b6000612e9b82613710565b612ea5818561374a565b9350612eb5818560208601613809565b612ebe8161383e565b840191505092915050565b600081612ed46126d5565b6001811660008114612eed5760018114612f1357612f5e565b607f6002830416612efe8187613739565b955060ff198316865260208601935050612f5e565b60028204612f218187613739565b9550612f2c856136e9565b60005b82811015612f555781612f406126d5565b81890152600182019150602081019050612f2f565b80880195505050505b505092915050565b600081612f716126d5565b6001811660008114612f8a5760018114612fb057612ffb565b607f6002830416612f9b818761374a565b955060ff198316865260208601935050612ffb565b60028204612fbe818761374a565b9550612fc9856136e9565b60005b82811015612ff25781612fdd6126d5565b81890152600182019150602081019050612fcc565b80880195505050505b505092915050565b600061301060238361374a565b91507f43616d706169676e3a3a646f6e6174653a20496e737566696369656e7420667560008301527f6e647300000000000000000000000000000000000000000000000000000000006020830152604082019050919050565b6000613076602e8361374a565b91507f537570706f72744368696c6472656e3a3a646f6e6174653a204e6f206469726560008301527f637420706f6f6c206578697374730000000000000000000000000000000000006020830152604082019050919050565b60006130dc60468361374a565b91507f63616d706169676e3a3a6578706972656457697468647261773a204f6e6c792060008301527f7468652062656e65666963696172792063616e2077697468647261772074686560208301527f2066756e647300000000000000000000000000000000000000000000000000006040830152606082019050919050565b600061316860348361374a565b91507f43616d706169676e3a3a646f6e6174653a20546869732063616d706169676e2060008301527f68617320616c72656164792066696e69736865640000000000000000000000006020830152604082019050919050565b60006131ce60388361374a565b91507f43616d706169676e3a3a6578706972656457697468647261773a20546869732060008301527f63616d706169676e206973207374696c6c2061637469766500000000000000006020830152604082019050919050565b600061323460408361374a565b91507f537570706f72744368696c6472656e3a3a646f6e6174653a20646f6e6f72546f60008301527f6b656e203d3d2030782c2075736520646f6e61746545544820696e73746561646020830152604082019050919050565b610100820160008201516132a46000850182612def565b5060208201516132b76020850182612def565b5060408201516132ca604085018261333e565b5060608201516132dd6060850182612def565b5060808201516132f0608085018261335c565b5060a082015161330360a085018261335c565b5060c082015161331660c085018261335c565b5060e082015161332960e085018261332f565b50505050565b6133388161378b565b82525050565b613347816137ab565b82525050565b613356816137ab565b82525050565b613365816137ba565b82525050565b613374816137ba565b82525050565b600060208201905061338f6000830184612dfe565b92915050565b60006020820190506133aa6000830184612dd1565b92915050565b60006020820190506133c56000830184612de0565b92915050565b60006060820190506133e06000830186612dd1565b6133ed6020830185612dfe565b6133fa604083018461336b565b949350505050565b60006060820190506134176000830186612dfe565b6134246020830185612dfe565b613431604083018461334d565b949350505050565b600060408201905061344e6000830185612dfe565b61345b602083018461336b565b9392505050565b60006020820190506134776000830184612e81565b92915050565b600060208201905081810360008301526134978184612e90565b905092915050565b600060208201905081810360008301526134b881613003565b9050919050565b600060208201905081810360008301526134d881613069565b9050919050565b600060208201905081810360008301526134f8816130cf565b9050919050565b600060208201905081810360008301526135188161315b565b9050919050565b60006020820190508181036000830152613538816131c1565b9050919050565b6000602082019050818103600083015261355881613227565b9050919050565b600061010082019050613575600083018461328d565b92915050565b6000602082019050613590600083018461334d565b92915050565b60006020820190506135ab600083018461336b565b92915050565b600060a0820190506135c6600083018861336b565b6135d3602083018761336b565b81810360408301526135e58186612f66565b905081810360608301526135f98185612e90565b90506136086080830184612dfe565b9695505050505050565b600060a082019050613627600083018861336b565b613634602083018761336b565b613641604083018661336b565b81810360608301526136538185612f66565b905081810360808301526136678184612e0d565b90509695505050505050565b6000604051905081810181811067ffffffffffffffff8211171561369a5761369961383c565b5b8060405250919050565b600067ffffffffffffffff8211156136bf576136be61383c565b5b601f19601f8301169050602081019050919050565b60008190508160005260206000209050919050565b60008190508160005260206000209050919050565b6000816137096126d5565b9050919050565b600081519050919050565b6000600182019050919050565b600082825260208201905092915050565b600082825260208201905092915050565b600082825260208201905092915050565b60006137668261378b565b9050919050565b60006137788261378b565b9050919050565b60008115159050919050565b600073ffffffffffffffffffffffffffffffffffffffff82169050919050565b600062ffffff82169050919050565b6000819050919050565b60006137cf826137d6565b9050919050565b60006137e1826137e8565b9050919050565b60006137f38261378b565b9050919050565b82818337600083830152505050565b60005b8381101561382757808201518184015260208101905061380c565b83811115613836576000848401525b50505050565bfe5b6000601f19601f8301169050919050565b6138588161375b565b811461386c57600080613869612667565b50505b50565b6138788161377f565b811461388c57600080613889612667565b50505b50565b613898816137ba565b81146138ac576000806138a9612667565b50505b5056fe556e697377617056324c6962726172793a204944454e544943414c5f414444524553534553556e697377617056324c6962726172793a20494e53554646494349454e545f4c4951554944495459536166654d6174683a206d756c7469706c69636174696f6e206f766572666c6f77556e697377617056324c6962726172793a20494e53554646494349454e545f494e5055545f414d4f554e54",
  "immutableReferences": {},
  "source": "pragma solidity 0.7.6;\npragma abicoder v2;\nimport \"@openzeppelin/contracts/access/Ownable.sol\";\nimport \"@openzeppelin/contracts/math/SafeMath.sol\";\nimport \"@openzeppelin/contracts/token/ERC20/SafeERC20.sol\";\nimport \"@openzeppelin/contracts/token/ERC20/IERC20.sol\";\nimport \"@eth-optimism/contracts/iOVM/bridge/tokens/iOVM_L1StandardBridge.sol\";\n//import \"./4_SimpleNFT.sol\";\n\nimport \"@uniswap/v3-periphery/contracts/interfaces/ISwapRouter.sol\";\nimport \"@uniswap/v3-core/contracts/interfaces/IUniswapV3Factory.sol\";\nimport {UniswapV2Library} from \"@uniswap/v2-periphery/contracts/libraries/UniswapV2Library.sol\";\n\n// SPDX-License-Identifier: MIT\n\ncontract Campaign {\n    \n    using SafeMath for uint;\n    using SafeERC20 for IERC20;\n    \n    uint256 constant MAX_UINT = 2 ** 256 - 1;\n    \n    uint public id;\n    string public name;\n    uint public currFund;\n    uint public goal;\n    address payable public owner;\n    bool public finished = false;\n    string public description;\n    string[] public mails;\n    uint public mailCount;\n    address wantToken;\n    uint public endTimeStamp;\n    mapping(address => bool) donators;\n    //SimpleNFT public nfts;\n    string public URI;\n    address wantTokenL2;\n    \n    address public v3factory=0x1F98431c8aD98523631AE4a59f267346ea31F984;\n    address public v3router=0xE592427A0AEce92De3Edee1F18E0157C05861564;\n    address public WETH=0x4200000000000000000000000000000000000006;\n    mapping(address => bool) private routerApprovedTokens;\n    address public L2;\n    address public L1StandardBridge = 0x22F24361D548e5FaAfb36d1437839f080363982B;\n    uint24 public constant poolFee = 3000;\n\n    constructor(uint _id, string memory _name, uint _goal, string memory _description, uint _endTimeStamp, address _wantToken, string memory _uri){\n        id = _id;\n        name = _name;\n        currFund = 0;\n        goal = _goal;\n        description = _description;\n        owner = msg.sender;\n        endTimeStamp = _endTimeStamp;\n        wantToken = _wantToken;\n        URI = _uri;\n    }\n    event GoalReached(uint totalFund, uint goal, uint campaignId, string name, string[] mails);\n    event Donated(uint amount, uint campaignId, string name, string mail, address donorToken);\n    \n    function donateTokens(string memory _mail, address _donorToken, uint256 _finalDonationAmount) private {\n        IERC20(_donorToken).transferFrom(\n                msg.sender,\n                address(this),\n                _finalDonationAmount\n            );\n            \n        currFund += _finalDonationAmount;\n        mails.push(_mail);\n        mailCount++;\n\n        if (currFund == goal) {\n            emit GoalReached(currFund, goal, id, name, mails);\n            finished = true;\n            withdraw();\n        }\n            \n        emit Donated(msg.value, id, name, _mail, _donorToken);\n        if (donators[msg.sender] == false){\n                //nfts.createSimpleNFT(_uri);\n            donators[msg.sender] = true;\n        }\n        return;\n    }\n    function getAmounts(uint256 _amountIn, address _donorToken, address wantToken) private returns(uint256, uint256){\n        (uint256 reserveA, uint256 reserveB) = UniswapV2Library.getReserves(\n            address(v3factory),\n            _donorToken,\n            wantToken\n        );\n\n        uint256 _amountInWantTokens = UniswapV2Library.getAmountOut(\n            _amountIn,\n            reserveA,\n            reserveB\n        );\n\n        uint256 _maxDonationAmountInWantTokens = getMaxDonationAmount(_amountInWantTokens);\n\n        uint256 _finalDonationAmount = UniswapV2Library.getAmountOut(\n            _maxDonationAmountInWantTokens,\n            reserveB,\n            reserveA\n        );\n        return (_finalDonationAmount, _maxDonationAmountInWantTokens);\n    }\n    function donate(string memory _mail, address _donorToken, uint256 _amountIn) public payable returns(bool sufficient) {\n        require(IERC20(_donorToken).balanceOf(msg.sender) >= _amountIn, \"Campaign::donate: Insuficient funds\");\n        require(endTimeStamp > block.timestamp, \"Campaign::donate: This campaign has already finished\");\n        //require(currFund + _amountIn <= goal, \"Campaign::donate: Hard cap reached\");\n        require(_donorToken != address(0), \"SupportChildren::donate: donorToken == 0x, use donateETH instead\");\n        \n        //bool isCampaignInETH = wantToken == address(0x4200000000000000000000000000000000000006);\n        uint256 _finalDonationAmount = 0;\n\n        if (wantToken == _donorToken) {\n            _finalDonationAmount = getMaxDonationAmount(_amountIn);\n            donateTokens(_mail, _donorToken, _finalDonationAmount);\n            return true;\n        }\n        \n        // if (isCampaignInETH) {\n        //     wantToken = WETH; // no direct pairs to eth in uniswap v2\n        // }\n        \n        require(\n            IUniswapV3Factory(v3factory).getPool(_donorToken, wantToken, poolFee) != address(0),\n            \"SupportChildren::donate: No direct pool exists\"\n        );\n\n        address[] memory path = new address[](2);\n        path[0] = _donorToken;\n        path[1] = wantToken;\n        uint256 _amountInWantTokens;\n        uint256 _maxDonationAmountInWantTokens;\n        (_finalDonationAmount, _maxDonationAmountInWantTokens) = getAmounts(_amountIn, _donorToken, wantToken);\n\n        IERC20(_donorToken).transferFrom(\n            msg.sender,\n            address(this),\n            _finalDonationAmount\n        );\n\n        if (routerApprovedTokens[_donorToken] != true) {\n            IERC20(_donorToken).approve(address(v3router), MAX_UINT);\n            routerApprovedTokens[_donorToken] = true;\n        }\n\n        uint256 _swapReturnValues;\n\n        // if (isCampaignInETH) {\n        //     ISwapRouter.ExactInputSingleParams memory params =\n        //     ISwapRouter.ExactInputSingleParams({\n        //         tokenIn: _donorToken,\n        //         tokenOut: WETH,\n        //         fee: poolFee,\n        //         recipient: address(this),\n        //         deadline: block.timestamp + 1000,\n        //         amountIn: _finalDonationAmount,\n        //         amountOutMinimum: _maxDonationAmountInWantTokens.mul(9700).div(10000),\n        //         sqrtPriceLimitX96: 0\n        //     });\n        //     _swapReturnValues = ISwapRouter(v3router).exactInputSingle(params);\n        //     if (L2 != address(0)){\n        //         iOVM_L1StandardBridge(L1StandardBridge).depositETHTo{value: address(this).balance}(L2,2000000,\"0x\");\n        //     }\n        // } else {\n            ISwapRouter.ExactInputSingleParams memory params =\n            ISwapRouter.ExactInputSingleParams({\n                tokenIn: path[0],\n                tokenOut: path[1],\n                fee: poolFee,\n                recipient: address(this),\n                deadline: block.timestamp + 1000,\n                amountIn: _finalDonationAmount,\n                amountOutMinimum: _maxDonationAmountInWantTokens.mul(9700).div(10000),\n                sqrtPriceLimitX96: 0\n            });\n            _swapReturnValues = ISwapRouter(v3router).exactInputSingle(params);\n            // if (L2 != address(0)){\n            //     iOVM_L1StandardBridge(L1StandardBridge).depositERC20To(wantToken, wantTokenL2, L2, IERC20(_donorToken).balanceOf(address(this)), 2000000, \"0x\");\n            // }\n        \n        currFund += _finalDonationAmount;\n            mails.push(_mail);\n            mailCount++;\n        \n        if (currFund == goal) {\n            emit GoalReached(currFund, goal, id, name, mails);\n            finished = true;\n            withdraw();\n        }\n        \n        emit Donated(msg.value, id, name, _mail, _donorToken);\n        if (donators[msg.sender] == false){\n            //nfts.createSimpleNFT(_uri);\n            donators[msg.sender] = true;\n        }\n        return true;\n        \n        \n    }\n    \n    function expiredWithdraw() public {\n        require(endTimeStamp < block.timestamp, \"Campaign::expiredWithdraw: This campaign is still active\");\n        require(msg.sender == owner, \"campaign::expiredWithdraw: Only the beneficiary can withdraw the funds\");\n        uint256 balance = IERC20(0x4200000000000000000000000000000000000006).balanceOf(address(this));\n        owner.transfer(balance);\n    }\n\n    function withdraw() private returns(bool sufficient) {\n        uint256 balance = IERC20(0x4200000000000000000000000000000000000006).balanceOf(address(this));\n        owner.transfer(balance);\n        return true;\n        }\n        \n    function changeEndDate(uint _endTimeStamp) public {\n        endTimeStamp = _endTimeStamp;\n    }\n    \n    // function donateETH(string memory _mail) external payable {\n    //     //uint256 balance = IERC20(0x4200000000000000000000000000000000000006).balanceOf(msg.sender);\n    //     //require(msg.sender.balance >= _amountIn, \"Campaign::donate: Insuficient funds\");\n    //     require(endTimeStamp > block.timestamp, \"Campaign::donate: This campaign has already finished\");\n    //     require(msg.value > 0, \"SupportChildren::donateETH: You must send ether\");\n\n    //     uint256 _finalDonationAmount = 0;\n\n    //     if (wantToken == address(0)) {\n\n    //         _finalDonationAmount = getMaxDonationAmount(msg.value);\n\n    //         //payable(_beneficiary).transfer(_finalDonationAmount);\n    //         currFund += _finalDonationAmount;\n\n    //         if (msg.value > _finalDonationAmount) {\n    //             payable(msg.sender).transfer(msg.value - _finalDonationAmount);\n    //         }\n\n    //         if (donators[msg.sender] == false){\n    //             donators[msg.sender] = true;\n    //         }\n\n    //         emit Donated(msg.value, id, name, _mail, WETH);\n    //         if (L2 != address(0)){\n    //             iOVM_L1StandardBridge(L1StandardBridge).depositETHTo{value: address(this).balance}(L2,2000000,\"0x\");\n    //         }\n    //         return;\n    //     }\n\n    //     require(IUniswapV3Factory(v3factory).getPool(WETH, wantToken, poolFee) != address(0), \"no direct pool exists\");\n\n    //     address[] memory path = new address[](2);\n    //     path[0] = WETH;\n    //     path[1] = wantToken;\n    //     uint256 _maxDonationAmountInWantTokens;\n    //     (_finalDonationAmount, _maxDonationAmountInWantTokens) = getAmounts(msg.value, path[0], wantToken);\n\n    //     ISwapRouter.ExactInputSingleParams memory params =\n    //         ISwapRouter.ExactInputSingleParams({\n    //             tokenIn: path[0],\n    //             tokenOut: path[1],\n    //             fee: poolFee,\n    //             recipient: address(this),\n    //             deadline: block.timestamp + 1000,\n    //             amountIn: _finalDonationAmount,\n    //             amountOutMinimum: _maxDonationAmountInWantTokens,\n    //             sqrtPriceLimitX96: 0\n    //         });\n    //     uint _swapReturnValues =\n    //     ISwapRouter(v3router).exactInputSingle{value: _finalDonationAmount}(params);\n\n    //     if (donators[msg.sender] == false){\n    //         donators[msg.sender] = true;\n    //     }\n\n    //     currFund += _swapReturnValues;\n\n    //     if (msg.value > _finalDonationAmount) {\n    //         payable(msg.sender).transfer(msg.value - _finalDonationAmount);\n    //     }\n\n    //     emit Donated(msg.value, id, name, _mail, WETH);\n    //     if (L2 != address(0)){\n    //             iOVM_L1StandardBridge(L1StandardBridge).depositERC20To(wantToken, wantTokenL2, L2, IERC20(wantToken).balanceOf(address(this)), 2000000, \"0x\");\n    //         }\n    //     return;\n    // }\n\n    function getMaxDonationAmount(uint256 _amountIn) internal view returns (uint256 maxDonationAmount) {\n        uint256 _maxPossibleDonation = goal - currFund;\n        if (_amountIn <= _maxPossibleDonation) {\n            return _amountIn;\n        }\n        return _maxPossibleDonation;\n    }\n    \n}",
  "sourcePath": "/Users/Karlo/faks/Web3/challenge3/eth-dapp/truffle project/contractsL2/1_CampaignOVM.sol",
  "compiler": {
    "name": "solc",
    "version": "0.7.6"
  },
  "schemaVersion": "3.4.1",
  "updatedAt": "2021-09-02T22:27:27.215Z",
  "devdoc": {
    "kind": "dev",
    "methods": {},
    "version": 1
  },
  "userdoc": {
    "kind": "user",
    "methods": {},
    "version": 1
  }
}