{
  "contractName": "Campaign",
  "abi": [
    {
      "inputs": [
        {
          "internalType": "uint256",
          "name": "_id",
          "type": "uint256"
        },
        {
          "internalType": "string",
          "name": "_name",
          "type": "string"
        },
        {
          "internalType": "uint256",
          "name": "_goal",
          "type": "uint256"
        },
        {
          "internalType": "string",
          "name": "_description",
          "type": "string"
        },
        {
          "internalType": "uint256",
          "name": "_endTimeStamp",
          "type": "uint256"
        },
        {
          "internalType": "address payable",
          "name": "_beneficiary",
          "type": "address"
        }
      ],
      "stateMutability": "nonpayable",
      "type": "constructor"
    },
    {
      "anonymous": false,
      "inputs": [
        {
          "indexed": false,
          "internalType": "uint256",
          "name": "amount",
          "type": "uint256"
        },
        {
          "indexed": false,
          "internalType": "uint256",
          "name": "campaignId",
          "type": "uint256"
        },
        {
          "indexed": false,
          "internalType": "string",
          "name": "name",
          "type": "string"
        },
        {
          "indexed": false,
          "internalType": "string",
          "name": "mail",
          "type": "string"
        }
      ],
      "name": "Donated",
      "type": "event"
    },
    {
      "anonymous": false,
      "inputs": [
        {
          "indexed": false,
          "internalType": "uint256",
          "name": "totalFund",
          "type": "uint256"
        },
        {
          "indexed": false,
          "internalType": "uint256",
          "name": "goal",
          "type": "uint256"
        },
        {
          "indexed": false,
          "internalType": "uint256",
          "name": "campaignId",
          "type": "uint256"
        },
        {
          "indexed": false,
          "internalType": "string",
          "name": "name",
          "type": "string"
        },
        {
          "indexed": false,
          "internalType": "string[]",
          "name": "mails",
          "type": "string[]"
        }
      ],
      "name": "GoalReached",
      "type": "event"
    },
    {
      "inputs": [],
      "name": "currFund",
      "outputs": [
        {
          "internalType": "uint256",
          "name": "",
          "type": "uint256"
        }
      ],
      "stateMutability": "view",
      "type": "function"
    },
    {
      "inputs": [],
      "name": "description",
      "outputs": [
        {
          "internalType": "string",
          "name": "",
          "type": "string"
        }
      ],
      "stateMutability": "view",
      "type": "function"
    },
    {
      "inputs": [],
      "name": "endTimeStamp",
      "outputs": [
        {
          "internalType": "uint256",
          "name": "",
          "type": "uint256"
        }
      ],
      "stateMutability": "view",
      "type": "function"
    },
    {
      "inputs": [],
      "name": "finished",
      "outputs": [
        {
          "internalType": "bool",
          "name": "",
          "type": "bool"
        }
      ],
      "stateMutability": "view",
      "type": "function"
    },
    {
      "inputs": [],
      "name": "goal",
      "outputs": [
        {
          "internalType": "uint256",
          "name": "",
          "type": "uint256"
        }
      ],
      "stateMutability": "view",
      "type": "function"
    },
    {
      "inputs": [],
      "name": "id",
      "outputs": [
        {
          "internalType": "uint256",
          "name": "",
          "type": "uint256"
        }
      ],
      "stateMutability": "view",
      "type": "function"
    },
    {
      "inputs": [],
      "name": "mailCount",
      "outputs": [
        {
          "internalType": "uint256",
          "name": "",
          "type": "uint256"
        }
      ],
      "stateMutability": "view",
      "type": "function"
    },
    {
      "inputs": [
        {
          "internalType": "uint256",
          "name": "",
          "type": "uint256"
        }
      ],
      "name": "mails",
      "outputs": [
        {
          "internalType": "string",
          "name": "",
          "type": "string"
        }
      ],
      "stateMutability": "view",
      "type": "function"
    },
    {
      "inputs": [],
      "name": "name",
      "outputs": [
        {
          "internalType": "string",
          "name": "",
          "type": "string"
        }
      ],
      "stateMutability": "view",
      "type": "function"
    },
    {
      "inputs": [],
      "name": "owner",
      "outputs": [
        {
          "internalType": "address payable",
          "name": "",
          "type": "address"
        }
      ],
      "stateMutability": "view",
      "type": "function"
    },
    {
      "inputs": [
        {
          "internalType": "string",
          "name": "_mail",
          "type": "string"
        }
      ],
      "name": "donate",
      "outputs": [
        {
          "internalType": "bool",
          "name": "sufficient",
          "type": "bool"
        }
      ],
      "stateMutability": "payable",
      "type": "function"
    },
    {
      "inputs": [],
      "name": "expiredWithdraw",
      "outputs": [],
      "stateMutability": "nonpayable",
      "type": "function"
    }
  ],
  "bytecode": "0x60806040526000600460146101000a81548160ff0219169083151502179055503480156200002c57600080fd5b50604051620018e1380380620018e183398181016040528101906200005291906200024a565b85600081905550846001908051906020019062000071929190620000ee565b50600060028190555083600381905550826005908051906020019062000099929190620000ee565b5080600460006101000a81548173ffffffffffffffffffffffffffffffffffffffff021916908373ffffffffffffffffffffffffffffffffffffffff160217905550816008819055505050505050506200051a565b828054620000fc90620003f7565b90600052602060002090601f0160209004810192826200012057600085556200016c565b82601f106200013b57805160ff19168380011785556200016c565b828001600101855582156200016c579182015b828111156200016b5782518255916020019190600101906200014e565b5b5090506200017b91906200017f565b5090565b5b808211156200019a57600081600090555060010162000180565b5090565b6000620001b5620001af846200034d565b62000324565b905082815260208101848484011115620001d457620001d3620004c6565b5b620001e1848285620003c1565b509392505050565b600081519050620001fa81620004e6565b92915050565b600082601f830112620002185762000217620004c1565b5b81516200022a8482602086016200019e565b91505092915050565b600081519050620002448162000500565b92915050565b60008060008060008060c087890312156200026a5762000269620004d0565b5b60006200027a89828a0162000233565b965050602087015167ffffffffffffffff8111156200029e576200029d620004cb565b5b620002ac89828a0162000200565b9550506040620002bf89828a0162000233565b945050606087015167ffffffffffffffff811115620002e357620002e2620004cb565b5b620002f189828a0162000200565b93505060806200030489828a0162000233565b92505060a06200031789828a01620001e9565b9150509295509295509295565b60006200033062000343565b90506200033e82826200042d565b919050565b6000604051905090565b600067ffffffffffffffff8211156200036b576200036a62000492565b5b6200037682620004d5565b9050602081019050919050565b6000620003908262000397565b9050919050565b600073ffffffffffffffffffffffffffffffffffffffff82169050919050565b6000819050919050565b60005b83811015620003e1578082015181840152602081019050620003c4565b83811115620003f1576000848401525b50505050565b600060028204905060018216806200041057607f821691505b6020821081141562000427576200042662000463565b5b50919050565b6200043882620004d5565b810181811067ffffffffffffffff821117156200045a576200045962000492565b5b80604052505050565b7f4e487b7100000000000000000000000000000000000000000000000000000000600052602260045260246000fd5b7f4e487b7100000000000000000000000000000000000000000000000000000000600052604160045260246000fd5b600080fd5b600080fd5b600080fd5b600080fd5b6000601f19601f8301169050919050565b620004f18162000383565b8114620004fd57600080fd5b50565b6200050b81620003b7565b81146200051757600080fd5b50565b6113b7806200052a6000396000f3fe6080604052600436106100a75760003560e01c80638da5cb5b116100645780638da5cb5b146101ac578063af640d0f146101d7578063b5aebc8014610202578063bb66834e14610232578063bef4876b1461025d578063dec9782814610288576100a7565b806306fdde03146100ac5780631eaa1c8b146100d75780632fdef9c3146100ee578063401938831461012b57806351906bb0146101565780637284e41614610181575b600080fd5b3480156100b857600080fd5b506100c16102b3565b6040516100ce9190610d14565b60405180910390f35b3480156100e357600080fd5b506100ec610341565b005b3480156100fa57600080fd5b5061011560048036038101906101109190610a14565b610480565b6040516101229190610d14565b60405180910390f35b34801561013757600080fd5b5061014061052c565b60405161014d9190610dd6565b60405180910390f35b34801561016257600080fd5b5061016b610532565b6040516101789190610dd6565b60405180910390f35b34801561018d57600080fd5b50610196610538565b6040516101a39190610d14565b60405180910390f35b3480156101b857600080fd5b506101c16105c6565b6040516101ce9190610cde565b60405180910390f35b3480156101e357600080fd5b506101ec6105ec565b6040516101f99190610dd6565b60405180910390f35b61021c600480360381019061021791906109cb565b6105f2565b6040516102299190610cf9565b60405180910390f35b34801561023e57600080fd5b50610247610812565b6040516102549190610dd6565b60405180910390f35b34801561026957600080fd5b50610272610818565b60405161027f9190610cf9565b60405180910390f35b34801561029457600080fd5b5061029d61082b565b6040516102aa9190610dd6565b60405180910390f35b600180546102c09061105b565b80601f01602080910402602001604051908101604052809291908181526020018280546102ec9061105b565b80156103395780601f1061030e57610100808354040283529160200191610339565b820191906000526020600020905b81548152906001019060200180831161031c57829003601f168201915b505050505081565b4260085410610385576040517f08c379a000000000000000000000000000000000000000000000000000000000815260040161037c90610db6565b60405180910390fd5b600460009054906101000a900473ffffffffffffffffffffffffffffffffffffffff1673ffffffffffffffffffffffffffffffffffffffff163373ffffffffffffffffffffffffffffffffffffffff1614610415576040517f08c379a000000000000000000000000000000000000000000000000000000000815260040161040c90610d76565b60405180910390fd5b600460009054906101000a900473ffffffffffffffffffffffffffffffffffffffff1673ffffffffffffffffffffffffffffffffffffffff166108fc479081150290604051600060405180830381858888f1935050505015801561047d573d6000803e3d6000fd5b50565b6006818154811061049057600080fd5b9060005260206000200160009150905080546104ab9061105b565b80601f01602080910402602001604051908101604052809291908181526020018280546104d79061105b565b80156105245780601f106104f957610100808354040283529160200191610524565b820191906000526020600020905b81548152906001019060200180831161050757829003601f168201915b505050505081565b60035481565b60085481565b600580546105459061105b565b80601f01602080910402602001604051908101604052809291908181526020018280546105719061105b565b80156105be5780601f10610593576101008083540402835291602001916105be565b820191906000526020600020905b8154815290600101906020018083116105a157829003601f168201915b505050505081565b600460009054906101000a900473ffffffffffffffffffffffffffffffffffffffff1681565b60005481565b6000343273ffffffffffffffffffffffffffffffffffffffff1631101561064e576040517f08c379a000000000000000000000000000000000000000000000000000000000815260040161064590610d56565b60405180910390fd5b4260085411610692576040517f08c379a000000000000000000000000000000000000000000000000000000000815260040161068990610d96565b60405180910390fd5b600354346002546106a39190610f7b565b11156106e4576040517f08c379a00000000000000000000000000000000000000000000000000000000081526004016106db90610d36565b60405180910390fd5b34600260008282546106f69190610f7b565b925050819055506006829080600181540180825580915050600190039060005260206000200160009091909190915090805190602001906107389291906108a3565b506007600081548092919061074c906110be565b919050555060035460025414156107c9577f314217ebdf17981d4a26c0519c8810c5b95359d28c649f331ae684df59190db26002546003546000546001600660405161079c959493929190610e44565b60405180910390a16001600460146101000a81548160ff0219169083151502179055506107c7610831565b505b7f603e3549dc91f5ea5c20e81f07db1876962790e50a9c3d3bbdc07821b0b045cd346000546001856040516108019493929190610df1565b60405180910390a160019050919050565b60025481565b600460149054906101000a900460ff1681565b60075481565b6000600460009054906101000a900473ffffffffffffffffffffffffffffffffffffffff1673ffffffffffffffffffffffffffffffffffffffff166108fc479081150290604051600060405180830381858888f1935050505015801561089b573d6000803e3d6000fd5b506001905090565b8280546108af9061105b565b90600052602060002090601f0160209004810192826108d15760008555610918565b82601f106108ea57805160ff1916838001178555610918565b82800160010185558215610918579182015b828111156109175782518255916020019190600101906108fc565b5b5090506109259190610929565b5090565b5b8082111561094257600081600090555060010161092a565b5090565b600061095961095484610eca565b610ea5565b90508281526020810184848401111561097557610974611199565b5b610980848285611019565b509392505050565b600082601f83011261099d5761099c611194565b5b81356109ad848260208601610946565b91505092915050565b6000813590506109c58161136a565b92915050565b6000602082840312156109e1576109e06111a3565b5b600082013567ffffffffffffffff8111156109ff576109fe61119e565b5b610a0b84828501610988565b91505092915050565b600060208284031215610a2a57610a296111a3565b5b6000610a38848285016109b6565b91505092915050565b6000610a4d8383610b20565b905092915050565b610a5e81610fd1565b82525050565b6000610a6f82610f25565b610a798185610f48565b935083602082028501610a8b85610efb565b8060005b85811015610ac657848403895281610aa78582610a41565b9450610ab283610f3b565b925060208a01995050600181019050610a8f565b50829750879550505050505092915050565b610ae181610fe3565b82525050565b6000610af282610f30565b610afc8185610f6a565b9350610b0c818560208601611028565b610b15816111a8565b840191505092915050565b60008154610b2d8161105b565b610b378186610f59565b94506001821660008114610b525760018114610b6457610b97565b60ff1983168652602086019350610b97565b610b6d85610f10565b60005b83811015610b8f57815481890152600182019150602081019050610b70565b808801955050505b50505092915050565b60008154610bad8161105b565b610bb78186610f6a565b94506001821660008114610bd25760018114610be457610c17565b60ff1983168652602086019350610c17565b610bed85610f10565b60005b83811015610c0f57815481890152600182019150602081019050610bf0565b808801955050505b50505092915050565b6000610c2d602283610f6a565b9150610c38826111b9565b604082019050919050565b6000610c50602383610f6a565b9150610c5b82611208565b604082019050919050565b6000610c73604683610f6a565b9150610c7e82611257565b606082019050919050565b6000610c96603483610f6a565b9150610ca1826112cc565b604082019050919050565b6000610cb9603883610f6a565b9150610cc48261131b565b604082019050919050565b610cd88161100f565b82525050565b6000602082019050610cf36000830184610a55565b92915050565b6000602082019050610d0e6000830184610ad8565b92915050565b60006020820190508181036000830152610d2e8184610ae7565b905092915050565b60006020820190508181036000830152610d4f81610c20565b9050919050565b60006020820190508181036000830152610d6f81610c43565b9050919050565b60006020820190508181036000830152610d8f81610c66565b9050919050565b60006020820190508181036000830152610daf81610c89565b9050919050565b60006020820190508181036000830152610dcf81610cac565b9050919050565b6000602082019050610deb6000830184610ccf565b92915050565b6000608082019050610e066000830187610ccf565b610e136020830186610ccf565b8181036040830152610e258185610ba0565b90508181036060830152610e398184610ae7565b905095945050505050565b600060a082019050610e596000830188610ccf565b610e666020830187610ccf565b610e736040830186610ccf565b8181036060830152610e858185610ba0565b90508181036080830152610e998184610a64565b90509695505050505050565b6000610eaf610ec0565b9050610ebb828261108d565b919050565b6000604051905090565b600067ffffffffffffffff821115610ee557610ee4611165565b5b610eee826111a8565b9050602081019050919050565b60008190508160005260206000209050919050565b60008190508160005260206000209050919050565b600081549050919050565b600081519050919050565b6000600182019050919050565b600082825260208201905092915050565b600082825260208201905092915050565b600082825260208201905092915050565b6000610f868261100f565b9150610f918361100f565b9250827fffffffffffffffffffffffffffffffffffffffffffffffffffffffffffffffff03821115610fc657610fc5611107565b5b828201905092915050565b6000610fdc82610fef565b9050919050565b60008115159050919050565b600073ffffffffffffffffffffffffffffffffffffffff82169050919050565b6000819050919050565b82818337600083830152505050565b60005b8381101561104657808201518184015260208101905061102b565b83811115611055576000848401525b50505050565b6000600282049050600182168061107357607f821691505b6020821081141561108757611086611136565b5b50919050565b611096826111a8565b810181811067ffffffffffffffff821117156110b5576110b4611165565b5b80604052505050565b60006110c98261100f565b91507fffffffffffffffffffffffffffffffffffffffffffffffffffffffffffffffff8214156110fc576110fb611107565b5b600182019050919050565b7f4e487b7100000000000000000000000000000000000000000000000000000000600052601160045260246000fd5b7f4e487b7100000000000000000000000000000000000000000000000000000000600052602260045260246000fd5b7f4e487b7100000000000000000000000000000000000000000000000000000000600052604160045260246000fd5b600080fd5b600080fd5b600080fd5b600080fd5b6000601f19601f8301169050919050565b7f43616d706169676e3a3a646f6e6174653a20486172642063617020726561636860008201527f6564000000000000000000000000000000000000000000000000000000000000602082015250565b7f43616d706169676e3a3a646f6e6174653a20496e737566696369656e7420667560008201527f6e64730000000000000000000000000000000000000000000000000000000000602082015250565b7f63616d706169676e3a3a6578706972656457697468647261773a204f6e6c792060008201527f7468652062656e65666963696172792063616e2077697468647261772074686560208201527f2066756e64730000000000000000000000000000000000000000000000000000604082015250565b7f43616d706169676e3a3a646f6e6174653a20546869732063616d706169676e2060008201527f68617320616c72656164792066696e6973686564000000000000000000000000602082015250565b7f43616d706169676e3a3a6578706972656457697468647261773a20546869732060008201527f63616d706169676e206973207374696c6c206163746976650000000000000000602082015250565b6113738161100f565b811461137e57600080fd5b5056fea26469706673582212208b6d28a8e66facc823729eda005ca697466f942534f33893e30870d21faf1e6c64736f6c63430008060033",
  "immutableReferences": {},
  "source": "pragma solidity >=0.8.0 <0.9.0;\npragma abicoder v2;\nimport \"@openzeppelin/contracts/access/Ownable.sol\";\nimport \"@openzeppelin/contracts/utils/math/SafeMath.sol\";\nimport \"@openzeppelin/contracts/token/ERC20/utils/SafeERC20.sol\";\nimport \"@openzeppelin/contracts/token/ERC20/IERC20.sol\";\n\n// SPDX-License-Identifier: MIT\n\ncontract Campaign {\n    \n    using SafeMath for uint;\n    using SafeERC20 for IERC20;\n    \n    uint public id;\n    string public name;\n    uint public currFund;\n    uint public goal;\n    address payable public owner;\n    bool public finished = false;\n    string public description;\n    string[] public mails;\n    uint public mailCount;\n    uint public endTimeStamp;\n    \n    constructor(uint _id, string memory _name, uint _goal, string memory _description, uint _endTimeStamp, address payable _beneficiary){\n        id = _id;\n        name = _name;\n        currFund = 0;\n        goal = _goal;\n        description = _description;\n        owner = _beneficiary;\n        endTimeStamp = _endTimeStamp;\n    }\n    event GoalReached(uint totalFund, uint goal, uint campaignId, string name, string[] mails);\n    event Donated(uint amount, uint campaignId, string name, string mail);\n    \n    function donate(string memory _mail) public payable returns(bool sufficient) {\n        require(tx.origin.balance >= msg.value, \"Campaign::donate: Insuficient funds\");\n        require(endTimeStamp > block.timestamp, \"Campaign::donate: This campaign has already finished\");\n        require(currFund + msg.value <= goal, \"Campaign::donate: Hard cap reached\");\n        currFund += msg.value;\n        mails.push(_mail);\n        mailCount++;\n        \n        if (currFund == goal) {\n            emit GoalReached(currFund, goal, id, name, mails);\n            finished = true;\n            withdraw();\n        }\n        emit Donated(msg.value, id, name, _mail);\n        return true;\n        \n        \n    }\n    \n    function expiredWithdraw() public {\n        require(endTimeStamp < block.timestamp, \"Campaign::expiredWithdraw: This campaign is still active\");\n        require(msg.sender == owner, \"campaign::expiredWithdraw: Only the beneficiary can withdraw the funds\");\n        owner.transfer(address(this).balance);\n    }\n\n    function withdraw() private returns(bool sufficient) {\n        owner.transfer(address(this).balance);\n        return true;\n        }\n    \n}",
  "sourcePath": "/Users/Karlo/faks/Web3/challenge1/eth-dapp/truffle project/contracts/1_Campaign.sol",
  "compiler": {
    "name": "solc",
    "version": "0.8.6+commit.11564f7e.Emscripten.clang"
  },
  "schemaVersion": "3.4.1",
  "updatedAt": "2021-08-04T11:58:59.205Z",
  "networkType": "ethereum",
  "devdoc": {
    "kind": "dev",
    "methods": {},
    "version": 1
  },
  "userdoc": {
    "kind": "user",
    "methods": {},
    "version": 1
  }
}