{
  "contractName": "Campaign",
  "abi": [
    {
      "inputs": [
        {
          "internalType": "uint256",
          "name": "_id",
          "type": "uint256"
        },
        {
          "internalType": "string",
          "name": "_name",
          "type": "string"
        },
        {
          "internalType": "uint256",
          "name": "_goal",
          "type": "uint256"
        },
        {
          "internalType": "string",
          "name": "_description",
          "type": "string"
        },
        {
          "internalType": "uint256",
          "name": "_endTimeStamp",
          "type": "uint256"
        },
        {
          "internalType": "address payable",
          "name": "_beneficiary",
          "type": "address"
        },
        {
          "internalType": "address",
          "name": "_nft",
          "type": "address"
        }
      ],
      "stateMutability": "nonpayable",
      "type": "constructor"
    },
    {
      "anonymous": false,
      "inputs": [
        {
          "indexed": false,
          "internalType": "uint256",
          "name": "amount",
          "type": "uint256"
        },
        {
          "indexed": false,
          "internalType": "uint256",
          "name": "campaignId",
          "type": "uint256"
        },
        {
          "indexed": false,
          "internalType": "string",
          "name": "name",
          "type": "string"
        },
        {
          "indexed": false,
          "internalType": "string",
          "name": "mail",
          "type": "string"
        }
      ],
      "name": "Donated",
      "type": "event"
    },
    {
      "anonymous": false,
      "inputs": [
        {
          "indexed": false,
          "internalType": "uint256",
          "name": "totalFund",
          "type": "uint256"
        },
        {
          "indexed": false,
          "internalType": "uint256",
          "name": "goal",
          "type": "uint256"
        },
        {
          "indexed": false,
          "internalType": "uint256",
          "name": "campaignId",
          "type": "uint256"
        },
        {
          "indexed": false,
          "internalType": "string",
          "name": "name",
          "type": "string"
        },
        {
          "indexed": false,
          "internalType": "string[]",
          "name": "mails",
          "type": "string[]"
        }
      ],
      "name": "GoalReached",
      "type": "event"
    },
    {
      "inputs": [],
      "name": "currFund",
      "outputs": [
        {
          "internalType": "uint256",
          "name": "",
          "type": "uint256"
        }
      ],
      "stateMutability": "view",
      "type": "function"
    },
    {
      "inputs": [],
      "name": "description",
      "outputs": [
        {
          "internalType": "string",
          "name": "",
          "type": "string"
        }
      ],
      "stateMutability": "view",
      "type": "function"
    },
    {
      "inputs": [],
      "name": "endTimeStamp",
      "outputs": [
        {
          "internalType": "uint256",
          "name": "",
          "type": "uint256"
        }
      ],
      "stateMutability": "view",
      "type": "function"
    },
    {
      "inputs": [],
      "name": "finished",
      "outputs": [
        {
          "internalType": "bool",
          "name": "",
          "type": "bool"
        }
      ],
      "stateMutability": "view",
      "type": "function"
    },
    {
      "inputs": [],
      "name": "goal",
      "outputs": [
        {
          "internalType": "uint256",
          "name": "",
          "type": "uint256"
        }
      ],
      "stateMutability": "view",
      "type": "function"
    },
    {
      "inputs": [],
      "name": "id",
      "outputs": [
        {
          "internalType": "uint256",
          "name": "",
          "type": "uint256"
        }
      ],
      "stateMutability": "view",
      "type": "function"
    },
    {
      "inputs": [],
      "name": "mailCount",
      "outputs": [
        {
          "internalType": "uint256",
          "name": "",
          "type": "uint256"
        }
      ],
      "stateMutability": "view",
      "type": "function"
    },
    {
      "inputs": [
        {
          "internalType": "uint256",
          "name": "",
          "type": "uint256"
        }
      ],
      "name": "mails",
      "outputs": [
        {
          "internalType": "string",
          "name": "",
          "type": "string"
        }
      ],
      "stateMutability": "view",
      "type": "function"
    },
    {
      "inputs": [],
      "name": "name",
      "outputs": [
        {
          "internalType": "string",
          "name": "",
          "type": "string"
        }
      ],
      "stateMutability": "view",
      "type": "function"
    },
    {
      "inputs": [],
      "name": "nfts",
      "outputs": [
        {
          "internalType": "contract SimpleNFT",
          "name": "",
          "type": "address"
        }
      ],
      "stateMutability": "view",
      "type": "function"
    },
    {
      "inputs": [],
      "name": "owner",
      "outputs": [
        {
          "internalType": "address payable",
          "name": "",
          "type": "address"
        }
      ],
      "stateMutability": "view",
      "type": "function"
    },
    {
      "inputs": [
        {
          "internalType": "string",
          "name": "_mail",
          "type": "string"
        }
      ],
      "name": "donate",
      "outputs": [
        {
          "internalType": "bool",
          "name": "sufficient",
          "type": "bool"
        }
      ],
      "stateMutability": "payable",
      "type": "function"
    },
    {
      "inputs": [],
      "name": "expiredWithdraw",
      "outputs": [],
      "stateMutability": "nonpayable",
      "type": "function"
    }
  ],
  "bytecode": "0x60806040526000600460146101000a81548160ff0219169083151502179055503480156200002c57600080fd5b5060405162001ad438038062001ad4833981810160405281019062000052919062000297565b8660008190555085600190805190602001906200007192919062000130565b5060006002819055508460038190555083600590805190602001906200009992919062000130565b5081600460006101000a81548173ffffffffffffffffffffffffffffffffffffffff021916908373ffffffffffffffffffffffffffffffffffffffff1602179055508260088190555080600960006101000a81548173ffffffffffffffffffffffffffffffffffffffff021916908373ffffffffffffffffffffffffffffffffffffffff1602179055505050505050505062000547565b8280546200013e9062000465565b90600052602060002090601f016020900481019282620001625760008555620001ae565b82601f106200017d57805160ff1916838001178555620001ae565b82800160010185558215620001ae579182015b82811115620001ad57825182559160200191906001019062000190565b5b509050620001bd9190620001c1565b5090565b5b80821115620001dc576000816000905550600101620001c2565b5090565b6000620001f7620001f184620003aa565b62000376565b9050828152602081018484840111156200021057600080fd5b6200021d8482856200042f565b509392505050565b6000815190506200023681620004f9565b92915050565b6000815190506200024d8162000513565b92915050565b600082601f8301126200026557600080fd5b815162000277848260208601620001e0565b91505092915050565b60008151905062000291816200052d565b92915050565b600080600080600080600060e0888a031215620002b357600080fd5b6000620002c38a828b0162000280565b975050602088015167ffffffffffffffff811115620002e157600080fd5b620002ef8a828b0162000253565b9650506040620003028a828b0162000280565b955050606088015167ffffffffffffffff8111156200032057600080fd5b6200032e8a828b0162000253565b9450506080620003418a828b0162000280565b93505060a0620003548a828b016200023c565b92505060c0620003678a828b0162000225565b91505092959891949750929550565b6000604051905081810181811067ffffffffffffffff82111715620003a0576200039f620004ca565b5b8060405250919050565b600067ffffffffffffffff821115620003c857620003c7620004ca565b5b601f19601f8301169050602081019050919050565b6000620003ea8262000405565b9050919050565b6000620003fe8262000405565b9050919050565b600073ffffffffffffffffffffffffffffffffffffffff82169050919050565b6000819050919050565b60005b838110156200044f57808201518184015260208101905062000432565b838111156200045f576000848401525b50505050565b600060028204905060018216806200047e57607f821691505b602082108114156200049557620004946200049b565b5b50919050565b7f4e487b7100000000000000000000000000000000000000000000000000000000600052602260045260246000fd5b7f4e487b7100000000000000000000000000000000000000000000000000000000600052604160045260246000fd5b6200050481620003dd565b81146200051057600080fd5b50565b6200051e81620003f1565b81146200052a57600080fd5b50565b620005388162000425565b81146200054457600080fd5b50565b61157d80620005576000396000f3fe6080604052600436106100c25760003560e01c80637284e4161161007f578063b5aebc8011610059578063b5aebc8014610248578063bb66834e14610278578063bef4876b146102a3578063dec97828146102ce576100c2565b80637284e416146101c75780638da5cb5b146101f2578063af640d0f1461021d576100c2565b806306fdde03146100c75780631714f2e0146100f25780631eaa1c8b1461011d5780632fdef9c314610134578063401938831461017157806351906bb01461019c575b600080fd5b3480156100d357600080fd5b506100dc6102f9565b6040516100e99190611081565b60405180910390f35b3480156100fe57600080fd5b50610107610387565b6040516101149190611066565b60405180910390f35b34801561012957600080fd5b506101326103ad565b005b34801561014057600080fd5b5061015b60048036038101906101569190610b31565b6104ec565b6040516101689190611081565b60405180910390f35b34801561017d57600080fd5b50610186610598565b6040516101939190611163565b60405180910390f35b3480156101a857600080fd5b506101b161059e565b6040516101be9190611163565b60405180910390f35b3480156101d357600080fd5b506101dc6105a4565b6040516101e99190611081565b60405180910390f35b3480156101fe57600080fd5b50610207610632565b6040516102149190611030565b60405180910390f35b34801561022957600080fd5b50610232610658565b60405161023f9190611163565b60405180910390f35b610262600480360381019061025d9190610af0565b61065e565b60405161026f919061104b565b60405180910390f35b34801561028457600080fd5b5061028d61092a565b60405161029a9190611163565b60405180910390f35b3480156102af57600080fd5b506102b8610930565b6040516102c5919061104b565b60405180910390f35b3480156102da57600080fd5b506102e3610943565b6040516102f09190611163565b60405180910390f35b6001805461030690611417565b80601f016020809104026020016040519081016040528092919081815260200182805461033290611417565b801561037f5780601f106103545761010080835404028352916020019161037f565b820191906000526020600020905b81548152906001019060200180831161036257829003601f168201915b505050505081565b600960009054906101000a900473ffffffffffffffffffffffffffffffffffffffff1681565b42600854106103f1576040517f08c379a00000000000000000000000000000000000000000000000000000000081526004016103e890611143565b60405180910390fd5b600460009054906101000a900473ffffffffffffffffffffffffffffffffffffffff1673ffffffffffffffffffffffffffffffffffffffff163373ffffffffffffffffffffffffffffffffffffffff1614610481576040517f08c379a000000000000000000000000000000000000000000000000000000000815260040161047890611103565b60405180910390fd5b600460009054906101000a900473ffffffffffffffffffffffffffffffffffffffff1673ffffffffffffffffffffffffffffffffffffffff166108fc479081150290604051600060405180830381858888f193505050501580156104e9573d6000803e3d6000fd5b50565b600681815481106104fc57600080fd5b90600052602060002001600091509050805461051790611417565b80601f016020809104026020016040519081016040528092919081815260200182805461054390611417565b80156105905780601f1061056557610100808354040283529160200191610590565b820191906000526020600020905b81548152906001019060200180831161057357829003601f168201915b505050505081565b60035481565b60085481565b600580546105b190611417565b80601f01602080910402602001604051908101604052809291908181526020018280546105dd90611417565b801561062a5780601f106105ff5761010080835404028352916020019161062a565b820191906000526020600020905b81548152906001019060200180831161060d57829003601f168201915b505050505081565b600460009054906101000a900473ffffffffffffffffffffffffffffffffffffffff1681565b60005481565b6000343273ffffffffffffffffffffffffffffffffffffffff163110156106ba576040517f08c379a00000000000000000000000000000000000000000000000000000000081526004016106b1906110e3565b60405180910390fd5b42600854116106fe576040517f08c379a00000000000000000000000000000000000000000000000000000000081526004016106f590611123565b60405180910390fd5b6003543460025461070f9190611313565b1115610750576040517f08c379a0000000000000000000000000000000000000000000000000000000008152600401610747906110c3565b60405180910390fd5b34600260008282546107629190611313565b925050819055506006829080600181540180825580915050600190039060005260206000200160009091909190915090805190602001906107a49291906109bb565b50600760008154809291906107b890611449565b91905055506003546002541415610835577f314217ebdf17981d4a26c0519c8810c5b95359d28c649f331ae684df59190db2600254600354600054600160066040516108089594939291906111d1565b60405180910390a16001600460146101000a81548160ff021916908315150217905550610833610949565b505b7f603e3549dc91f5ea5c20e81f07db1876962790e50a9c3d3bbdc07821b0b045cd3460005460018560405161086d949392919061117e565b60405180910390a1600960009054906101000a900473ffffffffffffffffffffffffffffffffffffffff1673ffffffffffffffffffffffffffffffffffffffff16636eff88ff6040518163ffffffff1660e01b81526004016108ce906110a3565b602060405180830381600087803b1580156108e857600080fd5b505af11580156108fc573d6000803e3d6000fd5b505050506040513d601f19601f820116820180604052508101906109209190610b5a565b5060019050919050565b60025481565b600460149054906101000a900460ff1681565b60075481565b6000600460009054906101000a900473ffffffffffffffffffffffffffffffffffffffff1673ffffffffffffffffffffffffffffffffffffffff166108fc479081150290604051600060405180830381858888f193505050501580156109b3573d6000803e3d6000fd5b506001905090565b8280546109c790611417565b90600052602060002090601f0160209004810192826109e95760008555610a30565b82601f10610a0257805160ff1916838001178555610a30565b82800160010185558215610a30579182015b82811115610a2f578251825591602001919060010190610a14565b5b509050610a3d9190610a41565b5090565b5b80821115610a5a576000816000905550600101610a42565b5090565b6000610a71610a6c84611263565b611232565b905082815260208101848484011115610a8957600080fd5b610a948482856113d5565b509392505050565b600082601f830112610aad57600080fd5b8135610abd848260208601610a5e565b91505092915050565b600081359050610ad581611530565b92915050565b600081519050610aea81611530565b92915050565b600060208284031215610b0257600080fd5b600082013567ffffffffffffffff811115610b1c57600080fd5b610b2884828501610a9c565b91505092915050565b600060208284031215610b4357600080fd5b6000610b5184828501610ac6565b91505092915050565b600060208284031215610b6c57600080fd5b6000610b7a84828501610adb565b91505092915050565b6000610b8f8383610c71565b905092915050565b610ba081611369565b82525050565b6000610bb1826112bd565b610bbb81856112e0565b935083602082028501610bcd85611293565b8060005b85811015610c0857848403895281610be98582610b83565b9450610bf4836112d3565b925060208a01995050600181019050610bd1565b50829750879550505050505092915050565b610c238161137b565b82525050565b610c32816113b1565b82525050565b6000610c43826112c8565b610c4d8185611302565b9350610c5d8185602086016113e4565b610c668161151f565b840191505092915050565b60008154610c7e81611417565b610c8881866112f1565b94506001821660008114610ca35760018114610cb557610ce8565b60ff1983168652602086019350610ce8565b610cbe856112a8565b60005b83811015610ce057815481890152600182019150602081019050610cc1565b808801955050505b50505092915050565b60008154610cfe81611417565b610d088186611302565b94506001821660008114610d235760018114610d3557610d68565b60ff1983168652602086019350610d68565b610d3e856112a8565b60005b83811015610d6057815481890152600182019150602081019050610d41565b808801955050505b50505092915050565b6000610d7e604383611302565b91507f68747470733a2f2f697066732e696f2f697066732f516d65757733514648426d60008301527f565278334b316f774772654b78315076437472726e4e44516936764e77386f6160208301527f51595400000000000000000000000000000000000000000000000000000000006040830152606082019050919050565b6000610e0a602283611302565b91507f43616d706169676e3a3a646f6e6174653a20486172642063617020726561636860008301527f65640000000000000000000000000000000000000000000000000000000000006020830152604082019050919050565b6000610e70602383611302565b91507f43616d706169676e3a3a646f6e6174653a20496e737566696369656e7420667560008301527f6e647300000000000000000000000000000000000000000000000000000000006020830152604082019050919050565b6000610ed6604683611302565b91507f63616d706169676e3a3a6578706972656457697468647261773a204f6e6c792060008301527f7468652062656e65666963696172792063616e2077697468647261772074686560208301527f2066756e647300000000000000000000000000000000000000000000000000006040830152606082019050919050565b6000610f62603483611302565b91507f43616d706169676e3a3a646f6e6174653a20546869732063616d706169676e2060008301527f68617320616c72656164792066696e69736865640000000000000000000000006020830152604082019050919050565b6000610fc8603883611302565b91507f43616d706169676e3a3a6578706972656457697468647261773a20546869732060008301527f63616d706169676e206973207374696c6c2061637469766500000000000000006020830152604082019050919050565b61102a816113a7565b82525050565b60006020820190506110456000830184610b97565b92915050565b60006020820190506110606000830184610c1a565b92915050565b600060208201905061107b6000830184610c29565b92915050565b6000602082019050818103600083015261109b8184610c38565b905092915050565b600060208201905081810360008301526110bc81610d71565b9050919050565b600060208201905081810360008301526110dc81610dfd565b9050919050565b600060208201905081810360008301526110fc81610e63565b9050919050565b6000602082019050818103600083015261111c81610ec9565b9050919050565b6000602082019050818103600083015261113c81610f55565b9050919050565b6000602082019050818103600083015261115c81610fbb565b9050919050565b60006020820190506111786000830184611021565b92915050565b60006080820190506111936000830187611021565b6111a06020830186611021565b81810360408301526111b28185610cf1565b905081810360608301526111c68184610c38565b905095945050505050565b600060a0820190506111e66000830188611021565b6111f36020830187611021565b6112006040830186611021565b81810360608301526112128185610cf1565b905081810360808301526112268184610ba6565b90509695505050505050565b6000604051905081810181811067ffffffffffffffff82111715611259576112586114f0565b5b8060405250919050565b600067ffffffffffffffff82111561127e5761127d6114f0565b5b601f19601f8301169050602081019050919050565b60008190508160005260206000209050919050565b60008190508160005260206000209050919050565b600081549050919050565b600081519050919050565b6000600182019050919050565b600082825260208201905092915050565b600082825260208201905092915050565b600082825260208201905092915050565b600061131e826113a7565b9150611329836113a7565b9250827fffffffffffffffffffffffffffffffffffffffffffffffffffffffffffffffff0382111561135e5761135d611492565b5b828201905092915050565b600061137482611387565b9050919050565b60008115159050919050565b600073ffffffffffffffffffffffffffffffffffffffff82169050919050565b6000819050919050565b60006113bc826113c3565b9050919050565b60006113ce82611387565b9050919050565b82818337600083830152505050565b60005b838110156114025780820151818401526020810190506113e7565b83811115611411576000848401525b50505050565b6000600282049050600182168061142f57607f821691505b60208210811415611443576114426114c1565b5b50919050565b6000611454826113a7565b91507fffffffffffffffffffffffffffffffffffffffffffffffffffffffffffffffff82141561148757611486611492565b5b600182019050919050565b7f4e487b7100000000000000000000000000000000000000000000000000000000600052601160045260246000fd5b7f4e487b7100000000000000000000000000000000000000000000000000000000600052602260045260246000fd5b7f4e487b7100000000000000000000000000000000000000000000000000000000600052604160045260246000fd5b6000601f19601f8301169050919050565b611539816113a7565b811461154457600080fd5b5056fea26469706673582212204f8545745b687c1b86339d74c932539e6c8d05f3442e6a6843275e748c1ae4d964736f6c63430008000033",
  "immutableReferences": {},
  "source": "pragma solidity >=0.8.0 <0.9.0;\npragma abicoder v2;\nimport \"@openzeppelin/contracts/access/Ownable.sol\";\nimport \"@openzeppelin/contracts/utils/math/SafeMath.sol\";\nimport \"@openzeppelin/contracts/token/ERC20/utils/SafeERC20.sol\";\nimport \"@openzeppelin/contracts/token/ERC20/IERC20.sol\";\nimport \"./4_SimpleNFT.sol\";\n\n// SPDX-License-Identifier: MIT\n\ncontract Campaign {\n    \n    using SafeMath for uint;\n    using SafeERC20 for IERC20;\n    \n    uint public id;\n    string public name;\n    uint public currFund;\n    uint public goal;\n    address payable public owner;\n    bool public finished = false;\n    string public description;\n    string[] public mails;\n    uint public mailCount;\n    uint public endTimeStamp;\n    SimpleNFT public nfts;\n    \n    constructor(uint _id, string memory _name, uint _goal, string memory _description, uint _endTimeStamp, address payable _beneficiary, address _nft){\n        id = _id;\n        name = _name;\n        currFund = 0;\n        goal = _goal;\n        description = _description;\n        owner = _beneficiary;\n        endTimeStamp = _endTimeStamp;\n        nfts = SimpleNFT(_nft);\n    }\n    event GoalReached(uint totalFund, uint goal, uint campaignId, string name, string[] mails);\n    event Donated(uint amount, uint campaignId, string name, string mail);\n    \n    function donate(string memory _mail) public payable returns(bool sufficient) {\n        require(tx.origin.balance >= msg.value, \"Campaign::donate: Insuficient funds\");\n        require(endTimeStamp > block.timestamp, \"Campaign::donate: This campaign has already finished\");\n        require(currFund + msg.value <= goal, \"Campaign::donate: Hard cap reached\");\n        currFund += msg.value;\n        mails.push(_mail);\n        mailCount++;\n        \n        if (currFund == goal) {\n            emit GoalReached(currFund, goal, id, name, mails);\n            finished = true;\n            withdraw();\n        }\n        emit Donated(msg.value, id, name, _mail);\n        nfts.createSimpleNFT(\"https://ipfs.io/ipfs/Qmeuw3QFHBmVRx3K1owGreKx1PvCtrrnNDQi6vNw8oaQYT\");\n        return true;\n        \n        \n    }\n    \n    function expiredWithdraw() public {\n        require(endTimeStamp < block.timestamp, \"Campaign::expiredWithdraw: This campaign is still active\");\n        require(msg.sender == owner, \"campaign::expiredWithdraw: Only the beneficiary can withdraw the funds\");\n        owner.transfer(address(this).balance);\n    }\n\n    function withdraw() private returns(bool sufficient) {\n        owner.transfer(address(this).balance);\n        return true;\n        }\n    \n}",
  "sourcePath": "/Users/Karlo/faks/Web3/challenge1/eth-dapp/truffle project/contracts/1_Campaign.sol",
  "compiler": {
    "name": "solc",
    "version": "0.8.0+commit.c7dfd78e.Emscripten.clang"
  },
  "schemaVersion": "3.4.1",
  "updatedAt": "2021-08-07T15:55:21.845Z",
  "networkType": "ethereum",
  "devdoc": {
    "kind": "dev",
    "methods": {},
    "version": 1
  },
  "userdoc": {
    "kind": "user",
    "methods": {},
    "version": 1
  }
}