{
  "contractName": "Organisation",
  "abi": [
    {
      "inputs": [],
      "stateMutability": "nonpayable",
      "type": "constructor"
    },
    {
      "inputs": [],
      "name": "campaignCounter",
      "outputs": [
        {
          "internalType": "uint256",
          "name": "",
          "type": "uint256"
        }
      ],
      "stateMutability": "view",
      "type": "function"
    },
    {
      "inputs": [
        {
          "internalType": "uint256",
          "name": "",
          "type": "uint256"
        }
      ],
      "name": "campaigns",
      "outputs": [
        {
          "internalType": "contract Campaign",
          "name": "",
          "type": "address"
        }
      ],
      "stateMutability": "view",
      "type": "function"
    },
    {
      "inputs": [
        {
          "internalType": "address",
          "name": "",
          "type": "address"
        }
      ],
      "name": "members",
      "outputs": [
        {
          "internalType": "uint256",
          "name": "",
          "type": "uint256"
        }
      ],
      "stateMutability": "view",
      "type": "function"
    },
    {
      "inputs": [],
      "name": "owner",
      "outputs": [
        {
          "internalType": "address",
          "name": "",
          "type": "address"
        }
      ],
      "stateMutability": "view",
      "type": "function"
    },
    {
      "inputs": [
        {
          "internalType": "string",
          "name": "_name",
          "type": "string"
        },
        {
          "internalType": "uint256",
          "name": "_goal",
          "type": "uint256"
        },
        {
          "internalType": "string",
          "name": "_description",
          "type": "string"
        },
        {
          "internalType": "uint256",
          "name": "_endTimestamp",
          "type": "uint256"
        },
        {
          "internalType": "address payable",
          "name": "_beneficiary",
          "type": "address"
        }
      ],
      "name": "addCampaign",
      "outputs": [],
      "stateMutability": "nonpayable",
      "type": "function"
    },
    {
      "inputs": [
        {
          "internalType": "address",
          "name": "_member",
          "type": "address"
        }
      ],
      "name": "addMember",
      "outputs": [],
      "stateMutability": "nonpayable",
      "type": "function"
    }
  ],
  "bytecode": "0x608060405234801561001057600080fd5b5033600160006101000a81548173ffffffffffffffffffffffffffffffffffffffff021916908373ffffffffffffffffffffffffffffffffffffffff160217905550600160026000600160009054906101000a900473ffffffffffffffffffffffffffffffffffffffff1673ffffffffffffffffffffffffffffffffffffffff1673ffffffffffffffffffffffffffffffffffffffff16815260200190815260200160002081905550614f7b806100c86000396000f3fe60806040523480156200001157600080fd5b50600436106200006a5760003560e01c806308ae4b0c146200006f578063141961bc14620000a55780631668ea5414620000db5780638da5cb5b14620000fb578063ca6d56dc146200011d578063fca604d7146200013d575b600080fd5b6200008d600480360381019062000087919062000438565b6200015f565b6040516200009c91906200066a565b60405180910390f35b620000c36004803603810190620000bd919062000530565b62000177565b604051620000d291906200062b565b60405180910390f35b620000f96004803603810190620000f391906200046a565b620001aa565b005b62000105620002f3565b6040516200011491906200060e565b60405180910390f35b6200013b600480360381019062000135919062000438565b62000319565b005b6200014762000361565b6040516200015691906200066a565b60405180910390f35b60026020528060005260406000206000915090505481565b60036020528060005260406000206000915054906101000a900473ffffffffffffffffffffffffffffffffffffffff1681565b6001600260003373ffffffffffffffffffffffffffffffffffffffff1673ffffffffffffffffffffffffffffffffffffffff1681526020019081526020016000205414620001f757600080fd5b4282116200023c576040517f08c379a0000000000000000000000000000000000000000000000000000000008152600401620002339062000648565b60405180910390fd5b600080815480929190620002509062000872565b919050555060005485858585856040516200026b9062000367565b6200027c9695949392919062000687565b604051809103906000f08015801562000299573d6000803e3d6000fd5b50600360008054815260200190815260200160002060006101000a81548173ffffffffffffffffffffffffffffffffffffffff021916908373ffffffffffffffffffffffffffffffffffffffff1602179055505050505050565b600160009054906101000a900473ffffffffffffffffffffffffffffffffffffffff1681565b6001600260008373ffffffffffffffffffffffffffffffffffffffff1673ffffffffffffffffffffffffffffffffffffffff1681526020019081526020016000208190555050565b60005481565b61456580620009e183390190565b60006200038c62000386846200072b565b62000702565b905082815260208101848484011115620003ab57620003aa62000923565b5b620003b8848285620007f7565b509392505050565b600081359050620003d18162000992565b92915050565b600081359050620003e881620009ac565b92915050565b600082601f8301126200040657620004056200091e565b5b81356200041884826020860162000375565b91505092915050565b6000813590506200043281620009c6565b92915050565b6000602082840312156200045157620004506200092d565b5b60006200046184828501620003c0565b91505092915050565b600080600080600060a086880312156200048957620004886200092d565b5b600086013567ffffffffffffffff811115620004aa57620004a962000928565b5b620004b888828901620003ee565b9550506020620004cb8882890162000421565b945050604086013567ffffffffffffffff811115620004ef57620004ee62000928565b5b620004fd88828901620003ee565b9350506060620005108882890162000421565b92505060806200052388828901620003d7565b9150509295509295909350565b6000602082840312156200054957620005486200092d565b5b6000620005598482850162000421565b91505092915050565b6200056d8162000791565b82525050565b6200057e816200077d565b82525050565b6200058f81620007cf565b82525050565b6000620005a28262000761565b620005ae81856200076c565b9350620005c081856020860162000806565b620005cb8162000932565b840191505092915050565b6000620005e5603a836200076c565b9150620005f28262000943565b604082019050919050565b6200060881620007c5565b82525050565b600060208201905062000625600083018462000573565b92915050565b600060208201905062000642600083018462000584565b92915050565b600060208201905081810360008301526200066381620005d6565b9050919050565b6000602082019050620006816000830184620005fd565b92915050565b600060c0820190506200069e6000830189620005fd565b8181036020830152620006b2818862000595565b9050620006c36040830187620005fd565b8181036060830152620006d7818662000595565b9050620006e86080830185620005fd565b620006f760a083018462000562565b979650505050505050565b60006200070e62000721565b90506200071c82826200083c565b919050565b6000604051905090565b600067ffffffffffffffff821115620007495762000748620008ef565b5b620007548262000932565b9050602081019050919050565b600081519050919050565b600082825260208201905092915050565b60006200078a82620007a5565b9050919050565b60006200079e82620007a5565b9050919050565b600073ffffffffffffffffffffffffffffffffffffffff82169050919050565b6000819050919050565b6000620007dc82620007e3565b9050919050565b6000620007f082620007a5565b9050919050565b82818337600083830152505050565b60005b838110156200082657808201518184015260208101905062000809565b8381111562000836576000848401525b50505050565b620008478262000932565b810181811067ffffffffffffffff82111715620008695762000868620008ef565b5b80604052505050565b60006200087f82620007c5565b91507fffffffffffffffffffffffffffffffffffffffffffffffffffffffffffffffff821415620008b557620008b4620008c0565b5b600182019050919050565b7f4e487b7100000000000000000000000000000000000000000000000000000000600052601160045260246000fd5b7f4e487b7100000000000000000000000000000000000000000000000000000000600052604160045260246000fd5b600080fd5b600080fd5b600080fd5b600080fd5b6000601f19601f8301169050919050565b7f4f7267616e69736174696f6e3a3a61646443616d706169676e3a2043616d706160008201527f69676e206d75737420656e6420696e2074686520667574757265000000000000602082015250565b6200099d816200077d565b8114620009a957600080fd5b50565b620009b78162000791565b8114620009c357600080fd5b50565b620009d181620007c5565b8114620009dd57600080fd5b5056fe60806040526000600460146101000a81548160ff0219169083151502179055503480156200002c57600080fd5b5060405162004565380380620045658339818101604052810190620000529190620002c4565b856000819055508460019080519060200190620000719291906200015a565b506000600281905550836003819055508260059080519060200190620000999291906200015a565b5080600460006101000a81548173ffffffffffffffffffffffffffffffffffffffff021916908373ffffffffffffffffffffffffffffffffffffffff16021790555081600881905550604051620000f090620001eb565b604051809103906000f0801580156200010d573d6000803e3d6000fd5b50600960006101000a81548173ffffffffffffffffffffffffffffffffffffffff021916908373ffffffffffffffffffffffffffffffffffffffff16021790555050505050505062000594565b828054620001689062000471565b90600052602060002090601f0160209004810192826200018c5760008555620001d8565b82601f10620001a757805160ff1916838001178555620001d8565b82800160010185558215620001d8579182015b82811115620001d7578251825591602001919060010190620001ba565b5b509050620001e79190620001f9565b5090565b612a648062001b0183390190565b5b8082111562000214576000816000905550600101620001fa565b5090565b60006200022f6200022984620003c7565b6200039e565b9050828152602081018484840111156200024e576200024d62000540565b5b6200025b8482856200043b565b509392505050565b600081519050620002748162000560565b92915050565b600082601f8301126200029257620002916200053b565b5b8151620002a484826020860162000218565b91505092915050565b600081519050620002be816200057a565b92915050565b60008060008060008060c08789031215620002e457620002e36200054a565b5b6000620002f489828a01620002ad565b965050602087015167ffffffffffffffff81111562000318576200031762000545565b5b6200032689828a016200027a565b95505060406200033989828a01620002ad565b945050606087015167ffffffffffffffff8111156200035d576200035c62000545565b5b6200036b89828a016200027a565b93505060806200037e89828a01620002ad565b92505060a06200039189828a0162000263565b9150509295509295509295565b6000620003aa620003bd565b9050620003b88282620004a7565b919050565b6000604051905090565b600067ffffffffffffffff821115620003e557620003e46200050c565b5b620003f0826200054f565b9050602081019050919050565b60006200040a8262000411565b9050919050565b600073ffffffffffffffffffffffffffffffffffffffff82169050919050565b6000819050919050565b60005b838110156200045b5780820151818401526020810190506200043e565b838111156200046b576000848401525b50505050565b600060028204905060018216806200048a57607f821691505b60208210811415620004a157620004a0620004dd565b5b50919050565b620004b2826200054f565b810181811067ffffffffffffffff82111715620004d457620004d36200050c565b5b80604052505050565b7f4e487b7100000000000000000000000000000000000000000000000000000000600052602260045260246000fd5b7f4e487b7100000000000000000000000000000000000000000000000000000000600052604160045260246000fd5b600080fd5b600080fd5b600080fd5b600080fd5b6000601f19601f8301169050919050565b6200056b81620003fd565b81146200057757600080fd5b50565b620005858162000431565b81146200059157600080fd5b50565b61155d80620005a46000396000f3fe6080604052600436106100a75760003560e01c80638da5cb5b116100645780638da5cb5b146101ac578063af640d0f146101d7578063b5aebc8014610202578063bb66834e14610232578063bef4876b1461025d578063dec9782814610288576100a7565b806306fdde03146100ac5780631eaa1c8b146100d75780632fdef9c3146100ee578063401938831461012b57806351906bb0146101565780637284e41614610181575b600080fd5b3480156100b857600080fd5b506100c16102b3565b6040516100ce9190610e25565b60405180910390f35b3480156100e357600080fd5b506100ec610341565b005b3480156100fa57600080fd5b5061011560048036038101906101109190610ad5565b610480565b6040516101229190610e25565b60405180910390f35b34801561013757600080fd5b5061014061052c565b60405161014d9190610f07565b60405180910390f35b34801561016257600080fd5b5061016b610532565b6040516101789190610f07565b60405180910390f35b34801561018d57600080fd5b50610196610538565b6040516101a39190610e25565b60405180910390f35b3480156101b857600080fd5b506101c16105c6565b6040516101ce9190610def565b60405180910390f35b3480156101e357600080fd5b506101ec6105ec565b6040516101f99190610f07565b60405180910390f35b61021c60048036038101906102179190610a8c565b6105f2565b6040516102299190610e0a565b60405180910390f35b34801561023e57600080fd5b506102476108be565b6040516102549190610f07565b60405180910390f35b34801561026957600080fd5b506102726108c4565b60405161027f9190610e0a565b60405180910390f35b34801561029457600080fd5b5061029d6108d7565b6040516102aa9190610f07565b60405180910390f35b600180546102c09061118c565b80601f01602080910402602001604051908101604052809291908181526020018280546102ec9061118c565b80156103395780601f1061030e57610100808354040283529160200191610339565b820191906000526020600020905b81548152906001019060200180831161031c57829003601f168201915b505050505081565b4260085410610385576040517f08c379a000000000000000000000000000000000000000000000000000000000815260040161037c90610ee7565b60405180910390fd5b600460009054906101000a900473ffffffffffffffffffffffffffffffffffffffff1673ffffffffffffffffffffffffffffffffffffffff163373ffffffffffffffffffffffffffffffffffffffff1614610415576040517f08c379a000000000000000000000000000000000000000000000000000000000815260040161040c90610ea7565b60405180910390fd5b600460009054906101000a900473ffffffffffffffffffffffffffffffffffffffff1673ffffffffffffffffffffffffffffffffffffffff166108fc479081150290604051600060405180830381858888f1935050505015801561047d573d6000803e3d6000fd5b50565b6006818154811061049057600080fd5b9060005260206000200160009150905080546104ab9061118c565b80601f01602080910402602001604051908101604052809291908181526020018280546104d79061118c565b80156105245780601f106104f957610100808354040283529160200191610524565b820191906000526020600020905b81548152906001019060200180831161050757829003601f168201915b505050505081565b60035481565b60085481565b600580546105459061118c565b80601f01602080910402602001604051908101604052809291908181526020018280546105719061118c565b80156105be5780601f10610593576101008083540402835291602001916105be565b820191906000526020600020905b8154815290600101906020018083116105a157829003601f168201915b505050505081565b600460009054906101000a900473ffffffffffffffffffffffffffffffffffffffff1681565b60005481565b6000343273ffffffffffffffffffffffffffffffffffffffff1631101561064e576040517f08c379a000000000000000000000000000000000000000000000000000000000815260040161064590610e87565b60405180910390fd5b4260085411610692576040517f08c379a000000000000000000000000000000000000000000000000000000000815260040161068990610ec7565b60405180910390fd5b600354346002546106a391906110ac565b11156106e4576040517f08c379a00000000000000000000000000000000000000000000000000000000081526004016106db90610e67565b60405180910390fd5b34600260008282546106f691906110ac565b9250508190555060068290806001815401808255809150506001900390600052602060002001600090919091909150908051906020019061073892919061094f565b506007600081548092919061074c906111ef565b919050555060035460025414156107c9577f314217ebdf17981d4a26c0519c8810c5b95359d28c649f331ae684df59190db26002546003546000546001600660405161079c959493929190610f75565b60405180910390a16001600460146101000a81548160ff0219169083151502179055506107c76108dd565b505b7f603e3549dc91f5ea5c20e81f07db1876962790e50a9c3d3bbdc07821b0b045cd346000546001856040516108019493929190610f22565b60405180910390a1600960009054906101000a900473ffffffffffffffffffffffffffffffffffffffff1673ffffffffffffffffffffffffffffffffffffffff16636eff88ff6040518163ffffffff1660e01b815260040161086290610e47565b602060405180830381600087803b15801561087c57600080fd5b505af1158015610890573d6000803e3d6000fd5b505050506040513d601f19601f820116820180604052508101906108b49190610b02565b5060019050919050565b60025481565b600460149054906101000a900460ff1681565b60075481565b6000600460009054906101000a900473ffffffffffffffffffffffffffffffffffffffff1673ffffffffffffffffffffffffffffffffffffffff166108fc479081150290604051600060405180830381858888f19350505050158015610947573d6000803e3d6000fd5b506001905090565b82805461095b9061118c565b90600052602060002090601f01602090048101928261097d57600085556109c4565b82601f1061099657805160ff19168380011785556109c4565b828001600101855582156109c4579182015b828111156109c35782518255916020019190600101906109a8565b5b5090506109d191906109d5565b5090565b5b808211156109ee5760008160009055506001016109d6565b5090565b6000610a05610a0084610ffb565b610fd6565b905082815260208101848484011115610a2157610a206112ca565b5b610a2c84828561114a565b509392505050565b600082601f830112610a4957610a486112c5565b5b8135610a598482602086016109f2565b91505092915050565b600081359050610a7181611510565b92915050565b600081519050610a8681611510565b92915050565b600060208284031215610aa257610aa16112d4565b5b600082013567ffffffffffffffff811115610ac057610abf6112cf565b5b610acc84828501610a34565b91505092915050565b600060208284031215610aeb57610aea6112d4565b5b6000610af984828501610a62565b91505092915050565b600060208284031215610b1857610b176112d4565b5b6000610b2684828501610a77565b91505092915050565b6000610b3b8383610c0e565b905092915050565b610b4c81611102565b82525050565b6000610b5d82611056565b610b678185611079565b935083602082028501610b798561102c565b8060005b85811015610bb457848403895281610b958582610b2f565b9450610ba08361106c565b925060208a01995050600181019050610b7d565b50829750879550505050505092915050565b610bcf81611114565b82525050565b6000610be082611061565b610bea818561109b565b9350610bfa818560208601611159565b610c03816112d9565b840191505092915050565b60008154610c1b8161118c565b610c25818661108a565b94506001821660008114610c405760018114610c5257610c85565b60ff1983168652602086019350610c85565b610c5b85611041565b60005b83811015610c7d57815481890152600182019150602081019050610c5e565b808801955050505b50505092915050565b60008154610c9b8161118c565b610ca5818661109b565b94506001821660008114610cc05760018114610cd257610d05565b60ff1983168652602086019350610d05565b610cdb85611041565b60005b83811015610cfd57815481890152600182019150602081019050610cde565b808801955050505b50505092915050565b6000610d1b60438361109b565b9150610d26826112ea565b606082019050919050565b6000610d3e60228361109b565b9150610d498261135f565b604082019050919050565b6000610d6160238361109b565b9150610d6c826113ae565b604082019050919050565b6000610d8460468361109b565b9150610d8f826113fd565b606082019050919050565b6000610da760348361109b565b9150610db282611472565b604082019050919050565b6000610dca60388361109b565b9150610dd5826114c1565b604082019050919050565b610de981611140565b82525050565b6000602082019050610e046000830184610b43565b92915050565b6000602082019050610e1f6000830184610bc6565b92915050565b60006020820190508181036000830152610e3f8184610bd5565b905092915050565b60006020820190508181036000830152610e6081610d0e565b9050919050565b60006020820190508181036000830152610e8081610d31565b9050919050565b60006020820190508181036000830152610ea081610d54565b9050919050565b60006020820190508181036000830152610ec081610d77565b9050919050565b60006020820190508181036000830152610ee081610d9a565b9050919050565b60006020820190508181036000830152610f0081610dbd565b9050919050565b6000602082019050610f1c6000830184610de0565b92915050565b6000608082019050610f376000830187610de0565b610f446020830186610de0565b8181036040830152610f568185610c8e565b90508181036060830152610f6a8184610bd5565b905095945050505050565b600060a082019050610f8a6000830188610de0565b610f976020830187610de0565b610fa46040830186610de0565b8181036060830152610fb68185610c8e565b90508181036080830152610fca8184610b52565b90509695505050505050565b6000610fe0610ff1565b9050610fec82826111be565b919050565b6000604051905090565b600067ffffffffffffffff82111561101657611015611296565b5b61101f826112d9565b9050602081019050919050565b60008190508160005260206000209050919050565b60008190508160005260206000209050919050565b600081549050919050565b600081519050919050565b6000600182019050919050565b600082825260208201905092915050565b600082825260208201905092915050565b600082825260208201905092915050565b60006110b782611140565b91506110c283611140565b9250827fffffffffffffffffffffffffffffffffffffffffffffffffffffffffffffffff038211156110f7576110f6611238565b5b828201905092915050565b600061110d82611120565b9050919050565b60008115159050919050565b600073ffffffffffffffffffffffffffffffffffffffff82169050919050565b6000819050919050565b82818337600083830152505050565b60005b8381101561117757808201518184015260208101905061115c565b83811115611186576000848401525b50505050565b600060028204905060018216806111a457607f821691505b602082108114156111b8576111b7611267565b5b50919050565b6111c7826112d9565b810181811067ffffffffffffffff821117156111e6576111e5611296565b5b80604052505050565b60006111fa82611140565b91507fffffffffffffffffffffffffffffffffffffffffffffffffffffffffffffffff82141561122d5761122c611238565b5b600182019050919050565b7f4e487b7100000000000000000000000000000000000000000000000000000000600052601160045260246000fd5b7f4e487b7100000000000000000000000000000000000000000000000000000000600052602260045260246000fd5b7f4e487b7100000000000000000000000000000000000000000000000000000000600052604160045260246000fd5b600080fd5b600080fd5b600080fd5b600080fd5b6000601f19601f8301169050919050565b7f68747470733a2f2f697066732e696f2f697066732f516d65757733514648426d60008201527f565278334b316f774772654b78315076437472726e4e44516936764e77386f6160208201527f5159540000000000000000000000000000000000000000000000000000000000604082015250565b7f43616d706169676e3a3a646f6e6174653a20486172642063617020726561636860008201527f6564000000000000000000000000000000000000000000000000000000000000602082015250565b7f43616d706169676e3a3a646f6e6174653a20496e737566696369656e7420667560008201527f6e64730000000000000000000000000000000000000000000000000000000000602082015250565b7f63616d706169676e3a3a6578706972656457697468647261773a204f6e6c792060008201527f7468652062656e65666963696172792063616e2077697468647261772074686560208201527f2066756e64730000000000000000000000000000000000000000000000000000604082015250565b7f43616d706169676e3a3a646f6e6174653a20546869732063616d706169676e2060008201527f68617320616c72656164792066696e6973686564000000000000000000000000602082015250565b7f43616d706169676e3a3a6578706972656457697468647261773a20546869732060008201527f63616d706169676e206973207374696c6c206163746976650000000000000000602082015250565b61151981611140565b811461152457600080fd5b5056fea2646970667358221220ac217f5a9fa3d7576de48bc83db9b05baa922a8f484358a94f181ce760a79c3864736f6c6343000806003360806040523480156200001157600080fd5b506040518060400160405280600381526020017f456c6600000000000000000000000000000000000000000000000000000000008152506040518060400160405280600381526020017f454c460000000000000000000000000000000000000000000000000000000000815250816000908051906020019062000096929190620000c0565b508060019080519060200190620000af929190620000c0565b5050506000600681905550620001d5565b828054620000ce9062000170565b90600052602060002090601f016020900481019282620000f257600085556200013e565b82601f106200010d57805160ff19168380011785556200013e565b828001600101855582156200013e579182015b828111156200013d57825182559160200191906001019062000120565b5b5090506200014d919062000151565b5090565b5b808211156200016c57600081600090555060010162000152565b5090565b600060028204905060018216806200018957607f821691505b60208210811415620001a0576200019f620001a6565b5b50919050565b7f4e487b7100000000000000000000000000000000000000000000000000000000600052602260045260246000fd5b61287f80620001e56000396000f3fe608060405234801561001057600080fd5b50600436106100f55760003560e01c80636eff88ff11610097578063b88d4fde11610066578063b88d4fde14610296578063c87b56dd146102b2578063d082e381146102e2578063e985e9c514610300576100f5565b80636eff88ff146101fc57806370a082311461022c57806395d89b411461025c578063a22cb4651461027a576100f5565b8063095ea7b3116100d3578063095ea7b31461017857806323b872dd1461019457806342842e0e146101b05780636352211e146101cc576100f5565b806301ffc9a7146100fa57806306fdde031461012a578063081812fc14610148575b600080fd5b610114600480360381019061010f91906119b8565b610330565b6040516101219190611dcd565b60405180910390f35b610132610412565b60405161013f9190611de8565b60405180910390f35b610162600480360381019061015d9190611a5b565b6104a4565b60405161016f9190611d66565b60405180910390f35b610192600480360381019061018d9190611978565b610529565b005b6101ae60048036038101906101a99190611862565b610641565b005b6101ca60048036038101906101c59190611862565b6106a1565b005b6101e660048036038101906101e19190611a5b565b6106c1565b6040516101f39190611d66565b60405180910390f35b61021660048036038101906102119190611a12565b610773565b6040516102239190611fca565b60405180910390f35b610246600480360381019061024191906117f5565b6107a3565b6040516102539190611fca565b60405180910390f35b61026461085b565b6040516102719190611de8565b60405180910390f35b610294600480360381019061028f9190611938565b6108ed565b005b6102b060048036038101906102ab91906118b5565b610a6e565b005b6102cc60048036038101906102c79190611a5b565b610ad0565b6040516102d99190611de8565b60405180910390f35b6102ea610b77565b6040516102f79190611fca565b60405180910390f35b61031a60048036038101906103159190611822565b610b7d565b6040516103279190611dcd565b60405180910390f35b60007f80ac58cd000000000000000000000000000000000000000000000000000000007bffffffffffffffffffffffffffffffffffffffffffffffffffffffff1916827bffffffffffffffffffffffffffffffffffffffffffffffffffffffff191614806103fb57507f5b5e139f000000000000000000000000000000000000000000000000000000007bffffffffffffffffffffffffffffffffffffffffffffffffffffffff1916827bffffffffffffffffffffffffffffffffffffffffffffffffffffffff1916145b8061040b575061040a82610c11565b5b9050919050565b60606000805461042190612220565b80601f016020809104026020016040519081016040528092919081815260200182805461044d90612220565b801561049a5780601f1061046f5761010080835404028352916020019161049a565b820191906000526020600020905b81548152906001019060200180831161047d57829003601f168201915b5050505050905090565b60006104af82610c7b565b6104ee576040517f08c379a00000000000000000000000000000000000000000000000000000000081526004016104e590611f2a565b60405180910390fd5b6004600083815260200190815260200160002060009054906101000a900473ffffffffffffffffffffffffffffffffffffffff169050919050565b6000610534826106c1565b90508073ffffffffffffffffffffffffffffffffffffffff168373ffffffffffffffffffffffffffffffffffffffff1614156105a5576040517f08c379a000000000000000000000000000000000000000000000000000000000815260040161059c90611f8a565b60405180910390fd5b8073ffffffffffffffffffffffffffffffffffffffff166105c4610ce7565b73ffffffffffffffffffffffffffffffffffffffff1614806105f357506105f2816105ed610ce7565b610b7d565b5b610632576040517f08c379a000000000000000000000000000000000000000000000000000000000815260040161062990611eaa565b60405180910390fd5b61063c8383610cef565b505050565b61065261064c610ce7565b82610da8565b610691576040517f08c379a000000000000000000000000000000000000000000000000000000000815260040161068890611faa565b60405180910390fd5b61069c838383610e86565b505050565b6106bc83838360405180602001604052806000815250610a6e565b505050565b6000806002600084815260200190815260200160002060009054906101000a900473ffffffffffffffffffffffffffffffffffffffff169050600073ffffffffffffffffffffffffffffffffffffffff168173ffffffffffffffffffffffffffffffffffffffff16141561076a576040517f08c379a000000000000000000000000000000000000000000000000000000000815260040161076190611eea565b60405180910390fd5b80915050919050565b600080600654905061078532826110e2565b600160065461079491906120af565b60068190555080915050919050565b60008073ffffffffffffffffffffffffffffffffffffffff168273ffffffffffffffffffffffffffffffffffffffff161415610814576040517f08c379a000000000000000000000000000000000000000000000000000000000815260040161080b90611eca565b60405180910390fd5b600360008373ffffffffffffffffffffffffffffffffffffffff1673ffffffffffffffffffffffffffffffffffffffff168152602001908152602001600020549050919050565b60606001805461086a90612220565b80601f016020809104026020016040519081016040528092919081815260200182805461089690612220565b80156108e35780601f106108b8576101008083540402835291602001916108e3565b820191906000526020600020905b8154815290600101906020018083116108c657829003601f168201915b5050505050905090565b6108f5610ce7565b73ffffffffffffffffffffffffffffffffffffffff168273ffffffffffffffffffffffffffffffffffffffff161415610963576040517f08c379a000000000000000000000000000000000000000000000000000000000815260040161095a90611e6a565b60405180910390fd5b8060056000610970610ce7565b73ffffffffffffffffffffffffffffffffffffffff1673ffffffffffffffffffffffffffffffffffffffff16815260200190815260200160002060008473ffffffffffffffffffffffffffffffffffffffff1673ffffffffffffffffffffffffffffffffffffffff16815260200190815260200160002060006101000a81548160ff0219169083151502179055508173ffffffffffffffffffffffffffffffffffffffff16610a1d610ce7565b73ffffffffffffffffffffffffffffffffffffffff167f17307eab39ab6107e8899845ad3d59bd9653f200f220920489ca2b5937696c3183604051610a629190611dcd565b60405180910390a35050565b610a7f610a79610ce7565b83610da8565b610abe576040517f08c379a0000000000000000000000000000000000000000000000000000000008152600401610ab590611faa565b60405180910390fd5b610aca84848484611100565b50505050565b6060610adb82610c7b565b610b1a576040517f08c379a0000000000000000000000000000000000000000000000000000000008152600401610b1190611f6a565b60405180910390fd5b6000610b2461115c565b90506000815111610b445760405180602001604052806000815250610b6f565b80610b4e84611173565b604051602001610b5f929190611d42565b6040516020818303038152906040525b915050919050565b60065481565b6000600560008473ffffffffffffffffffffffffffffffffffffffff1673ffffffffffffffffffffffffffffffffffffffff16815260200190815260200160002060008373ffffffffffffffffffffffffffffffffffffffff1673ffffffffffffffffffffffffffffffffffffffff16815260200190815260200160002060009054906101000a900460ff16905092915050565b60007f01ffc9a7000000000000000000000000000000000000000000000000000000007bffffffffffffffffffffffffffffffffffffffffffffffffffffffff1916827bffffffffffffffffffffffffffffffffffffffffffffffffffffffff1916149050919050565b60008073ffffffffffffffffffffffffffffffffffffffff166002600084815260200190815260200160002060009054906101000a900473ffffffffffffffffffffffffffffffffffffffff1673ffffffffffffffffffffffffffffffffffffffff1614159050919050565b600033905090565b816004600083815260200190815260200160002060006101000a81548173ffffffffffffffffffffffffffffffffffffffff021916908373ffffffffffffffffffffffffffffffffffffffff160217905550808273ffffffffffffffffffffffffffffffffffffffff16610d62836106c1565b73ffffffffffffffffffffffffffffffffffffffff167f8c5be1e5ebec7d5bd14f71427d1e84f3dd0314c0f7b2291e5b200ac8c7c3b92560405160405180910390a45050565b6000610db382610c7b565b610df2576040517f08c379a0000000000000000000000000000000000000000000000000000000008152600401610de990611e8a565b60405180910390fd5b6000610dfd836106c1565b90508073ffffffffffffffffffffffffffffffffffffffff168473ffffffffffffffffffffffffffffffffffffffff161480610e6c57508373ffffffffffffffffffffffffffffffffffffffff16610e54846104a4565b73ffffffffffffffffffffffffffffffffffffffff16145b80610e7d5750610e7c8185610b7d565b5b91505092915050565b8273ffffffffffffffffffffffffffffffffffffffff16610ea6826106c1565b73ffffffffffffffffffffffffffffffffffffffff1614610efc576040517f08c379a0000000000000000000000000000000000000000000000000000000008152600401610ef390611f4a565b60405180910390fd5b600073ffffffffffffffffffffffffffffffffffffffff168273ffffffffffffffffffffffffffffffffffffffff161415610f6c576040517f08c379a0000000000000000000000000000000000000000000000000000000008152600401610f6390611e4a565b60405180910390fd5b610f778383836112d4565b610f82600082610cef565b6001600360008573ffffffffffffffffffffffffffffffffffffffff1673ffffffffffffffffffffffffffffffffffffffff1681526020019081526020016000206000828254610fd29190612136565b925050819055506001600360008473ffffffffffffffffffffffffffffffffffffffff1673ffffffffffffffffffffffffffffffffffffffff168152602001908152602001600020600082825461102991906120af565b92505081905550816002600083815260200190815260200160002060006101000a81548173ffffffffffffffffffffffffffffffffffffffff021916908373ffffffffffffffffffffffffffffffffffffffff160217905550808273ffffffffffffffffffffffffffffffffffffffff168473ffffffffffffffffffffffffffffffffffffffff167fddf252ad1be2c89b69c2b068fc378daa952ba7f163c4a11628f55a4df523b3ef60405160405180910390a4505050565b6110fc8282604051806020016040528060008152506112d9565b5050565b61110b848484610e86565b61111784848484611334565b611156576040517f08c379a000000000000000000000000000000000000000000000000000000000815260040161114d90611e0a565b60405180910390fd5b50505050565b606060405180602001604052806000815250905090565b606060008214156111bb576040518060400160405280600181526020017f300000000000000000000000000000000000000000000000000000000000000081525090506112cf565b600082905060005b600082146111ed5780806111d690612283565b915050600a826111e69190612105565b91506111c3565b60008167ffffffffffffffff811115611209576112086123b9565b5b6040519080825280601f01601f19166020018201604052801561123b5781602001600182028036833780820191505090505b5090505b600085146112c8576001826112549190612136565b9150600a8561126391906122cc565b603061126f91906120af565b60f81b8183815181106112855761128461238a565b5b60200101907effffffffffffffffffffffffffffffffffffffffffffffffffffffffffffff1916908160001a905350600a856112c19190612105565b945061123f565b8093505050505b919050565b505050565b6112e383836114cb565b6112f06000848484611334565b61132f576040517f08c379a000000000000000000000000000000000000000000000000000000000815260040161132690611e0a565b60405180910390fd5b505050565b60006113558473ffffffffffffffffffffffffffffffffffffffff16611699565b156114be578373ffffffffffffffffffffffffffffffffffffffff1663150b7a0261137e610ce7565b8786866040518563ffffffff1660e01b81526004016113a09493929190611d81565b602060405180830381600087803b1580156113ba57600080fd5b505af19250505080156113eb57506040513d601f19601f820116820180604052508101906113e891906119e5565b60015b61146e573d806000811461141b576040519150601f19603f3d011682016040523d82523d6000602084013e611420565b606091505b50600081511415611466576040517f08c379a000000000000000000000000000000000000000000000000000000000815260040161145d90611e0a565b60405180910390fd5b805181602001fd5b63150b7a0260e01b7bffffffffffffffffffffffffffffffffffffffffffffffffffffffff1916817bffffffffffffffffffffffffffffffffffffffffffffffffffffffff1916149150506114c3565b600190505b949350505050565b600073ffffffffffffffffffffffffffffffffffffffff168273ffffffffffffffffffffffffffffffffffffffff16141561153b576040517f08c379a000000000000000000000000000000000000000000000000000000000815260040161153290611f0a565b60405180910390fd5b61154481610c7b565b15611584576040517f08c379a000000000000000000000000000000000000000000000000000000000815260040161157b90611e2a565b60405180910390fd5b611590600083836112d4565b6001600360008473ffffffffffffffffffffffffffffffffffffffff1673ffffffffffffffffffffffffffffffffffffffff16815260200190815260200160002060008282546115e091906120af565b92505081905550816002600083815260200190815260200160002060006101000a81548173ffffffffffffffffffffffffffffffffffffffff021916908373ffffffffffffffffffffffffffffffffffffffff160217905550808273ffffffffffffffffffffffffffffffffffffffff16600073ffffffffffffffffffffffffffffffffffffffff167fddf252ad1be2c89b69c2b068fc378daa952ba7f163c4a11628f55a4df523b3ef60405160405180910390a45050565b600080823b905060008111915050919050565b60006116bf6116ba8461200a565b611fe5565b9050828152602081018484840111156116db576116da6123ed565b5b6116e68482856121de565b509392505050565b60006117016116fc8461203b565b611fe5565b90508281526020810184848401111561171d5761171c6123ed565b5b6117288482856121de565b509392505050565b60008135905061173f816127ed565b92915050565b60008135905061175481612804565b92915050565b6000813590506117698161281b565b92915050565b60008151905061177e8161281b565b92915050565b600082601f830112611799576117986123e8565b5b81356117a98482602086016116ac565b91505092915050565b600082601f8301126117c7576117c66123e8565b5b81356117d78482602086016116ee565b91505092915050565b6000813590506117ef81612832565b92915050565b60006020828403121561180b5761180a6123f7565b5b600061181984828501611730565b91505092915050565b60008060408385031215611839576118386123f7565b5b600061184785828601611730565b925050602061185885828601611730565b9150509250929050565b60008060006060848603121561187b5761187a6123f7565b5b600061188986828701611730565b935050602061189a86828701611730565b92505060406118ab868287016117e0565b9150509250925092565b600080600080608085870312156118cf576118ce6123f7565b5b60006118dd87828801611730565b94505060206118ee87828801611730565b93505060406118ff878288016117e0565b925050606085013567ffffffffffffffff8111156119205761191f6123f2565b5b61192c87828801611784565b91505092959194509250565b6000806040838503121561194f5761194e6123f7565b5b600061195d85828601611730565b925050602061196e85828601611745565b9150509250929050565b6000806040838503121561198f5761198e6123f7565b5b600061199d85828601611730565b92505060206119ae858286016117e0565b9150509250929050565b6000602082840312156119ce576119cd6123f7565b5b60006119dc8482850161175a565b91505092915050565b6000602082840312156119fb576119fa6123f7565b5b6000611a098482850161176f565b91505092915050565b600060208284031215611a2857611a276123f7565b5b600082013567ffffffffffffffff811115611a4657611a456123f2565b5b611a52848285016117b2565b91505092915050565b600060208284031215611a7157611a706123f7565b5b6000611a7f848285016117e0565b91505092915050565b611a918161216a565b82525050565b611aa08161217c565b82525050565b6000611ab18261206c565b611abb8185612082565b9350611acb8185602086016121ed565b611ad4816123fc565b840191505092915050565b6000611aea82612077565b611af48185612093565b9350611b048185602086016121ed565b611b0d816123fc565b840191505092915050565b6000611b2382612077565b611b2d81856120a4565b9350611b3d8185602086016121ed565b80840191505092915050565b6000611b56603283612093565b9150611b618261240d565b604082019050919050565b6000611b79601c83612093565b9150611b848261245c565b602082019050919050565b6000611b9c602483612093565b9150611ba782612485565b604082019050919050565b6000611bbf601983612093565b9150611bca826124d4565b602082019050919050565b6000611be2602c83612093565b9150611bed826124fd565b604082019050919050565b6000611c05603883612093565b9150611c108261254c565b604082019050919050565b6000611c28602a83612093565b9150611c338261259b565b604082019050919050565b6000611c4b602983612093565b9150611c56826125ea565b604082019050919050565b6000611c6e602083612093565b9150611c7982612639565b602082019050919050565b6000611c91602c83612093565b9150611c9c82612662565b604082019050919050565b6000611cb4602983612093565b9150611cbf826126b1565b604082019050919050565b6000611cd7602f83612093565b9150611ce282612700565b604082019050919050565b6000611cfa602183612093565b9150611d058261274f565b604082019050919050565b6000611d1d603183612093565b9150611d288261279e565b604082019050919050565b611d3c816121d4565b82525050565b6000611d4e8285611b18565b9150611d5a8284611b18565b91508190509392505050565b6000602082019050611d7b6000830184611a88565b92915050565b6000608082019050611d966000830187611a88565b611da36020830186611a88565b611db06040830185611d33565b8181036060830152611dc28184611aa6565b905095945050505050565b6000602082019050611de26000830184611a97565b92915050565b60006020820190508181036000830152611e028184611adf565b905092915050565b60006020820190508181036000830152611e2381611b49565b9050919050565b60006020820190508181036000830152611e4381611b6c565b9050919050565b60006020820190508181036000830152611e6381611b8f565b9050919050565b60006020820190508181036000830152611e8381611bb2565b9050919050565b60006020820190508181036000830152611ea381611bd5565b9050919050565b60006020820190508181036000830152611ec381611bf8565b9050919050565b60006020820190508181036000830152611ee381611c1b565b9050919050565b60006020820190508181036000830152611f0381611c3e565b9050919050565b60006020820190508181036000830152611f2381611c61565b9050919050565b60006020820190508181036000830152611f4381611c84565b9050919050565b60006020820190508181036000830152611f6381611ca7565b9050919050565b60006020820190508181036000830152611f8381611cca565b9050919050565b60006020820190508181036000830152611fa381611ced565b9050919050565b60006020820190508181036000830152611fc381611d10565b9050919050565b6000602082019050611fdf6000830184611d33565b92915050565b6000611fef612000565b9050611ffb8282612252565b919050565b6000604051905090565b600067ffffffffffffffff821115612025576120246123b9565b5b61202e826123fc565b9050602081019050919050565b600067ffffffffffffffff821115612056576120556123b9565b5b61205f826123fc565b9050602081019050919050565b600081519050919050565b600081519050919050565b600082825260208201905092915050565b600082825260208201905092915050565b600081905092915050565b60006120ba826121d4565b91506120c5836121d4565b9250827fffffffffffffffffffffffffffffffffffffffffffffffffffffffffffffffff038211156120fa576120f96122fd565b5b828201905092915050565b6000612110826121d4565b915061211b836121d4565b92508261212b5761212a61232c565b5b828204905092915050565b6000612141826121d4565b915061214c836121d4565b92508282101561215f5761215e6122fd565b5b828203905092915050565b6000612175826121b4565b9050919050565b60008115159050919050565b60007fffffffff0000000000000000000000000000000000000000000000000000000082169050919050565b600073ffffffffffffffffffffffffffffffffffffffff82169050919050565b6000819050919050565b82818337600083830152505050565b60005b8381101561220b5780820151818401526020810190506121f0565b8381111561221a576000848401525b50505050565b6000600282049050600182168061223857607f821691505b6020821081141561224c5761224b61235b565b5b50919050565b61225b826123fc565b810181811067ffffffffffffffff8211171561227a576122796123b9565b5b80604052505050565b600061228e826121d4565b91507fffffffffffffffffffffffffffffffffffffffffffffffffffffffffffffffff8214156122c1576122c06122fd565b5b600182019050919050565b60006122d7826121d4565b91506122e2836121d4565b9250826122f2576122f161232c565b5b828206905092915050565b7f4e487b7100000000000000000000000000000000000000000000000000000000600052601160045260246000fd5b7f4e487b7100000000000000000000000000000000000000000000000000000000600052601260045260246000fd5b7f4e487b7100000000000000000000000000000000000000000000000000000000600052602260045260246000fd5b7f4e487b7100000000000000000000000000000000000000000000000000000000600052603260045260246000fd5b7f4e487b7100000000000000000000000000000000000000000000000000000000600052604160045260246000fd5b600080fd5b600080fd5b600080fd5b600080fd5b6000601f19601f8301169050919050565b7f4552433732313a207472616e7366657220746f206e6f6e20455243373231526560008201527f63656976657220696d706c656d656e7465720000000000000000000000000000602082015250565b7f4552433732313a20746f6b656e20616c7265616479206d696e74656400000000600082015250565b7f4552433732313a207472616e7366657220746f20746865207a65726f2061646460008201527f7265737300000000000000000000000000000000000000000000000000000000602082015250565b7f4552433732313a20617070726f766520746f2063616c6c657200000000000000600082015250565b7f4552433732313a206f70657261746f7220717565727920666f72206e6f6e657860008201527f697374656e7420746f6b656e0000000000000000000000000000000000000000602082015250565b7f4552433732313a20617070726f76652063616c6c6572206973206e6f74206f7760008201527f6e6572206e6f7220617070726f76656420666f7220616c6c0000000000000000602082015250565b7f4552433732313a2062616c616e636520717565727920666f7220746865207a6560008201527f726f206164647265737300000000000000000000000000000000000000000000602082015250565b7f4552433732313a206f776e657220717565727920666f72206e6f6e657869737460008201527f656e7420746f6b656e0000000000000000000000000000000000000000000000602082015250565b7f4552433732313a206d696e7420746f20746865207a65726f2061646472657373600082015250565b7f4552433732313a20617070726f76656420717565727920666f72206e6f6e657860008201527f697374656e7420746f6b656e0000000000000000000000000000000000000000602082015250565b7f4552433732313a207472616e73666572206f6620746f6b656e2074686174206960008201527f73206e6f74206f776e0000000000000000000000000000000000000000000000602082015250565b7f4552433732314d657461646174613a2055524920717565727920666f72206e6f60008201527f6e6578697374656e7420746f6b656e0000000000000000000000000000000000602082015250565b7f4552433732313a20617070726f76616c20746f2063757272656e74206f776e6560008201527f7200000000000000000000000000000000000000000000000000000000000000602082015250565b7f4552433732313a207472616e736665722063616c6c6572206973206e6f74206f60008201527f776e6572206e6f7220617070726f766564000000000000000000000000000000602082015250565b6127f68161216a565b811461280157600080fd5b50565b61280d8161217c565b811461281857600080fd5b50565b61282481612188565b811461282f57600080fd5b50565b61283b816121d4565b811461284657600080fd5b5056fea26469706673582212200f01294df12235fd95b21882eb0765cae137053016863f4b3dfcf5e8cdac55a564736f6c63430008060033a264697066735822122079ada949db1b5dcc0dff887e716bb482d9c5d203bd65c62da0eae0aad4f80ed664736f6c63430008060033",
  "immutableReferences": {},
  "source": "pragma solidity >=0.7.0 <0.9.0;\npragma abicoder v2;\nimport \"./1_Campaign.sol\";\nimport \"@openzeppelin/contracts/access/Ownable.sol\";\nimport \"@openzeppelin/contracts/utils/math/SafeMath.sol\";\nimport \"@openzeppelin/contracts/token/ERC20/utils/SafeERC20.sol\";\nimport \"@openzeppelin/contracts/token/ERC20/IERC20.sol\";\n\n// SPDX-License-Identifier: MIT\n\ncontract Organisation {\n    \n        \n    using SafeMath for uint;\n    using SafeERC20 for IERC20;\n    \n    uint public campaignCounter;\n    address public owner;\n    mapping(address => uint) public members;\n    mapping(uint => Campaign) public campaigns;\n    \n    constructor(){\n        owner = msg.sender;\n        members[owner] = 1;\n    }\n    \n    \n    function addCampaign(string memory _name, uint _goal, string memory _description, uint _endTimestamp, address payable _beneficiary) public {\n        require(members[msg.sender] == 1);\n        require(_endTimestamp > block.timestamp, \"Organisation::addCampaign: Campaign must end in the future\");\n        campaignCounter ++;\n        campaigns[campaignCounter] = new Campaign(campaignCounter, _name, _goal, _description, _endTimestamp, _beneficiary);\n    }\n    \n    function addMember(address _member) public {\n        members[_member] = 1;\n    }\n}",
  "sourcePath": "/Users/Lara/FER/Web3.0/challenge1/eth-dapp/truffle project/contracts/2_Organisation.sol",
  "compiler": {
    "name": "solc",
    "version": "0.8.6+commit.11564f7e.Emscripten.clang"
  },
  "schemaVersion": "3.2.3",
  "updatedAt": "2021-08-05T17:35:53.862Z",
  "devdoc": {
    "kind": "dev",
    "methods": {},
    "version": 1
  },
  "userdoc": {
    "kind": "user",
    "methods": {},
    "version": 1
  }
}