{
  "contractName": "Organisation",
  "abi": [
    {
      "inputs": [],
      "stateMutability": "nonpayable",
      "type": "constructor"
    },
    {
      "inputs": [],
      "name": "campaignCounter",
      "outputs": [
        {
          "internalType": "uint256",
          "name": "",
          "type": "uint256"
        }
      ],
      "stateMutability": "view",
      "type": "function",
      "constant": true
    },
    {
      "inputs": [
        {
          "internalType": "uint256",
          "name": "",
          "type": "uint256"
        }
      ],
      "name": "campaigns",
      "outputs": [
        {
          "internalType": "contract Campaign",
          "name": "",
          "type": "address"
        }
      ],
      "stateMutability": "view",
      "type": "function",
      "constant": true
    },
    {
      "inputs": [
        {
          "internalType": "address",
          "name": "",
          "type": "address"
        }
      ],
      "name": "members",
      "outputs": [
        {
          "internalType": "uint256",
          "name": "",
          "type": "uint256"
        }
      ],
      "stateMutability": "view",
      "type": "function",
      "constant": true
    },
    {
      "inputs": [],
      "name": "owner",
      "outputs": [
        {
          "internalType": "address",
          "name": "",
          "type": "address"
        }
      ],
      "stateMutability": "view",
      "type": "function",
      "constant": true
    },
    {
      "inputs": [
        {
          "internalType": "string",
          "name": "_name",
          "type": "string"
        },
        {
          "internalType": "uint256",
          "name": "_goal",
          "type": "uint256"
        },
        {
          "internalType": "string",
          "name": "_description",
          "type": "string"
        },
        {
          "internalType": "uint256",
          "name": "_endTimestamp",
          "type": "uint256"
        },
        {
          "internalType": "address payable",
          "name": "_beneficiary",
          "type": "address"
        }
      ],
      "name": "addCampaign",
      "outputs": [],
      "stateMutability": "nonpayable",
      "type": "function"
    },
    {
      "inputs": [
        {
          "internalType": "address",
          "name": "_member",
          "type": "address"
        }
      ],
      "name": "addMember",
      "outputs": [],
      "stateMutability": "nonpayable",
      "type": "function"
    }
  ],
  "bytecode": "0x608060405234801561001057600080fd5b5033600160006101000a81548173ffffffffffffffffffffffffffffffffffffffff021916908373ffffffffffffffffffffffffffffffffffffffff160217905550600160026000600160009054906101000a900473ffffffffffffffffffffffffffffffffffffffff1673ffffffffffffffffffffffffffffffffffffffff1673ffffffffffffffffffffffffffffffffffffffff16815260200190815260200160002081905550614cf0806100c86000396000f3fe60806040523480156200001157600080fd5b50600436106200006a5760003560e01c806308ae4b0c146200006f578063141961bc14620000a55780631668ea5414620000db5780638da5cb5b14620000fb578063ca6d56dc146200011d578063fca604d7146200013d575b600080fd5b6200008d60048036038101906200008791906200042c565b6200015f565b6040516200009c919062000681565b60405180910390f35b620000c36004803603810190620000bd91906200050c565b62000177565b604051620000d2919062000642565b60405180910390f35b620000f96004803603810190620000f3919062000458565b620001aa565b005b62000105620002f3565b60405162000114919062000625565b60405180910390f35b6200013b60048036038101906200013591906200042c565b62000319565b005b6200014762000361565b60405162000156919062000681565b60405180910390f35b60026020528060005260406000206000915090505481565b60036020528060005260406000206000915054906101000a900473ffffffffffffffffffffffffffffffffffffffff1681565b6001600260003373ffffffffffffffffffffffffffffffffffffffff1673ffffffffffffffffffffffffffffffffffffffff1681526020019081526020016000205414620001f757600080fd5b4282116200023c576040517f08c379a000000000000000000000000000000000000000000000000000000000815260040162000233906200065f565b60405180910390fd5b60008081548092919062000250906200085b565b919050555060005485858585856040516200026b9062000367565b6200027c969594939291906200069e565b604051809103906000f08015801562000299573d6000803e3d6000fd5b50600360008054815260200190815260200160002060006101000a81548173ffffffffffffffffffffffffffffffffffffffff021916908373ffffffffffffffffffffffffffffffffffffffff1602179055505050505050565b600160009054906101000a900473ffffffffffffffffffffffffffffffffffffffff1681565b6001600260008373ffffffffffffffffffffffffffffffffffffffff1673ffffffffffffffffffffffffffffffffffffffff1681526020019081526020016000208190555050565b60005481565b614354806200096783390190565b60006200038c62000386846200074d565b62000719565b905082815260208101848484011115620003a557600080fd5b620003b284828562000816565b509392505050565b600081359050620003cb8162000918565b92915050565b600081359050620003e28162000932565b92915050565b600082601f830112620003fa57600080fd5b81356200040c84826020860162000375565b91505092915050565b60008135905062000426816200094c565b92915050565b6000602082840312156200043f57600080fd5b60006200044f84828501620003ba565b91505092915050565b600080600080600060a086880312156200047157600080fd5b600086013567ffffffffffffffff8111156200048c57600080fd5b6200049a88828901620003e8565b9550506020620004ad8882890162000415565b945050604086013567ffffffffffffffff811115620004cb57600080fd5b620004d988828901620003e8565b9350506060620004ec8882890162000415565b9250506080620004ff88828901620003d1565b9150509295509295909350565b6000602082840312156200051f57600080fd5b60006200052f8482850162000415565b91505092915050565b6200054381620007b0565b82525050565b62000554816200079c565b82525050565b6200056581620007ee565b82525050565b6000620005788262000780565b6200058481856200078b565b93506200059681856020860162000825565b620005a18162000907565b840191505092915050565b6000620005bb603a836200078b565b91507f4f7267616e69736174696f6e3a3a61646443616d706169676e3a2043616d706160008301527f69676e206d75737420656e6420696e20746865206675747572650000000000006020830152604082019050919050565b6200061f81620007e4565b82525050565b60006020820190506200063c600083018462000549565b92915050565b60006020820190506200065960008301846200055a565b92915050565b600060208201905081810360008301526200067a81620005ac565b9050919050565b600060208201905062000698600083018462000614565b92915050565b600060c082019050620006b5600083018962000614565b8181036020830152620006c981886200056b565b9050620006da604083018762000614565b8181036060830152620006ee81866200056b565b9050620006ff608083018562000614565b6200070e60a083018462000538565b979650505050505050565b6000604051905081810181811067ffffffffffffffff82111715620007435762000742620008d8565b5b8060405250919050565b600067ffffffffffffffff8211156200076b576200076a620008d8565b5b601f19601f8301169050602081019050919050565b600081519050919050565b600082825260208201905092915050565b6000620007a982620007c4565b9050919050565b6000620007bd82620007c4565b9050919050565b600073ffffffffffffffffffffffffffffffffffffffff82169050919050565b6000819050919050565b6000620007fb8262000802565b9050919050565b60006200080f82620007c4565b9050919050565b82818337600083830152505050565b60005b838110156200084557808201518184015260208101905062000828565b8381111562000855576000848401525b50505050565b60006200086882620007e4565b91507fffffffffffffffffffffffffffffffffffffffffffffffffffffffffffffffff8214156200089e576200089d620008a9565b5b600182019050919050565b7f4e487b7100000000000000000000000000000000000000000000000000000000600052601160045260246000fd5b7f4e487b7100000000000000000000000000000000000000000000000000000000600052604160045260246000fd5b6000601f19601f8301169050919050565b62000923816200079c565b81146200092f57600080fd5b50565b6200093d81620007b0565b81146200094957600080fd5b50565b6200095781620007e4565b81146200096357600080fd5b5056fe60806040526000600460146101000a81548160ff0219169083151502179055503480156200002c57600080fd5b5060405162004354380380620043548339818101604052810190620000529190620002b8565b856000819055508460019080519060200190620000719291906200015a565b506000600281905550836003819055508260059080519060200190620000999291906200015a565b5080600460006101000a81548173ffffffffffffffffffffffffffffffffffffffff021916908373ffffffffffffffffffffffffffffffffffffffff16021790555081600881905550604051620000f090620001eb565b604051809103906000f0801580156200010d573d6000803e3d6000fd5b50600960006101000a81548173ffffffffffffffffffffffffffffffffffffffff021916908373ffffffffffffffffffffffffffffffffffffffff16021790555050505050505062000523565b82805462000168906200045b565b90600052602060002090601f0160209004810192826200018c5760008555620001d8565b82601f10620001a757805160ff1916838001178555620001d8565b82800160010185558215620001d8579182015b82811115620001d7578251825591602001919060010190620001ba565b5b509050620001e79190620001f9565b5090565b61295e80620019f683390190565b5b8082111562000214576000816000905550600101620001fa565b5090565b60006200022f6200022984620003b4565b62000380565b9050828152602081018484840111156200024857600080fd5b6200025584828562000425565b509392505050565b6000815190506200026e81620004ef565b92915050565b600082601f8301126200028657600080fd5b81516200029884826020860162000218565b91505092915050565b600081519050620002b28162000509565b92915050565b60008060008060008060c08789031215620002d257600080fd5b6000620002e289828a01620002a1565b965050602087015167ffffffffffffffff8111156200030057600080fd5b6200030e89828a0162000274565b95505060406200032189828a01620002a1565b945050606087015167ffffffffffffffff8111156200033f57600080fd5b6200034d89828a0162000274565b93505060806200036089828a01620002a1565b92505060a06200037389828a016200025d565b9150509295509295509295565b6000604051905081810181811067ffffffffffffffff82111715620003aa57620003a9620004c0565b5b8060405250919050565b600067ffffffffffffffff821115620003d257620003d1620004c0565b5b601f19601f8301169050602081019050919050565b6000620003f482620003fb565b9050919050565b600073ffffffffffffffffffffffffffffffffffffffff82169050919050565b6000819050919050565b60005b838110156200044557808201518184015260208101905062000428565b8381111562000455576000848401525b50505050565b600060028204905060018216806200047457607f821691505b602082108114156200048b576200048a62000491565b5b50919050565b7f4e487b7100000000000000000000000000000000000000000000000000000000600052602260045260246000fd5b7f4e487b7100000000000000000000000000000000000000000000000000000000600052604160045260246000fd5b620004fa81620003e7565b81146200050657600080fd5b50565b62000514816200041b565b81146200052057600080fd5b50565b6114c380620005336000396000f3fe6080604052600436106100a75760003560e01c80638da5cb5b116100645780638da5cb5b146101ac578063af640d0f146101d7578063b5aebc8014610202578063bb66834e14610232578063bef4876b1461025d578063dec9782814610288576100a7565b806306fdde03146100ac5780631eaa1c8b146100d75780632fdef9c3146100ee578063401938831461012b57806351906bb0146101565780637284e41614610181575b600080fd5b3480156100b857600080fd5b506100c16102b3565b6040516100ce9190610feb565b60405180910390f35b3480156100e357600080fd5b506100ec610341565b005b3480156100fa57600080fd5b5061011560048036038101906101109190610ac5565b610480565b6040516101229190610feb565b60405180910390f35b34801561013757600080fd5b5061014061052c565b60405161014d91906110cd565b60405180910390f35b34801561016257600080fd5b5061016b610532565b60405161017891906110cd565b60405180910390f35b34801561018d57600080fd5b50610196610538565b6040516101a39190610feb565b60405180910390f35b3480156101b857600080fd5b506101c16105c6565b6040516101ce9190610fb5565b60405180910390f35b3480156101e357600080fd5b506101ec6105ec565b6040516101f991906110cd565b60405180910390f35b61021c60048036038101906102179190610a84565b6105f2565b6040516102299190610fd0565b60405180910390f35b34801561023e57600080fd5b506102476108be565b60405161025491906110cd565b60405180910390f35b34801561026957600080fd5b506102726108c4565b60405161027f9190610fd0565b60405180910390f35b34801561029457600080fd5b5061029d6108d7565b6040516102aa91906110cd565b60405180910390f35b600180546102c09061135d565b80601f01602080910402602001604051908101604052809291908181526020018280546102ec9061135d565b80156103395780601f1061030e57610100808354040283529160200191610339565b820191906000526020600020905b81548152906001019060200180831161031c57829003601f168201915b505050505081565b4260085410610385576040517f08c379a000000000000000000000000000000000000000000000000000000000815260040161037c906110ad565b60405180910390fd5b600460009054906101000a900473ffffffffffffffffffffffffffffffffffffffff1673ffffffffffffffffffffffffffffffffffffffff163373ffffffffffffffffffffffffffffffffffffffff1614610415576040517f08c379a000000000000000000000000000000000000000000000000000000000815260040161040c9061106d565b60405180910390fd5b600460009054906101000a900473ffffffffffffffffffffffffffffffffffffffff1673ffffffffffffffffffffffffffffffffffffffff166108fc479081150290604051600060405180830381858888f1935050505015801561047d573d6000803e3d6000fd5b50565b6006818154811061049057600080fd5b9060005260206000200160009150905080546104ab9061135d565b80601f01602080910402602001604051908101604052809291908181526020018280546104d79061135d565b80156105245780601f106104f957610100808354040283529160200191610524565b820191906000526020600020905b81548152906001019060200180831161050757829003601f168201915b505050505081565b60035481565b60085481565b600580546105459061135d565b80601f01602080910402602001604051908101604052809291908181526020018280546105719061135d565b80156105be5780601f10610593576101008083540402835291602001916105be565b820191906000526020600020905b8154815290600101906020018083116105a157829003601f168201915b505050505081565b600460009054906101000a900473ffffffffffffffffffffffffffffffffffffffff1681565b60005481565b6000343273ffffffffffffffffffffffffffffffffffffffff1631101561064e576040517f08c379a00000000000000000000000000000000000000000000000000000000081526004016106459061104d565b60405180910390fd5b4260085411610692576040517f08c379a00000000000000000000000000000000000000000000000000000000081526004016106899061108d565b60405180910390fd5b600354346002546106a3919061127d565b11156106e4576040517f08c379a00000000000000000000000000000000000000000000000000000000081526004016106db9061102d565b60405180910390fd5b34600260008282546106f6919061127d565b9250508190555060068290806001815401808255809150506001900390600052602060002001600090919091909150908051906020019061073892919061094f565b506007600081548092919061074c9061138f565b919050555060035460025414156107c9577f314217ebdf17981d4a26c0519c8810c5b95359d28c649f331ae684df59190db26002546003546000546001600660405161079c95949392919061113b565b60405180910390a16001600460146101000a81548160ff0219169083151502179055506107c76108dd565b505b7f603e3549dc91f5ea5c20e81f07db1876962790e50a9c3d3bbdc07821b0b045cd3460005460018560405161080194939291906110e8565b60405180910390a1600960009054906101000a900473ffffffffffffffffffffffffffffffffffffffff1673ffffffffffffffffffffffffffffffffffffffff16636eff88ff6040518163ffffffff1660e01b81526004016108629061100d565b602060405180830381600087803b15801561087c57600080fd5b505af1158015610890573d6000803e3d6000fd5b505050506040513d601f19601f820116820180604052508101906108b49190610aee565b5060019050919050565b60025481565b600460149054906101000a900460ff1681565b60075481565b6000600460009054906101000a900473ffffffffffffffffffffffffffffffffffffffff1673ffffffffffffffffffffffffffffffffffffffff166108fc479081150290604051600060405180830381858888f19350505050158015610947573d6000803e3d6000fd5b506001905090565b82805461095b9061135d565b90600052602060002090601f01602090048101928261097d57600085556109c4565b82601f1061099657805160ff19168380011785556109c4565b828001600101855582156109c4579182015b828111156109c35782518255916020019190600101906109a8565b5b5090506109d191906109d5565b5090565b5b808211156109ee5760008160009055506001016109d6565b5090565b6000610a05610a00846111cd565b61119c565b905082815260208101848484011115610a1d57600080fd5b610a2884828561131b565b509392505050565b600082601f830112610a4157600080fd5b8135610a518482602086016109f2565b91505092915050565b600081359050610a6981611476565b92915050565b600081519050610a7e81611476565b92915050565b600060208284031215610a9657600080fd5b600082013567ffffffffffffffff811115610ab057600080fd5b610abc84828501610a30565b91505092915050565b600060208284031215610ad757600080fd5b6000610ae584828501610a5a565b91505092915050565b600060208284031215610b0057600080fd5b6000610b0e84828501610a6f565b91505092915050565b6000610b238383610bf6565b905092915050565b610b34816112d3565b82525050565b6000610b4582611227565b610b4f818561124a565b935083602082028501610b61856111fd565b8060005b85811015610b9c57848403895281610b7d8582610b17565b9450610b888361123d565b925060208a01995050600181019050610b65565b50829750879550505050505092915050565b610bb7816112e5565b82525050565b6000610bc882611232565b610bd2818561126c565b9350610be281856020860161132a565b610beb81611465565b840191505092915050565b60008154610c038161135d565b610c0d818661125b565b94506001821660008114610c285760018114610c3a57610c6d565b60ff1983168652602086019350610c6d565b610c4385611212565b60005b83811015610c6557815481890152600182019150602081019050610c46565b808801955050505b50505092915050565b60008154610c838161135d565b610c8d818661126c565b94506001821660008114610ca85760018114610cba57610ced565b60ff1983168652602086019350610ced565b610cc385611212565b60005b83811015610ce557815481890152600182019150602081019050610cc6565b808801955050505b50505092915050565b6000610d0360438361126c565b91507f68747470733a2f2f697066732e696f2f697066732f516d65757733514648426d60008301527f565278334b316f774772654b78315076437472726e4e44516936764e77386f6160208301527f51595400000000000000000000000000000000000000000000000000000000006040830152606082019050919050565b6000610d8f60228361126c565b91507f43616d706169676e3a3a646f6e6174653a20486172642063617020726561636860008301527f65640000000000000000000000000000000000000000000000000000000000006020830152604082019050919050565b6000610df560238361126c565b91507f43616d706169676e3a3a646f6e6174653a20496e737566696369656e7420667560008301527f6e647300000000000000000000000000000000000000000000000000000000006020830152604082019050919050565b6000610e5b60468361126c565b91507f63616d706169676e3a3a6578706972656457697468647261773a204f6e6c792060008301527f7468652062656e65666963696172792063616e2077697468647261772074686560208301527f2066756e647300000000000000000000000000000000000000000000000000006040830152606082019050919050565b6000610ee760348361126c565b91507f43616d706169676e3a3a646f6e6174653a20546869732063616d706169676e2060008301527f68617320616c72656164792066696e69736865640000000000000000000000006020830152604082019050919050565b6000610f4d60388361126c565b91507f43616d706169676e3a3a6578706972656457697468647261773a20546869732060008301527f63616d706169676e206973207374696c6c2061637469766500000000000000006020830152604082019050919050565b610faf81611311565b82525050565b6000602082019050610fca6000830184610b2b565b92915050565b6000602082019050610fe56000830184610bae565b92915050565b600060208201905081810360008301526110058184610bbd565b905092915050565b6000602082019050818103600083015261102681610cf6565b9050919050565b6000602082019050818103600083015261104681610d82565b9050919050565b6000602082019050818103600083015261106681610de8565b9050919050565b6000602082019050818103600083015261108681610e4e565b9050919050565b600060208201905081810360008301526110a681610eda565b9050919050565b600060208201905081810360008301526110c681610f40565b9050919050565b60006020820190506110e26000830184610fa6565b92915050565b60006080820190506110fd6000830187610fa6565b61110a6020830186610fa6565b818103604083015261111c8185610c76565b905081810360608301526111308184610bbd565b905095945050505050565b600060a0820190506111506000830188610fa6565b61115d6020830187610fa6565b61116a6040830186610fa6565b818103606083015261117c8185610c76565b905081810360808301526111908184610b3a565b90509695505050505050565b6000604051905081810181811067ffffffffffffffff821117156111c3576111c2611436565b5b8060405250919050565b600067ffffffffffffffff8211156111e8576111e7611436565b5b601f19601f8301169050602081019050919050565b60008190508160005260206000209050919050565b60008190508160005260206000209050919050565b600081549050919050565b600081519050919050565b6000600182019050919050565b600082825260208201905092915050565b600082825260208201905092915050565b600082825260208201905092915050565b600061128882611311565b915061129383611311565b9250827fffffffffffffffffffffffffffffffffffffffffffffffffffffffffffffffff038211156112c8576112c76113d8565b5b828201905092915050565b60006112de826112f1565b9050919050565b60008115159050919050565b600073ffffffffffffffffffffffffffffffffffffffff82169050919050565b6000819050919050565b82818337600083830152505050565b60005b8381101561134857808201518184015260208101905061132d565b83811115611357576000848401525b50505050565b6000600282049050600182168061137557607f821691505b6020821081141561138957611388611407565b5b50919050565b600061139a82611311565b91507fffffffffffffffffffffffffffffffffffffffffffffffffffffffffffffffff8214156113cd576113cc6113d8565b5b600182019050919050565b7f4e487b7100000000000000000000000000000000000000000000000000000000600052601160045260246000fd5b7f4e487b7100000000000000000000000000000000000000000000000000000000600052602260045260246000fd5b7f4e487b7100000000000000000000000000000000000000000000000000000000600052604160045260246000fd5b6000601f19601f8301169050919050565b61147f81611311565b811461148a57600080fd5b5056fea264697066735822122069a45cecd36780ac0c9276087dfa073eb4a127082760ebb357102cd78a29736264736f6c6343000800003360806040523480156200001157600080fd5b506040518060400160405280600381526020017f456c6600000000000000000000000000000000000000000000000000000000008152506040518060400160405280600381526020017f454c460000000000000000000000000000000000000000000000000000000000815250816000908051906020019062000096929190620000c0565b508060019080519060200190620000af929190620000c0565b5050506000600681905550620001d5565b828054620000ce9062000170565b90600052602060002090601f016020900481019282620000f257600085556200013e565b82601f106200010d57805160ff19168380011785556200013e565b828001600101855582156200013e579182015b828111156200013d57825182559160200191906001019062000120565b5b5090506200014d919062000151565b5090565b5b808211156200016c57600081600090555060010162000152565b5090565b600060028204905060018216806200018957607f821691505b60208210811415620001a0576200019f620001a6565b5b50919050565b7f4e487b7100000000000000000000000000000000000000000000000000000000600052602260045260246000fd5b61277980620001e56000396000f3fe608060405234801561001057600080fd5b50600436106100f55760003560e01c80636eff88ff11610097578063b88d4fde11610066578063b88d4fde14610296578063c87b56dd146102b2578063d082e381146102e2578063e985e9c514610300576100f5565b80636eff88ff146101fc57806370a082311461022c57806395d89b411461025c578063a22cb4651461027a576100f5565b8063095ea7b3116100d3578063095ea7b31461017857806323b872dd1461019457806342842e0e146101b05780636352211e146101cc576100f5565b806301ffc9a7146100fa57806306fdde031461012a578063081812fc14610148575b600080fd5b610114600480360381019061010f91906119d8565b610330565b6040516101219190612111565b60405180910390f35b610132610412565b60405161013f919061212c565b60405180910390f35b610162600480360381019061015d9190611a6b565b6104a4565b60405161016f91906120aa565b60405180910390f35b610192600480360381019061018d919061199c565b610529565b005b6101ae60048036038101906101a99190611896565b610641565b005b6101ca60048036038101906101c59190611896565b6106a1565b005b6101e660048036038101906101e19190611a6b565b6106c1565b6040516101f391906120aa565b60405180910390f35b61021660048036038101906102119190611a2a565b610773565b604051610223919061230e565b60405180910390f35b61024660048036038101906102419190611831565b6107a3565b604051610253919061230e565b60405180910390f35b61026461085b565b604051610271919061212c565b60405180910390f35b610294600480360381019061028f9190611960565b6108ed565b005b6102b060048036038101906102ab91906118e5565b610a6e565b005b6102cc60048036038101906102c79190611a6b565b610ad0565b6040516102d9919061212c565b60405180910390f35b6102ea610b77565b6040516102f7919061230e565b60405180910390f35b61031a6004803603810190610315919061185a565b610b7d565b6040516103279190612111565b60405180910390f35b60007f80ac58cd000000000000000000000000000000000000000000000000000000007bffffffffffffffffffffffffffffffffffffffffffffffffffffffff1916827bffffffffffffffffffffffffffffffffffffffffffffffffffffffff191614806103fb57507f5b5e139f000000000000000000000000000000000000000000000000000000007bffffffffffffffffffffffffffffffffffffffffffffffffffffffff1916827bffffffffffffffffffffffffffffffffffffffffffffffffffffffff1916145b8061040b575061040a82610c11565b5b9050919050565b6060600080546104219061256e565b80601f016020809104026020016040519081016040528092919081815260200182805461044d9061256e565b801561049a5780601f1061046f5761010080835404028352916020019161049a565b820191906000526020600020905b81548152906001019060200180831161047d57829003601f168201915b5050505050905090565b60006104af82610c7b565b6104ee576040517f08c379a00000000000000000000000000000000000000000000000000000000081526004016104e59061226e565b60405180910390fd5b6004600083815260200190815260200160002060009054906101000a900473ffffffffffffffffffffffffffffffffffffffff169050919050565b6000610534826106c1565b90508073ffffffffffffffffffffffffffffffffffffffff168373ffffffffffffffffffffffffffffffffffffffff1614156105a5576040517f08c379a000000000000000000000000000000000000000000000000000000000815260040161059c906122ce565b60405180910390fd5b8073ffffffffffffffffffffffffffffffffffffffff166105c4610ce7565b73ffffffffffffffffffffffffffffffffffffffff1614806105f357506105f2816105ed610ce7565b610b7d565b5b610632576040517f08c379a0000000000000000000000000000000000000000000000000000000008152600401610629906121ee565b60405180910390fd5b61063c8383610cef565b505050565b61065261064c610ce7565b82610da8565b610691576040517f08c379a0000000000000000000000000000000000000000000000000000000008152600401610688906122ee565b60405180910390fd5b61069c838383610e86565b505050565b6106bc83838360405180602001604052806000815250610a6e565b505050565b6000806002600084815260200190815260200160002060009054906101000a900473ffffffffffffffffffffffffffffffffffffffff169050600073ffffffffffffffffffffffffffffffffffffffff168173ffffffffffffffffffffffffffffffffffffffff16141561076a576040517f08c379a00000000000000000000000000000000000000000000000000000000081526004016107619061222e565b60405180910390fd5b80915050919050565b600080600654905061078532826110e2565b600160065461079491906123fd565b60068190555080915050919050565b60008073ffffffffffffffffffffffffffffffffffffffff168273ffffffffffffffffffffffffffffffffffffffff161415610814576040517f08c379a000000000000000000000000000000000000000000000000000000000815260040161080b9061220e565b60405180910390fd5b600360008373ffffffffffffffffffffffffffffffffffffffff1673ffffffffffffffffffffffffffffffffffffffff168152602001908152602001600020549050919050565b60606001805461086a9061256e565b80601f01602080910402602001604051908101604052809291908181526020018280546108969061256e565b80156108e35780601f106108b8576101008083540402835291602001916108e3565b820191906000526020600020905b8154815290600101906020018083116108c657829003601f168201915b5050505050905090565b6108f5610ce7565b73ffffffffffffffffffffffffffffffffffffffff168273ffffffffffffffffffffffffffffffffffffffff161415610963576040517f08c379a000000000000000000000000000000000000000000000000000000000815260040161095a906121ae565b60405180910390fd5b8060056000610970610ce7565b73ffffffffffffffffffffffffffffffffffffffff1673ffffffffffffffffffffffffffffffffffffffff16815260200190815260200160002060008473ffffffffffffffffffffffffffffffffffffffff1673ffffffffffffffffffffffffffffffffffffffff16815260200190815260200160002060006101000a81548160ff0219169083151502179055508173ffffffffffffffffffffffffffffffffffffffff16610a1d610ce7565b73ffffffffffffffffffffffffffffffffffffffff167f17307eab39ab6107e8899845ad3d59bd9653f200f220920489ca2b5937696c3183604051610a629190612111565b60405180910390a35050565b610a7f610a79610ce7565b83610da8565b610abe576040517f08c379a0000000000000000000000000000000000000000000000000000000008152600401610ab5906122ee565b60405180910390fd5b610aca84848484611100565b50505050565b6060610adb82610c7b565b610b1a576040517f08c379a0000000000000000000000000000000000000000000000000000000008152600401610b11906122ae565b60405180910390fd5b6000610b2461115c565b90506000815111610b445760405180602001604052806000815250610b6f565b80610b4e84611173565b604051602001610b5f929190612086565b6040516020818303038152906040525b915050919050565b60065481565b6000600560008473ffffffffffffffffffffffffffffffffffffffff1673ffffffffffffffffffffffffffffffffffffffff16815260200190815260200160002060008373ffffffffffffffffffffffffffffffffffffffff1673ffffffffffffffffffffffffffffffffffffffff16815260200190815260200160002060009054906101000a900460ff16905092915050565b60007f01ffc9a7000000000000000000000000000000000000000000000000000000007bffffffffffffffffffffffffffffffffffffffffffffffffffffffff1916827bffffffffffffffffffffffffffffffffffffffffffffffffffffffff1916149050919050565b60008073ffffffffffffffffffffffffffffffffffffffff166002600084815260200190815260200160002060009054906101000a900473ffffffffffffffffffffffffffffffffffffffff1673ffffffffffffffffffffffffffffffffffffffff1614159050919050565b600033905090565b816004600083815260200190815260200160002060006101000a81548173ffffffffffffffffffffffffffffffffffffffff021916908373ffffffffffffffffffffffffffffffffffffffff160217905550808273ffffffffffffffffffffffffffffffffffffffff16610d62836106c1565b73ffffffffffffffffffffffffffffffffffffffff167f8c5be1e5ebec7d5bd14f71427d1e84f3dd0314c0f7b2291e5b200ac8c7c3b92560405160405180910390a45050565b6000610db382610c7b565b610df2576040517f08c379a0000000000000000000000000000000000000000000000000000000008152600401610de9906121ce565b60405180910390fd5b6000610dfd836106c1565b90508073ffffffffffffffffffffffffffffffffffffffff168473ffffffffffffffffffffffffffffffffffffffff161480610e6c57508373ffffffffffffffffffffffffffffffffffffffff16610e54846104a4565b73ffffffffffffffffffffffffffffffffffffffff16145b80610e7d5750610e7c8185610b7d565b5b91505092915050565b8273ffffffffffffffffffffffffffffffffffffffff16610ea6826106c1565b73ffffffffffffffffffffffffffffffffffffffff1614610efc576040517f08c379a0000000000000000000000000000000000000000000000000000000008152600401610ef39061228e565b60405180910390fd5b600073ffffffffffffffffffffffffffffffffffffffff168273ffffffffffffffffffffffffffffffffffffffff161415610f6c576040517f08c379a0000000000000000000000000000000000000000000000000000000008152600401610f639061218e565b60405180910390fd5b610f77838383611320565b610f82600082610cef565b6001600360008573ffffffffffffffffffffffffffffffffffffffff1673ffffffffffffffffffffffffffffffffffffffff1681526020019081526020016000206000828254610fd29190612484565b925050819055506001600360008473ffffffffffffffffffffffffffffffffffffffff1673ffffffffffffffffffffffffffffffffffffffff168152602001908152602001600020600082825461102991906123fd565b92505081905550816002600083815260200190815260200160002060006101000a81548173ffffffffffffffffffffffffffffffffffffffff021916908373ffffffffffffffffffffffffffffffffffffffff160217905550808273ffffffffffffffffffffffffffffffffffffffff168473ffffffffffffffffffffffffffffffffffffffff167fddf252ad1be2c89b69c2b068fc378daa952ba7f163c4a11628f55a4df523b3ef60405160405180910390a4505050565b6110fc828260405180602001604052806000815250611325565b5050565b61110b848484610e86565b61111784848484611380565b611156576040517f08c379a000000000000000000000000000000000000000000000000000000000815260040161114d9061214e565b60405180910390fd5b50505050565b606060405180602001604052806000815250905090565b606060008214156111bb576040518060400160405280600181526020017f3000000000000000000000000000000000000000000000000000000000000000815250905061131b565b600082905060005b600082146111ed5780806111d6906125a0565b915050600a826111e69190612453565b91506111c3565b60008167ffffffffffffffff81111561122f577f4e487b7100000000000000000000000000000000000000000000000000000000600052604160045260246000fd5b6040519080825280601f01601f1916602001820160405280156112615781602001600182028036833780820191505090505b5090505b600085146113145760018261127a9190612484565b9150600a8561128991906125e9565b603061129591906123fd565b60f81b8183815181106112d1577f4e487b7100000000000000000000000000000000000000000000000000000000600052603260045260246000fd5b60200101907effffffffffffffffffffffffffffffffffffffffffffffffffffffffffffff1916908160001a905350600a8561130d9190612453565b9450611265565b8093505050505b919050565b505050565b61132f8383611517565b61133c6000848484611380565b61137b576040517f08c379a00000000000000000000000000000000000000000000000000000000081526004016113729061214e565b60405180910390fd5b505050565b60006113a18473ffffffffffffffffffffffffffffffffffffffff166116e5565b1561150a578373ffffffffffffffffffffffffffffffffffffffff1663150b7a026113ca610ce7565b8786866040518563ffffffff1660e01b81526004016113ec94939291906120c5565b602060405180830381600087803b15801561140657600080fd5b505af192505050801561143757506040513d601f19601f820116820180604052508101906114349190611a01565b60015b6114ba573d8060008114611467576040519150601f19603f3d011682016040523d82523d6000602084013e61146c565b606091505b506000815114156114b2576040517f08c379a00000000000000000000000000000000000000000000000000000000081526004016114a99061214e565b60405180910390fd5b805181602001fd5b63150b7a0260e01b7bffffffffffffffffffffffffffffffffffffffffffffffffffffffff1916817bffffffffffffffffffffffffffffffffffffffffffffffffffffffff19161491505061150f565b600190505b949350505050565b600073ffffffffffffffffffffffffffffffffffffffff168273ffffffffffffffffffffffffffffffffffffffff161415611587576040517f08c379a000000000000000000000000000000000000000000000000000000000815260040161157e9061224e565b60405180910390fd5b61159081610c7b565b156115d0576040517f08c379a00000000000000000000000000000000000000000000000000000000081526004016115c79061216e565b60405180910390fd5b6115dc60008383611320565b6001600360008473ffffffffffffffffffffffffffffffffffffffff1673ffffffffffffffffffffffffffffffffffffffff168152602001908152602001600020600082825461162c91906123fd565b92505081905550816002600083815260200190815260200160002060006101000a81548173ffffffffffffffffffffffffffffffffffffffff021916908373ffffffffffffffffffffffffffffffffffffffff160217905550808273ffffffffffffffffffffffffffffffffffffffff16600073ffffffffffffffffffffffffffffffffffffffff167fddf252ad1be2c89b69c2b068fc378daa952ba7f163c4a11628f55a4df523b3ef60405160405180910390a45050565b600080823b905060008111915050919050565b600061170b6117068461235a565b612329565b90508281526020810184848401111561172357600080fd5b61172e84828561252c565b509392505050565b60006117496117448461238a565b612329565b90508281526020810184848401111561176157600080fd5b61176c84828561252c565b509392505050565b600081359050611783816126e7565b92915050565b600081359050611798816126fe565b92915050565b6000813590506117ad81612715565b92915050565b6000815190506117c281612715565b92915050565b600082601f8301126117d957600080fd5b81356117e98482602086016116f8565b91505092915050565b600082601f83011261180357600080fd5b8135611813848260208601611736565b91505092915050565b60008135905061182b8161272c565b92915050565b60006020828403121561184357600080fd5b600061185184828501611774565b91505092915050565b6000806040838503121561186d57600080fd5b600061187b85828601611774565b925050602061188c85828601611774565b9150509250929050565b6000806000606084860312156118ab57600080fd5b60006118b986828701611774565b93505060206118ca86828701611774565b92505060406118db8682870161181c565b9150509250925092565b600080600080608085870312156118fb57600080fd5b600061190987828801611774565b945050602061191a87828801611774565b935050604061192b8782880161181c565b925050606085013567ffffffffffffffff81111561194857600080fd5b611954878288016117c8565b91505092959194509250565b6000806040838503121561197357600080fd5b600061198185828601611774565b925050602061199285828601611789565b9150509250929050565b600080604083850312156119af57600080fd5b60006119bd85828601611774565b92505060206119ce8582860161181c565b9150509250929050565b6000602082840312156119ea57600080fd5b60006119f88482850161179e565b91505092915050565b600060208284031215611a1357600080fd5b6000611a21848285016117b3565b91505092915050565b600060208284031215611a3c57600080fd5b600082013567ffffffffffffffff811115611a5657600080fd5b611a62848285016117f2565b91505092915050565b600060208284031215611a7d57600080fd5b6000611a8b8482850161181c565b91505092915050565b611a9d816124b8565b82525050565b611aac816124ca565b82525050565b6000611abd826123ba565b611ac781856123d0565b9350611ad781856020860161253b565b611ae0816126d6565b840191505092915050565b6000611af6826123c5565b611b0081856123e1565b9350611b1081856020860161253b565b611b19816126d6565b840191505092915050565b6000611b2f826123c5565b611b3981856123f2565b9350611b4981856020860161253b565b80840191505092915050565b6000611b626032836123e1565b91507f4552433732313a207472616e7366657220746f206e6f6e20455243373231526560008301527f63656976657220696d706c656d656e74657200000000000000000000000000006020830152604082019050919050565b6000611bc8601c836123e1565b91507f4552433732313a20746f6b656e20616c7265616479206d696e746564000000006000830152602082019050919050565b6000611c086024836123e1565b91507f4552433732313a207472616e7366657220746f20746865207a65726f2061646460008301527f72657373000000000000000000000000000000000000000000000000000000006020830152604082019050919050565b6000611c6e6019836123e1565b91507f4552433732313a20617070726f766520746f2063616c6c6572000000000000006000830152602082019050919050565b6000611cae602c836123e1565b91507f4552433732313a206f70657261746f7220717565727920666f72206e6f6e657860008301527f697374656e7420746f6b656e00000000000000000000000000000000000000006020830152604082019050919050565b6000611d146038836123e1565b91507f4552433732313a20617070726f76652063616c6c6572206973206e6f74206f7760008301527f6e6572206e6f7220617070726f76656420666f7220616c6c00000000000000006020830152604082019050919050565b6000611d7a602a836123e1565b91507f4552433732313a2062616c616e636520717565727920666f7220746865207a6560008301527f726f2061646472657373000000000000000000000000000000000000000000006020830152604082019050919050565b6000611de06029836123e1565b91507f4552433732313a206f776e657220717565727920666f72206e6f6e657869737460008301527f656e7420746f6b656e00000000000000000000000000000000000000000000006020830152604082019050919050565b6000611e466020836123e1565b91507f4552433732313a206d696e7420746f20746865207a65726f20616464726573736000830152602082019050919050565b6000611e86602c836123e1565b91507f4552433732313a20617070726f76656420717565727920666f72206e6f6e657860008301527f697374656e7420746f6b656e00000000000000000000000000000000000000006020830152604082019050919050565b6000611eec6029836123e1565b91507f4552433732313a207472616e73666572206f6620746f6b656e2074686174206960008301527f73206e6f74206f776e00000000000000000000000000000000000000000000006020830152604082019050919050565b6000611f52602f836123e1565b91507f4552433732314d657461646174613a2055524920717565727920666f72206e6f60008301527f6e6578697374656e7420746f6b656e00000000000000000000000000000000006020830152604082019050919050565b6000611fb86021836123e1565b91507f4552433732313a20617070726f76616c20746f2063757272656e74206f776e6560008301527f72000000000000000000000000000000000000000000000000000000000000006020830152604082019050919050565b600061201e6031836123e1565b91507f4552433732313a207472616e736665722063616c6c6572206973206e6f74206f60008301527f776e6572206e6f7220617070726f7665640000000000000000000000000000006020830152604082019050919050565b61208081612522565b82525050565b60006120928285611b24565b915061209e8284611b24565b91508190509392505050565b60006020820190506120bf6000830184611a94565b92915050565b60006080820190506120da6000830187611a94565b6120e76020830186611a94565b6120f46040830185612077565b81810360608301526121068184611ab2565b905095945050505050565b60006020820190506121266000830184611aa3565b92915050565b600060208201905081810360008301526121468184611aeb565b905092915050565b6000602082019050818103600083015261216781611b55565b9050919050565b6000602082019050818103600083015261218781611bbb565b9050919050565b600060208201905081810360008301526121a781611bfb565b9050919050565b600060208201905081810360008301526121c781611c61565b9050919050565b600060208201905081810360008301526121e781611ca1565b9050919050565b6000602082019050818103600083015261220781611d07565b9050919050565b6000602082019050818103600083015261222781611d6d565b9050919050565b6000602082019050818103600083015261224781611dd3565b9050919050565b6000602082019050818103600083015261226781611e39565b9050919050565b6000602082019050818103600083015261228781611e79565b9050919050565b600060208201905081810360008301526122a781611edf565b9050919050565b600060208201905081810360008301526122c781611f45565b9050919050565b600060208201905081810360008301526122e781611fab565b9050919050565b6000602082019050818103600083015261230781612011565b9050919050565b60006020820190506123236000830184612077565b92915050565b6000604051905081810181811067ffffffffffffffff821117156123505761234f6126a7565b5b8060405250919050565b600067ffffffffffffffff821115612375576123746126a7565b5b601f19601f8301169050602081019050919050565b600067ffffffffffffffff8211156123a5576123a46126a7565b5b601f19601f8301169050602081019050919050565b600081519050919050565b600081519050919050565b600082825260208201905092915050565b600082825260208201905092915050565b600081905092915050565b600061240882612522565b915061241383612522565b9250827fffffffffffffffffffffffffffffffffffffffffffffffffffffffffffffffff038211156124485761244761261a565b5b828201905092915050565b600061245e82612522565b915061246983612522565b92508261247957612478612649565b5b828204905092915050565b600061248f82612522565b915061249a83612522565b9250828210156124ad576124ac61261a565b5b828203905092915050565b60006124c382612502565b9050919050565b60008115159050919050565b60007fffffffff0000000000000000000000000000000000000000000000000000000082169050919050565b600073ffffffffffffffffffffffffffffffffffffffff82169050919050565b6000819050919050565b82818337600083830152505050565b60005b8381101561255957808201518184015260208101905061253e565b83811115612568576000848401525b50505050565b6000600282049050600182168061258657607f821691505b6020821081141561259a57612599612678565b5b50919050565b60006125ab82612522565b91507fffffffffffffffffffffffffffffffffffffffffffffffffffffffffffffffff8214156125de576125dd61261a565b5b600182019050919050565b60006125f482612522565b91506125ff83612522565b92508261260f5761260e612649565b5b828206905092915050565b7f4e487b7100000000000000000000000000000000000000000000000000000000600052601160045260246000fd5b7f4e487b7100000000000000000000000000000000000000000000000000000000600052601260045260246000fd5b7f4e487b7100000000000000000000000000000000000000000000000000000000600052602260045260246000fd5b7f4e487b7100000000000000000000000000000000000000000000000000000000600052604160045260246000fd5b6000601f19601f8301169050919050565b6126f0816124b8565b81146126fb57600080fd5b50565b612707816124ca565b811461271257600080fd5b50565b61271e816124d6565b811461272957600080fd5b50565b61273581612522565b811461274057600080fd5b5056fea26469706673582212201477d3346e64a7e675b26e5a9ab96098dcce6e4e74e786c32d0c7f5b4457164c64736f6c63430008000033a2646970667358221220c3dde693a5f0b9d34b1df9c82042f5c75d3415ed75e1ccc34a495b6fd6f5d02864736f6c63430008000033",
  "immutableReferences": {},
  "source": "pragma solidity >=0.8.0 <0.9.0;\npragma abicoder v2;\nimport \"./1_Campaign.sol\";\nimport \"@openzeppelin/contracts/access/Ownable.sol\";\nimport \"@openzeppelin/contracts/utils/math/SafeMath.sol\";\nimport \"@openzeppelin/contracts/token/ERC20/utils/SafeERC20.sol\";\nimport \"@openzeppelin/contracts/token/ERC20/IERC20.sol\";\n\n// SPDX-License-Identifier: MIT\n\ncontract Organisation {\n    \n        \n    using SafeMath for uint;\n    using SafeERC20 for IERC20;\n    \n    uint public campaignCounter;\n    address public owner;\n    mapping(address => uint) public members;\n    mapping(uint => Campaign) public campaigns;\n    \n    constructor(){\n        owner = msg.sender;\n        members[owner] = 1;\n    }\n    \n    \n    function addCampaign(string memory _name, uint _goal, string memory _description, uint _endTimestamp, address payable _beneficiary) public {\n        require(members[msg.sender] == 1);\n        require(_endTimestamp > block.timestamp, \"Organisation::addCampaign: Campaign must end in the future\");\n        campaignCounter ++;\n        campaigns[campaignCounter] = new Campaign(campaignCounter, _name, _goal, _description, _endTimestamp, _beneficiary);\n    }\n    \n    function addMember(address _member) public {\n        members[_member] = 1;\n    }\n}",
  "sourcePath": "/Users/Karlo/faks/Web3/challenge1/eth-dapp/truffle project/contracts/2_Organisation.sol",
  "compiler": {
    "name": "solc",
    "version": "0.8.0+commit.c7dfd78e.Emscripten.clang"
  },
  "schemaVersion": "3.4.1",
  "updatedAt": "2021-08-05T23:29:10.815Z",
  "networkType": "ethereum",
  "devdoc": {
    "kind": "dev",
    "methods": {},
    "version": 1
  },
  "userdoc": {
    "kind": "user",
    "methods": {},
    "version": 1
  }
}