{
  "contractName": "SimpleNFT",
  "abi": [
    {
      "inputs": [],
      "stateMutability": "nonpayable",
      "type": "constructor"
    },
    {
      "anonymous": false,
      "inputs": [
        {
          "indexed": true,
          "internalType": "address",
          "name": "owner",
          "type": "address"
        },
        {
          "indexed": true,
          "internalType": "address",
          "name": "approved",
          "type": "address"
        },
        {
          "indexed": true,
          "internalType": "uint256",
          "name": "tokenId",
          "type": "uint256"
        }
      ],
      "name": "Approval",
      "type": "event"
    },
    {
      "anonymous": false,
      "inputs": [
        {
          "indexed": true,
          "internalType": "address",
          "name": "owner",
          "type": "address"
        },
        {
          "indexed": true,
          "internalType": "address",
          "name": "operator",
          "type": "address"
        },
        {
          "indexed": false,
          "internalType": "bool",
          "name": "approved",
          "type": "bool"
        }
      ],
      "name": "ApprovalForAll",
      "type": "event"
    },
    {
      "anonymous": false,
      "inputs": [
        {
          "indexed": true,
          "internalType": "address",
          "name": "from",
          "type": "address"
        },
        {
          "indexed": true,
          "internalType": "address",
          "name": "to",
          "type": "address"
        },
        {
          "indexed": true,
          "internalType": "uint256",
          "name": "tokenId",
          "type": "uint256"
        }
      ],
      "name": "Transfer",
      "type": "event"
    },
    {
      "inputs": [
        {
          "internalType": "address",
          "name": "to",
          "type": "address"
        },
        {
          "internalType": "uint256",
          "name": "tokenId",
          "type": "uint256"
        }
      ],
      "name": "approve",
      "outputs": [],
      "stateMutability": "nonpayable",
      "type": "function"
    },
    {
      "inputs": [
        {
          "internalType": "address",
          "name": "owner",
          "type": "address"
        }
      ],
      "name": "balanceOf",
      "outputs": [
        {
          "internalType": "uint256",
          "name": "",
          "type": "uint256"
        }
      ],
      "stateMutability": "view",
      "type": "function"
    },
    {
      "inputs": [
        {
          "internalType": "uint256",
          "name": "tokenId",
          "type": "uint256"
        }
      ],
      "name": "getApproved",
      "outputs": [
        {
          "internalType": "address",
          "name": "",
          "type": "address"
        }
      ],
      "stateMutability": "view",
      "type": "function"
    },
    {
      "inputs": [
        {
          "internalType": "address",
          "name": "owner",
          "type": "address"
        },
        {
          "internalType": "address",
          "name": "operator",
          "type": "address"
        }
      ],
      "name": "isApprovedForAll",
      "outputs": [
        {
          "internalType": "bool",
          "name": "",
          "type": "bool"
        }
      ],
      "stateMutability": "view",
      "type": "function"
    },
    {
      "inputs": [],
      "name": "name",
      "outputs": [
        {
          "internalType": "string",
          "name": "",
          "type": "string"
        }
      ],
      "stateMutability": "view",
      "type": "function"
    },
    {
      "inputs": [
        {
          "internalType": "uint256",
          "name": "tokenId",
          "type": "uint256"
        }
      ],
      "name": "ownerOf",
      "outputs": [
        {
          "internalType": "address",
          "name": "",
          "type": "address"
        }
      ],
      "stateMutability": "view",
      "type": "function"
    },
    {
      "inputs": [
        {
          "internalType": "address",
          "name": "from",
          "type": "address"
        },
        {
          "internalType": "address",
          "name": "to",
          "type": "address"
        },
        {
          "internalType": "uint256",
          "name": "tokenId",
          "type": "uint256"
        }
      ],
      "name": "safeTransferFrom",
      "outputs": [],
      "stateMutability": "nonpayable",
      "type": "function"
    },
    {
      "inputs": [
        {
          "internalType": "address",
          "name": "from",
          "type": "address"
        },
        {
          "internalType": "address",
          "name": "to",
          "type": "address"
        },
        {
          "internalType": "uint256",
          "name": "tokenId",
          "type": "uint256"
        },
        {
          "internalType": "bytes",
          "name": "_data",
          "type": "bytes"
        }
      ],
      "name": "safeTransferFrom",
      "outputs": [],
      "stateMutability": "nonpayable",
      "type": "function"
    },
    {
      "inputs": [
        {
          "internalType": "address",
          "name": "operator",
          "type": "address"
        },
        {
          "internalType": "bool",
          "name": "approved",
          "type": "bool"
        }
      ],
      "name": "setApprovalForAll",
      "outputs": [],
      "stateMutability": "nonpayable",
      "type": "function"
    },
    {
      "inputs": [
        {
          "internalType": "bytes4",
          "name": "interfaceId",
          "type": "bytes4"
        }
      ],
      "name": "supportsInterface",
      "outputs": [
        {
          "internalType": "bool",
          "name": "",
          "type": "bool"
        }
      ],
      "stateMutability": "view",
      "type": "function"
    },
    {
      "inputs": [],
      "name": "symbol",
      "outputs": [
        {
          "internalType": "string",
          "name": "",
          "type": "string"
        }
      ],
      "stateMutability": "view",
      "type": "function"
    },
    {
      "inputs": [],
      "name": "tokenCounter",
      "outputs": [
        {
          "internalType": "uint256",
          "name": "",
          "type": "uint256"
        }
      ],
      "stateMutability": "view",
      "type": "function"
    },
    {
      "inputs": [
        {
          "internalType": "uint256",
          "name": "tokenId",
          "type": "uint256"
        }
      ],
      "name": "tokenURI",
      "outputs": [
        {
          "internalType": "string",
          "name": "",
          "type": "string"
        }
      ],
      "stateMutability": "view",
      "type": "function"
    },
    {
      "inputs": [
        {
          "internalType": "address",
          "name": "from",
          "type": "address"
        },
        {
          "internalType": "address",
          "name": "to",
          "type": "address"
        },
        {
          "internalType": "uint256",
          "name": "tokenId",
          "type": "uint256"
        }
      ],
      "name": "transferFrom",
      "outputs": [],
      "stateMutability": "nonpayable",
      "type": "function"
    },
    {
      "inputs": [
        {
          "internalType": "string",
          "name": "tokenURI",
          "type": "string"
        }
      ],
      "name": "createSimpleNFT",
      "outputs": [
        {
          "internalType": "uint256",
          "name": "",
          "type": "uint256"
        }
      ],
      "stateMutability": "nonpayable",
      "type": "function"
    }
  ],
  "bytecode": "0x60806040523480156200001157600080fd5b506040518060400160405280600381526020017f456c6600000000000000000000000000000000000000000000000000000000008152506040518060400160405280600381526020017f454c460000000000000000000000000000000000000000000000000000000000815250816000908051906020019062000096929190620000c0565b508060019080519060200190620000af929190620000c0565b5050506000600681905550620001d5565b828054620000ce9062000170565b90600052602060002090601f016020900481019282620000f257600085556200013e565b82601f106200010d57805160ff19168380011785556200013e565b828001600101855582156200013e579182015b828111156200013d57825182559160200191906001019062000120565b5b5090506200014d919062000151565b5090565b5b808211156200016c57600081600090555060010162000152565b5090565b600060028204905060018216806200018957607f821691505b60208210811415620001a0576200019f620001a6565b5b50919050565b7f4e487b7100000000000000000000000000000000000000000000000000000000600052602260045260246000fd5b61287f80620001e56000396000f3fe608060405234801561001057600080fd5b50600436106100f55760003560e01c80636eff88ff11610097578063b88d4fde11610066578063b88d4fde14610296578063c87b56dd146102b2578063d082e381146102e2578063e985e9c514610300576100f5565b80636eff88ff146101fc57806370a082311461022c57806395d89b411461025c578063a22cb4651461027a576100f5565b8063095ea7b3116100d3578063095ea7b31461017857806323b872dd1461019457806342842e0e146101b05780636352211e146101cc576100f5565b806301ffc9a7146100fa57806306fdde031461012a578063081812fc14610148575b600080fd5b610114600480360381019061010f91906119b8565b610330565b6040516101219190611dcd565b60405180910390f35b610132610412565b60405161013f9190611de8565b60405180910390f35b610162600480360381019061015d9190611a5b565b6104a4565b60405161016f9190611d66565b60405180910390f35b610192600480360381019061018d9190611978565b610529565b005b6101ae60048036038101906101a99190611862565b610641565b005b6101ca60048036038101906101c59190611862565b6106a1565b005b6101e660048036038101906101e19190611a5b565b6106c1565b6040516101f39190611d66565b60405180910390f35b61021660048036038101906102119190611a12565b610773565b6040516102239190611fca565b60405180910390f35b610246600480360381019061024191906117f5565b6107a3565b6040516102539190611fca565b60405180910390f35b61026461085b565b6040516102719190611de8565b60405180910390f35b610294600480360381019061028f9190611938565b6108ed565b005b6102b060048036038101906102ab91906118b5565b610a6e565b005b6102cc60048036038101906102c79190611a5b565b610ad0565b6040516102d99190611de8565b60405180910390f35b6102ea610b77565b6040516102f79190611fca565b60405180910390f35b61031a60048036038101906103159190611822565b610b7d565b6040516103279190611dcd565b60405180910390f35b60007f80ac58cd000000000000000000000000000000000000000000000000000000007bffffffffffffffffffffffffffffffffffffffffffffffffffffffff1916827bffffffffffffffffffffffffffffffffffffffffffffffffffffffff191614806103fb57507f5b5e139f000000000000000000000000000000000000000000000000000000007bffffffffffffffffffffffffffffffffffffffffffffffffffffffff1916827bffffffffffffffffffffffffffffffffffffffffffffffffffffffff1916145b8061040b575061040a82610c11565b5b9050919050565b60606000805461042190612220565b80601f016020809104026020016040519081016040528092919081815260200182805461044d90612220565b801561049a5780601f1061046f5761010080835404028352916020019161049a565b820191906000526020600020905b81548152906001019060200180831161047d57829003601f168201915b5050505050905090565b60006104af82610c7b565b6104ee576040517f08c379a00000000000000000000000000000000000000000000000000000000081526004016104e590611f2a565b60405180910390fd5b6004600083815260200190815260200160002060009054906101000a900473ffffffffffffffffffffffffffffffffffffffff169050919050565b6000610534826106c1565b90508073ffffffffffffffffffffffffffffffffffffffff168373ffffffffffffffffffffffffffffffffffffffff1614156105a5576040517f08c379a000000000000000000000000000000000000000000000000000000000815260040161059c90611f8a565b60405180910390fd5b8073ffffffffffffffffffffffffffffffffffffffff166105c4610ce7565b73ffffffffffffffffffffffffffffffffffffffff1614806105f357506105f2816105ed610ce7565b610b7d565b5b610632576040517f08c379a000000000000000000000000000000000000000000000000000000000815260040161062990611eaa565b60405180910390fd5b61063c8383610cef565b505050565b61065261064c610ce7565b82610da8565b610691576040517f08c379a000000000000000000000000000000000000000000000000000000000815260040161068890611faa565b60405180910390fd5b61069c838383610e86565b505050565b6106bc83838360405180602001604052806000815250610a6e565b505050565b6000806002600084815260200190815260200160002060009054906101000a900473ffffffffffffffffffffffffffffffffffffffff169050600073ffffffffffffffffffffffffffffffffffffffff168173ffffffffffffffffffffffffffffffffffffffff16141561076a576040517f08c379a000000000000000000000000000000000000000000000000000000000815260040161076190611eea565b60405180910390fd5b80915050919050565b600080600654905061078532826110e2565b600160065461079491906120af565b60068190555080915050919050565b60008073ffffffffffffffffffffffffffffffffffffffff168273ffffffffffffffffffffffffffffffffffffffff161415610814576040517f08c379a000000000000000000000000000000000000000000000000000000000815260040161080b90611eca565b60405180910390fd5b600360008373ffffffffffffffffffffffffffffffffffffffff1673ffffffffffffffffffffffffffffffffffffffff168152602001908152602001600020549050919050565b60606001805461086a90612220565b80601f016020809104026020016040519081016040528092919081815260200182805461089690612220565b80156108e35780601f106108b8576101008083540402835291602001916108e3565b820191906000526020600020905b8154815290600101906020018083116108c657829003601f168201915b5050505050905090565b6108f5610ce7565b73ffffffffffffffffffffffffffffffffffffffff168273ffffffffffffffffffffffffffffffffffffffff161415610963576040517f08c379a000000000000000000000000000000000000000000000000000000000815260040161095a90611e6a565b60405180910390fd5b8060056000610970610ce7565b73ffffffffffffffffffffffffffffffffffffffff1673ffffffffffffffffffffffffffffffffffffffff16815260200190815260200160002060008473ffffffffffffffffffffffffffffffffffffffff1673ffffffffffffffffffffffffffffffffffffffff16815260200190815260200160002060006101000a81548160ff0219169083151502179055508173ffffffffffffffffffffffffffffffffffffffff16610a1d610ce7565b73ffffffffffffffffffffffffffffffffffffffff167f17307eab39ab6107e8899845ad3d59bd9653f200f220920489ca2b5937696c3183604051610a629190611dcd565b60405180910390a35050565b610a7f610a79610ce7565b83610da8565b610abe576040517f08c379a0000000000000000000000000000000000000000000000000000000008152600401610ab590611faa565b60405180910390fd5b610aca84848484611100565b50505050565b6060610adb82610c7b565b610b1a576040517f08c379a0000000000000000000000000000000000000000000000000000000008152600401610b1190611f6a565b60405180910390fd5b6000610b2461115c565b90506000815111610b445760405180602001604052806000815250610b6f565b80610b4e84611173565b604051602001610b5f929190611d42565b6040516020818303038152906040525b915050919050565b60065481565b6000600560008473ffffffffffffffffffffffffffffffffffffffff1673ffffffffffffffffffffffffffffffffffffffff16815260200190815260200160002060008373ffffffffffffffffffffffffffffffffffffffff1673ffffffffffffffffffffffffffffffffffffffff16815260200190815260200160002060009054906101000a900460ff16905092915050565b60007f01ffc9a7000000000000000000000000000000000000000000000000000000007bffffffffffffffffffffffffffffffffffffffffffffffffffffffff1916827bffffffffffffffffffffffffffffffffffffffffffffffffffffffff1916149050919050565b60008073ffffffffffffffffffffffffffffffffffffffff166002600084815260200190815260200160002060009054906101000a900473ffffffffffffffffffffffffffffffffffffffff1673ffffffffffffffffffffffffffffffffffffffff1614159050919050565b600033905090565b816004600083815260200190815260200160002060006101000a81548173ffffffffffffffffffffffffffffffffffffffff021916908373ffffffffffffffffffffffffffffffffffffffff160217905550808273ffffffffffffffffffffffffffffffffffffffff16610d62836106c1565b73ffffffffffffffffffffffffffffffffffffffff167f8c5be1e5ebec7d5bd14f71427d1e84f3dd0314c0f7b2291e5b200ac8c7c3b92560405160405180910390a45050565b6000610db382610c7b565b610df2576040517f08c379a0000000000000000000000000000000000000000000000000000000008152600401610de990611e8a565b60405180910390fd5b6000610dfd836106c1565b90508073ffffffffffffffffffffffffffffffffffffffff168473ffffffffffffffffffffffffffffffffffffffff161480610e6c57508373ffffffffffffffffffffffffffffffffffffffff16610e54846104a4565b73ffffffffffffffffffffffffffffffffffffffff16145b80610e7d5750610e7c8185610b7d565b5b91505092915050565b8273ffffffffffffffffffffffffffffffffffffffff16610ea6826106c1565b73ffffffffffffffffffffffffffffffffffffffff1614610efc576040517f08c379a0000000000000000000000000000000000000000000000000000000008152600401610ef390611f4a565b60405180910390fd5b600073ffffffffffffffffffffffffffffffffffffffff168273ffffffffffffffffffffffffffffffffffffffff161415610f6c576040517f08c379a0000000000000000000000000000000000000000000000000000000008152600401610f6390611e4a565b60405180910390fd5b610f778383836112d4565b610f82600082610cef565b6001600360008573ffffffffffffffffffffffffffffffffffffffff1673ffffffffffffffffffffffffffffffffffffffff1681526020019081526020016000206000828254610fd29190612136565b925050819055506001600360008473ffffffffffffffffffffffffffffffffffffffff1673ffffffffffffffffffffffffffffffffffffffff168152602001908152602001600020600082825461102991906120af565b92505081905550816002600083815260200190815260200160002060006101000a81548173ffffffffffffffffffffffffffffffffffffffff021916908373ffffffffffffffffffffffffffffffffffffffff160217905550808273ffffffffffffffffffffffffffffffffffffffff168473ffffffffffffffffffffffffffffffffffffffff167fddf252ad1be2c89b69c2b068fc378daa952ba7f163c4a11628f55a4df523b3ef60405160405180910390a4505050565b6110fc8282604051806020016040528060008152506112d9565b5050565b61110b848484610e86565b61111784848484611334565b611156576040517f08c379a000000000000000000000000000000000000000000000000000000000815260040161114d90611e0a565b60405180910390fd5b50505050565b606060405180602001604052806000815250905090565b606060008214156111bb576040518060400160405280600181526020017f300000000000000000000000000000000000000000000000000000000000000081525090506112cf565b600082905060005b600082146111ed5780806111d690612283565b915050600a826111e69190612105565b91506111c3565b60008167ffffffffffffffff811115611209576112086123b9565b5b6040519080825280601f01601f19166020018201604052801561123b5781602001600182028036833780820191505090505b5090505b600085146112c8576001826112549190612136565b9150600a8561126391906122cc565b603061126f91906120af565b60f81b8183815181106112855761128461238a565b5b60200101907effffffffffffffffffffffffffffffffffffffffffffffffffffffffffffff1916908160001a905350600a856112c19190612105565b945061123f565b8093505050505b919050565b505050565b6112e383836114cb565b6112f06000848484611334565b61132f576040517f08c379a000000000000000000000000000000000000000000000000000000000815260040161132690611e0a565b60405180910390fd5b505050565b60006113558473ffffffffffffffffffffffffffffffffffffffff16611699565b156114be578373ffffffffffffffffffffffffffffffffffffffff1663150b7a0261137e610ce7565b8786866040518563ffffffff1660e01b81526004016113a09493929190611d81565b602060405180830381600087803b1580156113ba57600080fd5b505af19250505080156113eb57506040513d601f19601f820116820180604052508101906113e891906119e5565b60015b61146e573d806000811461141b576040519150601f19603f3d011682016040523d82523d6000602084013e611420565b606091505b50600081511415611466576040517f08c379a000000000000000000000000000000000000000000000000000000000815260040161145d90611e0a565b60405180910390fd5b805181602001fd5b63150b7a0260e01b7bffffffffffffffffffffffffffffffffffffffffffffffffffffffff1916817bffffffffffffffffffffffffffffffffffffffffffffffffffffffff1916149150506114c3565b600190505b949350505050565b600073ffffffffffffffffffffffffffffffffffffffff168273ffffffffffffffffffffffffffffffffffffffff16141561153b576040517f08c379a000000000000000000000000000000000000000000000000000000000815260040161153290611f0a565b60405180910390fd5b61154481610c7b565b15611584576040517f08c379a000000000000000000000000000000000000000000000000000000000815260040161157b90611e2a565b60405180910390fd5b611590600083836112d4565b6001600360008473ffffffffffffffffffffffffffffffffffffffff1673ffffffffffffffffffffffffffffffffffffffff16815260200190815260200160002060008282546115e091906120af565b92505081905550816002600083815260200190815260200160002060006101000a81548173ffffffffffffffffffffffffffffffffffffffff021916908373ffffffffffffffffffffffffffffffffffffffff160217905550808273ffffffffffffffffffffffffffffffffffffffff16600073ffffffffffffffffffffffffffffffffffffffff167fddf252ad1be2c89b69c2b068fc378daa952ba7f163c4a11628f55a4df523b3ef60405160405180910390a45050565b600080823b905060008111915050919050565b60006116bf6116ba8461200a565b611fe5565b9050828152602081018484840111156116db576116da6123ed565b5b6116e68482856121de565b509392505050565b60006117016116fc8461203b565b611fe5565b90508281526020810184848401111561171d5761171c6123ed565b5b6117288482856121de565b509392505050565b60008135905061173f816127ed565b92915050565b60008135905061175481612804565b92915050565b6000813590506117698161281b565b92915050565b60008151905061177e8161281b565b92915050565b600082601f830112611799576117986123e8565b5b81356117a98482602086016116ac565b91505092915050565b600082601f8301126117c7576117c66123e8565b5b81356117d78482602086016116ee565b91505092915050565b6000813590506117ef81612832565b92915050565b60006020828403121561180b5761180a6123f7565b5b600061181984828501611730565b91505092915050565b60008060408385031215611839576118386123f7565b5b600061184785828601611730565b925050602061185885828601611730565b9150509250929050565b60008060006060848603121561187b5761187a6123f7565b5b600061188986828701611730565b935050602061189a86828701611730565b92505060406118ab868287016117e0565b9150509250925092565b600080600080608085870312156118cf576118ce6123f7565b5b60006118dd87828801611730565b94505060206118ee87828801611730565b93505060406118ff878288016117e0565b925050606085013567ffffffffffffffff8111156119205761191f6123f2565b5b61192c87828801611784565b91505092959194509250565b6000806040838503121561194f5761194e6123f7565b5b600061195d85828601611730565b925050602061196e85828601611745565b9150509250929050565b6000806040838503121561198f5761198e6123f7565b5b600061199d85828601611730565b92505060206119ae858286016117e0565b9150509250929050565b6000602082840312156119ce576119cd6123f7565b5b60006119dc8482850161175a565b91505092915050565b6000602082840312156119fb576119fa6123f7565b5b6000611a098482850161176f565b91505092915050565b600060208284031215611a2857611a276123f7565b5b600082013567ffffffffffffffff811115611a4657611a456123f2565b5b611a52848285016117b2565b91505092915050565b600060208284031215611a7157611a706123f7565b5b6000611a7f848285016117e0565b91505092915050565b611a918161216a565b82525050565b611aa08161217c565b82525050565b6000611ab18261206c565b611abb8185612082565b9350611acb8185602086016121ed565b611ad4816123fc565b840191505092915050565b6000611aea82612077565b611af48185612093565b9350611b048185602086016121ed565b611b0d816123fc565b840191505092915050565b6000611b2382612077565b611b2d81856120a4565b9350611b3d8185602086016121ed565b80840191505092915050565b6000611b56603283612093565b9150611b618261240d565b604082019050919050565b6000611b79601c83612093565b9150611b848261245c565b602082019050919050565b6000611b9c602483612093565b9150611ba782612485565b604082019050919050565b6000611bbf601983612093565b9150611bca826124d4565b602082019050919050565b6000611be2602c83612093565b9150611bed826124fd565b604082019050919050565b6000611c05603883612093565b9150611c108261254c565b604082019050919050565b6000611c28602a83612093565b9150611c338261259b565b604082019050919050565b6000611c4b602983612093565b9150611c56826125ea565b604082019050919050565b6000611c6e602083612093565b9150611c7982612639565b602082019050919050565b6000611c91602c83612093565b9150611c9c82612662565b604082019050919050565b6000611cb4602983612093565b9150611cbf826126b1565b604082019050919050565b6000611cd7602f83612093565b9150611ce282612700565b604082019050919050565b6000611cfa602183612093565b9150611d058261274f565b604082019050919050565b6000611d1d603183612093565b9150611d288261279e565b604082019050919050565b611d3c816121d4565b82525050565b6000611d4e8285611b18565b9150611d5a8284611b18565b91508190509392505050565b6000602082019050611d7b6000830184611a88565b92915050565b6000608082019050611d966000830187611a88565b611da36020830186611a88565b611db06040830185611d33565b8181036060830152611dc28184611aa6565b905095945050505050565b6000602082019050611de26000830184611a97565b92915050565b60006020820190508181036000830152611e028184611adf565b905092915050565b60006020820190508181036000830152611e2381611b49565b9050919050565b60006020820190508181036000830152611e4381611b6c565b9050919050565b60006020820190508181036000830152611e6381611b8f565b9050919050565b60006020820190508181036000830152611e8381611bb2565b9050919050565b60006020820190508181036000830152611ea381611bd5565b9050919050565b60006020820190508181036000830152611ec381611bf8565b9050919050565b60006020820190508181036000830152611ee381611c1b565b9050919050565b60006020820190508181036000830152611f0381611c3e565b9050919050565b60006020820190508181036000830152611f2381611c61565b9050919050565b60006020820190508181036000830152611f4381611c84565b9050919050565b60006020820190508181036000830152611f6381611ca7565b9050919050565b60006020820190508181036000830152611f8381611cca565b9050919050565b60006020820190508181036000830152611fa381611ced565b9050919050565b60006020820190508181036000830152611fc381611d10565b9050919050565b6000602082019050611fdf6000830184611d33565b92915050565b6000611fef612000565b9050611ffb8282612252565b919050565b6000604051905090565b600067ffffffffffffffff821115612025576120246123b9565b5b61202e826123fc565b9050602081019050919050565b600067ffffffffffffffff821115612056576120556123b9565b5b61205f826123fc565b9050602081019050919050565b600081519050919050565b600081519050919050565b600082825260208201905092915050565b600082825260208201905092915050565b600081905092915050565b60006120ba826121d4565b91506120c5836121d4565b9250827fffffffffffffffffffffffffffffffffffffffffffffffffffffffffffffffff038211156120fa576120f96122fd565b5b828201905092915050565b6000612110826121d4565b915061211b836121d4565b92508261212b5761212a61232c565b5b828204905092915050565b6000612141826121d4565b915061214c836121d4565b92508282101561215f5761215e6122fd565b5b828203905092915050565b6000612175826121b4565b9050919050565b60008115159050919050565b60007fffffffff0000000000000000000000000000000000000000000000000000000082169050919050565b600073ffffffffffffffffffffffffffffffffffffffff82169050919050565b6000819050919050565b82818337600083830152505050565b60005b8381101561220b5780820151818401526020810190506121f0565b8381111561221a576000848401525b50505050565b6000600282049050600182168061223857607f821691505b6020821081141561224c5761224b61235b565b5b50919050565b61225b826123fc565b810181811067ffffffffffffffff8211171561227a576122796123b9565b5b80604052505050565b600061228e826121d4565b91507fffffffffffffffffffffffffffffffffffffffffffffffffffffffffffffffff8214156122c1576122c06122fd565b5b600182019050919050565b60006122d7826121d4565b91506122e2836121d4565b9250826122f2576122f161232c565b5b828206905092915050565b7f4e487b7100000000000000000000000000000000000000000000000000000000600052601160045260246000fd5b7f4e487b7100000000000000000000000000000000000000000000000000000000600052601260045260246000fd5b7f4e487b7100000000000000000000000000000000000000000000000000000000600052602260045260246000fd5b7f4e487b7100000000000000000000000000000000000000000000000000000000600052603260045260246000fd5b7f4e487b7100000000000000000000000000000000000000000000000000000000600052604160045260246000fd5b600080fd5b600080fd5b600080fd5b600080fd5b6000601f19601f8301169050919050565b7f4552433732313a207472616e7366657220746f206e6f6e20455243373231526560008201527f63656976657220696d706c656d656e7465720000000000000000000000000000602082015250565b7f4552433732313a20746f6b656e20616c7265616479206d696e74656400000000600082015250565b7f4552433732313a207472616e7366657220746f20746865207a65726f2061646460008201527f7265737300000000000000000000000000000000000000000000000000000000602082015250565b7f4552433732313a20617070726f766520746f2063616c6c657200000000000000600082015250565b7f4552433732313a206f70657261746f7220717565727920666f72206e6f6e657860008201527f697374656e7420746f6b656e0000000000000000000000000000000000000000602082015250565b7f4552433732313a20617070726f76652063616c6c6572206973206e6f74206f7760008201527f6e6572206e6f7220617070726f76656420666f7220616c6c0000000000000000602082015250565b7f4552433732313a2062616c616e636520717565727920666f7220746865207a6560008201527f726f206164647265737300000000000000000000000000000000000000000000602082015250565b7f4552433732313a206f776e657220717565727920666f72206e6f6e657869737460008201527f656e7420746f6b656e0000000000000000000000000000000000000000000000602082015250565b7f4552433732313a206d696e7420746f20746865207a65726f2061646472657373600082015250565b7f4552433732313a20617070726f76656420717565727920666f72206e6f6e657860008201527f697374656e7420746f6b656e0000000000000000000000000000000000000000602082015250565b7f4552433732313a207472616e73666572206f6620746f6b656e2074686174206960008201527f73206e6f74206f776e0000000000000000000000000000000000000000000000602082015250565b7f4552433732314d657461646174613a2055524920717565727920666f72206e6f60008201527f6e6578697374656e7420746f6b656e0000000000000000000000000000000000602082015250565b7f4552433732313a20617070726f76616c20746f2063757272656e74206f776e6560008201527f7200000000000000000000000000000000000000000000000000000000000000602082015250565b7f4552433732313a207472616e736665722063616c6c6572206973206e6f74206f60008201527f776e6572206e6f7220617070726f766564000000000000000000000000000000602082015250565b6127f68161216a565b811461280157600080fd5b50565b61280d8161217c565b811461281857600080fd5b50565b61282481612188565b811461282f57600080fd5b50565b61283b816121d4565b811461284657600080fd5b5056fea26469706673582212200f01294df12235fd95b21882eb0765cae137053016863f4b3dfcf5e8cdac55a564736f6c63430008060033",
  "immutableReferences": {},
  "source": "// SPDX-License-Identifier: MIT\n\npragma solidity >=0.8.0 <0.9.0;\npragma abicoder v2;\nimport \"@openzeppelin/contracts/token/ERC721/ERC721.sol\";\n\ncontract SimpleNFT is ERC721 {\n  uint256 public tokenCounter;\n  constructor () public ERC721 (\"Elf\", \"ELF\"){\n    tokenCounter = 0;\n  }\n\n  function createSimpleNFT(string memory tokenURI) public returns (uint256) {\n    uint256 newItemId = tokenCounter;\n    _safeMint(tx.origin, newItemId);\n    tokenCounter = tokenCounter + 1;\n    return newItemId;\n  }\n}\n\n//_setTokenURI(newItemId, tokenURI);",
  "sourcePath": "/Users/Lara/FER/Web3.0/challenge1/eth-dapp/truffle project/contracts/4_SimpleNFT.sol",
  "compiler": {
    "name": "solc",
    "version": "0.8.6+commit.11564f7e.Emscripten.clang"
  },
  "schemaVersion": "3.2.3",
  "updatedAt": "2021-08-05T17:35:53.885Z",
  "devdoc": {
    "kind": "dev",
    "methods": {
      "approve(address,uint256)": {
        "details": "See {IERC721-approve}."
      },
      "balanceOf(address)": {
        "details": "See {IERC721-balanceOf}."
      },
      "getApproved(uint256)": {
        "details": "See {IERC721-getApproved}."
      },
      "isApprovedForAll(address,address)": {
        "details": "See {IERC721-isApprovedForAll}."
      },
      "name()": {
        "details": "See {IERC721Metadata-name}."
      },
      "ownerOf(uint256)": {
        "details": "See {IERC721-ownerOf}."
      },
      "safeTransferFrom(address,address,uint256)": {
        "details": "See {IERC721-safeTransferFrom}."
      },
      "safeTransferFrom(address,address,uint256,bytes)": {
        "details": "See {IERC721-safeTransferFrom}."
      },
      "setApprovalForAll(address,bool)": {
        "details": "See {IERC721-setApprovalForAll}."
      },
      "supportsInterface(bytes4)": {
        "details": "See {IERC165-supportsInterface}."
      },
      "symbol()": {
        "details": "See {IERC721Metadata-symbol}."
      },
      "tokenURI(uint256)": {
        "details": "See {IERC721Metadata-tokenURI}."
      },
      "transferFrom(address,address,uint256)": {
        "details": "See {IERC721-transferFrom}."
      }
    },
    "version": 1
  },
  "userdoc": {
    "kind": "user",
    "methods": {},
    "version": 1
  }
}