{
  "contractName": "SimpleNFT",
  "abi": [
    {
      "inputs": [],
      "stateMutability": "nonpayable",
      "type": "constructor"
    },
    {
      "anonymous": false,
      "inputs": [
        {
          "indexed": true,
          "internalType": "address",
          "name": "owner",
          "type": "address"
        },
        {
          "indexed": true,
          "internalType": "address",
          "name": "approved",
          "type": "address"
        },
        {
          "indexed": true,
          "internalType": "uint256",
          "name": "tokenId",
          "type": "uint256"
        }
      ],
      "name": "Approval",
      "type": "event"
    },
    {
      "anonymous": false,
      "inputs": [
        {
          "indexed": true,
          "internalType": "address",
          "name": "owner",
          "type": "address"
        },
        {
          "indexed": true,
          "internalType": "address",
          "name": "operator",
          "type": "address"
        },
        {
          "indexed": false,
          "internalType": "bool",
          "name": "approved",
          "type": "bool"
        }
      ],
      "name": "ApprovalForAll",
      "type": "event"
    },
    {
      "anonymous": false,
      "inputs": [
        {
          "indexed": true,
          "internalType": "address",
          "name": "from",
          "type": "address"
        },
        {
          "indexed": true,
          "internalType": "address",
          "name": "to",
          "type": "address"
        },
        {
          "indexed": true,
          "internalType": "uint256",
          "name": "tokenId",
          "type": "uint256"
        }
      ],
      "name": "Transfer",
      "type": "event"
    },
    {
      "inputs": [
        {
          "internalType": "address",
          "name": "to",
          "type": "address"
        },
        {
          "internalType": "uint256",
          "name": "tokenId",
          "type": "uint256"
        }
      ],
      "name": "approve",
      "outputs": [],
      "stateMutability": "nonpayable",
      "type": "function"
    },
    {
      "inputs": [
        {
          "internalType": "address",
          "name": "owner",
          "type": "address"
        }
      ],
      "name": "balanceOf",
      "outputs": [
        {
          "internalType": "uint256",
          "name": "",
          "type": "uint256"
        }
      ],
      "stateMutability": "view",
      "type": "function"
    },
    {
      "inputs": [
        {
          "internalType": "uint256",
          "name": "tokenId",
          "type": "uint256"
        }
      ],
      "name": "getApproved",
      "outputs": [
        {
          "internalType": "address",
          "name": "",
          "type": "address"
        }
      ],
      "stateMutability": "view",
      "type": "function"
    },
    {
      "inputs": [
        {
          "internalType": "address",
          "name": "owner",
          "type": "address"
        },
        {
          "internalType": "address",
          "name": "operator",
          "type": "address"
        }
      ],
      "name": "isApprovedForAll",
      "outputs": [
        {
          "internalType": "bool",
          "name": "",
          "type": "bool"
        }
      ],
      "stateMutability": "view",
      "type": "function"
    },
    {
      "inputs": [],
      "name": "name",
      "outputs": [
        {
          "internalType": "string",
          "name": "",
          "type": "string"
        }
      ],
      "stateMutability": "view",
      "type": "function"
    },
    {
      "inputs": [
        {
          "internalType": "uint256",
          "name": "tokenId",
          "type": "uint256"
        }
      ],
      "name": "ownerOf",
      "outputs": [
        {
          "internalType": "address",
          "name": "",
          "type": "address"
        }
      ],
      "stateMutability": "view",
      "type": "function"
    },
    {
      "inputs": [
        {
          "internalType": "address",
          "name": "from",
          "type": "address"
        },
        {
          "internalType": "address",
          "name": "to",
          "type": "address"
        },
        {
          "internalType": "uint256",
          "name": "tokenId",
          "type": "uint256"
        }
      ],
      "name": "safeTransferFrom",
      "outputs": [],
      "stateMutability": "nonpayable",
      "type": "function"
    },
    {
      "inputs": [
        {
          "internalType": "address",
          "name": "from",
          "type": "address"
        },
        {
          "internalType": "address",
          "name": "to",
          "type": "address"
        },
        {
          "internalType": "uint256",
          "name": "tokenId",
          "type": "uint256"
        },
        {
          "internalType": "bytes",
          "name": "_data",
          "type": "bytes"
        }
      ],
      "name": "safeTransferFrom",
      "outputs": [],
      "stateMutability": "nonpayable",
      "type": "function"
    },
    {
      "inputs": [
        {
          "internalType": "address",
          "name": "operator",
          "type": "address"
        },
        {
          "internalType": "bool",
          "name": "approved",
          "type": "bool"
        }
      ],
      "name": "setApprovalForAll",
      "outputs": [],
      "stateMutability": "nonpayable",
      "type": "function"
    },
    {
      "inputs": [
        {
          "internalType": "bytes4",
          "name": "interfaceId",
          "type": "bytes4"
        }
      ],
      "name": "supportsInterface",
      "outputs": [
        {
          "internalType": "bool",
          "name": "",
          "type": "bool"
        }
      ],
      "stateMutability": "view",
      "type": "function"
    },
    {
      "inputs": [],
      "name": "symbol",
      "outputs": [
        {
          "internalType": "string",
          "name": "",
          "type": "string"
        }
      ],
      "stateMutability": "view",
      "type": "function"
    },
    {
      "inputs": [],
      "name": "tokenCounter",
      "outputs": [
        {
          "internalType": "uint256",
          "name": "",
          "type": "uint256"
        }
      ],
      "stateMutability": "view",
      "type": "function"
    },
    {
      "inputs": [
        {
          "internalType": "uint256",
          "name": "tokenId",
          "type": "uint256"
        }
      ],
      "name": "tokenURI",
      "outputs": [
        {
          "internalType": "string",
          "name": "",
          "type": "string"
        }
      ],
      "stateMutability": "view",
      "type": "function"
    },
    {
      "inputs": [
        {
          "internalType": "address",
          "name": "from",
          "type": "address"
        },
        {
          "internalType": "address",
          "name": "to",
          "type": "address"
        },
        {
          "internalType": "uint256",
          "name": "tokenId",
          "type": "uint256"
        }
      ],
      "name": "transferFrom",
      "outputs": [],
      "stateMutability": "nonpayable",
      "type": "function"
    },
    {
      "inputs": [
        {
          "internalType": "string",
          "name": "tokenURI",
          "type": "string"
        }
      ],
      "name": "createSimpleNFT",
      "outputs": [
        {
          "internalType": "uint256",
          "name": "",
          "type": "uint256"
        }
      ],
      "stateMutability": "nonpayable",
      "type": "function"
    }
  ],
  "bytecode": "0x60806040523480156200001157600080fd5b506040518060400160405280600381526020017f456c6600000000000000000000000000000000000000000000000000000000008152506040518060400160405280600381526020017f454c460000000000000000000000000000000000000000000000000000000000815250816000908051906020019062000096929190620000c0565b508060019080519060200190620000af929190620000c0565b5050506000600681905550620001d5565b828054620000ce9062000170565b90600052602060002090601f016020900481019282620000f257600085556200013e565b82601f106200010d57805160ff19168380011785556200013e565b828001600101855582156200013e579182015b828111156200013d57825182559160200191906001019062000120565b5b5090506200014d919062000151565b5090565b5b808211156200016c57600081600090555060010162000152565b5090565b600060028204905060018216806200018957607f821691505b60208210811415620001a0576200019f620001a6565b5b50919050565b7f4e487b7100000000000000000000000000000000000000000000000000000000600052602260045260246000fd5b61277980620001e56000396000f3fe608060405234801561001057600080fd5b50600436106100f55760003560e01c80636eff88ff11610097578063b88d4fde11610066578063b88d4fde14610296578063c87b56dd146102b2578063d082e381146102e2578063e985e9c514610300576100f5565b80636eff88ff146101fc57806370a082311461022c57806395d89b411461025c578063a22cb4651461027a576100f5565b8063095ea7b3116100d3578063095ea7b31461017857806323b872dd1461019457806342842e0e146101b05780636352211e146101cc576100f5565b806301ffc9a7146100fa57806306fdde031461012a578063081812fc14610148575b600080fd5b610114600480360381019061010f91906119d8565b610330565b6040516101219190612111565b60405180910390f35b610132610412565b60405161013f919061212c565b60405180910390f35b610162600480360381019061015d9190611a6b565b6104a4565b60405161016f91906120aa565b60405180910390f35b610192600480360381019061018d919061199c565b610529565b005b6101ae60048036038101906101a99190611896565b610641565b005b6101ca60048036038101906101c59190611896565b6106a1565b005b6101e660048036038101906101e19190611a6b565b6106c1565b6040516101f391906120aa565b60405180910390f35b61021660048036038101906102119190611a2a565b610773565b604051610223919061230e565b60405180910390f35b61024660048036038101906102419190611831565b6107a3565b604051610253919061230e565b60405180910390f35b61026461085b565b604051610271919061212c565b60405180910390f35b610294600480360381019061028f9190611960565b6108ed565b005b6102b060048036038101906102ab91906118e5565b610a6e565b005b6102cc60048036038101906102c79190611a6b565b610ad0565b6040516102d9919061212c565b60405180910390f35b6102ea610b77565b6040516102f7919061230e565b60405180910390f35b61031a6004803603810190610315919061185a565b610b7d565b6040516103279190612111565b60405180910390f35b60007f80ac58cd000000000000000000000000000000000000000000000000000000007bffffffffffffffffffffffffffffffffffffffffffffffffffffffff1916827bffffffffffffffffffffffffffffffffffffffffffffffffffffffff191614806103fb57507f5b5e139f000000000000000000000000000000000000000000000000000000007bffffffffffffffffffffffffffffffffffffffffffffffffffffffff1916827bffffffffffffffffffffffffffffffffffffffffffffffffffffffff1916145b8061040b575061040a82610c11565b5b9050919050565b6060600080546104219061256e565b80601f016020809104026020016040519081016040528092919081815260200182805461044d9061256e565b801561049a5780601f1061046f5761010080835404028352916020019161049a565b820191906000526020600020905b81548152906001019060200180831161047d57829003601f168201915b5050505050905090565b60006104af82610c7b565b6104ee576040517f08c379a00000000000000000000000000000000000000000000000000000000081526004016104e59061226e565b60405180910390fd5b6004600083815260200190815260200160002060009054906101000a900473ffffffffffffffffffffffffffffffffffffffff169050919050565b6000610534826106c1565b90508073ffffffffffffffffffffffffffffffffffffffff168373ffffffffffffffffffffffffffffffffffffffff1614156105a5576040517f08c379a000000000000000000000000000000000000000000000000000000000815260040161059c906122ce565b60405180910390fd5b8073ffffffffffffffffffffffffffffffffffffffff166105c4610ce7565b73ffffffffffffffffffffffffffffffffffffffff1614806105f357506105f2816105ed610ce7565b610b7d565b5b610632576040517f08c379a0000000000000000000000000000000000000000000000000000000008152600401610629906121ee565b60405180910390fd5b61063c8383610cef565b505050565b61065261064c610ce7565b82610da8565b610691576040517f08c379a0000000000000000000000000000000000000000000000000000000008152600401610688906122ee565b60405180910390fd5b61069c838383610e86565b505050565b6106bc83838360405180602001604052806000815250610a6e565b505050565b6000806002600084815260200190815260200160002060009054906101000a900473ffffffffffffffffffffffffffffffffffffffff169050600073ffffffffffffffffffffffffffffffffffffffff168173ffffffffffffffffffffffffffffffffffffffff16141561076a576040517f08c379a00000000000000000000000000000000000000000000000000000000081526004016107619061222e565b60405180910390fd5b80915050919050565b600080600654905061078532826110e2565b600160065461079491906123fd565b60068190555080915050919050565b60008073ffffffffffffffffffffffffffffffffffffffff168273ffffffffffffffffffffffffffffffffffffffff161415610814576040517f08c379a000000000000000000000000000000000000000000000000000000000815260040161080b9061220e565b60405180910390fd5b600360008373ffffffffffffffffffffffffffffffffffffffff1673ffffffffffffffffffffffffffffffffffffffff168152602001908152602001600020549050919050565b60606001805461086a9061256e565b80601f01602080910402602001604051908101604052809291908181526020018280546108969061256e565b80156108e35780601f106108b8576101008083540402835291602001916108e3565b820191906000526020600020905b8154815290600101906020018083116108c657829003601f168201915b5050505050905090565b6108f5610ce7565b73ffffffffffffffffffffffffffffffffffffffff168273ffffffffffffffffffffffffffffffffffffffff161415610963576040517f08c379a000000000000000000000000000000000000000000000000000000000815260040161095a906121ae565b60405180910390fd5b8060056000610970610ce7565b73ffffffffffffffffffffffffffffffffffffffff1673ffffffffffffffffffffffffffffffffffffffff16815260200190815260200160002060008473ffffffffffffffffffffffffffffffffffffffff1673ffffffffffffffffffffffffffffffffffffffff16815260200190815260200160002060006101000a81548160ff0219169083151502179055508173ffffffffffffffffffffffffffffffffffffffff16610a1d610ce7565b73ffffffffffffffffffffffffffffffffffffffff167f17307eab39ab6107e8899845ad3d59bd9653f200f220920489ca2b5937696c3183604051610a629190612111565b60405180910390a35050565b610a7f610a79610ce7565b83610da8565b610abe576040517f08c379a0000000000000000000000000000000000000000000000000000000008152600401610ab5906122ee565b60405180910390fd5b610aca84848484611100565b50505050565b6060610adb82610c7b565b610b1a576040517f08c379a0000000000000000000000000000000000000000000000000000000008152600401610b11906122ae565b60405180910390fd5b6000610b2461115c565b90506000815111610b445760405180602001604052806000815250610b6f565b80610b4e84611173565b604051602001610b5f929190612086565b6040516020818303038152906040525b915050919050565b60065481565b6000600560008473ffffffffffffffffffffffffffffffffffffffff1673ffffffffffffffffffffffffffffffffffffffff16815260200190815260200160002060008373ffffffffffffffffffffffffffffffffffffffff1673ffffffffffffffffffffffffffffffffffffffff16815260200190815260200160002060009054906101000a900460ff16905092915050565b60007f01ffc9a7000000000000000000000000000000000000000000000000000000007bffffffffffffffffffffffffffffffffffffffffffffffffffffffff1916827bffffffffffffffffffffffffffffffffffffffffffffffffffffffff1916149050919050565b60008073ffffffffffffffffffffffffffffffffffffffff166002600084815260200190815260200160002060009054906101000a900473ffffffffffffffffffffffffffffffffffffffff1673ffffffffffffffffffffffffffffffffffffffff1614159050919050565b600033905090565b816004600083815260200190815260200160002060006101000a81548173ffffffffffffffffffffffffffffffffffffffff021916908373ffffffffffffffffffffffffffffffffffffffff160217905550808273ffffffffffffffffffffffffffffffffffffffff16610d62836106c1565b73ffffffffffffffffffffffffffffffffffffffff167f8c5be1e5ebec7d5bd14f71427d1e84f3dd0314c0f7b2291e5b200ac8c7c3b92560405160405180910390a45050565b6000610db382610c7b565b610df2576040517f08c379a0000000000000000000000000000000000000000000000000000000008152600401610de9906121ce565b60405180910390fd5b6000610dfd836106c1565b90508073ffffffffffffffffffffffffffffffffffffffff168473ffffffffffffffffffffffffffffffffffffffff161480610e6c57508373ffffffffffffffffffffffffffffffffffffffff16610e54846104a4565b73ffffffffffffffffffffffffffffffffffffffff16145b80610e7d5750610e7c8185610b7d565b5b91505092915050565b8273ffffffffffffffffffffffffffffffffffffffff16610ea6826106c1565b73ffffffffffffffffffffffffffffffffffffffff1614610efc576040517f08c379a0000000000000000000000000000000000000000000000000000000008152600401610ef39061228e565b60405180910390fd5b600073ffffffffffffffffffffffffffffffffffffffff168273ffffffffffffffffffffffffffffffffffffffff161415610f6c576040517f08c379a0000000000000000000000000000000000000000000000000000000008152600401610f639061218e565b60405180910390fd5b610f77838383611320565b610f82600082610cef565b6001600360008573ffffffffffffffffffffffffffffffffffffffff1673ffffffffffffffffffffffffffffffffffffffff1681526020019081526020016000206000828254610fd29190612484565b925050819055506001600360008473ffffffffffffffffffffffffffffffffffffffff1673ffffffffffffffffffffffffffffffffffffffff168152602001908152602001600020600082825461102991906123fd565b92505081905550816002600083815260200190815260200160002060006101000a81548173ffffffffffffffffffffffffffffffffffffffff021916908373ffffffffffffffffffffffffffffffffffffffff160217905550808273ffffffffffffffffffffffffffffffffffffffff168473ffffffffffffffffffffffffffffffffffffffff167fddf252ad1be2c89b69c2b068fc378daa952ba7f163c4a11628f55a4df523b3ef60405160405180910390a4505050565b6110fc828260405180602001604052806000815250611325565b5050565b61110b848484610e86565b61111784848484611380565b611156576040517f08c379a000000000000000000000000000000000000000000000000000000000815260040161114d9061214e565b60405180910390fd5b50505050565b606060405180602001604052806000815250905090565b606060008214156111bb576040518060400160405280600181526020017f3000000000000000000000000000000000000000000000000000000000000000815250905061131b565b600082905060005b600082146111ed5780806111d6906125a0565b915050600a826111e69190612453565b91506111c3565b60008167ffffffffffffffff81111561122f577f4e487b7100000000000000000000000000000000000000000000000000000000600052604160045260246000fd5b6040519080825280601f01601f1916602001820160405280156112615781602001600182028036833780820191505090505b5090505b600085146113145760018261127a9190612484565b9150600a8561128991906125e9565b603061129591906123fd565b60f81b8183815181106112d1577f4e487b7100000000000000000000000000000000000000000000000000000000600052603260045260246000fd5b60200101907effffffffffffffffffffffffffffffffffffffffffffffffffffffffffffff1916908160001a905350600a8561130d9190612453565b9450611265565b8093505050505b919050565b505050565b61132f8383611517565b61133c6000848484611380565b61137b576040517f08c379a00000000000000000000000000000000000000000000000000000000081526004016113729061214e565b60405180910390fd5b505050565b60006113a18473ffffffffffffffffffffffffffffffffffffffff166116e5565b1561150a578373ffffffffffffffffffffffffffffffffffffffff1663150b7a026113ca610ce7565b8786866040518563ffffffff1660e01b81526004016113ec94939291906120c5565b602060405180830381600087803b15801561140657600080fd5b505af192505050801561143757506040513d601f19601f820116820180604052508101906114349190611a01565b60015b6114ba573d8060008114611467576040519150601f19603f3d011682016040523d82523d6000602084013e61146c565b606091505b506000815114156114b2576040517f08c379a00000000000000000000000000000000000000000000000000000000081526004016114a99061214e565b60405180910390fd5b805181602001fd5b63150b7a0260e01b7bffffffffffffffffffffffffffffffffffffffffffffffffffffffff1916817bffffffffffffffffffffffffffffffffffffffffffffffffffffffff19161491505061150f565b600190505b949350505050565b600073ffffffffffffffffffffffffffffffffffffffff168273ffffffffffffffffffffffffffffffffffffffff161415611587576040517f08c379a000000000000000000000000000000000000000000000000000000000815260040161157e9061224e565b60405180910390fd5b61159081610c7b565b156115d0576040517f08c379a00000000000000000000000000000000000000000000000000000000081526004016115c79061216e565b60405180910390fd5b6115dc60008383611320565b6001600360008473ffffffffffffffffffffffffffffffffffffffff1673ffffffffffffffffffffffffffffffffffffffff168152602001908152602001600020600082825461162c91906123fd565b92505081905550816002600083815260200190815260200160002060006101000a81548173ffffffffffffffffffffffffffffffffffffffff021916908373ffffffffffffffffffffffffffffffffffffffff160217905550808273ffffffffffffffffffffffffffffffffffffffff16600073ffffffffffffffffffffffffffffffffffffffff167fddf252ad1be2c89b69c2b068fc378daa952ba7f163c4a11628f55a4df523b3ef60405160405180910390a45050565b600080823b905060008111915050919050565b600061170b6117068461235a565b612329565b90508281526020810184848401111561172357600080fd5b61172e84828561252c565b509392505050565b60006117496117448461238a565b612329565b90508281526020810184848401111561176157600080fd5b61176c84828561252c565b509392505050565b600081359050611783816126e7565b92915050565b600081359050611798816126fe565b92915050565b6000813590506117ad81612715565b92915050565b6000815190506117c281612715565b92915050565b600082601f8301126117d957600080fd5b81356117e98482602086016116f8565b91505092915050565b600082601f83011261180357600080fd5b8135611813848260208601611736565b91505092915050565b60008135905061182b8161272c565b92915050565b60006020828403121561184357600080fd5b600061185184828501611774565b91505092915050565b6000806040838503121561186d57600080fd5b600061187b85828601611774565b925050602061188c85828601611774565b9150509250929050565b6000806000606084860312156118ab57600080fd5b60006118b986828701611774565b93505060206118ca86828701611774565b92505060406118db8682870161181c565b9150509250925092565b600080600080608085870312156118fb57600080fd5b600061190987828801611774565b945050602061191a87828801611774565b935050604061192b8782880161181c565b925050606085013567ffffffffffffffff81111561194857600080fd5b611954878288016117c8565b91505092959194509250565b6000806040838503121561197357600080fd5b600061198185828601611774565b925050602061199285828601611789565b9150509250929050565b600080604083850312156119af57600080fd5b60006119bd85828601611774565b92505060206119ce8582860161181c565b9150509250929050565b6000602082840312156119ea57600080fd5b60006119f88482850161179e565b91505092915050565b600060208284031215611a1357600080fd5b6000611a21848285016117b3565b91505092915050565b600060208284031215611a3c57600080fd5b600082013567ffffffffffffffff811115611a5657600080fd5b611a62848285016117f2565b91505092915050565b600060208284031215611a7d57600080fd5b6000611a8b8482850161181c565b91505092915050565b611a9d816124b8565b82525050565b611aac816124ca565b82525050565b6000611abd826123ba565b611ac781856123d0565b9350611ad781856020860161253b565b611ae0816126d6565b840191505092915050565b6000611af6826123c5565b611b0081856123e1565b9350611b1081856020860161253b565b611b19816126d6565b840191505092915050565b6000611b2f826123c5565b611b3981856123f2565b9350611b4981856020860161253b565b80840191505092915050565b6000611b626032836123e1565b91507f4552433732313a207472616e7366657220746f206e6f6e20455243373231526560008301527f63656976657220696d706c656d656e74657200000000000000000000000000006020830152604082019050919050565b6000611bc8601c836123e1565b91507f4552433732313a20746f6b656e20616c7265616479206d696e746564000000006000830152602082019050919050565b6000611c086024836123e1565b91507f4552433732313a207472616e7366657220746f20746865207a65726f2061646460008301527f72657373000000000000000000000000000000000000000000000000000000006020830152604082019050919050565b6000611c6e6019836123e1565b91507f4552433732313a20617070726f766520746f2063616c6c6572000000000000006000830152602082019050919050565b6000611cae602c836123e1565b91507f4552433732313a206f70657261746f7220717565727920666f72206e6f6e657860008301527f697374656e7420746f6b656e00000000000000000000000000000000000000006020830152604082019050919050565b6000611d146038836123e1565b91507f4552433732313a20617070726f76652063616c6c6572206973206e6f74206f7760008301527f6e6572206e6f7220617070726f76656420666f7220616c6c00000000000000006020830152604082019050919050565b6000611d7a602a836123e1565b91507f4552433732313a2062616c616e636520717565727920666f7220746865207a6560008301527f726f2061646472657373000000000000000000000000000000000000000000006020830152604082019050919050565b6000611de06029836123e1565b91507f4552433732313a206f776e657220717565727920666f72206e6f6e657869737460008301527f656e7420746f6b656e00000000000000000000000000000000000000000000006020830152604082019050919050565b6000611e466020836123e1565b91507f4552433732313a206d696e7420746f20746865207a65726f20616464726573736000830152602082019050919050565b6000611e86602c836123e1565b91507f4552433732313a20617070726f76656420717565727920666f72206e6f6e657860008301527f697374656e7420746f6b656e00000000000000000000000000000000000000006020830152604082019050919050565b6000611eec6029836123e1565b91507f4552433732313a207472616e73666572206f6620746f6b656e2074686174206960008301527f73206e6f74206f776e00000000000000000000000000000000000000000000006020830152604082019050919050565b6000611f52602f836123e1565b91507f4552433732314d657461646174613a2055524920717565727920666f72206e6f60008301527f6e6578697374656e7420746f6b656e00000000000000000000000000000000006020830152604082019050919050565b6000611fb86021836123e1565b91507f4552433732313a20617070726f76616c20746f2063757272656e74206f776e6560008301527f72000000000000000000000000000000000000000000000000000000000000006020830152604082019050919050565b600061201e6031836123e1565b91507f4552433732313a207472616e736665722063616c6c6572206973206e6f74206f60008301527f776e6572206e6f7220617070726f7665640000000000000000000000000000006020830152604082019050919050565b61208081612522565b82525050565b60006120928285611b24565b915061209e8284611b24565b91508190509392505050565b60006020820190506120bf6000830184611a94565b92915050565b60006080820190506120da6000830187611a94565b6120e76020830186611a94565b6120f46040830185612077565b81810360608301526121068184611ab2565b905095945050505050565b60006020820190506121266000830184611aa3565b92915050565b600060208201905081810360008301526121468184611aeb565b905092915050565b6000602082019050818103600083015261216781611b55565b9050919050565b6000602082019050818103600083015261218781611bbb565b9050919050565b600060208201905081810360008301526121a781611bfb565b9050919050565b600060208201905081810360008301526121c781611c61565b9050919050565b600060208201905081810360008301526121e781611ca1565b9050919050565b6000602082019050818103600083015261220781611d07565b9050919050565b6000602082019050818103600083015261222781611d6d565b9050919050565b6000602082019050818103600083015261224781611dd3565b9050919050565b6000602082019050818103600083015261226781611e39565b9050919050565b6000602082019050818103600083015261228781611e79565b9050919050565b600060208201905081810360008301526122a781611edf565b9050919050565b600060208201905081810360008301526122c781611f45565b9050919050565b600060208201905081810360008301526122e781611fab565b9050919050565b6000602082019050818103600083015261230781612011565b9050919050565b60006020820190506123236000830184612077565b92915050565b6000604051905081810181811067ffffffffffffffff821117156123505761234f6126a7565b5b8060405250919050565b600067ffffffffffffffff821115612375576123746126a7565b5b601f19601f8301169050602081019050919050565b600067ffffffffffffffff8211156123a5576123a46126a7565b5b601f19601f8301169050602081019050919050565b600081519050919050565b600081519050919050565b600082825260208201905092915050565b600082825260208201905092915050565b600081905092915050565b600061240882612522565b915061241383612522565b9250827fffffffffffffffffffffffffffffffffffffffffffffffffffffffffffffffff038211156124485761244761261a565b5b828201905092915050565b600061245e82612522565b915061246983612522565b92508261247957612478612649565b5b828204905092915050565b600061248f82612522565b915061249a83612522565b9250828210156124ad576124ac61261a565b5b828203905092915050565b60006124c382612502565b9050919050565b60008115159050919050565b60007fffffffff0000000000000000000000000000000000000000000000000000000082169050919050565b600073ffffffffffffffffffffffffffffffffffffffff82169050919050565b6000819050919050565b82818337600083830152505050565b60005b8381101561255957808201518184015260208101905061253e565b83811115612568576000848401525b50505050565b6000600282049050600182168061258657607f821691505b6020821081141561259a57612599612678565b5b50919050565b60006125ab82612522565b91507fffffffffffffffffffffffffffffffffffffffffffffffffffffffffffffffff8214156125de576125dd61261a565b5b600182019050919050565b60006125f482612522565b91506125ff83612522565b92508261260f5761260e612649565b5b828206905092915050565b7f4e487b7100000000000000000000000000000000000000000000000000000000600052601160045260246000fd5b7f4e487b7100000000000000000000000000000000000000000000000000000000600052601260045260246000fd5b7f4e487b7100000000000000000000000000000000000000000000000000000000600052602260045260246000fd5b7f4e487b7100000000000000000000000000000000000000000000000000000000600052604160045260246000fd5b6000601f19601f8301169050919050565b6126f0816124b8565b81146126fb57600080fd5b50565b612707816124ca565b811461271257600080fd5b50565b61271e816124d6565b811461272957600080fd5b50565b61273581612522565b811461274057600080fd5b5056fea26469706673582212201477d3346e64a7e675b26e5a9ab96098dcce6e4e74e786c32d0c7f5b4457164c64736f6c63430008000033",
  "immutableReferences": {},
  "source": "// SPDX-License-Identifier: MIT\n\npragma solidity >=0.8.0 <0.9.0;\npragma abicoder v2;\nimport \"@openzeppelin/contracts/token/ERC721/ERC721.sol\";\n\ncontract SimpleNFT is ERC721 {\n  uint256 public tokenCounter;\n  constructor () public ERC721 (\"Elf\", \"ELF\"){\n    tokenCounter = 0;\n  }\n\n  function createSimpleNFT(string memory tokenURI) public returns (uint256) {\n    uint256 newItemId = tokenCounter;\n    _safeMint(tx.origin, newItemId);\n    tokenCounter = tokenCounter + 1;\n    return newItemId;\n  }\n\n}\n\n//_setTokenURI(newItemId, tokenURI);",
  "sourcePath": "/Users/Karlo/faks/Web3/challenge1/eth-dapp/truffle project/contracts/4_SimpleNFT.sol",
  "compiler": {
    "name": "solc",
    "version": "0.8.0+commit.c7dfd78e.Emscripten.clang"
  },
  "schemaVersion": "3.4.1",
  "updatedAt": "2021-08-05T20:01:20.297Z",
  "devdoc": {
    "kind": "dev",
    "methods": {
      "approve(address,uint256)": {
        "details": "See {IERC721-approve}."
      },
      "balanceOf(address)": {
        "details": "See {IERC721-balanceOf}."
      },
      "getApproved(uint256)": {
        "details": "See {IERC721-getApproved}."
      },
      "isApprovedForAll(address,address)": {
        "details": "See {IERC721-isApprovedForAll}."
      },
      "name()": {
        "details": "See {IERC721Metadata-name}."
      },
      "ownerOf(uint256)": {
        "details": "See {IERC721-ownerOf}."
      },
      "safeTransferFrom(address,address,uint256)": {
        "details": "See {IERC721-safeTransferFrom}."
      },
      "safeTransferFrom(address,address,uint256,bytes)": {
        "details": "See {IERC721-safeTransferFrom}."
      },
      "setApprovalForAll(address,bool)": {
        "details": "See {IERC721-setApprovalForAll}."
      },
      "supportsInterface(bytes4)": {
        "details": "See {IERC165-supportsInterface}."
      },
      "symbol()": {
        "details": "See {IERC721Metadata-symbol}."
      },
      "tokenURI(uint256)": {
        "details": "See {IERC721Metadata-tokenURI}."
      },
      "transferFrom(address,address,uint256)": {
        "details": "See {IERC721-transferFrom}."
      }
    },
    "version": 1
  },
  "userdoc": {
    "kind": "user",
    "methods": {},
    "version": 1
  }
}