{
  "contractName": "SimpleNFT",
  "abi": [
    {
      "inputs": [],
      "stateMutability": "nonpayable",
      "type": "constructor"
    },
    {
      "anonymous": false,
      "inputs": [
        {
          "indexed": true,
          "internalType": "address",
          "name": "owner",
          "type": "address"
        },
        {
          "indexed": true,
          "internalType": "address",
          "name": "approved",
          "type": "address"
        },
        {
          "indexed": true,
          "internalType": "uint256",
          "name": "tokenId",
          "type": "uint256"
        }
      ],
      "name": "Approval",
      "type": "event"
    },
    {
      "anonymous": false,
      "inputs": [
        {
          "indexed": true,
          "internalType": "address",
          "name": "owner",
          "type": "address"
        },
        {
          "indexed": true,
          "internalType": "address",
          "name": "operator",
          "type": "address"
        },
        {
          "indexed": false,
          "internalType": "bool",
          "name": "approved",
          "type": "bool"
        }
      ],
      "name": "ApprovalForAll",
      "type": "event"
    },
    {
      "anonymous": false,
      "inputs": [
        {
          "indexed": true,
          "internalType": "address",
          "name": "previousOwner",
          "type": "address"
        },
        {
          "indexed": true,
          "internalType": "address",
          "name": "newOwner",
          "type": "address"
        }
      ],
      "name": "OwnershipTransferred",
      "type": "event"
    },
    {
      "anonymous": false,
      "inputs": [
        {
          "indexed": true,
          "internalType": "address",
          "name": "from",
          "type": "address"
        },
        {
          "indexed": true,
          "internalType": "address",
          "name": "to",
          "type": "address"
        },
        {
          "indexed": true,
          "internalType": "uint256",
          "name": "tokenId",
          "type": "uint256"
        }
      ],
      "name": "Transfer",
      "type": "event"
    },
    {
      "inputs": [
        {
          "internalType": "address",
          "name": "to",
          "type": "address"
        },
        {
          "internalType": "uint256",
          "name": "tokenId",
          "type": "uint256"
        }
      ],
      "name": "approve",
      "outputs": [],
      "stateMutability": "nonpayable",
      "type": "function"
    },
    {
      "inputs": [
        {
          "internalType": "address",
          "name": "owner",
          "type": "address"
        }
      ],
      "name": "balanceOf",
      "outputs": [
        {
          "internalType": "uint256",
          "name": "",
          "type": "uint256"
        }
      ],
      "stateMutability": "view",
      "type": "function",
      "constant": true
    },
    {
      "inputs": [
        {
          "internalType": "uint256",
          "name": "tokenId",
          "type": "uint256"
        }
      ],
      "name": "getApproved",
      "outputs": [
        {
          "internalType": "address",
          "name": "",
          "type": "address"
        }
      ],
      "stateMutability": "view",
      "type": "function",
      "constant": true
    },
    {
      "inputs": [
        {
          "internalType": "address",
          "name": "owner",
          "type": "address"
        },
        {
          "internalType": "address",
          "name": "operator",
          "type": "address"
        }
      ],
      "name": "isApprovedForAll",
      "outputs": [
        {
          "internalType": "bool",
          "name": "",
          "type": "bool"
        }
      ],
      "stateMutability": "view",
      "type": "function",
      "constant": true
    },
    {
      "inputs": [],
      "name": "name",
      "outputs": [
        {
          "internalType": "string",
          "name": "",
          "type": "string"
        }
      ],
      "stateMutability": "view",
      "type": "function",
      "constant": true
    },
    {
      "inputs": [],
      "name": "owner",
      "outputs": [
        {
          "internalType": "address",
          "name": "",
          "type": "address"
        }
      ],
      "stateMutability": "view",
      "type": "function",
      "constant": true
    },
    {
      "inputs": [
        {
          "internalType": "uint256",
          "name": "tokenId",
          "type": "uint256"
        }
      ],
      "name": "ownerOf",
      "outputs": [
        {
          "internalType": "address",
          "name": "",
          "type": "address"
        }
      ],
      "stateMutability": "view",
      "type": "function",
      "constant": true
    },
    {
      "inputs": [],
      "name": "renounceOwnership",
      "outputs": [],
      "stateMutability": "nonpayable",
      "type": "function"
    },
    {
      "inputs": [
        {
          "internalType": "address",
          "name": "from",
          "type": "address"
        },
        {
          "internalType": "address",
          "name": "to",
          "type": "address"
        },
        {
          "internalType": "uint256",
          "name": "tokenId",
          "type": "uint256"
        }
      ],
      "name": "safeTransferFrom",
      "outputs": [],
      "stateMutability": "nonpayable",
      "type": "function"
    },
    {
      "inputs": [
        {
          "internalType": "address",
          "name": "from",
          "type": "address"
        },
        {
          "internalType": "address",
          "name": "to",
          "type": "address"
        },
        {
          "internalType": "uint256",
          "name": "tokenId",
          "type": "uint256"
        },
        {
          "internalType": "bytes",
          "name": "_data",
          "type": "bytes"
        }
      ],
      "name": "safeTransferFrom",
      "outputs": [],
      "stateMutability": "nonpayable",
      "type": "function"
    },
    {
      "inputs": [
        {
          "internalType": "address",
          "name": "operator",
          "type": "address"
        },
        {
          "internalType": "bool",
          "name": "approved",
          "type": "bool"
        }
      ],
      "name": "setApprovalForAll",
      "outputs": [],
      "stateMutability": "nonpayable",
      "type": "function"
    },
    {
      "inputs": [
        {
          "internalType": "bytes4",
          "name": "interfaceId",
          "type": "bytes4"
        }
      ],
      "name": "supportsInterface",
      "outputs": [
        {
          "internalType": "bool",
          "name": "",
          "type": "bool"
        }
      ],
      "stateMutability": "view",
      "type": "function",
      "constant": true
    },
    {
      "inputs": [],
      "name": "symbol",
      "outputs": [
        {
          "internalType": "string",
          "name": "",
          "type": "string"
        }
      ],
      "stateMutability": "view",
      "type": "function",
      "constant": true
    },
    {
      "inputs": [],
      "name": "tokenCounter",
      "outputs": [
        {
          "internalType": "uint256",
          "name": "",
          "type": "uint256"
        }
      ],
      "stateMutability": "view",
      "type": "function",
      "constant": true
    },
    {
      "inputs": [
        {
          "internalType": "address",
          "name": "from",
          "type": "address"
        },
        {
          "internalType": "address",
          "name": "to",
          "type": "address"
        },
        {
          "internalType": "uint256",
          "name": "tokenId",
          "type": "uint256"
        }
      ],
      "name": "transferFrom",
      "outputs": [],
      "stateMutability": "nonpayable",
      "type": "function"
    },
    {
      "inputs": [
        {
          "internalType": "address",
          "name": "newOwner",
          "type": "address"
        }
      ],
      "name": "transferOwnership",
      "outputs": [],
      "stateMutability": "nonpayable",
      "type": "function"
    },
    {
      "inputs": [
        {
          "internalType": "string",
          "name": "baseURI_",
          "type": "string"
        }
      ],
      "name": "setBaseURI",
      "outputs": [],
      "stateMutability": "nonpayable",
      "type": "function"
    },
    {
      "inputs": [],
      "name": "totalSupply",
      "outputs": [
        {
          "internalType": "uint256",
          "name": "",
          "type": "uint256"
        }
      ],
      "stateMutability": "nonpayable",
      "type": "function"
    },
    {
      "inputs": [
        {
          "internalType": "uint256",
          "name": "tokenId",
          "type": "uint256"
        }
      ],
      "name": "tokenURI",
      "outputs": [
        {
          "internalType": "string",
          "name": "",
          "type": "string"
        }
      ],
      "stateMutability": "view",
      "type": "function",
      "constant": true
    },
    {
      "inputs": [
        {
          "internalType": "string",
          "name": "tokenURI",
          "type": "string"
        }
      ],
      "name": "createSimpleNFT",
      "outputs": [
        {
          "internalType": "uint256",
          "name": "",
          "type": "uint256"
        }
      ],
      "stateMutability": "nonpayable",
      "type": "function"
    }
  ],
  "bytecode": "0x60806040523480156200001157600080fd5b506040518060400160405280600381526020017f456c6600000000000000000000000000000000000000000000000000000000008152506040518060400160405280600381526020017f454c460000000000000000000000000000000000000000000000000000000000815250816000908051906020019062000096929190620001ae565b508060019080519060200190620000af929190620001ae565b505050620000d2620000c6620000e060201b60201c565b620000e860201b60201c565b6000600781905550620002c3565b600033905090565b6000600660009054906101000a900473ffffffffffffffffffffffffffffffffffffffff16905081600660006101000a81548173ffffffffffffffffffffffffffffffffffffffff021916908373ffffffffffffffffffffffffffffffffffffffff1602179055508173ffffffffffffffffffffffffffffffffffffffff168173ffffffffffffffffffffffffffffffffffffffff167f8be0079c531659141344cd1fd0a4f28419497f9722a3daafe3b4186f6b6457e060405160405180910390a35050565b828054620001bc906200025e565b90600052602060002090601f016020900481019282620001e057600085556200022c565b82601f10620001fb57805160ff19168380011785556200022c565b828001600101855582156200022c579182015b828111156200022b5782518255916020019190600101906200020e565b5b5090506200023b91906200023f565b5090565b5b808211156200025a57600081600090555060010162000240565b5090565b600060028204905060018216806200027757607f821691505b602082108114156200028e576200028d62000294565b5b50919050565b7f4e487b7100000000000000000000000000000000000000000000000000000000600052602260045260246000fd5b612e9680620002d36000396000f3fe608060405234801561001057600080fd5b506004361061012c5760003560e01c806370a08231116100ad578063b88d4fde11610071578063b88d4fde1461032f578063c87b56dd1461034b578063d082e3811461037b578063e985e9c514610399578063f2fde38b146103c95761012c565b806370a082311461029d578063715018a6146102cd5780638da5cb5b146102d757806395d89b41146102f5578063a22cb465146103135761012c565b806323b872dd116100f457806323b872dd146101e957806342842e0e1461020557806355f804b3146102215780636352211e1461023d5780636eff88ff1461026d5761012c565b806301ffc9a71461013157806306fdde0314610161578063081812fc1461017f578063095ea7b3146101af57806318160ddd146101cb575b600080fd5b61014b60048036038101906101469190611f89565b6103e5565b60405161015891906127ce565b60405180910390f35b6101696104c7565b60405161017691906127e9565b60405180910390f35b6101996004803603810190610194919061201c565b610559565b6040516101a69190612767565b60405180910390f35b6101c960048036038101906101c49190611f4d565b6105de565b005b6101d36106f6565b6040516101e09190612a2b565b60405180910390f35b61020360048036038101906101fe9190611e47565b610700565b005b61021f600480360381019061021a9190611e47565b610760565b005b61023b60048036038101906102369190611fdb565b610780565b005b6102576004803603810190610252919061201c565b61079a565b6040516102649190612767565b60405180910390f35b61028760048036038101906102829190611fdb565b61084c565b6040516102949190612a2b565b60405180910390f35b6102b760048036038101906102b29190611de2565b610886565b6040516102c49190612a2b565b60405180910390f35b6102d561093e565b005b6102df6109c6565b6040516102ec9190612767565b60405180910390f35b6102fd6109f0565b60405161030a91906127e9565b60405180910390f35b61032d60048036038101906103289190611f11565b610a82565b005b61034960048036038101906103449190611e96565b610c03565b005b6103656004803603810190610360919061201c565b610c65565b60405161037291906127e9565b60405180910390f35b610383610dd8565b6040516103909190612a2b565b60405180910390f35b6103b360048036038101906103ae9190611e0b565b610dde565b6040516103c091906127ce565b60405180910390f35b6103e360048036038101906103de9190611de2565b610e72565b005b60007f80ac58cd000000000000000000000000000000000000000000000000000000007bffffffffffffffffffffffffffffffffffffffffffffffffffffffff1916827bffffffffffffffffffffffffffffffffffffffffffffffffffffffff191614806104b057507f5b5e139f000000000000000000000000000000000000000000000000000000007bffffffffffffffffffffffffffffffffffffffffffffffffffffffff1916827bffffffffffffffffffffffffffffffffffffffffffffffffffffffff1916145b806104c057506104bf82610f6a565b5b9050919050565b6060600080546104d690612c8b565b80601f016020809104026020016040519081016040528092919081815260200182805461050290612c8b565b801561054f5780601f106105245761010080835404028352916020019161054f565b820191906000526020600020905b81548152906001019060200180831161053257829003601f168201915b5050505050905090565b600061056482610fd4565b6105a3576040517f08c379a000000000000000000000000000000000000000000000000000000000815260040161059a9061294b565b60405180910390fd5b6004600083815260200190815260200160002060009054906101000a900473ffffffffffffffffffffffffffffffffffffffff169050919050565b60006105e98261079a565b90508073ffffffffffffffffffffffffffffffffffffffff168373ffffffffffffffffffffffffffffffffffffffff16141561065a576040517f08c379a0000000000000000000000000000000000000000000000000000000008152600401610651906129eb565b60405180910390fd5b8073ffffffffffffffffffffffffffffffffffffffff16610679611040565b73ffffffffffffffffffffffffffffffffffffffff1614806106a857506106a7816106a2611040565b610dde565b5b6106e7576040517f08c379a00000000000000000000000000000000000000000000000000000000081526004016106de906128cb565b60405180910390fd5b6106f18383611048565b505050565b6000600754905090565b61071161070b611040565b82611101565b610750576040517f08c379a000000000000000000000000000000000000000000000000000000000815260040161074790612a0b565b60405180910390fd5b61075b8383836111df565b505050565b61077b83838360405180602001604052806000815250610c03565b505050565b8060099080519060200190610796929190611c06565b5050565b6000806002600084815260200190815260200160002060009054906101000a900473ffffffffffffffffffffffffffffffffffffffff169050600073ffffffffffffffffffffffffffffffffffffffff168173ffffffffffffffffffffffffffffffffffffffff161415610843576040517f08c379a000000000000000000000000000000000000000000000000000000000815260040161083a9061290b565b60405180910390fd5b80915050919050565b600080600754905061085e328261143b565b6108688184611459565b60016007546108779190612b1a565b60078190555080915050919050565b60008073ffffffffffffffffffffffffffffffffffffffff168273ffffffffffffffffffffffffffffffffffffffff1614156108f7576040517f08c379a00000000000000000000000000000000000000000000000000000000081526004016108ee906128eb565b60405180910390fd5b600360008373ffffffffffffffffffffffffffffffffffffffff1673ffffffffffffffffffffffffffffffffffffffff168152602001908152602001600020549050919050565b610946611040565b73ffffffffffffffffffffffffffffffffffffffff166109646109c6565b73ffffffffffffffffffffffffffffffffffffffff16146109ba576040517f08c379a00000000000000000000000000000000000000000000000000000000081526004016109b19061298b565b60405180910390fd5b6109c460006114cd565b565b6000600660009054906101000a900473ffffffffffffffffffffffffffffffffffffffff16905090565b6060600180546109ff90612c8b565b80601f0160208091040260200160405190810160405280929190818152602001828054610a2b90612c8b565b8015610a785780601f10610a4d57610100808354040283529160200191610a78565b820191906000526020600020905b815481529060010190602001808311610a5b57829003601f168201915b5050505050905090565b610a8a611040565b73ffffffffffffffffffffffffffffffffffffffff168273ffffffffffffffffffffffffffffffffffffffff161415610af8576040517f08c379a0000000000000000000000000000000000000000000000000000000008152600401610aef9061288b565b60405180910390fd5b8060056000610b05611040565b73ffffffffffffffffffffffffffffffffffffffff1673ffffffffffffffffffffffffffffffffffffffff16815260200190815260200160002060008473ffffffffffffffffffffffffffffffffffffffff1673ffffffffffffffffffffffffffffffffffffffff16815260200190815260200160002060006101000a81548160ff0219169083151502179055508173ffffffffffffffffffffffffffffffffffffffff16610bb2611040565b73ffffffffffffffffffffffffffffffffffffffff167f17307eab39ab6107e8899845ad3d59bd9653f200f220920489ca2b5937696c3183604051610bf791906127ce565b60405180910390a35050565b610c14610c0e611040565b83611101565b610c53576040517f08c379a0000000000000000000000000000000000000000000000000000000008152600401610c4a90612a0b565b60405180910390fd5b610c5f84848484611593565b50505050565b6060610c7082610fd4565b610caf576040517f08c379a0000000000000000000000000000000000000000000000000000000008152600401610ca6906129cb565b60405180910390fd5b6000600860008481526020019081526020016000208054610ccf90612c8b565b80601f0160208091040260200160405190810160405280929190818152602001828054610cfb90612c8b565b8015610d485780601f10610d1d57610100808354040283529160200191610d48565b820191906000526020600020905b815481529060010190602001808311610d2b57829003601f168201915b505050505090506000610d596115ef565b9050600081511415610d6f578192505050610dd3565b600082511115610da4578082604051602001610d8c929190612743565b60405160208183030381529060405292505050610dd3565b80610dae85611681565b604051602001610dbf929190612743565b604051602081830303815290604052925050505b919050565b60075481565b6000600560008473ffffffffffffffffffffffffffffffffffffffff1673ffffffffffffffffffffffffffffffffffffffff16815260200190815260200160002060008373ffffffffffffffffffffffffffffffffffffffff1673ffffffffffffffffffffffffffffffffffffffff16815260200190815260200160002060009054906101000a900460ff16905092915050565b610e7a611040565b73ffffffffffffffffffffffffffffffffffffffff16610e986109c6565b73ffffffffffffffffffffffffffffffffffffffff1614610eee576040517f08c379a0000000000000000000000000000000000000000000000000000000008152600401610ee59061298b565b60405180910390fd5b600073ffffffffffffffffffffffffffffffffffffffff168173ffffffffffffffffffffffffffffffffffffffff161415610f5e576040517f08c379a0000000000000000000000000000000000000000000000000000000008152600401610f559061282b565b60405180910390fd5b610f67816114cd565b50565b60007f01ffc9a7000000000000000000000000000000000000000000000000000000007bffffffffffffffffffffffffffffffffffffffffffffffffffffffff1916827bffffffffffffffffffffffffffffffffffffffffffffffffffffffff1916149050919050565b60008073ffffffffffffffffffffffffffffffffffffffff166002600084815260200190815260200160002060009054906101000a900473ffffffffffffffffffffffffffffffffffffffff1673ffffffffffffffffffffffffffffffffffffffff1614159050919050565b600033905090565b816004600083815260200190815260200160002060006101000a81548173ffffffffffffffffffffffffffffffffffffffff021916908373ffffffffffffffffffffffffffffffffffffffff160217905550808273ffffffffffffffffffffffffffffffffffffffff166110bb8361079a565b73ffffffffffffffffffffffffffffffffffffffff167f8c5be1e5ebec7d5bd14f71427d1e84f3dd0314c0f7b2291e5b200ac8c7c3b92560405160405180910390a45050565b600061110c82610fd4565b61114b576040517f08c379a0000000000000000000000000000000000000000000000000000000008152600401611142906128ab565b60405180910390fd5b60006111568361079a565b90508073ffffffffffffffffffffffffffffffffffffffff168473ffffffffffffffffffffffffffffffffffffffff1614806111c557508373ffffffffffffffffffffffffffffffffffffffff166111ad84610559565b73ffffffffffffffffffffffffffffffffffffffff16145b806111d657506111d58185610dde565b5b91505092915050565b8273ffffffffffffffffffffffffffffffffffffffff166111ff8261079a565b73ffffffffffffffffffffffffffffffffffffffff1614611255576040517f08c379a000000000000000000000000000000000000000000000000000000000815260040161124c906129ab565b60405180910390fd5b600073ffffffffffffffffffffffffffffffffffffffff168273ffffffffffffffffffffffffffffffffffffffff1614156112c5576040517f08c379a00000000000000000000000000000000000000000000000000000000081526004016112bc9061286b565b60405180910390fd5b6112d083838361182e565b6112db600082611048565b6001600360008573ffffffffffffffffffffffffffffffffffffffff1673ffffffffffffffffffffffffffffffffffffffff168152602001908152602001600020600082825461132b9190612ba1565b925050819055506001600360008473ffffffffffffffffffffffffffffffffffffffff1673ffffffffffffffffffffffffffffffffffffffff16815260200190815260200160002060008282546113829190612b1a565b92505081905550816002600083815260200190815260200160002060006101000a81548173ffffffffffffffffffffffffffffffffffffffff021916908373ffffffffffffffffffffffffffffffffffffffff160217905550808273ffffffffffffffffffffffffffffffffffffffff168473ffffffffffffffffffffffffffffffffffffffff167fddf252ad1be2c89b69c2b068fc378daa952ba7f163c4a11628f55a4df523b3ef60405160405180910390a4505050565b611455828260405180602001604052806000815250611833565b5050565b61146282610fd4565b6114a1576040517f08c379a00000000000000000000000000000000000000000000000000000000081526004016114989061296b565b60405180910390fd5b806008600084815260200190815260200160002090805190602001906114c8929190611c06565b505050565b6000600660009054906101000a900473ffffffffffffffffffffffffffffffffffffffff16905081600660006101000a81548173ffffffffffffffffffffffffffffffffffffffff021916908373ffffffffffffffffffffffffffffffffffffffff1602179055508173ffffffffffffffffffffffffffffffffffffffff168173ffffffffffffffffffffffffffffffffffffffff167f8be0079c531659141344cd1fd0a4f28419497f9722a3daafe3b4186f6b6457e060405160405180910390a35050565b61159e8484846111df565b6115aa8484848461188e565b6115e9576040517f08c379a00000000000000000000000000000000000000000000000000000000081526004016115e09061280b565b60405180910390fd5b50505050565b6060600980546115fe90612c8b565b80601f016020809104026020016040519081016040528092919081815260200182805461162a90612c8b565b80156116775780601f1061164c57610100808354040283529160200191611677565b820191906000526020600020905b81548152906001019060200180831161165a57829003601f168201915b5050505050905090565b606060008214156116c9576040518060400160405280600181526020017f30000000000000000000000000000000000000000000000000000000000000008152509050611829565b600082905060005b600082146116fb5780806116e490612cbd565b915050600a826116f49190612b70565b91506116d1565b60008167ffffffffffffffff81111561173d577f4e487b7100000000000000000000000000000000000000000000000000000000600052604160045260246000fd5b6040519080825280601f01601f19166020018201604052801561176f5781602001600182028036833780820191505090505b5090505b60008514611822576001826117889190612ba1565b9150600a856117979190612d06565b60306117a39190612b1a565b60f81b8183815181106117df577f4e487b7100000000000000000000000000000000000000000000000000000000600052603260045260246000fd5b60200101907effffffffffffffffffffffffffffffffffffffffffffffffffffffffffffff1916908160001a905350600a8561181b9190612b70565b9450611773565b8093505050505b919050565b505050565b61183d8383611a25565b61184a600084848461188e565b611889576040517f08c379a00000000000000000000000000000000000000000000000000000000081526004016118809061280b565b60405180910390fd5b505050565b60006118af8473ffffffffffffffffffffffffffffffffffffffff16611bf3565b15611a18578373ffffffffffffffffffffffffffffffffffffffff1663150b7a026118d8611040565b8786866040518563ffffffff1660e01b81526004016118fa9493929190612782565b602060405180830381600087803b15801561191457600080fd5b505af192505050801561194557506040513d601f19601f820116820180604052508101906119429190611fb2565b60015b6119c8573d8060008114611975576040519150601f19603f3d011682016040523d82523d6000602084013e61197a565b606091505b506000815114156119c0576040517f08c379a00000000000000000000000000000000000000000000000000000000081526004016119b79061280b565b60405180910390fd5b805181602001fd5b63150b7a0260e01b7bffffffffffffffffffffffffffffffffffffffffffffffffffffffff1916817bffffffffffffffffffffffffffffffffffffffffffffffffffffffff191614915050611a1d565b600190505b949350505050565b600073ffffffffffffffffffffffffffffffffffffffff168273ffffffffffffffffffffffffffffffffffffffff161415611a95576040517f08c379a0000000000000000000000000000000000000000000000000000000008152600401611a8c9061292b565b60405180910390fd5b611a9e81610fd4565b15611ade576040517f08c379a0000000000000000000000000000000000000000000000000000000008152600401611ad59061284b565b60405180910390fd5b611aea6000838361182e565b6001600360008473ffffffffffffffffffffffffffffffffffffffff1673ffffffffffffffffffffffffffffffffffffffff1681526020019081526020016000206000828254611b3a9190612b1a565b92505081905550816002600083815260200190815260200160002060006101000a81548173ffffffffffffffffffffffffffffffffffffffff021916908373ffffffffffffffffffffffffffffffffffffffff160217905550808273ffffffffffffffffffffffffffffffffffffffff16600073ffffffffffffffffffffffffffffffffffffffff167fddf252ad1be2c89b69c2b068fc378daa952ba7f163c4a11628f55a4df523b3ef60405160405180910390a45050565b600080823b905060008111915050919050565b828054611c1290612c8b565b90600052602060002090601f016020900481019282611c345760008555611c7b565b82601f10611c4d57805160ff1916838001178555611c7b565b82800160010185558215611c7b579182015b82811115611c7a578251825591602001919060010190611c5f565b5b509050611c889190611c8c565b5090565b5b80821115611ca5576000816000905550600101611c8d565b5090565b6000611cbc611cb784612a77565b612a46565b905082815260208101848484011115611cd457600080fd5b611cdf848285612c49565b509392505050565b6000611cfa611cf584612aa7565b612a46565b905082815260208101848484011115611d1257600080fd5b611d1d848285612c49565b509392505050565b600081359050611d3481612e04565b92915050565b600081359050611d4981612e1b565b92915050565b600081359050611d5e81612e32565b92915050565b600081519050611d7381612e32565b92915050565b600082601f830112611d8a57600080fd5b8135611d9a848260208601611ca9565b91505092915050565b600082601f830112611db457600080fd5b8135611dc4848260208601611ce7565b91505092915050565b600081359050611ddc81612e49565b92915050565b600060208284031215611df457600080fd5b6000611e0284828501611d25565b91505092915050565b60008060408385031215611e1e57600080fd5b6000611e2c85828601611d25565b9250506020611e3d85828601611d25565b9150509250929050565b600080600060608486031215611e5c57600080fd5b6000611e6a86828701611d25565b9350506020611e7b86828701611d25565b9250506040611e8c86828701611dcd565b9150509250925092565b60008060008060808587031215611eac57600080fd5b6000611eba87828801611d25565b9450506020611ecb87828801611d25565b9350506040611edc87828801611dcd565b925050606085013567ffffffffffffffff811115611ef957600080fd5b611f0587828801611d79565b91505092959194509250565b60008060408385031215611f2457600080fd5b6000611f3285828601611d25565b9250506020611f4385828601611d3a565b9150509250929050565b60008060408385031215611f6057600080fd5b6000611f6e85828601611d25565b9250506020611f7f85828601611dcd565b9150509250929050565b600060208284031215611f9b57600080fd5b6000611fa984828501611d4f565b91505092915050565b600060208284031215611fc457600080fd5b6000611fd284828501611d64565b91505092915050565b600060208284031215611fed57600080fd5b600082013567ffffffffffffffff81111561200757600080fd5b61201384828501611da3565b91505092915050565b60006020828403121561202e57600080fd5b600061203c84828501611dcd565b91505092915050565b61204e81612bd5565b82525050565b61205d81612be7565b82525050565b600061206e82612ad7565b6120788185612aed565b9350612088818560208601612c58565b61209181612df3565b840191505092915050565b60006120a782612ae2565b6120b18185612afe565b93506120c1818560208601612c58565b6120ca81612df3565b840191505092915050565b60006120e082612ae2565b6120ea8185612b0f565b93506120fa818560208601612c58565b80840191505092915050565b6000612113603283612afe565b91507f4552433732313a207472616e7366657220746f206e6f6e20455243373231526560008301527f63656976657220696d706c656d656e74657200000000000000000000000000006020830152604082019050919050565b6000612179602683612afe565b91507f4f776e61626c653a206e6577206f776e657220697320746865207a65726f206160008301527f64647265737300000000000000000000000000000000000000000000000000006020830152604082019050919050565b60006121df601c83612afe565b91507f4552433732313a20746f6b656e20616c7265616479206d696e746564000000006000830152602082019050919050565b600061221f602483612afe565b91507f4552433732313a207472616e7366657220746f20746865207a65726f2061646460008301527f72657373000000000000000000000000000000000000000000000000000000006020830152604082019050919050565b6000612285601983612afe565b91507f4552433732313a20617070726f766520746f2063616c6c6572000000000000006000830152602082019050919050565b60006122c5602c83612afe565b91507f4552433732313a206f70657261746f7220717565727920666f72206e6f6e657860008301527f697374656e7420746f6b656e00000000000000000000000000000000000000006020830152604082019050919050565b600061232b603883612afe565b91507f4552433732313a20617070726f76652063616c6c6572206973206e6f74206f7760008301527f6e6572206e6f7220617070726f76656420666f7220616c6c00000000000000006020830152604082019050919050565b6000612391602a83612afe565b91507f4552433732313a2062616c616e636520717565727920666f7220746865207a6560008301527f726f2061646472657373000000000000000000000000000000000000000000006020830152604082019050919050565b60006123f7602983612afe565b91507f4552433732313a206f776e657220717565727920666f72206e6f6e657869737460008301527f656e7420746f6b656e00000000000000000000000000000000000000000000006020830152604082019050919050565b600061245d602083612afe565b91507f4552433732313a206d696e7420746f20746865207a65726f20616464726573736000830152602082019050919050565b600061249d602c83612afe565b91507f4552433732313a20617070726f76656420717565727920666f72206e6f6e657860008301527f697374656e7420746f6b656e00000000000000000000000000000000000000006020830152604082019050919050565b6000612503602c83612afe565b91507f4552433732314d657461646174613a2055524920736574206f66206e6f6e657860008301527f697374656e7420746f6b656e00000000000000000000000000000000000000006020830152604082019050919050565b6000612569602083612afe565b91507f4f776e61626c653a2063616c6c6572206973206e6f7420746865206f776e65726000830152602082019050919050565b60006125a9602983612afe565b91507f4552433732313a207472616e73666572206f6620746f6b656e2074686174206960008301527f73206e6f74206f776e00000000000000000000000000000000000000000000006020830152604082019050919050565b600061260f602f83612afe565b91507f4552433732314d657461646174613a2055524920717565727920666f72206e6f60008301527f6e6578697374656e7420746f6b656e00000000000000000000000000000000006020830152604082019050919050565b6000612675602183612afe565b91507f4552433732313a20617070726f76616c20746f2063757272656e74206f776e6560008301527f72000000000000000000000000000000000000000000000000000000000000006020830152604082019050919050565b60006126db603183612afe565b91507f4552433732313a207472616e736665722063616c6c6572206973206e6f74206f60008301527f776e6572206e6f7220617070726f7665640000000000000000000000000000006020830152604082019050919050565b61273d81612c3f565b82525050565b600061274f82856120d5565b915061275b82846120d5565b91508190509392505050565b600060208201905061277c6000830184612045565b92915050565b60006080820190506127976000830187612045565b6127a46020830186612045565b6127b16040830185612734565b81810360608301526127c38184612063565b905095945050505050565b60006020820190506127e36000830184612054565b92915050565b60006020820190508181036000830152612803818461209c565b905092915050565b6000602082019050818103600083015261282481612106565b9050919050565b600060208201905081810360008301526128448161216c565b9050919050565b60006020820190508181036000830152612864816121d2565b9050919050565b6000602082019050818103600083015261288481612212565b9050919050565b600060208201905081810360008301526128a481612278565b9050919050565b600060208201905081810360008301526128c4816122b8565b9050919050565b600060208201905081810360008301526128e48161231e565b9050919050565b6000602082019050818103600083015261290481612384565b9050919050565b60006020820190508181036000830152612924816123ea565b9050919050565b6000602082019050818103600083015261294481612450565b9050919050565b6000602082019050818103600083015261296481612490565b9050919050565b60006020820190508181036000830152612984816124f6565b9050919050565b600060208201905081810360008301526129a48161255c565b9050919050565b600060208201905081810360008301526129c48161259c565b9050919050565b600060208201905081810360008301526129e481612602565b9050919050565b60006020820190508181036000830152612a0481612668565b9050919050565b60006020820190508181036000830152612a24816126ce565b9050919050565b6000602082019050612a406000830184612734565b92915050565b6000604051905081810181811067ffffffffffffffff82111715612a6d57612a6c612dc4565b5b8060405250919050565b600067ffffffffffffffff821115612a9257612a91612dc4565b5b601f19601f8301169050602081019050919050565b600067ffffffffffffffff821115612ac257612ac1612dc4565b5b601f19601f8301169050602081019050919050565b600081519050919050565b600081519050919050565b600082825260208201905092915050565b600082825260208201905092915050565b600081905092915050565b6000612b2582612c3f565b9150612b3083612c3f565b9250827fffffffffffffffffffffffffffffffffffffffffffffffffffffffffffffffff03821115612b6557612b64612d37565b5b828201905092915050565b6000612b7b82612c3f565b9150612b8683612c3f565b925082612b9657612b95612d66565b5b828204905092915050565b6000612bac82612c3f565b9150612bb783612c3f565b925082821015612bca57612bc9612d37565b5b828203905092915050565b6000612be082612c1f565b9050919050565b60008115159050919050565b60007fffffffff0000000000000000000000000000000000000000000000000000000082169050919050565b600073ffffffffffffffffffffffffffffffffffffffff82169050919050565b6000819050919050565b82818337600083830152505050565b60005b83811015612c76578082015181840152602081019050612c5b565b83811115612c85576000848401525b50505050565b60006002820490506001821680612ca357607f821691505b60208210811415612cb757612cb6612d95565b5b50919050565b6000612cc882612c3f565b91507fffffffffffffffffffffffffffffffffffffffffffffffffffffffffffffffff821415612cfb57612cfa612d37565b5b600182019050919050565b6000612d1182612c3f565b9150612d1c83612c3f565b925082612d2c57612d2b612d66565b5b828206905092915050565b7f4e487b7100000000000000000000000000000000000000000000000000000000600052601160045260246000fd5b7f4e487b7100000000000000000000000000000000000000000000000000000000600052601260045260246000fd5b7f4e487b7100000000000000000000000000000000000000000000000000000000600052602260045260246000fd5b7f4e487b7100000000000000000000000000000000000000000000000000000000600052604160045260246000fd5b6000601f19601f8301169050919050565b612e0d81612bd5565b8114612e1857600080fd5b50565b612e2481612be7565b8114612e2f57600080fd5b50565b612e3b81612bf3565b8114612e4657600080fd5b50565b612e5281612c3f565b8114612e5d57600080fd5b5056fea2646970667358221220fe14af876b13c9ce0dc5a151029d7185fd041d8ca5b72fd9a28f400431e9a1c964736f6c63430008000033",
  "immutableReferences": {},
  "source": "// SPDX-License-Identifier: MIT\n\npragma solidity >=0.8.0 <0.9.0;\npragma abicoder v2;\nimport \"@openzeppelin/contracts/token/ERC721/ERC721.sol\";\nimport \"@openzeppelin/contracts/access/Ownable.sol\";\n\ncontract SimpleNFT is ERC721, Ownable {\n  using Strings for uint256;\n  uint256 public tokenCounter;\n  mapping (uint256 => string) private _tokenURIs;\n\n    // Base URI\n  string private _baseURIextended;\n  constructor () public ERC721 (\"Elf\", \"ELF\"){\n    tokenCounter = 0;\n  }\n  function setBaseURI(string memory baseURI_) external {\n        _baseURIextended = baseURI_;\n    }\n\n  function totalSupply() public returns (uint256) {\n    return tokenCounter;\n  }\n    \n  function _setTokenURI(uint256 tokenId, string memory _tokenURI) internal virtual {\n    require(_exists(tokenId), \"ERC721Metadata: URI set of nonexistent token\");\n    _tokenURIs[tokenId] = _tokenURI;\n  }\n    \n  function _baseURI() internal view virtual override returns (string memory) {\n    return _baseURIextended;\n  }\n  function tokenURI(uint256 tokenId) public view virtual override returns (string memory) {\n        require(_exists(tokenId), \"ERC721Metadata: URI query for nonexistent token\");\n\n        string memory _tokenURI = _tokenURIs[tokenId];\n        string memory base = _baseURI();\n        \n        // If there is no base URI, return the token URI.\n        if (bytes(base).length == 0) {\n            return _tokenURI;\n        }\n        // If both are set, concatenate the baseURI and tokenURI (via abi.encodePacked).\n        if (bytes(_tokenURI).length > 0) {\n            return string(abi.encodePacked(base, _tokenURI));\n        }\n        // If there is a baseURI but no tokenURI, concatenate the tokenID to the baseURI.\n        return string(abi.encodePacked(base, tokenId.toString()));\n  }\n  function createSimpleNFT(string memory tokenURI) public returns (uint256) {\n    uint256 newItemId = tokenCounter;\n    _safeMint(tx.origin, newItemId);\n    _setTokenURI(newItemId, tokenURI);\n    tokenCounter = tokenCounter + 1;\n    return newItemId;\n  }\n\n}\n",
  "sourcePath": "/Users/Karlo/faks/Web3/challenge1/eth-dapp/truffle project/contracts/4_SimpleNFT.sol",
  "compiler": {
    "name": "solc",
    "version": "0.8.0+commit.c7dfd78e.Emscripten.clang"
  },
  "schemaVersion": "3.4.1",
  "updatedAt": "2021-08-07T15:55:21.876Z",
  "networkType": "ethereum",
  "devdoc": {
    "kind": "dev",
    "methods": {
      "approve(address,uint256)": {
        "details": "See {IERC721-approve}."
      },
      "balanceOf(address)": {
        "details": "See {IERC721-balanceOf}."
      },
      "getApproved(uint256)": {
        "details": "See {IERC721-getApproved}."
      },
      "isApprovedForAll(address,address)": {
        "details": "See {IERC721-isApprovedForAll}."
      },
      "name()": {
        "details": "See {IERC721Metadata-name}."
      },
      "owner()": {
        "details": "Returns the address of the current owner."
      },
      "ownerOf(uint256)": {
        "details": "See {IERC721-ownerOf}."
      },
      "renounceOwnership()": {
        "details": "Leaves the contract without owner. It will not be possible to call `onlyOwner` functions anymore. Can only be called by the current owner. NOTE: Renouncing ownership will leave the contract without an owner, thereby removing any functionality that is only available to the owner."
      },
      "safeTransferFrom(address,address,uint256)": {
        "details": "See {IERC721-safeTransferFrom}."
      },
      "safeTransferFrom(address,address,uint256,bytes)": {
        "details": "See {IERC721-safeTransferFrom}."
      },
      "setApprovalForAll(address,bool)": {
        "details": "See {IERC721-setApprovalForAll}."
      },
      "supportsInterface(bytes4)": {
        "details": "See {IERC165-supportsInterface}."
      },
      "symbol()": {
        "details": "See {IERC721Metadata-symbol}."
      },
      "tokenURI(uint256)": {
        "details": "See {IERC721Metadata-tokenURI}."
      },
      "transferFrom(address,address,uint256)": {
        "details": "See {IERC721-transferFrom}."
      },
      "transferOwnership(address)": {
        "details": "Transfers ownership of the contract to a new account (`newOwner`). Can only be called by the current owner."
      }
    },
    "version": 1
  },
  "userdoc": {
    "kind": "user",
    "methods": {},
    "version": 1
  }
}