{
  "contractName": "SwapExamples",
  "abi": [
    {
      "inputs": [
        {
          "internalType": "contract ISwapRouter",
          "name": "_swapRouter",
          "type": "address"
        }
      ],
      "stateMutability": "nonpayable",
      "type": "constructor"
    },
    {
      "stateMutability": "payable",
      "type": "fallback",
      "payable": true
    },
    {
      "inputs": [],
      "name": "DAI",
      "outputs": [
        {
          "internalType": "address",
          "name": "",
          "type": "address"
        }
      ],
      "stateMutability": "view",
      "type": "function",
      "constant": true
    },
    {
      "inputs": [],
      "name": "WETH10_addr",
      "outputs": [
        {
          "internalType": "address",
          "name": "",
          "type": "address"
        }
      ],
      "stateMutability": "view",
      "type": "function",
      "constant": true
    },
    {
      "inputs": [],
      "name": "WETH9_addr",
      "outputs": [
        {
          "internalType": "address",
          "name": "",
          "type": "address"
        }
      ],
      "stateMutability": "view",
      "type": "function",
      "constant": true
    },
    {
      "inputs": [],
      "name": "poolFee",
      "outputs": [
        {
          "internalType": "uint24",
          "name": "",
          "type": "uint24"
        }
      ],
      "stateMutability": "view",
      "type": "function",
      "constant": true
    },
    {
      "inputs": [],
      "name": "swapRouter",
      "outputs": [
        {
          "internalType": "contract ISwapRouter",
          "name": "",
          "type": "address"
        }
      ],
      "stateMutability": "view",
      "type": "function",
      "constant": true
    },
    {
      "inputs": [
        {
          "internalType": "uint256",
          "name": "amountIn",
          "type": "uint256"
        },
        {
          "internalType": "address",
          "name": "_token",
          "type": "address"
        },
        {
          "internalType": "address payable",
          "name": "_campaign",
          "type": "address"
        }
      ],
      "name": "swapExactInputSingle",
      "outputs": [
        {
          "internalType": "uint256",
          "name": "amountOut",
          "type": "uint256"
        }
      ],
      "stateMutability": "nonpayable",
      "type": "function"
    },
    {
      "inputs": [
        {
          "internalType": "uint256",
          "name": "amountOut",
          "type": "uint256"
        },
        {
          "internalType": "uint256",
          "name": "amountInMaximum",
          "type": "uint256"
        },
        {
          "internalType": "address payable",
          "name": "_token",
          "type": "address"
        }
      ],
      "name": "swapExactOutputSingle",
      "outputs": [
        {
          "internalType": "uint256",
          "name": "amountIn",
          "type": "uint256"
        }
      ],
      "stateMutability": "nonpayable",
      "type": "function"
    }
  ],
  "bytecode": "0x60a06040523480156200001157600080fd5b50604051620014473803806200144783398181016040528101906200003791906200008c565b8073ffffffffffffffffffffffffffffffffffffffff1660808173ffffffffffffffffffffffffffffffffffffffff1660601b81525050506200011a565b600081519050620000868162000100565b92915050565b6000602082840312156200009f57600080fd5b6000620000af8482850162000075565b91505092915050565b6000620000c582620000e0565b9050919050565b6000620000d982620000b8565b9050919050565b600073ffffffffffffffffffffffffffffffffffffffff82169050919050565b6200010b81620000cc565b81146200011757600080fd5b50565b60805160601c6112eb6200015c600039600081816101fa015281816102d30152818161038c015281816104440152818161051e01526106f201526112eb6000f3fe6080604052600436106100745760003560e01c80634af915f71161004e5780634af915f71461010a5780634ce4dca514610135578063c31c9c0714610172578063e0bab4c41461019d57610075565b8063089fe6aa146100775780632ef54012146100a257806348946cee146100cd57610075565b5b005b34801561008357600080fd5b5061008c6101c8565b60405161009991906110d9565b60405180910390f35b3480156100ae57600080fd5b506100b76101ce565b6040516100c49190610f8b565b60405180910390f35b3480156100d957600080fd5b506100f460048036038101906100ef9190610c38565b6101e6565b60405161010191906110f4565b60405180910390f35b34801561011657600080fd5b5061011f6103d1565b60405161012c9190610f8b565b60405180910390f35b34801561014157600080fd5b5061015c60048036038101906101579190610be9565b6103e9565b60405161016991906110f4565b60405180910390f35b34801561017e57600080fd5b506101876106f0565b6040516101949190611006565b60405180910390f35b3480156101a957600080fd5b506101b2610714565b6040516101bf9190610f8b565b60405180910390f35b610bb881565b73c778417e063141139fce010982780140aa0cd5ab81565b60006101f48233308661072c565b61021f827f000000000000000000000000000000000000000000000000000000000000000085610884565b60006040518061010001604052808473ffffffffffffffffffffffffffffffffffffffff16815260200173f1acf4697ef35f0edd2cf0bc352d4be94b6220f573ffffffffffffffffffffffffffffffffffffffff168152602001610bb862ffffff1681526020013373ffffffffffffffffffffffffffffffffffffffff168152602001428152602001868152602001858152602001600073ffffffffffffffffffffffffffffffffffffffff1681525090507f000000000000000000000000000000000000000000000000000000000000000073ffffffffffffffffffffffffffffffffffffffff1663db3e2198826040518263ffffffff1660e01b815260040161032a91906110bd565b602060405180830381600087803b15801561034457600080fd5b505af1158015610358573d6000803e3d6000fd5b505050506040513d601f19601f8201168201806040525081019061037c9190610bc0565b9150838210156103c9576103b2837f00000000000000000000000000000000000000000000000000000000000000006000610884565b6103c8833384876103c39190611136565b6109d9565b5b509392505050565b73f1acf4697ef35f0edd2cf0bc352d4be94b6220f581565b60006103f78333308761072c565b73c778417e063141139fce010982780140aa0cd5ab73ffffffffffffffffffffffffffffffffffffffff168373ffffffffffffffffffffffffffffffffffffffff16146105cf57610469837f000000000000000000000000000000000000000000000000000000000000000086610884565b60006040518061010001604052808573ffffffffffffffffffffffffffffffffffffffff16815260200173c778417e063141139fce010982780140aa0cd5ab73ffffffffffffffffffffffffffffffffffffffff168152602001610bb862ffffff1681526020013073ffffffffffffffffffffffffffffffffffffffff16815260200142815260200186815260200160008152602001600073ffffffffffffffffffffffffffffffffffffffff1681525090507f000000000000000000000000000000000000000000000000000000000000000073ffffffffffffffffffffffffffffffffffffffff1663414bf389826040518263ffffffff1660e01b815260040161057591906110a1565b602060405180830381600087803b15801561058f57600080fd5b505af11580156105a3573d6000803e3d6000fd5b505050506040513d601f19601f820116820180604052508101906105c79190610bc0565b9150506105d3565b8390505b600073c778417e063141139fce010982780140aa0cd5ab90508073ffffffffffffffffffffffffffffffffffffffff16632e1a7d4d836040518263ffffffff1660e01b815260040161062591906110f4565b600060405180830381600087803b15801561063f57600080fd5b505af1158015610653573d6000803e3d6000fd5b5050505060008390508073ffffffffffffffffffffffffffffffffffffffff1663b5aebc80846040518263ffffffff1660e01b815260040161069490611081565b6020604051808303818588803b1580156106ad57600080fd5b505af11580156106c1573d6000803e3d6000fd5b50505050506040513d601f19601f820116820180604052508101906106e69190610b97565b5050509392505050565b7f000000000000000000000000000000000000000000000000000000000000000081565b73ad6d458402f60fd3bd25163575031acdce07538d81565b6000808573ffffffffffffffffffffffffffffffffffffffff166323b872dd60e01b86868660405160240161076393929190610fa6565b604051602081830303815290604052907bffffffffffffffffffffffffffffffffffffffffffffffffffffffff19166020820180517bffffffffffffffffffffffffffffffffffffffffffffffffffffffff83818316178352505050506040516107cd9190610f74565b6000604051808303816000865af19150503d806000811461080a576040519150601f19603f3d011682016040523d82523d6000602084013e61080f565b606091505b509150915081801561083d575060008151148061083c57508080602001905181019061083b9190610b97565b5b5b61087c576040517f08c379a000000000000000000000000000000000000000000000000000000000815260040161087390611061565b60405180910390fd5b505050505050565b6000808473ffffffffffffffffffffffffffffffffffffffff1663095ea7b360e01b85856040516024016108b9929190610fdd565b604051602081830303815290604052907bffffffffffffffffffffffffffffffffffffffffffffffffffffffff19166020820180517bffffffffffffffffffffffffffffffffffffffffffffffffffffffff83818316178352505050506040516109239190610f74565b6000604051808303816000865af19150503d8060008114610960576040519150601f19603f3d011682016040523d82523d6000602084013e610965565b606091505b509150915081801561099357506000815114806109925750808060200190518101906109919190610b97565b5b5b6109d2576040517f08c379a00000000000000000000000000000000000000000000000000000000081526004016109c990611021565b60405180910390fd5b5050505050565b6000808473ffffffffffffffffffffffffffffffffffffffff1663a9059cbb60e01b8585604051602401610a0e929190610fdd565b604051602081830303815290604052907bffffffffffffffffffffffffffffffffffffffffffffffffffffffff19166020820180517bffffffffffffffffffffffffffffffffffffffffffffffffffffffff8381831617835250505050604051610a789190610f74565b6000604051808303816000865af19150503d8060008114610ab5576040519150601f19603f3d011682016040523d82523d6000602084013e610aba565b606091505b5091509150818015610ae85750600081511480610ae7575080806020019051810190610ae69190610b97565b5b5b610b27576040517f08c379a0000000000000000000000000000000000000000000000000000000008152600401610b1e90611041565b60405180910390fd5b5050505050565b600081359050610b3d81611259565b92915050565b600081359050610b5281611270565b92915050565b600081519050610b6781611287565b92915050565b600081359050610b7c8161129e565b92915050565b600081519050610b918161129e565b92915050565b600060208284031215610ba957600080fd5b6000610bb784828501610b58565b91505092915050565b600060208284031215610bd257600080fd5b6000610be084828501610b82565b91505092915050565b600080600060608486031215610bfe57600080fd5b6000610c0c86828701610b6d565b9350506020610c1d86828701610b2e565b9250506040610c2e86828701610b43565b9150509250925092565b600080600060608486031215610c4d57600080fd5b6000610c5b86828701610b6d565b9350506020610c6c86828701610b6d565b9250506040610c7d86828701610b43565b9150509250925092565b610c908161116a565b82525050565b610c9f8161116a565b82525050565b6000610cb08261110f565b610cba818561111a565b9350610cca8185602086016111f7565b80840191505092915050565b610cdf816111d3565b82525050565b6000610cf2600283611125565b91507f53410000000000000000000000000000000000000000000000000000000000006000830152602082019050919050565b6000610d32600283611125565b91507f53540000000000000000000000000000000000000000000000000000000000006000830152602082019050919050565b6000610d72600383611125565b91507f53544600000000000000000000000000000000000000000000000000000000006000830152602082019050919050565b6000610db2601883611125565b91507f6b61726c6f2e762e6369686c617240676d61696c2e636f6d00000000000000006000830152602082019050919050565b61010082016000820151610dfc6000850182610c87565b506020820151610e0f6020850182610c87565b506040820151610e226040850182610f38565b506060820151610e356060850182610c87565b506080820151610e486080850182610f56565b5060a0820151610e5b60a0850182610f56565b5060c0820151610e6e60c0850182610f56565b5060e0820151610e8160e0850182610f29565b50505050565b61010082016000820151610e9e6000850182610c87565b506020820151610eb16020850182610c87565b506040820151610ec46040850182610f38565b506060820151610ed76060850182610c87565b506080820151610eea6080850182610f56565b5060a0820151610efd60a0850182610f56565b5060c0820151610f1060c0850182610f56565b5060e0820151610f2360e0850182610f29565b50505050565b610f328161119a565b82525050565b610f41816111ba565b82525050565b610f50816111ba565b82525050565b610f5f816111c9565b82525050565b610f6e816111c9565b82525050565b6000610f808284610ca5565b915081905092915050565b6000602082019050610fa06000830184610c96565b92915050565b6000606082019050610fbb6000830186610c96565b610fc86020830185610c96565b610fd56040830184610f65565b949350505050565b6000604082019050610ff26000830185610c96565b610fff6020830184610f65565b9392505050565b600060208201905061101b6000830184610cd6565b92915050565b6000602082019050818103600083015261103a81610ce5565b9050919050565b6000602082019050818103600083015261105a81610d25565b9050919050565b6000602082019050818103600083015261107a81610d65565b9050919050565b6000602082019050818103600083015261109a81610da5565b9050919050565b6000610100820190506110b76000830184610de5565b92915050565b6000610100820190506110d36000830184610e87565b92915050565b60006020820190506110ee6000830184610f47565b92915050565b60006020820190506111096000830184610f65565b92915050565b600081519050919050565b600081905092915050565b600082825260208201905092915050565b6000611141826111c9565b915061114c836111c9565b92508282101561115f5761115e61122a565b5b828203905092915050565b60006111758261119a565b9050919050565b60006111878261119a565b9050919050565b60008115159050919050565b600073ffffffffffffffffffffffffffffffffffffffff82169050919050565b600062ffffff82169050919050565b6000819050919050565b60006111de826111e5565b9050919050565b60006111f08261119a565b9050919050565b60005b838110156112155780820151818401526020810190506111fa565b83811115611224576000848401525b50505050565b7f4e487b7100000000000000000000000000000000000000000000000000000000600052601160045260246000fd5b6112628161116a565b811461126d57600080fd5b50565b6112798161117c565b811461128457600080fd5b50565b6112908161118e565b811461129b57600080fd5b50565b6112a7816111c9565b81146112b257600080fd5b5056fea2646970667358221220ca87f3b32a3c7dd727ef1a8de76315b00882c87530efe450c56fc989d0d8e38764736f6c63430008000033",
  "immutableReferences": {
    "2913": [
      {
        "length": 32,
        "start": 506
      },
      {
        "length": 32,
        "start": 723
      },
      {
        "length": 32,
        "start": 908
      },
      {
        "length": 32,
        "start": 1092
      },
      {
        "length": 32,
        "start": 1310
      },
      {
        "length": 32,
        "start": 1778
      }
    ]
  },
  "source": "pragma solidity ^0.8.0;\npragma abicoder v2;\n// SPDX-License-Identifier: GPL-2.0-or-later\n\nimport '@uniswap/v3-periphery/contracts/interfaces/ISwapRouter.sol';\nimport '@uniswap/v3-periphery/contracts/libraries/TransferHelper.sol';\nimport \"@openzeppelin/contracts/token/ERC20/IERC20.sol\";\nimport \"./1_Campaign.sol\";\nimport \"./WETH.sol\";\nimport \"./WETH9.sol\";\n\ncontract SwapExamples {\n\n    ISwapRouter public immutable swapRouter;\n\n\n    // For this example, we will set the pool fee to 0.3%.\n    uint24 public constant poolFee = 3000;\n    address public constant DAI = 0xaD6D458402F60fD3Bd25163575031ACDce07538D;\n    address public constant WETH10_addr = 0xF1acf4697EF35F0edD2Cf0BC352d4be94B6220f5;\n    address public constant WETH9_addr = 0xc778417E063141139Fce010982780140Aa0cD5Ab;\n\n    constructor(ISwapRouter _swapRouter) {\n        swapRouter = _swapRouter;\n    }\n    fallback() external payable {}\n\n    function swapExactInputSingle(uint256 amountIn, address _token, address payable _campaign) external returns (uint256 amountOut) {\n        // msg.sender must approve this contract\n        TransferHelper.safeTransferFrom(_token, msg.sender, address(this), amountIn);\n        if (_token != WETH9_addr){\n            TransferHelper.safeApprove(_token, address(swapRouter), amountIn);\n\n        // Naively set amountOutMinimum to 0. In production, use an oracle or other data source to choose a safer value for amountOutMinimum.\n        // We also set the sqrtPriceLimitx96 to be 0 to ensure we swap our exact input amount.\n        ISwapRouter.ExactInputSingleParams memory params =\n            ISwapRouter.ExactInputSingleParams({\n                tokenIn: _token,\n                tokenOut: WETH9_addr,\n                fee: poolFee,\n                recipient: address(this),\n                deadline: block.timestamp,\n                amountIn: amountIn,\n                amountOutMinimum: 0,\n                sqrtPriceLimitX96: 0\n            });\n\n        // The call to `exactInputSingle` executes the swap.\n        amountOut = swapRouter.exactInputSingle(params);\n        }else{\n            amountOut = amountIn;\n        }\n        \n        IWETH weth = IWETH(WETH9_addr);\n        weth.withdraw(amountOut);\n        Campaign camp = Campaign(_campaign);\n        camp.donate{value: amountOut}(\"karlo.v.cihlar@gmail.com\");\n\n        return amountOut;\n    }\n\n    function swapExactOutputSingle(uint256 amountOut, uint256 amountInMaximum, address payable _token) external returns (uint256 amountIn) {\n        // Transfer the specified amount of DAI to this contract.\n        TransferHelper.safeTransferFrom(_token, msg.sender, address(this), amountInMaximum);\n\n        // Approve the router to spend the specifed `amountInMaximum` of DAI.\n        // In production, you should choose the maximum amount to spend based on oracles or other data sources to acheive a better swap.\n        TransferHelper.safeApprove(_token, address(swapRouter), amountInMaximum);\n\n        ISwapRouter.ExactOutputSingleParams memory params =\n            ISwapRouter.ExactOutputSingleParams({\n                tokenIn: _token,\n                tokenOut: WETH10_addr,\n                fee: poolFee,\n                recipient: msg.sender,\n                deadline: block.timestamp,\n                amountOut: amountOut,\n                amountInMaximum: amountInMaximum,\n                sqrtPriceLimitX96: 0\n            });\n\n        // Executes the swap returning the amountIn needed to spend to receive the desired amountOut.\n        amountIn = swapRouter.exactOutputSingle(params);\n\n        // For exact output swaps, the amountInMaximum may not have all been spent.\n        // If the actual amount spent (amountIn) is less than the specified maximum amount, we must refund the msg.sender and approve the swapRouter to spend 0.\n        if (amountIn < amountInMaximum) {\n            TransferHelper.safeApprove(_token, address(swapRouter), 0);\n            TransferHelper.safeTransfer(_token, msg.sender, amountInMaximum - amountIn);\n        }\n    }\n}",
  "sourcePath": "/Users/Karlo/faks/Web3/challenge1/eth-dapp/truffle project/contracts/3_Swapper.sol",
  "compiler": {
    "name": "solc",
    "version": "0.8.0+commit.c7dfd78e.Emscripten.clang"
  },
  "schemaVersion": "3.4.1",
  "updatedAt": "2021-08-07T15:55:21.893Z",
  "networkType": "ethereum",
  "devdoc": {
    "kind": "dev",
    "methods": {},
    "version": 1
  },
  "userdoc": {
    "kind": "user",
    "methods": {},
    "version": 1
  }
}