{
  "contractName": "SwapExamples",
  "abi": [
    {
      "inputs": [
        {
          "internalType": "contract ISwapRouter",
          "name": "_swapRouter",
          "type": "address"
        }
      ],
      "stateMutability": "nonpayable",
      "type": "constructor"
    },
    {
      "stateMutability": "payable",
      "type": "fallback"
    },
    {
      "inputs": [],
      "name": "DAI",
      "outputs": [
        {
          "internalType": "address",
          "name": "",
          "type": "address"
        }
      ],
      "stateMutability": "view",
      "type": "function"
    },
    {
      "inputs": [],
      "name": "WETH10_addr",
      "outputs": [
        {
          "internalType": "address",
          "name": "",
          "type": "address"
        }
      ],
      "stateMutability": "view",
      "type": "function"
    },
    {
      "inputs": [],
      "name": "WETH9_addr",
      "outputs": [
        {
          "internalType": "address",
          "name": "",
          "type": "address"
        }
      ],
      "stateMutability": "view",
      "type": "function"
    },
    {
      "inputs": [],
      "name": "poolFee",
      "outputs": [
        {
          "internalType": "uint24",
          "name": "",
          "type": "uint24"
        }
      ],
      "stateMutability": "view",
      "type": "function"
    },
    {
      "inputs": [],
      "name": "swapRouter",
      "outputs": [
        {
          "internalType": "contract ISwapRouter",
          "name": "",
          "type": "address"
        }
      ],
      "stateMutability": "view",
      "type": "function"
    },
    {
      "inputs": [
        {
          "internalType": "uint256",
          "name": "amountIn",
          "type": "uint256"
        },
        {
          "internalType": "address",
          "name": "_token",
          "type": "address"
        },
        {
          "internalType": "address payable",
          "name": "_campaign",
          "type": "address"
        },
        {
          "internalType": "string",
          "name": "_tokenURI",
          "type": "string"
        },
        {
          "internalType": "string",
          "name": "_mail",
          "type": "string"
        }
      ],
      "name": "swapExactInputSingle",
      "outputs": [
        {
          "internalType": "uint256",
          "name": "amountOut",
          "type": "uint256"
        }
      ],
      "stateMutability": "nonpayable",
      "type": "function"
    },
    {
      "inputs": [
        {
          "internalType": "uint256",
          "name": "amountOut",
          "type": "uint256"
        },
        {
          "internalType": "uint256",
          "name": "amountInMaximum",
          "type": "uint256"
        },
        {
          "internalType": "address payable",
          "name": "_token",
          "type": "address"
        }
      ],
      "name": "swapExactOutputSingle",
      "outputs": [
        {
          "internalType": "uint256",
          "name": "amountIn",
          "type": "uint256"
        }
      ],
      "stateMutability": "nonpayable",
      "type": "function"
    }
  ],
  "bytecode": "0x60a06040523480156200001157600080fd5b50604051620015d8380380620015d883398181016040528101906200003791906200008c565b8073ffffffffffffffffffffffffffffffffffffffff1660808173ffffffffffffffffffffffffffffffffffffffff1660601b81525050506200011a565b600081519050620000868162000100565b92915050565b6000602082840312156200009f57600080fd5b6000620000af8482850162000075565b91505092915050565b6000620000c582620000e0565b9050919050565b6000620000d982620000b8565b9050919050565b600073ffffffffffffffffffffffffffffffffffffffff82169050919050565b6200010b81620000cc565b81146200011757600080fd5b50565b60805160601c61147c6200015c600039600081816101fa015281816102d30152818161038c015281816104440152818161051e01526106f8015261147c6000f3fe6080604052600436106100745760003560e01c80634af915f71161004e5780634af915f71461010a5780636673265d14610135578063c31c9c0714610172578063e0bab4c41461019d57610075565b8063089fe6aa146100775780632ef54012146100a257806348946cee146100cd57610075565b5b005b34801561008357600080fd5b5061008c6101c8565b60405161009991906111af565b60405180910390f35b3480156100ae57600080fd5b506100b76101ce565b6040516100c4919061104a565b60405180910390f35b3480156100d957600080fd5b506100f460048036038101906100ef9190610cfe565b6101e6565b60405161010191906111ca565b60405180910390f35b34801561011657600080fd5b5061011f6103d1565b60405161012c919061104a565b60405180910390f35b34801561014157600080fd5b5061015c60048036038101906101579190610c57565b6103e9565b60405161016991906111ca565b60405180910390f35b34801561017e57600080fd5b506101876106f6565b60405161019491906110c5565b60405180910390f35b3480156101a957600080fd5b506101b261071a565b6040516101bf919061104a565b60405180910390f35b610bb881565b73c778417e063141139fce010982780140aa0cd5ab81565b60006101f482333086610732565b61021f827f00000000000000000000000000000000000000000000000000000000000000008561088a565b60006040518061010001604052808473ffffffffffffffffffffffffffffffffffffffff16815260200173f1acf4697ef35f0edd2cf0bc352d4be94b6220f573ffffffffffffffffffffffffffffffffffffffff168152602001610bb862ffffff1681526020013373ffffffffffffffffffffffffffffffffffffffff168152602001428152602001868152602001858152602001600073ffffffffffffffffffffffffffffffffffffffff1681525090507f000000000000000000000000000000000000000000000000000000000000000073ffffffffffffffffffffffffffffffffffffffff1663db3e2198826040518263ffffffff1660e01b815260040161032a9190611193565b602060405180830381600087803b15801561034457600080fd5b505af1158015610358573d6000803e3d6000fd5b505050506040513d601f19601f8201168201806040525081019061037c9190610c2e565b9150838210156103c9576103b2837f0000000000000000000000000000000000000000000000000000000000000000600061088a565b6103c8833384876103c39190611278565b6109df565b5b509392505050565b73f1acf4697ef35f0edd2cf0bc352d4be94b6220f581565b60006103f785333089610732565b73c778417e063141139fce010982780140aa0cd5ab73ffffffffffffffffffffffffffffffffffffffff168573ffffffffffffffffffffffffffffffffffffffff16146105cf57610469857f00000000000000000000000000000000000000000000000000000000000000008861088a565b60006040518061010001604052808773ffffffffffffffffffffffffffffffffffffffff16815260200173c778417e063141139fce010982780140aa0cd5ab73ffffffffffffffffffffffffffffffffffffffff168152602001610bb862ffffff1681526020013073ffffffffffffffffffffffffffffffffffffffff16815260200142815260200188815260200160008152602001600073ffffffffffffffffffffffffffffffffffffffff1681525090507f000000000000000000000000000000000000000000000000000000000000000073ffffffffffffffffffffffffffffffffffffffff1663414bf389826040518263ffffffff1660e01b81526004016105759190611177565b602060405180830381600087803b15801561058f57600080fd5b505af11580156105a3573d6000803e3d6000fd5b505050506040513d601f19601f820116820180604052508101906105c79190610c2e565b9150506105d3565b8590505b600073c778417e063141139fce010982780140aa0cd5ab90508073ffffffffffffffffffffffffffffffffffffffff16632e1a7d4d836040518263ffffffff1660e01b815260040161062591906111ca565b600060405180830381600087803b15801561063f57600080fd5b505af1158015610653573d6000803e3d6000fd5b5050505060008590508073ffffffffffffffffffffffffffffffffffffffff16631653441c8486886040518463ffffffff1660e01b81526004016106989291906110e0565b6020604051808303818588803b1580156106b157600080fd5b505af11580156106c5573d6000803e3d6000fd5b50505050506040513d601f19601f820116820180604052508101906106ea9190610c05565b50505095945050505050565b7f000000000000000000000000000000000000000000000000000000000000000081565b73ad6d458402f60fd3bd25163575031acdce07538d81565b6000808573ffffffffffffffffffffffffffffffffffffffff166323b872dd60e01b86868660405160240161076993929190611065565b604051602081830303815290604052907bffffffffffffffffffffffffffffffffffffffffffffffffffffffff19166020820180517bffffffffffffffffffffffffffffffffffffffffffffffffffffffff83818316178352505050506040516107d39190611033565b6000604051808303816000865af19150503d8060008114610810576040519150601f19603f3d011682016040523d82523d6000602084013e610815565b606091505b509150915081801561084357506000815114806108425750808060200190518101906108419190610c05565b5b5b610882576040517f08c379a000000000000000000000000000000000000000000000000000000000815260040161087990611157565b60405180910390fd5b505050505050565b6000808473ffffffffffffffffffffffffffffffffffffffff1663095ea7b360e01b85856040516024016108bf92919061109c565b604051602081830303815290604052907bffffffffffffffffffffffffffffffffffffffffffffffffffffffff19166020820180517bffffffffffffffffffffffffffffffffffffffffffffffffffffffff83818316178352505050506040516109299190611033565b6000604051808303816000865af19150503d8060008114610966576040519150601f19603f3d011682016040523d82523d6000602084013e61096b565b606091505b509150915081801561099957506000815114806109985750808060200190518101906109979190610c05565b5b5b6109d8576040517f08c379a00000000000000000000000000000000000000000000000000000000081526004016109cf90611117565b60405180910390fd5b5050505050565b6000808473ffffffffffffffffffffffffffffffffffffffff1663a9059cbb60e01b8585604051602401610a1492919061109c565b604051602081830303815290604052907bffffffffffffffffffffffffffffffffffffffffffffffffffffffff19166020820180517bffffffffffffffffffffffffffffffffffffffffffffffffffffffff8381831617835250505050604051610a7e9190611033565b6000604051808303816000865af19150503d8060008114610abb576040519150601f19603f3d011682016040523d82523d6000602084013e610ac0565b606091505b5091509150818015610aee5750600081511480610aed575080806020019051810190610aec9190610c05565b5b5b610b2d576040517f08c379a0000000000000000000000000000000000000000000000000000000008152600401610b2490611137565b60405180910390fd5b5050505050565b6000610b47610b4284611216565b6111e5565b905082815260208101848484011115610b5f57600080fd5b610b6a848285611339565b509392505050565b600081359050610b81816113ea565b92915050565b600081359050610b9681611401565b92915050565b600081519050610bab81611418565b92915050565b600082601f830112610bc257600080fd5b8135610bd2848260208601610b34565b91505092915050565b600081359050610bea8161142f565b92915050565b600081519050610bff8161142f565b92915050565b600060208284031215610c1757600080fd5b6000610c2584828501610b9c565b91505092915050565b600060208284031215610c4057600080fd5b6000610c4e84828501610bf0565b91505092915050565b600080600080600060a08688031215610c6f57600080fd5b6000610c7d88828901610bdb565b9550506020610c8e88828901610b72565b9450506040610c9f88828901610b87565b935050606086013567ffffffffffffffff811115610cbc57600080fd5b610cc888828901610bb1565b925050608086013567ffffffffffffffff811115610ce557600080fd5b610cf188828901610bb1565b9150509295509295909350565b600080600060608486031215610d1357600080fd5b6000610d2186828701610bdb565b9350506020610d3286828701610bdb565b9250506040610d4386828701610b87565b9150509250925092565b610d56816112ac565b82525050565b610d65816112ac565b82525050565b6000610d7682611246565b610d80818561125c565b9350610d90818560208601611348565b80840191505092915050565b610da581611315565b82525050565b6000610db682611251565b610dc08185611267565b9350610dd0818560208601611348565b610dd9816113d9565b840191505092915050565b6000610df1600283611267565b91507f53410000000000000000000000000000000000000000000000000000000000006000830152602082019050919050565b6000610e31600283611267565b91507f53540000000000000000000000000000000000000000000000000000000000006000830152602082019050919050565b6000610e71600383611267565b91507f53544600000000000000000000000000000000000000000000000000000000006000830152602082019050919050565b61010082016000820151610ebb6000850182610d4d565b506020820151610ece6020850182610d4d565b506040820151610ee16040850182610ff7565b506060820151610ef46060850182610d4d565b506080820151610f076080850182611015565b5060a0820151610f1a60a0850182611015565b5060c0820151610f2d60c0850182611015565b5060e0820151610f4060e0850182610fe8565b50505050565b61010082016000820151610f5d6000850182610d4d565b506020820151610f706020850182610d4d565b506040820151610f836040850182610ff7565b506060820151610f966060850182610d4d565b506080820151610fa96080850182611015565b5060a0820151610fbc60a0850182611015565b5060c0820151610fcf60c0850182611015565b5060e0820151610fe260e0850182610fe8565b50505050565b610ff1816112dc565b82525050565b611000816112fc565b82525050565b61100f816112fc565b82525050565b61101e8161130b565b82525050565b61102d8161130b565b82525050565b600061103f8284610d6b565b915081905092915050565b600060208201905061105f6000830184610d5c565b92915050565b600060608201905061107a6000830186610d5c565b6110876020830185610d5c565b6110946040830184611024565b949350505050565b60006040820190506110b16000830185610d5c565b6110be6020830184611024565b9392505050565b60006020820190506110da6000830184610d9c565b92915050565b600060408201905081810360008301526110fa8185610dab565b9050818103602083015261110e8184610dab565b90509392505050565b6000602082019050818103600083015261113081610de4565b9050919050565b6000602082019050818103600083015261115081610e24565b9050919050565b6000602082019050818103600083015261117081610e64565b9050919050565b60006101008201905061118d6000830184610ea4565b92915050565b6000610100820190506111a96000830184610f46565b92915050565b60006020820190506111c46000830184611006565b92915050565b60006020820190506111df6000830184611024565b92915050565b6000604051905081810181811067ffffffffffffffff8211171561120c5761120b6113aa565b5b8060405250919050565b600067ffffffffffffffff821115611231576112306113aa565b5b601f19601f8301169050602081019050919050565b600081519050919050565b600081519050919050565b600081905092915050565b600082825260208201905092915050565b60006112838261130b565b915061128e8361130b565b9250828210156112a1576112a061137b565b5b828203905092915050565b60006112b7826112dc565b9050919050565b60006112c9826112dc565b9050919050565b60008115159050919050565b600073ffffffffffffffffffffffffffffffffffffffff82169050919050565b600062ffffff82169050919050565b6000819050919050565b600061132082611327565b9050919050565b6000611332826112dc565b9050919050565b82818337600083830152505050565b60005b8381101561136657808201518184015260208101905061134b565b83811115611375576000848401525b50505050565b7f4e487b7100000000000000000000000000000000000000000000000000000000600052601160045260246000fd5b7f4e487b7100000000000000000000000000000000000000000000000000000000600052604160045260246000fd5b6000601f19601f8301169050919050565b6113f3816112ac565b81146113fe57600080fd5b50565b61140a816112be565b811461141557600080fd5b50565b611421816112d0565b811461142c57600080fd5b50565b6114388161130b565b811461144357600080fd5b5056fea264697066735822122098ed50a9de91acedf9414a2978c0c2d5132609fa89612ef9ec4feafc2c7d6d4a64736f6c63430008000033",
  "immutableReferences": {
    "2933": [
      {
        "length": 32,
        "start": 506
      },
      {
        "length": 32,
        "start": 723
      },
      {
        "length": 32,
        "start": 908
      },
      {
        "length": 32,
        "start": 1092
      },
      {
        "length": 32,
        "start": 1310
      },
      {
        "length": 32,
        "start": 1784
      }
    ]
  },
  "source": "pragma solidity ^0.8.0;\npragma abicoder v2;\n// SPDX-License-Identifier: GPL-2.0-or-later\n\nimport '@uniswap/v3-periphery/contracts/interfaces/ISwapRouter.sol';\nimport '@uniswap/v3-periphery/contracts/libraries/TransferHelper.sol';\nimport \"@openzeppelin/contracts/token/ERC20/IERC20.sol\";\nimport \"./1_Campaign.sol\";\nimport \"./WETH9.sol\";\n\ncontract SwapExamples {\n\n    ISwapRouter public immutable swapRouter;\n\n\n    // For this example, we will set the pool fee to 0.3%.\n    uint24 public constant poolFee = 3000;\n    address public constant DAI = 0xaD6D458402F60fD3Bd25163575031ACDce07538D;\n    address public constant WETH10_addr = 0xF1acf4697EF35F0edD2Cf0BC352d4be94B6220f5;\n    address public constant WETH9_addr = 0xc778417E063141139Fce010982780140Aa0cD5Ab;\n\n    constructor(ISwapRouter _swapRouter) {\n        swapRouter = _swapRouter;\n    }\n    fallback() external payable {}\n\n    function swapExactInputSingle(uint256 amountIn, address _token, address payable _campaign, string memory _tokenURI, string memory _mail) external returns (uint256 amountOut) {\n        // msg.sender must approve this contract\n        TransferHelper.safeTransferFrom(_token, msg.sender, address(this), amountIn);\n        if (_token != WETH9_addr){\n            TransferHelper.safeApprove(_token, address(swapRouter), amountIn);\n\n        // Naively set amountOutMinimum to 0. In production, use an oracle or other data source to choose a safer value for amountOutMinimum.\n        // We also set the sqrtPriceLimitx96 to be 0 to ensure we swap our exact input amount.\n        ISwapRouter.ExactInputSingleParams memory params =\n            ISwapRouter.ExactInputSingleParams({\n                tokenIn: _token,\n                tokenOut: WETH9_addr,\n                fee: poolFee,\n                recipient: address(this),\n                deadline: block.timestamp,\n                amountIn: amountIn,\n                amountOutMinimum: 0,\n                sqrtPriceLimitX96: 0\n            });\n\n        // The call to `exactInputSingle` executes the swap.\n        amountOut = swapRouter.exactInputSingle(params);\n        }else{\n            amountOut = amountIn;\n        }\n        \n        IWETH weth = IWETH(WETH9_addr);\n        weth.withdraw(amountOut);\n        Campaign camp = Campaign(_campaign);\n        camp.donate{value: amountOut}(_mail, _tokenURI);\n\n        return amountOut;\n    }\n\n    function swapExactOutputSingle(uint256 amountOut, uint256 amountInMaximum, address payable _token) external returns (uint256 amountIn) {\n        // Transfer the specified amount of DAI to this contract.\n        TransferHelper.safeTransferFrom(_token, msg.sender, address(this), amountInMaximum);\n\n        // Approve the router to spend the specifed `amountInMaximum` of DAI.\n        // In production, you should choose the maximum amount to spend based on oracles or other data sources to acheive a better swap.\n        TransferHelper.safeApprove(_token, address(swapRouter), amountInMaximum);\n\n        ISwapRouter.ExactOutputSingleParams memory params =\n            ISwapRouter.ExactOutputSingleParams({\n                tokenIn: _token,\n                tokenOut: WETH10_addr,\n                fee: poolFee,\n                recipient: msg.sender,\n                deadline: block.timestamp,\n                amountOut: amountOut,\n                amountInMaximum: amountInMaximum,\n                sqrtPriceLimitX96: 0\n            });\n\n        // Executes the swap returning the amountIn needed to spend to receive the desired amountOut.\n        amountIn = swapRouter.exactOutputSingle(params);\n\n        // For exact output swaps, the amountInMaximum may not have all been spent.\n        // If the actual amount spent (amountIn) is less than the specified maximum amount, we must refund the msg.sender and approve the swapRouter to spend 0.\n        if (amountIn < amountInMaximum) {\n            TransferHelper.safeApprove(_token, address(swapRouter), 0);\n            TransferHelper.safeTransfer(_token, msg.sender, amountInMaximum - amountIn);\n        }\n    }\n}",
  "sourcePath": "/Users/Karlo/faks/Web3/challenge1/eth-dapp/truffle project/contracts/3_Swapper.sol",
  "compiler": {
    "name": "solc",
    "version": "0.8.0+commit.c7dfd78e.Emscripten.clang"
  },
  "schemaVersion": "3.4.1",
  "updatedAt": "2021-08-09T23:29:39.396Z",
  "devdoc": {
    "kind": "dev",
    "methods": {},
    "version": 1
  },
  "userdoc": {
    "kind": "user",
    "methods": {},
    "version": 1
  }
}