{
  "contractName": "SwapExamples",
  "abi": [
    {
      "inputs": [
        {
          "internalType": "contract ISwapRouter",
          "name": "_swapRouter",
          "type": "address"
        }
      ],
      "stateMutability": "nonpayable",
      "type": "constructor"
    },
    {
      "inputs": [],
      "name": "DAI",
      "outputs": [
        {
          "internalType": "address",
          "name": "",
          "type": "address"
        }
      ],
      "stateMutability": "view",
      "type": "function"
    },
    {
      "inputs": [],
      "name": "USDC",
      "outputs": [
        {
          "internalType": "address",
          "name": "",
          "type": "address"
        }
      ],
      "stateMutability": "view",
      "type": "function"
    },
    {
      "inputs": [],
      "name": "WETH9",
      "outputs": [
        {
          "internalType": "address",
          "name": "",
          "type": "address"
        }
      ],
      "stateMutability": "view",
      "type": "function"
    },
    {
      "inputs": [],
      "name": "poolFee",
      "outputs": [
        {
          "internalType": "uint24",
          "name": "",
          "type": "uint24"
        }
      ],
      "stateMutability": "view",
      "type": "function"
    },
    {
      "inputs": [],
      "name": "swapRouter",
      "outputs": [
        {
          "internalType": "contract ISwapRouter",
          "name": "",
          "type": "address"
        }
      ],
      "stateMutability": "view",
      "type": "function"
    },
    {
      "inputs": [
        {
          "internalType": "uint256",
          "name": "amountIn",
          "type": "uint256"
        },
        {
          "internalType": "address",
          "name": "_token",
          "type": "address"
        }
      ],
      "name": "swapExactInputSingle",
      "outputs": [
        {
          "internalType": "uint256",
          "name": "amountOut",
          "type": "uint256"
        }
      ],
      "stateMutability": "nonpayable",
      "type": "function"
    },
    {
      "inputs": [
        {
          "internalType": "uint256",
          "name": "amountOut",
          "type": "uint256"
        },
        {
          "internalType": "uint256",
          "name": "amountInMaximum",
          "type": "uint256"
        },
        {
          "internalType": "address payable",
          "name": "_token",
          "type": "address"
        }
      ],
      "name": "swapExactOutputSingle",
      "outputs": [
        {
          "internalType": "uint256",
          "name": "amountIn",
          "type": "uint256"
        }
      ],
      "stateMutability": "nonpayable",
      "type": "function"
    }
  ],
  "bytecode": "0x60a06040523480156200001157600080fd5b50604051620012613803806200126183398181016040528101906200003791906200008c565b8073ffffffffffffffffffffffffffffffffffffffff1660808173ffffffffffffffffffffffffffffffffffffffff1660601b815250505062000125565b60008151905062000086816200010b565b92915050565b600060208284031215620000a557620000a462000106565b5b6000620000b58482850162000075565b91505092915050565b6000620000cb82620000e6565b9050919050565b6000620000df82620000be565b9050919050565b600073ffffffffffffffffffffffffffffffffffffffff82169050919050565b600080fd5b6200011681620000d2565b81146200012257600080fd5b50565b60805160601c6110fa62000167600039600081816101920152818161026b01528181610324015281816103950152818161046f015261053b01526110fa6000f3fe608060405234801561001057600080fd5b506004361061007d5760003560e01c8063793ea8d11161005b578063793ea8d1146100ee57806389a302711461011e578063c31c9c071461013c578063e0bab4c41461015a5761007d565b8063089fe6aa1461008257806348946cee146100a05780634aa4a4fc146100d0575b600080fd5b61008a610178565b6040516100979190610e68565b60405180910390f35b6100ba60048036038101906100b59190610a7a565b61017e565b6040516100c79190610e83565b60405180910390f35b6100d8610369565b6040516100e59190610d3a565b60405180910390f35b61010860048036038101906101039190610a3a565b610381565b6040516101159190610e83565b60405180910390f35b610126610521565b6040516101339190610d3a565b60405180910390f35b610144610539565b6040516101519190610db5565b60405180910390f35b61016261055d565b60405161016f9190610d3a565b60405180910390f35b610bb881565b600061018c82333086610575565b6101b7827f0000000000000000000000000000000000000000000000000000000000000000856106cd565b60006040518061010001604052808473ffffffffffffffffffffffffffffffffffffffff16815260200173c02aaa39b223fe8d0a0e5c4f27ead9083c756cc273ffffffffffffffffffffffffffffffffffffffff168152602001610bb862ffffff1681526020013373ffffffffffffffffffffffffffffffffffffffff168152602001428152602001868152602001858152602001600073ffffffffffffffffffffffffffffffffffffffff1681525090507f000000000000000000000000000000000000000000000000000000000000000073ffffffffffffffffffffffffffffffffffffffff1663db3e2198826040518263ffffffff1660e01b81526004016102c29190610e4c565b602060405180830381600087803b1580156102dc57600080fd5b505af11580156102f0573d6000803e3d6000fd5b505050506040513d601f19601f820116820180604052508101906103149190610a0d565b9150838210156103615761034a837f000000000000000000000000000000000000000000000000000000000000000060006106cd565b6103608333848761035b9190610ec5565b610822565b5b509392505050565b73c02aaa39b223fe8d0a0e5c4f27ead9083c756cc281565b600061038f82333086610575565b6103ba827f0000000000000000000000000000000000000000000000000000000000000000856106cd565b60006040518061010001604052808473ffffffffffffffffffffffffffffffffffffffff16815260200173c02aaa39b223fe8d0a0e5c4f27ead9083c756cc273ffffffffffffffffffffffffffffffffffffffff168152602001610bb862ffffff1681526020013373ffffffffffffffffffffffffffffffffffffffff16815260200142815260200185815260200160008152602001600073ffffffffffffffffffffffffffffffffffffffff1681525090507f000000000000000000000000000000000000000000000000000000000000000073ffffffffffffffffffffffffffffffffffffffff1663414bf389826040518263ffffffff1660e01b81526004016104c69190610e30565b602060405180830381600087803b1580156104e057600080fd5b505af11580156104f4573d6000803e3d6000fd5b505050506040513d601f19601f820116820180604052508101906105189190610a0d565b91505092915050565b73a0b86991c6218b36c1d19d4a2e9eb0ce3606eb4881565b7f000000000000000000000000000000000000000000000000000000000000000081565b736b175474e89094c44da98b954eedeac495271d0f81565b6000808573ffffffffffffffffffffffffffffffffffffffff166323b872dd60e01b8686866040516024016105ac93929190610d55565b604051602081830303815290604052907bffffffffffffffffffffffffffffffffffffffffffffffffffffffff19166020820180517bffffffffffffffffffffffffffffffffffffffffffffffffffffffff83818316178352505050506040516106169190610d23565b6000604051808303816000865af19150503d8060008114610653576040519150601f19603f3d011682016040523d82523d6000602084013e610658565b606091505b5091509150818015610686575060008151148061068557508080602001905181019061068491906109e0565b5b5b6106c5576040517f08c379a00000000000000000000000000000000000000000000000000000000081526004016106bc90610e10565b60405180910390fd5b505050505050565b6000808473ffffffffffffffffffffffffffffffffffffffff1663095ea7b360e01b8585604051602401610702929190610d8c565b604051602081830303815290604052907bffffffffffffffffffffffffffffffffffffffffffffffffffffffff19166020820180517bffffffffffffffffffffffffffffffffffffffffffffffffffffffff838183161783525050505060405161076c9190610d23565b6000604051808303816000865af19150503d80600081146107a9576040519150601f19603f3d011682016040523d82523d6000602084013e6107ae565b606091505b50915091508180156107dc57506000815114806107db5750808060200190518101906107da91906109e0565b5b5b61081b576040517f08c379a000000000000000000000000000000000000000000000000000000000815260040161081290610dd0565b60405180910390fd5b5050505050565b6000808473ffffffffffffffffffffffffffffffffffffffff1663a9059cbb60e01b8585604051602401610857929190610d8c565b604051602081830303815290604052907bffffffffffffffffffffffffffffffffffffffffffffffffffffffff19166020820180517bffffffffffffffffffffffffffffffffffffffffffffffffffffffff83818316178352505050506040516108c19190610d23565b6000604051808303816000865af19150503d80600081146108fe576040519150601f19603f3d011682016040523d82523d6000602084013e610903565b606091505b5091509150818015610931575060008151148061093057508080602001905181019061092f91906109e0565b5b5b610970576040517f08c379a000000000000000000000000000000000000000000000000000000000815260040161096790610df0565b60405180910390fd5b5050505050565b60008135905061098681611068565b92915050565b60008135905061099b8161107f565b92915050565b6000815190506109b081611096565b92915050565b6000813590506109c5816110ad565b92915050565b6000815190506109da816110ad565b92915050565b6000602082840312156109f6576109f5610fe8565b5b6000610a04848285016109a1565b91505092915050565b600060208284031215610a2357610a22610fe8565b5b6000610a31848285016109cb565b91505092915050565b60008060408385031215610a5157610a50610fe8565b5b6000610a5f858286016109b6565b9250506020610a7085828601610977565b9150509250929050565b600080600060608486031215610a9357610a92610fe8565b5b6000610aa1868287016109b6565b9350506020610ab2868287016109b6565b9250506040610ac38682870161098c565b9150509250925092565b610ad681610ef9565b82525050565b610ae581610ef9565b82525050565b6000610af682610e9e565b610b008185610ea9565b9350610b10818560208601610f86565b80840191505092915050565b610b2581610f62565b82525050565b6000610b38600283610eb4565b9150610b4382610fed565b602082019050919050565b6000610b5b600283610eb4565b9150610b6682611016565b602082019050919050565b6000610b7e600383610eb4565b9150610b898261103f565b602082019050919050565b61010082016000820151610bab6000850182610acd565b506020820151610bbe6020850182610acd565b506040820151610bd16040850182610ce7565b506060820151610be46060850182610acd565b506080820151610bf76080850182610d05565b5060a0820151610c0a60a0850182610d05565b5060c0820151610c1d60c0850182610d05565b5060e0820151610c3060e0850182610cd8565b50505050565b61010082016000820151610c4d6000850182610acd565b506020820151610c606020850182610acd565b506040820151610c736040850182610ce7565b506060820151610c866060850182610acd565b506080820151610c996080850182610d05565b5060a0820151610cac60a0850182610d05565b5060c0820151610cbf60c0850182610d05565b5060e0820151610cd260e0850182610cd8565b50505050565b610ce181610f29565b82525050565b610cf081610f49565b82525050565b610cff81610f49565b82525050565b610d0e81610f58565b82525050565b610d1d81610f58565b82525050565b6000610d2f8284610aeb565b915081905092915050565b6000602082019050610d4f6000830184610adc565b92915050565b6000606082019050610d6a6000830186610adc565b610d776020830185610adc565b610d846040830184610d14565b949350505050565b6000604082019050610da16000830185610adc565b610dae6020830184610d14565b9392505050565b6000602082019050610dca6000830184610b1c565b92915050565b60006020820190508181036000830152610de981610b2b565b9050919050565b60006020820190508181036000830152610e0981610b4e565b9050919050565b60006020820190508181036000830152610e2981610b71565b9050919050565b600061010082019050610e466000830184610b94565b92915050565b600061010082019050610e626000830184610c36565b92915050565b6000602082019050610e7d6000830184610cf6565b92915050565b6000602082019050610e986000830184610d14565b92915050565b600081519050919050565b600081905092915050565b600082825260208201905092915050565b6000610ed082610f58565b9150610edb83610f58565b925082821015610eee57610eed610fb9565b5b828203905092915050565b6000610f0482610f29565b9050919050565b6000610f1682610f29565b9050919050565b60008115159050919050565b600073ffffffffffffffffffffffffffffffffffffffff82169050919050565b600062ffffff82169050919050565b6000819050919050565b6000610f6d82610f74565b9050919050565b6000610f7f82610f29565b9050919050565b60005b83811015610fa4578082015181840152602081019050610f89565b83811115610fb3576000848401525b50505050565b7f4e487b7100000000000000000000000000000000000000000000000000000000600052601160045260246000fd5b600080fd5b7f5341000000000000000000000000000000000000000000000000000000000000600082015250565b7f5354000000000000000000000000000000000000000000000000000000000000600082015250565b7f5354460000000000000000000000000000000000000000000000000000000000600082015250565b61107181610ef9565b811461107c57600080fd5b50565b61108881610f0b565b811461109357600080fd5b50565b61109f81610f1d565b81146110aa57600080fd5b50565b6110b681610f58565b81146110c157600080fd5b5056fea26469706673582212203608aea8608e6e7a12369e2153e0cf281951f4f0cd4e47dd5cf23478137ffdff64736f6c63430008060033",
  "immutableReferences": {
    "1664": [
      {
        "length": 32,
        "start": 402
      },
      {
        "length": 32,
        "start": 619
      },
      {
        "length": 32,
        "start": 804
      },
      {
        "length": 32,
        "start": 917
      },
      {
        "length": 32,
        "start": 1135
      },
      {
        "length": 32,
        "start": 1339
      }
    ]
  },
  "source": "pragma solidity ^0.8.6;\npragma abicoder v2;\n// SPDX-License-Identifier: GPL-2.0-or-later\n\nimport '@uniswap/v3-periphery/contracts/interfaces/ISwapRouter.sol';\nimport '@uniswap/v3-periphery/contracts/libraries/TransferHelper.sol';\n\ncontract SwapExamples {\n\n    ISwapRouter public immutable swapRouter;\n\n    // This example swaps DAI/WETH9 for single path swaps and DAI/USDC/WETH9 for multi path swaps.\n\n    // For this example, we will set the pool fee to 0.3%.\n    uint24 public constant poolFee = 3000;\n    address public constant DAI = 0x6B175474E89094C44Da98b954EedeAC495271d0F;\n    address public constant WETH9 = 0xC02aaA39b223FE8D0A0e5C4F27eAD9083C756Cc2;\n    address public constant USDC = 0xA0b86991c6218b36c1d19D4a2e9Eb0cE3606eB48;\n    constructor(ISwapRouter _swapRouter) {\n        swapRouter = _swapRouter;\n    }\n\n    /// @notice swapExactInputSingle swaps a fixed amount of DAI for a maximum possible amount of WETH9\n    /// using the DAI/WETH9 0.3% pool by calling `exactInputSingle` in the swap router.\n    /// @dev The calling address must approve this contract to spend at least `amountIn` worth of its DAI for this function to succeed.\n    /// @param amountIn The exact amount of DAI that will be swapped for WETH9.\n    /// @return amountOut The amount of WETH9 received.\n    function swapExactInputSingle(uint256 amountIn, address _token) external returns (uint256 amountOut) {\n        // msg.sender must approve this contract\n\n        // Transfer the specified amount of DAI to this contract.\n        TransferHelper.safeTransferFrom(_token, msg.sender, address(this), amountIn);\n\n        // Approve the router to spend DAI.\n        TransferHelper.safeApprove(_token, address(swapRouter), amountIn);\n\n        // Naively set amountOutMinimum to 0. In production, use an oracle or other data source to choose a safer value for amountOutMinimum.\n        // We also set the sqrtPriceLimitx96 to be 0 to ensure we swap our exact input amount.\n        ISwapRouter.ExactInputSingleParams memory params =\n            ISwapRouter.ExactInputSingleParams({\n                tokenIn: _token,\n                tokenOut: WETH9,\n                fee: poolFee,\n                recipient: msg.sender,\n                deadline: block.timestamp,\n                amountIn: amountIn,\n                amountOutMinimum: 0,\n                sqrtPriceLimitX96: 0\n            });\n\n        // The call to `exactInputSingle` executes the swap.\n        amountOut = swapRouter.exactInputSingle(params);\n    }\n\n    /// @notice swapExactOutputSingle swaps a minimum possible amount of DAI for a fixed amount of WETH.\n    /// @dev The calling address must approve this contract to spend its DAI for this function to succeed. As the amount of input DAI is variable,\n    /// the calling address will need to approve for a slightly higher amount, anticipating some variance.\n    /// @param amountOut The exact amount of WETH9 to receive from the swap.\n    /// @param amountInMaximum The amount of DAI we are willing to spend to receive the specified amount of WETH9.\n    /// @return amountIn The amount of DAI actually spent in the swap.\n    function swapExactOutputSingle(uint256 amountOut, uint256 amountInMaximum, address payable _token) external returns (uint256 amountIn) {\n        // Transfer the specified amount of DAI to this contract.\n        TransferHelper.safeTransferFrom(_token, msg.sender, address(this), amountInMaximum);\n\n        // Approve the router to spend the specifed `amountInMaximum` of DAI.\n        // In production, you should choose the maximum amount to spend based on oracles or other data sources to acheive a better swap.\n        TransferHelper.safeApprove(_token, address(swapRouter), amountInMaximum);\n\n        ISwapRouter.ExactOutputSingleParams memory params =\n            ISwapRouter.ExactOutputSingleParams({\n                tokenIn: _token,\n                tokenOut: WETH9,\n                fee: poolFee,\n                recipient: msg.sender,\n                deadline: block.timestamp,\n                amountOut: amountOut,\n                amountInMaximum: amountInMaximum,\n                sqrtPriceLimitX96: 0\n            });\n\n        // Executes the swap returning the amountIn needed to spend to receive the desired amountOut.\n        amountIn = swapRouter.exactOutputSingle(params);\n\n        // For exact output swaps, the amountInMaximum may not have all been spent.\n        // If the actual amount spent (amountIn) is less than the specified maximum amount, we must refund the msg.sender and approve the swapRouter to spend 0.\n        if (amountIn < amountInMaximum) {\n            TransferHelper.safeApprove(_token, address(swapRouter), 0);\n            TransferHelper.safeTransfer(_token, msg.sender, amountInMaximum - amountIn);\n        }\n    }\n}",
  "sourcePath": "/Users/Karlo/faks/Web3/challenge1/eth-dapp/truffle project/contracts/3_Swapper.sol",
  "compiler": {
    "name": "solc",
    "version": "0.8.6+commit.11564f7e.Emscripten.clang"
  },
  "schemaVersion": "3.4.1",
  "updatedAt": "2021-08-04T11:54:43.964Z",
  "devdoc": {
    "kind": "dev",
    "methods": {
      "swapExactInputSingle(uint256,address)": {
        "details": "The calling address must approve this contract to spend at least `amountIn` worth of its DAI for this function to succeed.",
        "params": {
          "amountIn": "The exact amount of DAI that will be swapped for WETH9."
        },
        "returns": {
          "amountOut": "The amount of WETH9 received."
        }
      },
      "swapExactOutputSingle(uint256,uint256,address)": {
        "details": "The calling address must approve this contract to spend its DAI for this function to succeed. As the amount of input DAI is variable, the calling address will need to approve for a slightly higher amount, anticipating some variance.",
        "params": {
          "amountInMaximum": "The amount of DAI we are willing to spend to receive the specified amount of WETH9.",
          "amountOut": "The exact amount of WETH9 to receive from the swap."
        },
        "returns": {
          "amountIn": "The amount of DAI actually spent in the swap."
        }
      }
    },
    "version": 1
  },
  "userdoc": {
    "kind": "user",
    "methods": {
      "swapExactInputSingle(uint256,address)": {
        "notice": "swapExactInputSingle swaps a fixed amount of DAI for a maximum possible amount of WETH9 using the DAI/WETH9 0.3% pool by calling `exactInputSingle` in the swap router."
      },
      "swapExactOutputSingle(uint256,uint256,address)": {
        "notice": "swapExactOutputSingle swaps a minimum possible amount of DAI for a fixed amount of WETH."
      }
    },
    "version": 1
  }
}