{
  "contractName": "Organisation",
  "abi": [
    {
      "inputs": [
        {
          "internalType": "address",
          "name": "_nft",
          "type": "address"
        }
      ],
      "stateMutability": "nonpayable",
      "type": "constructor"
    },
    {
      "inputs": [],
      "name": "campaignCounter",
      "outputs": [
        {
          "internalType": "uint256",
          "name": "",
          "type": "uint256"
        }
      ],
      "stateMutability": "view",
      "type": "function"
    },
    {
      "inputs": [
        {
          "internalType": "uint256",
          "name": "",
          "type": "uint256"
        }
      ],
      "name": "campaigns",
      "outputs": [
        {
          "internalType": "contract Campaign",
          "name": "",
          "type": "address"
        }
      ],
      "stateMutability": "view",
      "type": "function"
    },
    {
      "inputs": [
        {
          "internalType": "address",
          "name": "",
          "type": "address"
        }
      ],
      "name": "members",
      "outputs": [
        {
          "internalType": "uint256",
          "name": "",
          "type": "uint256"
        }
      ],
      "stateMutability": "view",
      "type": "function"
    },
    {
      "inputs": [],
      "name": "nft",
      "outputs": [
        {
          "internalType": "address",
          "name": "",
          "type": "address"
        }
      ],
      "stateMutability": "view",
      "type": "function"
    },
    {
      "inputs": [],
      "name": "owner",
      "outputs": [
        {
          "internalType": "address",
          "name": "",
          "type": "address"
        }
      ],
      "stateMutability": "view",
      "type": "function"
    },
    {
      "inputs": [
        {
          "internalType": "string",
          "name": "_name",
          "type": "string"
        },
        {
          "internalType": "uint256",
          "name": "_goal",
          "type": "uint256"
        },
        {
          "internalType": "string",
          "name": "_description",
          "type": "string"
        },
        {
          "internalType": "uint256",
          "name": "_endTimestamp",
          "type": "uint256"
        },
        {
          "internalType": "address payable",
          "name": "_beneficiary",
          "type": "address"
        }
      ],
      "name": "addCampaign",
      "outputs": [],
      "stateMutability": "nonpayable",
      "type": "function"
    },
    {
      "inputs": [
        {
          "internalType": "address",
          "name": "_member",
          "type": "address"
        }
      ],
      "name": "addMember",
      "outputs": [],
      "stateMutability": "nonpayable",
      "type": "function"
    }
  ],
  "bytecode": "0x608060405234801561001057600080fd5b5060405161249938038061249983398181016040528101906100329190610136565b33600160006101000a81548173ffffffffffffffffffffffffffffffffffffffff021916908373ffffffffffffffffffffffffffffffffffffffff160217905550600160026000600160009054906101000a900473ffffffffffffffffffffffffffffffffffffffff1673ffffffffffffffffffffffffffffffffffffffff1673ffffffffffffffffffffffffffffffffffffffff1681526020019081526020016000208190555080600460006101000a81548173ffffffffffffffffffffffffffffffffffffffff021916908373ffffffffffffffffffffffffffffffffffffffff160217905550506101a8565b60008151905061013081610191565b92915050565b60006020828403121561014857600080fd5b600061015684828501610121565b91505092915050565b600061016a82610171565b9050919050565b600073ffffffffffffffffffffffffffffffffffffffff82169050919050565b61019a8161015f565b81146101a557600080fd5b50565b6122e2806101b76000396000f3fe60806040523480156200001157600080fd5b5060043610620000885760003560e01c806347ccca02116200006357806347ccca0214620001195780638da5cb5b146200013b578063ca6d56dc146200015d578063fca604d7146200017d5762000088565b806308ae4b0c146200008d578063141961bc14620000c35780631668ea5414620000f9575b600080fd5b620000ab6004803603810190620000a59190620004ae565b6200019f565b604051620000ba919062000703565b60405180910390f35b620000e16004803603810190620000db91906200058e565b620001b7565b604051620000f09190620006c4565b60405180910390f35b620001176004803603810190620001119190620004da565b620001ea565b005b620001236200034f565b604051620001329190620006a7565b60405180910390f35b6200014562000375565b604051620001549190620006a7565b60405180910390f35b6200017b6004803603810190620001759190620004ae565b6200039b565b005b62000187620003e3565b60405162000196919062000703565b60405180910390f35b60026020528060005260406000206000915090505481565b60036020528060005260406000206000915054906101000a900473ffffffffffffffffffffffffffffffffffffffff1681565b6001600260003373ffffffffffffffffffffffffffffffffffffffff1673ffffffffffffffffffffffffffffffffffffffff16815260200190815260200160002054146200023757600080fd5b4282116200027c576040517f08c379a00000000000000000000000000000000000000000000000000000000081526004016200027390620006e1565b60405180910390fd5b60008081548092919060010191905055506000548585858585600460009054906101000a900473ffffffffffffffffffffffffffffffffffffffff16604051620002c690620003e9565b620002d8979695949392919062000720565b604051809103906000f080158015620002f5573d6000803e3d6000fd5b50600360008054815260200190815260200160002060006101000a81548173ffffffffffffffffffffffffffffffffffffffff021916908373ffffffffffffffffffffffffffffffffffffffff1602179055505050505050565b600460009054906101000a900473ffffffffffffffffffffffffffffffffffffffff1681565b600160009054906101000a900473ffffffffffffffffffffffffffffffffffffffff1681565b6001600260008373ffffffffffffffffffffffffffffffffffffffff1673ffffffffffffffffffffffffffffffffffffffff1681526020019081526020016000208190555050565b60005481565b61195e806200094f83390190565b60006200040e6200040884620007df565b620007ab565b9050828152602081018484840111156200042757600080fd5b62000434848285620008a8565b509392505050565b6000813590506200044d8162000900565b92915050565b60008135905062000464816200091a565b92915050565b600082601f8301126200047c57600080fd5b81356200048e848260208601620003f7565b91505092915050565b600081359050620004a88162000934565b92915050565b600060208284031215620004c157600080fd5b6000620004d1848285016200043c565b91505092915050565b600080600080600060a08688031215620004f357600080fd5b600086013567ffffffffffffffff8111156200050e57600080fd5b6200051c888289016200046a565b95505060206200052f8882890162000497565b945050604086013567ffffffffffffffff8111156200054d57600080fd5b6200055b888289016200046a565b93505060606200056e8882890162000497565b9250506080620005818882890162000453565b9150509295509295909350565b600060208284031215620005a157600080fd5b6000620005b18482850162000497565b91505092915050565b620005c58162000842565b82525050565b620005d6816200082e565b82525050565b620005e78162000880565b82525050565b6000620005fa8262000812565b6200060681856200081d565b935062000618818560208601620008b7565b6200062381620008ef565b840191505092915050565b60006200063d603a836200081d565b91507f4f7267616e69736174696f6e3a3a61646443616d706169676e3a2043616d706160008301527f69676e206d75737420656e6420696e20746865206675747572650000000000006020830152604082019050919050565b620006a18162000876565b82525050565b6000602082019050620006be6000830184620005cb565b92915050565b6000602082019050620006db6000830184620005dc565b92915050565b60006020820190508181036000830152620006fc816200062e565b9050919050565b60006020820190506200071a600083018462000696565b92915050565b600060e08201905062000737600083018a62000696565b81810360208301526200074b8189620005ed565b90506200075c604083018862000696565b8181036060830152620007708187620005ed565b905062000781608083018662000696565b6200079060a0830185620005ba565b6200079f60c0830184620005cb565b98975050505050505050565b6000604051905081810181811067ffffffffffffffff82111715620007d557620007d4620008ed565b5b8060405250919050565b600067ffffffffffffffff821115620007fd57620007fc620008ed565b5b601f19601f8301169050602081019050919050565b600081519050919050565b600082825260208201905092915050565b60006200083b8262000856565b9050919050565b60006200084f8262000856565b9050919050565b600073ffffffffffffffffffffffffffffffffffffffff82169050919050565b6000819050919050565b60006200088d8262000894565b9050919050565b6000620008a18262000856565b9050919050565b82818337600083830152505050565b60005b83811015620008d7578082015181840152602081019050620008ba565b83811115620008e7576000848401525b50505050565bfe5b6000601f19601f8301169050919050565b6200090b816200082e565b81146200091757600080fd5b50565b620009258162000842565b81146200093157600080fd5b50565b6200093f8162000876565b81146200094b57600080fd5b5056fe60806040526000600460146101000a81548160ff0219169083151502179055503480156200002c57600080fd5b506040516200195e3803806200195e83398181016040528101906200005291906200029d565b8660008190555085600190805190602001906200007192919062000130565b5060006002819055508460038190555083600590805190602001906200009992919062000130565b5081600460006101000a81548173ffffffffffffffffffffffffffffffffffffffff021916908373ffffffffffffffffffffffffffffffffffffffff1602179055508260088190555080600a60006101000a81548173ffffffffffffffffffffffffffffffffffffffff021916908373ffffffffffffffffffffffffffffffffffffffff16021790555050505050505050620004bb565b828054600181600116156101000203166002900490600052602060002090601f016020900481019282620001685760008555620001b4565b82601f106200018357805160ff1916838001178555620001b4565b82800160010185558215620001b4579182015b82811115620001b357825182559160200191906001019062000196565b5b509050620001c39190620001c7565b5090565b5b80821115620001e2576000816000905550600101620001c8565b5090565b6000620001fd620001f784620003b0565b6200037c565b9050828152602081018484840111156200021657600080fd5b6200022384828562000435565b509392505050565b6000815190506200023c816200046d565b92915050565b600081519050620002538162000487565b92915050565b600082601f8301126200026b57600080fd5b81516200027d848260208601620001e6565b91505092915050565b6000815190506200029781620004a1565b92915050565b600080600080600080600060e0888a031215620002b957600080fd5b6000620002c98a828b0162000286565b975050602088015167ffffffffffffffff811115620002e757600080fd5b620002f58a828b0162000259565b9650506040620003088a828b0162000286565b955050606088015167ffffffffffffffff8111156200032657600080fd5b620003348a828b0162000259565b9450506080620003478a828b0162000286565b93505060a06200035a8a828b0162000242565b92505060c06200036d8a828b016200022b565b91505092959891949750929550565b6000604051905081810181811067ffffffffffffffff82111715620003a657620003a56200046b565b5b8060405250919050565b600067ffffffffffffffff821115620003ce57620003cd6200046b565b5b601f19601f8301169050602081019050919050565b6000620003f0826200040b565b9050919050565b600062000404826200040b565b9050919050565b600073ffffffffffffffffffffffffffffffffffffffff82169050919050565b6000819050919050565b60005b838110156200045557808201518184015260208101905062000438565b8381111562000465576000848401525b50505050565bfe5b6200047881620003e3565b81146200048457600080fd5b50565b6200049281620003f7565b81146200049e57600080fd5b50565b620004ac816200042b565b8114620004b857600080fd5b50565b61149380620004cb6000396000f3fe6080604052600436106100c25760003560e01c806351906bb01161007f578063af640d0f11610059578063af640d0f1461024d578063bb66834e14610278578063bef4876b146102a3578063dec97828146102ce576100c2565b806351906bb0146101cc5780637284e416146101f75780638da5cb5b14610222576100c2565b806306fdde03146100c75780631653441c146100f25780631714f2e0146101225780631eaa1c8b1461014d5780632fdef9c31461016457806340193883146101a1575b600080fd5b3480156100d357600080fd5b506100dc6102f9565b6040516100e99190611113565b60405180910390f35b61010c60048036038101906101079190610bc5565b610397565b60405161011991906110dd565b60405180910390f35b34801561012e57600080fd5b50610137610700565b60405161014491906110f8565b60405180910390f35b34801561015957600080fd5b50610162610726565b005b34801561017057600080fd5b5061018b60048036038101906101869190610c31565b610865565b6040516101989190611113565b60405180910390f35b3480156101ad57600080fd5b506101b6610921565b6040516101c391906111d5565b60405180910390f35b3480156101d857600080fd5b506101e1610927565b6040516101ee91906111d5565b60405180910390f35b34801561020357600080fd5b5061020c61092d565b6040516102199190611113565b60405180910390f35b34801561022e57600080fd5b506102376109cb565b60405161024491906110c2565b60405180910390f35b34801561025957600080fd5b506102626109f1565b60405161026f91906111d5565b60405180910390f35b34801561028457600080fd5b5061028d6109f7565b60405161029a91906111d5565b60405180910390f35b3480156102af57600080fd5b506102b86109fd565b6040516102c591906110dd565b60405180910390f35b3480156102da57600080fd5b506102e3610a10565b6040516102f091906111d5565b60405180910390f35b60018054600181600116156101000203166002900480601f01602080910402602001604051908101604052809291908181526020018280546001816001161561010002031660029004801561038f5780601f106103645761010080835404028352916020019161038f565b820191906000526020600020905b81548152906001019060200180831161037257829003601f168201915b505050505081565b6000343373ffffffffffffffffffffffffffffffffffffffff163110156103f3576040517f08c379a00000000000000000000000000000000000000000000000000000000081526004016103ea90611155565b60405180910390fd5b4260085411610437576040517f08c379a000000000000000000000000000000000000000000000000000000000815260040161042e90611195565b60405180910390fd5b60035434600254011115610480576040517f08c379a000000000000000000000000000000000000000000000000000000000815260040161047790611135565b60405180910390fd5b346002600082825401925050819055506006839080600181540180825580915050600190039060005260206000200160009091909190915090805190602001906104cb929190610a88565b506007600081548092919060010191905055506003546002541415610556577f314217ebdf17981d4a26c0519c8810c5b95359d28c649f331ae684df59190db260025460035460005460016006604051610529959493929190611243565b60405180910390a16001600460146101000a81548160ff021916908315150217905550610554610a16565b505b7f603e3549dc91f5ea5c20e81f07db1876962790e50a9c3d3bbdc07821b0b045cd3460005460018660405161058e94939291906111f0565b60405180910390a160001515600960003373ffffffffffffffffffffffffffffffffffffffff1673ffffffffffffffffffffffffffffffffffffffff16815260200190815260200160002060009054906101000a900460ff16151514156106f657600a60009054906101000a900473ffffffffffffffffffffffffffffffffffffffff1673ffffffffffffffffffffffffffffffffffffffff16636eff88ff836040518263ffffffff1660e01b815260040161064a9190611113565b602060405180830381600087803b15801561066457600080fd5b505af1158015610678573d6000803e3d6000fd5b505050506040513d601f19601f8201168201806040525081019061069c9190610c5a565b506001600960003373ffffffffffffffffffffffffffffffffffffffff1673ffffffffffffffffffffffffffffffffffffffff16815260200190815260200160002060006101000a81548160ff0219169083151502179055505b6001905092915050565b600a60009054906101000a900473ffffffffffffffffffffffffffffffffffffffff1681565b426008541061076a576040517f08c379a0000000000000000000000000000000000000000000000000000000008152600401610761906111b5565b60405180910390fd5b600460009054906101000a900473ffffffffffffffffffffffffffffffffffffffff1673ffffffffffffffffffffffffffffffffffffffff163373ffffffffffffffffffffffffffffffffffffffff16146107fa576040517f08c379a00000000000000000000000000000000000000000000000000000000081526004016107f190611175565b60405180910390fd5b600460009054906101000a900473ffffffffffffffffffffffffffffffffffffffff1673ffffffffffffffffffffffffffffffffffffffff166108fc479081150290604051600060405180830381858888f19350505050158015610862573d6000803e3d6000fd5b50565b6006818154811061087557600080fd5b906000526020600020016000915090508054600181600116156101000203166002900480601f0160208091040260200160405190810160405280929190818152602001828054600181600116156101000203166002900480156109195780601f106108ee57610100808354040283529160200191610919565b820191906000526020600020905b8154815290600101906020018083116108fc57829003601f168201915b505050505081565b60035481565b60085481565b60058054600181600116156101000203166002900480601f0160208091040260200160405190810160405280929190818152602001828054600181600116156101000203166002900480156109c35780601f10610998576101008083540402835291602001916109c3565b820191906000526020600020905b8154815290600101906020018083116109a657829003601f168201915b505050505081565b600460009054906101000a900473ffffffffffffffffffffffffffffffffffffffff1681565b60005481565b60025481565b600460149054906101000a900460ff1681565b60075481565b6000600460009054906101000a900473ffffffffffffffffffffffffffffffffffffffff1673ffffffffffffffffffffffffffffffffffffffff166108fc479081150290604051600060405180830381858888f19350505050158015610a80573d6000803e3d6000fd5b506001905090565b828054600181600116156101000203166002900490600052602060002090601f016020900481019282610abe5760008555610b05565b82601f10610ad757805160ff1916838001178555610b05565b82800160010185558215610b05579182015b82811115610b04578251825591602001919060010190610ae9565b5b509050610b129190610b16565b5090565b5b80821115610b2f576000816000905550600101610b17565b5090565b6000610b46610b41846112d5565b6112a4565b905082815260208101848484011115610b5e57600080fd5b610b698482856113f1565b509392505050565b600082601f830112610b8257600080fd5b8135610b92848260208601610b33565b91505092915050565b600081359050610baa81611446565b92915050565b600081519050610bbf81611446565b92915050565b60008060408385031215610bd857600080fd5b600083013567ffffffffffffffff811115610bf257600080fd5b610bfe85828601610b71565b925050602083013567ffffffffffffffff811115610c1b57600080fd5b610c2785828601610b71565b9150509250929050565b600060208284031215610c4357600080fd5b6000610c5184828501610b9b565b91505092915050565b600060208284031215610c6c57600080fd5b6000610c7a84828501610bb0565b91505092915050565b6000610c8f8383610d71565b905092915050565b610ca081611385565b82525050565b6000610cb18261132f565b610cbb8185611352565b935083602082028501610ccd85611305565b8060005b85811015610d0857848403895281610ce98582610c83565b9450610cf483611345565b925060208a01995050600181019050610cd1565b50829750879550505050505092915050565b610d2381611397565b82525050565b610d32816113cd565b82525050565b6000610d438261133a565b610d4d8185611374565b9350610d5d818560208601611400565b610d6681611435565b840191505092915050565b600081546001811660008114610d8e5760018114610db457610df8565b607f6002830416610d9f8187611363565b955060ff198316865260208601935050610df8565b60028204610dc28187611363565b9550610dcd8561131a565b60005b82811015610def57815481890152600182019150602081019050610dd0565b80880195505050505b505092915050565b600081546001811660008114610e1d5760018114610e4357610e87565b607f6002830416610e2e8187611374565b955060ff198316865260208601935050610e87565b60028204610e518187611374565b9550610e5c8561131a565b60005b82811015610e7e57815481890152600182019150602081019050610e5f565b80880195505050505b505092915050565b6000610e9c602283611374565b91507f43616d706169676e3a3a646f6e6174653a20486172642063617020726561636860008301527f65640000000000000000000000000000000000000000000000000000000000006020830152604082019050919050565b6000610f02602383611374565b91507f43616d706169676e3a3a646f6e6174653a20496e737566696369656e7420667560008301527f6e647300000000000000000000000000000000000000000000000000000000006020830152604082019050919050565b6000610f68604683611374565b91507f63616d706169676e3a3a6578706972656457697468647261773a204f6e6c792060008301527f7468652062656e65666963696172792063616e2077697468647261772074686560208301527f2066756e647300000000000000000000000000000000000000000000000000006040830152606082019050919050565b6000610ff4603483611374565b91507f43616d706169676e3a3a646f6e6174653a20546869732063616d706169676e2060008301527f68617320616c72656164792066696e69736865640000000000000000000000006020830152604082019050919050565b600061105a603883611374565b91507f43616d706169676e3a3a6578706972656457697468647261773a20546869732060008301527f63616d706169676e206973207374696c6c2061637469766500000000000000006020830152604082019050919050565b6110bc816113c3565b82525050565b60006020820190506110d76000830184610c97565b92915050565b60006020820190506110f26000830184610d1a565b92915050565b600060208201905061110d6000830184610d29565b92915050565b6000602082019050818103600083015261112d8184610d38565b905092915050565b6000602082019050818103600083015261114e81610e8f565b9050919050565b6000602082019050818103600083015261116e81610ef5565b9050919050565b6000602082019050818103600083015261118e81610f5b565b9050919050565b600060208201905081810360008301526111ae81610fe7565b9050919050565b600060208201905081810360008301526111ce8161104d565b9050919050565b60006020820190506111ea60008301846110b3565b92915050565b600060808201905061120560008301876110b3565b61121260208301866110b3565b81810360408301526112248185610e00565b905081810360608301526112388184610d38565b905095945050505050565b600060a08201905061125860008301886110b3565b61126560208301876110b3565b61127260408301866110b3565b81810360608301526112848185610e00565b905081810360808301526112988184610ca6565b90509695505050505050565b6000604051905081810181811067ffffffffffffffff821117156112cb576112ca611433565b5b8060405250919050565b600067ffffffffffffffff8211156112f0576112ef611433565b5b601f19601f8301169050602081019050919050565b60008190508160005260206000209050919050565b60008190508160005260206000209050919050565b600081549050919050565b600081519050919050565b6000600182019050919050565b600082825260208201905092915050565b600082825260208201905092915050565b600082825260208201905092915050565b6000611390826113a3565b9050919050565b60008115159050919050565b600073ffffffffffffffffffffffffffffffffffffffff82169050919050565b6000819050919050565b60006113d8826113df565b9050919050565b60006113ea826113a3565b9050919050565b82818337600083830152505050565b60005b8381101561141e578082015181840152602081019050611403565b8381111561142d576000848401525b50505050565bfe5b6000601f19601f8301169050919050565b61144f816113c3565b811461145a57600080fd5b5056fea2646970667358221220b8dda290074215038e7d51729625f52410e02fcea103a304eab8e6f35500de8b64736f6c63430007060033a26469706673582212207829f6549e826c5dcbd497afc0198facbc209bcbffc426ddd9ae3ecf5324cfc464736f6c63430007060033",
  "immutableReferences": {},
  "source": "pragma solidity 0.7.6;\npragma abicoder v2;\nimport \"./1_Campaign.sol\";\nimport \"@openzeppelin/contracts/access/Ownable.sol\";\nimport \"@openzeppelin/contracts/math/SafeMath.sol\";\nimport \"@openzeppelin/contracts/token/ERC20/SafeERC20.sol\";\nimport \"@openzeppelin/contracts/token/ERC20/IERC20.sol\";\n\n// SPDX-License-Identifier: MIT\n\ncontract Organisation {\n    \n        \n    using SafeMath for uint;\n    using SafeERC20 for IERC20;\n    \n    uint public campaignCounter;\n    address public owner;\n    mapping(address => uint) public members;\n    mapping(uint => Campaign) public campaigns;\n    address public nft;\n    constructor(address _nft){\n        owner = msg.sender;\n        members[owner] = 1;\n        nft = _nft;\n    }\n    \n    \n    function addCampaign(string memory _name, uint _goal, string memory _description, uint _endTimestamp, address payable _beneficiary) public {\n        require(members[msg.sender] == 1);\n        require(_endTimestamp > block.timestamp, \"Organisation::addCampaign: Campaign must end in the future\");\n        campaignCounter ++;\n        campaigns[campaignCounter] = new Campaign(campaignCounter, _name, _goal, _description, _endTimestamp, _beneficiary, nft);\n    }\n    \n    function addMember(address _member) public {\n        members[_member] = 1;\n    }\n}",
  "sourcePath": "/Users/Karlo/faks/Web3/challenge3/eth-dapp/truffle project/contracts/2_Organisation.sol",
  "compiler": {
    "name": "solc",
    "version": "0.7.6+commit.7338295f.Emscripten.clang"
  },
  "schemaVersion": "3.4.1",
  "updatedAt": "2021-08-28T15:24:42.490Z",
  "devdoc": {
    "kind": "dev",
    "methods": {},
    "version": 1
  },
  "userdoc": {
    "kind": "user",
    "methods": {},
    "version": 1
  }
}