{
  "contractName": "SimpleNFT",
  "abi": [
    {
      "inputs": [],
      "stateMutability": "nonpayable",
      "type": "constructor"
    },
    {
      "anonymous": false,
      "inputs": [
        {
          "indexed": true,
          "internalType": "address",
          "name": "owner",
          "type": "address"
        },
        {
          "indexed": true,
          "internalType": "address",
          "name": "approved",
          "type": "address"
        },
        {
          "indexed": true,
          "internalType": "uint256",
          "name": "tokenId",
          "type": "uint256"
        }
      ],
      "name": "Approval",
      "type": "event"
    },
    {
      "anonymous": false,
      "inputs": [
        {
          "indexed": true,
          "internalType": "address",
          "name": "owner",
          "type": "address"
        },
        {
          "indexed": true,
          "internalType": "address",
          "name": "operator",
          "type": "address"
        },
        {
          "indexed": false,
          "internalType": "bool",
          "name": "approved",
          "type": "bool"
        }
      ],
      "name": "ApprovalForAll",
      "type": "event"
    },
    {
      "anonymous": false,
      "inputs": [
        {
          "indexed": true,
          "internalType": "address",
          "name": "previousOwner",
          "type": "address"
        },
        {
          "indexed": true,
          "internalType": "address",
          "name": "newOwner",
          "type": "address"
        }
      ],
      "name": "OwnershipTransferred",
      "type": "event"
    },
    {
      "anonymous": false,
      "inputs": [
        {
          "indexed": true,
          "internalType": "address",
          "name": "from",
          "type": "address"
        },
        {
          "indexed": true,
          "internalType": "address",
          "name": "to",
          "type": "address"
        },
        {
          "indexed": true,
          "internalType": "uint256",
          "name": "tokenId",
          "type": "uint256"
        }
      ],
      "name": "Transfer",
      "type": "event"
    },
    {
      "inputs": [
        {
          "internalType": "address",
          "name": "to",
          "type": "address"
        },
        {
          "internalType": "uint256",
          "name": "tokenId",
          "type": "uint256"
        }
      ],
      "name": "approve",
      "outputs": [],
      "stateMutability": "nonpayable",
      "type": "function"
    },
    {
      "inputs": [
        {
          "internalType": "address",
          "name": "owner",
          "type": "address"
        }
      ],
      "name": "balanceOf",
      "outputs": [
        {
          "internalType": "uint256",
          "name": "",
          "type": "uint256"
        }
      ],
      "stateMutability": "view",
      "type": "function"
    },
    {
      "inputs": [],
      "name": "baseURI",
      "outputs": [
        {
          "internalType": "string",
          "name": "",
          "type": "string"
        }
      ],
      "stateMutability": "view",
      "type": "function"
    },
    {
      "inputs": [
        {
          "internalType": "uint256",
          "name": "tokenId",
          "type": "uint256"
        }
      ],
      "name": "getApproved",
      "outputs": [
        {
          "internalType": "address",
          "name": "",
          "type": "address"
        }
      ],
      "stateMutability": "view",
      "type": "function"
    },
    {
      "inputs": [
        {
          "internalType": "address",
          "name": "owner",
          "type": "address"
        },
        {
          "internalType": "address",
          "name": "operator",
          "type": "address"
        }
      ],
      "name": "isApprovedForAll",
      "outputs": [
        {
          "internalType": "bool",
          "name": "",
          "type": "bool"
        }
      ],
      "stateMutability": "view",
      "type": "function"
    },
    {
      "inputs": [],
      "name": "name",
      "outputs": [
        {
          "internalType": "string",
          "name": "",
          "type": "string"
        }
      ],
      "stateMutability": "view",
      "type": "function"
    },
    {
      "inputs": [],
      "name": "owner",
      "outputs": [
        {
          "internalType": "address",
          "name": "",
          "type": "address"
        }
      ],
      "stateMutability": "view",
      "type": "function"
    },
    {
      "inputs": [
        {
          "internalType": "uint256",
          "name": "tokenId",
          "type": "uint256"
        }
      ],
      "name": "ownerOf",
      "outputs": [
        {
          "internalType": "address",
          "name": "",
          "type": "address"
        }
      ],
      "stateMutability": "view",
      "type": "function"
    },
    {
      "inputs": [],
      "name": "renounceOwnership",
      "outputs": [],
      "stateMutability": "nonpayable",
      "type": "function"
    },
    {
      "inputs": [
        {
          "internalType": "address",
          "name": "from",
          "type": "address"
        },
        {
          "internalType": "address",
          "name": "to",
          "type": "address"
        },
        {
          "internalType": "uint256",
          "name": "tokenId",
          "type": "uint256"
        }
      ],
      "name": "safeTransferFrom",
      "outputs": [],
      "stateMutability": "nonpayable",
      "type": "function"
    },
    {
      "inputs": [
        {
          "internalType": "address",
          "name": "from",
          "type": "address"
        },
        {
          "internalType": "address",
          "name": "to",
          "type": "address"
        },
        {
          "internalType": "uint256",
          "name": "tokenId",
          "type": "uint256"
        },
        {
          "internalType": "bytes",
          "name": "_data",
          "type": "bytes"
        }
      ],
      "name": "safeTransferFrom",
      "outputs": [],
      "stateMutability": "nonpayable",
      "type": "function"
    },
    {
      "inputs": [
        {
          "internalType": "address",
          "name": "operator",
          "type": "address"
        },
        {
          "internalType": "bool",
          "name": "approved",
          "type": "bool"
        }
      ],
      "name": "setApprovalForAll",
      "outputs": [],
      "stateMutability": "nonpayable",
      "type": "function"
    },
    {
      "inputs": [
        {
          "internalType": "bytes4",
          "name": "interfaceId",
          "type": "bytes4"
        }
      ],
      "name": "supportsInterface",
      "outputs": [
        {
          "internalType": "bool",
          "name": "",
          "type": "bool"
        }
      ],
      "stateMutability": "view",
      "type": "function"
    },
    {
      "inputs": [],
      "name": "symbol",
      "outputs": [
        {
          "internalType": "string",
          "name": "",
          "type": "string"
        }
      ],
      "stateMutability": "view",
      "type": "function"
    },
    {
      "inputs": [
        {
          "internalType": "uint256",
          "name": "index",
          "type": "uint256"
        }
      ],
      "name": "tokenByIndex",
      "outputs": [
        {
          "internalType": "uint256",
          "name": "",
          "type": "uint256"
        }
      ],
      "stateMutability": "view",
      "type": "function"
    },
    {
      "inputs": [],
      "name": "tokenCounter",
      "outputs": [
        {
          "internalType": "uint256",
          "name": "",
          "type": "uint256"
        }
      ],
      "stateMutability": "view",
      "type": "function"
    },
    {
      "inputs": [
        {
          "internalType": "address",
          "name": "owner",
          "type": "address"
        },
        {
          "internalType": "uint256",
          "name": "index",
          "type": "uint256"
        }
      ],
      "name": "tokenOfOwnerByIndex",
      "outputs": [
        {
          "internalType": "uint256",
          "name": "",
          "type": "uint256"
        }
      ],
      "stateMutability": "view",
      "type": "function"
    },
    {
      "inputs": [
        {
          "internalType": "uint256",
          "name": "tokenId",
          "type": "uint256"
        }
      ],
      "name": "tokenURI",
      "outputs": [
        {
          "internalType": "string",
          "name": "",
          "type": "string"
        }
      ],
      "stateMutability": "view",
      "type": "function"
    },
    {
      "inputs": [],
      "name": "totalSupply",
      "outputs": [
        {
          "internalType": "uint256",
          "name": "",
          "type": "uint256"
        }
      ],
      "stateMutability": "view",
      "type": "function"
    },
    {
      "inputs": [
        {
          "internalType": "address",
          "name": "from",
          "type": "address"
        },
        {
          "internalType": "address",
          "name": "to",
          "type": "address"
        },
        {
          "internalType": "uint256",
          "name": "tokenId",
          "type": "uint256"
        }
      ],
      "name": "transferFrom",
      "outputs": [],
      "stateMutability": "nonpayable",
      "type": "function"
    },
    {
      "inputs": [
        {
          "internalType": "address",
          "name": "newOwner",
          "type": "address"
        }
      ],
      "name": "transferOwnership",
      "outputs": [],
      "stateMutability": "nonpayable",
      "type": "function"
    },
    {
      "inputs": [
        {
          "internalType": "string",
          "name": "baseURI_",
          "type": "string"
        }
      ],
      "name": "setBaseURI",
      "outputs": [],
      "stateMutability": "nonpayable",
      "type": "function"
    },
    {
      "inputs": [
        {
          "internalType": "string",
          "name": "tokenURI",
          "type": "string"
        }
      ],
      "name": "createSimpleNFT",
      "outputs": [
        {
          "internalType": "uint256",
          "name": "",
          "type": "uint256"
        }
      ],
      "stateMutability": "nonpayable",
      "type": "function"
    }
  ],
  "bytecode": "0x60806040523480156200001157600080fd5b506040518060400160405280600381526020017f456c6600000000000000000000000000000000000000000000000000000000008152506040518060400160405280600381526020017f454c460000000000000000000000000000000000000000000000000000000000815250620000966301ffc9a760e01b620001d160201b60201c565b8160069080519060200190620000ae929190620002e2565b508060079080519060200190620000c7929190620002e2565b50620000e06380ac58cd60e01b620001d160201b60201c565b620000f8635b5e139f60e01b620001d160201b60201c565b6200011063780e9d6360e01b620001d160201b60201c565b5050600062000124620002da60201b60201c565b905080600a60006101000a81548173ffffffffffffffffffffffffffffffffffffffff021916908373ffffffffffffffffffffffffffffffffffffffff1602179055508073ffffffffffffffffffffffffffffffffffffffff16600073ffffffffffffffffffffffffffffffffffffffff167f8be0079c531659141344cd1fd0a4f28419497f9722a3daafe3b4186f6b6457e060405160405180910390a3506000600b8190555062000398565b63ffffffff60e01b817bffffffffffffffffffffffffffffffffffffffffffffffffffffffff191614156200026e576040517f08c379a000000000000000000000000000000000000000000000000000000000815260040180806020018281038252601c8152602001807f4552433136353a20696e76616c696420696e746572666163652069640000000081525060200191505060405180910390fd5b6001600080837bffffffffffffffffffffffffffffffffffffffffffffffffffffffff19167bffffffffffffffffffffffffffffffffffffffffffffffffffffffff1916815260200190815260200160002060006101000a81548160ff02191690831515021790555050565b600033905090565b828054600181600116156101000203166002900490600052602060002090601f0160209004810192826200031a576000855562000366565b82601f106200033557805160ff191683800117855562000366565b8280016001018555821562000366579182015b828111156200036557825182559160200191906001019062000348565b5b50905062000375919062000379565b5090565b5b80821115620003945760008160009055506001016200037a565b5090565b61316a80620003a86000396000f3fe608060405234801561001057600080fd5b506004361061014d5760003560e01c80636c0360eb116100c3578063a22cb4651161007c578063a22cb465146103b2578063b88d4fde146103ce578063c87b56dd146103ea578063d082e3811461041a578063e985e9c514610438578063f2fde38b146104685761014d565b80636c0360eb146102ee5780636eff88ff1461030c57806370a082311461033c578063715018a61461036c5780638da5cb5b1461037657806395d89b41146103945761014d565b806323b872dd1161011557806323b872dd1461020a5780632f745c591461022657806342842e0e146102565780634f6ccce71461027257806355f804b3146102a25780636352211e146102be5761014d565b806301ffc9a71461015257806306fdde0314610182578063081812fc146101a0578063095ea7b3146101d057806318160ddd146101ec575b600080fd5b61016c60048036038101906101679190612b23565b610484565b6040516101799190612c9d565b60405180910390f35b61018a6104eb565b6040516101979190612cb8565b60405180910390f35b6101ba60048036038101906101b59190612b8d565b61058d565b6040516101c79190612c82565b60405180910390f35b6101ea60048036038101906101e59190612ae7565b610628565b005b6101f461076c565b6040516102019190612cfa565b60405180910390f35b610224600480360381019061021f91906129e1565b61077d565b005b610240600480360381019061023b9190612ae7565b6107f3565b60405161024d9190612cfa565b60405180910390f35b610270600480360381019061026b91906129e1565b61084e565b005b61028c60048036038101906102879190612b8d565b61086e565b6040516102999190612cfa565b60405180910390f35b6102bc60048036038101906102b79190612b4c565b610891565b005b6102d860048036038101906102d39190612b8d565b6108ab565b6040516102e59190612c82565b60405180910390f35b6102f66108e2565b6040516103039190612cb8565b60405180910390f35b61032660048036038101906103219190612b4c565b610984565b6040516103339190612cfa565b60405180910390f35b6103566004803603810190610351919061297c565b6109b5565b6040516103639190612cfa565b60405180910390f35b610374610a8a565b005b61037e610c15565b60405161038b9190612c82565b60405180910390f35b61039c610c3f565b6040516103a99190612cb8565b60405180910390f35b6103cc60048036038101906103c79190612aab565b610ce1565b005b6103e860048036038101906103e39190612a30565b610e97565b005b61040460048036038101906103ff9190612b8d565b610f0f565b6040516104119190612cb8565b60405180910390f35b6104226111f8565b60405161042f9190612cfa565b60405180910390f35b610452600480360381019061044d91906129a5565b6111fe565b60405161045f9190612c9d565b60405180910390f35b610482600480360381019061047d919061297c565b611292565b005b6000806000837bffffffffffffffffffffffffffffffffffffffffffffffffffffffff19167bffffffffffffffffffffffffffffffffffffffffffffffffffffffff1916815260200190815260200160002060009054906101000a900460ff169050919050565b606060068054600181600116156101000203166002900480601f0160208091040260200160405190810160405280929190818152602001828054600181600116156101000203166002900480156105835780601f1061055857610100808354040283529160200191610583565b820191906000526020600020905b81548152906001019060200180831161056657829003601f168201915b5050505050905090565b6000610598826114a2565b6105ed576040517f08c379a000000000000000000000000000000000000000000000000000000000815260040180806020018281038252602c81526020018061305f602c913960400191505060405180910390fd5b6004600083815260200190815260200160002060009054906101000a900473ffffffffffffffffffffffffffffffffffffffff169050919050565b6000610633826108ab565b90508073ffffffffffffffffffffffffffffffffffffffff168373ffffffffffffffffffffffffffffffffffffffff1614156106ba576040517f08c379a00000000000000000000000000000000000000000000000000000000081526004018080602001828103825260218152602001806130e36021913960400191505060405180910390fd5b8073ffffffffffffffffffffffffffffffffffffffff166106d96114bf565b73ffffffffffffffffffffffffffffffffffffffff1614806107085750610707816107026114bf565b6111fe565b5b61075d576040517f08c379a0000000000000000000000000000000000000000000000000000000008152600401808060200182810382526038815260200180612fb26038913960400191505060405180910390fd5b61076783836114c7565b505050565b60006107786002611580565b905090565b61078e6107886114bf565b82611595565b6107e3576040517f08c379a00000000000000000000000000000000000000000000000000000000081526004018080602001828103825260318152602001806131046031913960400191505060405180910390fd5b6107ee838383611689565b505050565b600061084682600160008673ffffffffffffffffffffffffffffffffffffffff1673ffffffffffffffffffffffffffffffffffffffff1681526020019081526020016000206118cc90919063ffffffff16565b905092915050565b61086983838360405180602001604052806000815250610e97565b505050565b6000806108858360026118e690919063ffffffff16565b50905080915050919050565b80600d90805190602001906108a79291906127ad565b5050565b60006108db826040518060600160405280602981526020016130146029913960026119129092919063ffffffff16565b9050919050565b606060098054600181600116156101000203166002900480601f01602080910402602001604051908101604052809291908181526020018280546001816001161561010002031660029004801561097a5780601f1061094f5761010080835404028352916020019161097a565b820191906000526020600020905b81548152906001019060200180831161095d57829003601f168201915b5050505050905090565b600080600b5490506109963382611931565b6109a0818461194f565b6001600b5401600b8190555080915050919050565b60008073ffffffffffffffffffffffffffffffffffffffff168273ffffffffffffffffffffffffffffffffffffffff161415610a3c576040517f08c379a000000000000000000000000000000000000000000000000000000000815260040180806020018281038252602a815260200180612fea602a913960400191505060405180910390fd5b610a83600160008473ffffffffffffffffffffffffffffffffffffffff1673ffffffffffffffffffffffffffffffffffffffff1681526020019081526020016000206119c3565b9050919050565b610a926114bf565b73ffffffffffffffffffffffffffffffffffffffff16600a60009054906101000a900473ffffffffffffffffffffffffffffffffffffffff1673ffffffffffffffffffffffffffffffffffffffff1614610b54576040517f08c379a00000000000000000000000000000000000000000000000000000000081526004018080602001828103825260208152602001807f4f776e61626c653a2063616c6c6572206973206e6f7420746865206f776e657281525060200191505060405180910390fd5b600073ffffffffffffffffffffffffffffffffffffffff16600a60009054906101000a900473ffffffffffffffffffffffffffffffffffffffff1673ffffffffffffffffffffffffffffffffffffffff167f8be0079c531659141344cd1fd0a4f28419497f9722a3daafe3b4186f6b6457e060405160405180910390a36000600a60006101000a81548173ffffffffffffffffffffffffffffffffffffffff021916908373ffffffffffffffffffffffffffffffffffffffff160217905550565b6000600a60009054906101000a900473ffffffffffffffffffffffffffffffffffffffff16905090565b606060078054600181600116156101000203166002900480601f016020809104026020016040519081016040528092919081815260200182805460018160011615610100020316600290048015610cd75780601f10610cac57610100808354040283529160200191610cd7565b820191906000526020600020905b815481529060010190602001808311610cba57829003601f168201915b5050505050905090565b610ce96114bf565b73ffffffffffffffffffffffffffffffffffffffff168273ffffffffffffffffffffffffffffffffffffffff161415610d8a576040517f08c379a00000000000000000000000000000000000000000000000000000000081526004018080602001828103825260198152602001807f4552433732313a20617070726f766520746f2063616c6c65720000000000000081525060200191505060405180910390fd5b8060056000610d976114bf565b73ffffffffffffffffffffffffffffffffffffffff1673ffffffffffffffffffffffffffffffffffffffff16815260200190815260200160002060008473ffffffffffffffffffffffffffffffffffffffff1673ffffffffffffffffffffffffffffffffffffffff16815260200190815260200160002060006101000a81548160ff0219169083151502179055508173ffffffffffffffffffffffffffffffffffffffff16610e446114bf565b73ffffffffffffffffffffffffffffffffffffffff167f17307eab39ab6107e8899845ad3d59bd9653f200f220920489ca2b5937696c318360405180821515815260200191505060405180910390a35050565b610ea8610ea26114bf565b83611595565b610efd576040517f08c379a00000000000000000000000000000000000000000000000000000000081526004018080602001828103825260318152602001806131046031913960400191505060405180910390fd5b610f09848484846119d8565b50505050565b6060610f1a826114a2565b610f6f576040517f08c379a000000000000000000000000000000000000000000000000000000000815260040180806020018281038252602f8152602001806130b4602f913960400191505060405180910390fd5b6000600860008481526020019081526020016000208054600181600116156101000203166002900480601f0160208091040260200160405190810160405280929190818152602001828054600181600116156101000203166002900480156110185780601f10610fed57610100808354040283529160200191611018565b820191906000526020600020905b815481529060010190602001808311610ffb57829003601f168201915b5050505050905060006009805460018160011615610100020316600290049050141561104757809150506111f3565b6000815111156111205760098160405160200180838054600181600116156101000203166002900480156110b25780601f106110905761010080835404028352918201916110b2565b820191906000526020600020905b81548152906001019060200180831161109e575b505082805190602001908083835b602083106110e357805182526020820191506020810190506020830392506110c0565b6001836020036101000a038019825116818451168082178552505050505050905001925050506040516020818303038152906040529150506111f3565b600961112b84611a4a565b60405160200180838054600181600116156101000203166002900480156111895780601f10611167576101008083540402835291820191611189565b820191906000526020600020905b815481529060010190602001808311611175575b505082805190602001908083835b602083106111ba5780518252602082019150602081019050602083039250611197565b6001836020036101000a038019825116818451168082178552505050505050905001925050506040516020818303038152906040529150505b919050565b600b5481565b6000600560008473ffffffffffffffffffffffffffffffffffffffff1673ffffffffffffffffffffffffffffffffffffffff16815260200190815260200160002060008373ffffffffffffffffffffffffffffffffffffffff1673ffffffffffffffffffffffffffffffffffffffff16815260200190815260200160002060009054906101000a900460ff16905092915050565b61129a6114bf565b73ffffffffffffffffffffffffffffffffffffffff16600a60009054906101000a900473ffffffffffffffffffffffffffffffffffffffff1673ffffffffffffffffffffffffffffffffffffffff161461135c576040517f08c379a00000000000000000000000000000000000000000000000000000000081526004018080602001828103825260208152602001807f4f776e61626c653a2063616c6c6572206973206e6f7420746865206f776e657281525060200191505060405180910390fd5b600073ffffffffffffffffffffffffffffffffffffffff168173ffffffffffffffffffffffffffffffffffffffff1614156113e2576040517f08c379a0000000000000000000000000000000000000000000000000000000008152600401808060200182810382526026815260200180612f3c6026913960400191505060405180910390fd5b8073ffffffffffffffffffffffffffffffffffffffff16600a60009054906101000a900473ffffffffffffffffffffffffffffffffffffffff1673ffffffffffffffffffffffffffffffffffffffff167f8be0079c531659141344cd1fd0a4f28419497f9722a3daafe3b4186f6b6457e060405160405180910390a380600a60006101000a81548173ffffffffffffffffffffffffffffffffffffffff021916908373ffffffffffffffffffffffffffffffffffffffff16021790555050565b60006114b8826002611b9190919063ffffffff16565b9050919050565b600033905090565b816004600083815260200190815260200160002060006101000a81548173ffffffffffffffffffffffffffffffffffffffff021916908373ffffffffffffffffffffffffffffffffffffffff160217905550808273ffffffffffffffffffffffffffffffffffffffff1661153a836108ab565b73ffffffffffffffffffffffffffffffffffffffff167f8c5be1e5ebec7d5bd14f71427d1e84f3dd0314c0f7b2291e5b200ac8c7c3b92560405160405180910390a45050565b600061158e82600001611bab565b9050919050565b60006115a0826114a2565b6115f5576040517f08c379a000000000000000000000000000000000000000000000000000000000815260040180806020018281038252602c815260200180612f86602c913960400191505060405180910390fd5b6000611600836108ab565b90508073ffffffffffffffffffffffffffffffffffffffff168473ffffffffffffffffffffffffffffffffffffffff16148061166f57508373ffffffffffffffffffffffffffffffffffffffff166116578461058d565b73ffffffffffffffffffffffffffffffffffffffff16145b80611680575061167f81856111fe565b5b91505092915050565b8273ffffffffffffffffffffffffffffffffffffffff166116a9826108ab565b73ffffffffffffffffffffffffffffffffffffffff1614611715576040517f08c379a000000000000000000000000000000000000000000000000000000000815260040180806020018281038252602981526020018061308b6029913960400191505060405180910390fd5b600073ffffffffffffffffffffffffffffffffffffffff168273ffffffffffffffffffffffffffffffffffffffff16141561179b576040517f08c379a0000000000000000000000000000000000000000000000000000000008152600401808060200182810382526024815260200180612f626024913960400191505060405180910390fd5b6117a6838383611bbc565b6117b16000826114c7565b61180281600160008673ffffffffffffffffffffffffffffffffffffffff1673ffffffffffffffffffffffffffffffffffffffff168152602001908152602001600020611bc190919063ffffffff16565b5061185481600160008573ffffffffffffffffffffffffffffffffffffffff1673ffffffffffffffffffffffffffffffffffffffff168152602001908152602001600020611bdb90919063ffffffff16565b5061186b81836002611bf59092919063ffffffff16565b50808273ffffffffffffffffffffffffffffffffffffffff168473ffffffffffffffffffffffffffffffffffffffff167fddf252ad1be2c89b69c2b068fc378daa952ba7f163c4a11628f55a4df523b3ef60405160405180910390a4505050565b60006118db8360000183611c2a565b60001c905092915050565b6000806000806118f98660000186611cad565b915091508160001c8160001c9350935050509250929050565b6000611925846000018460001b84611d46565b60001c90509392505050565b61194b828260405180602001604052806000815250611e3c565b5050565b611958826114a2565b611997576040517f08c379a000000000000000000000000000000000000000000000000000000000815260040161198e90612cda565b60405180910390fd5b80600c600084815260200190815260200160002090805190602001906119be9291906127ad565b505050565b60006119d182600001611ead565b9050919050565b6119e3848484611689565b6119ef84848484611ebe565b611a44576040517f08c379a0000000000000000000000000000000000000000000000000000000008152600401808060200182810382526032815260200180612f0a6032913960400191505060405180910390fd5b50505050565b60606000821415611a92576040518060400160405280600181526020017f30000000000000000000000000000000000000000000000000000000000000008152509050611b8c565b600082905060005b60008214611abc578080600101915050600a8281611ab457fe5b049150611a9a565b60008167ffffffffffffffff81118015611ad557600080fd5b506040519080825280601f01601f191660200182016040528015611b085781602001600182028036833780820191505090505b50905060006001830390508593505b60008414611b8457600a8481611b2957fe5b0660300160f81b82828060019003935081518110611b4357fe5b60200101907effffffffffffffffffffffffffffffffffffffffffffffffffffffffffffff1916908160001a905350600a8481611b7c57fe5b049350611b17565b819450505050505b919050565b6000611ba3836000018360001b6120d7565b905092915050565b600081600001805490509050919050565b505050565b6000611bd3836000018360001b6120fa565b905092915050565b6000611bed836000018360001b6121e2565b905092915050565b6000611c21846000018460001b8473ffffffffffffffffffffffffffffffffffffffff1660001b612252565b90509392505050565b600081836000018054905011611c8b576040517f08c379a0000000000000000000000000000000000000000000000000000000008152600401808060200182810382526022815260200180612ee86022913960400191505060405180910390fd5b826000018281548110611c9a57fe5b9060005260206000200154905092915050565b60008082846000018054905011611d0f576040517f08c379a000000000000000000000000000000000000000000000000000000000815260040180806020018281038252602281526020018061303d6022913960400191505060405180910390fd5b6000846000018481548110611d2057fe5b906000526020600020906002020190508060000154816001015492509250509250929050565b60008084600101600085815260200190815260200160002054905060008114158390611e0d576040517f08c379a00000000000000000000000000000000000000000000000000000000081526004018080602001828103825283818151815260200191508051906020019080838360005b83811015611dd2578082015181840152602081019050611db7565b50505050905090810190601f168015611dff5780820380516001836020036101000a031916815260200191505b509250505060405180910390fd5b50846000016001820381548110611e2057fe5b9060005260206000209060020201600101549150509392505050565b611e46838361232e565b611e536000848484611ebe565b611ea8576040517f08c379a0000000000000000000000000000000000000000000000000000000008152600401808060200182810382526032815260200180612f0a6032913960400191505060405180910390fd5b505050565b600081600001805490509050919050565b6000611edf8473ffffffffffffffffffffffffffffffffffffffff16612522565b611eec57600190506120cf565b600061205663150b7a0260e01b611f016114bf565b888787604051602401808573ffffffffffffffffffffffffffffffffffffffff1681526020018473ffffffffffffffffffffffffffffffffffffffff16815260200183815260200180602001828103825283818151815260200191508051906020019080838360005b83811015611f85578082015181840152602081019050611f6a565b50505050905090810190601f168015611fb25780820380516001836020036101000a031916815260200191505b5095505050505050604051602081830303815290604052907bffffffffffffffffffffffffffffffffffffffffffffffffffffffff19166020820180517bffffffffffffffffffffffffffffffffffffffffffffffffffffffff8381831617835250505050604051806060016040528060328152602001612f0a603291398773ffffffffffffffffffffffffffffffffffffffff1661256d9092919063ffffffff16565b9050600081806020019051602081101561206f57600080fd5b8101908080519060200190929190505050905063150b7a0260e01b7bffffffffffffffffffffffffffffffffffffffffffffffffffffffff1916817bffffffffffffffffffffffffffffffffffffffffffffffffffffffff191614925050505b949350505050565b600080836001016000848152602001908152602001600020541415905092915050565b600080836001016000848152602001908152602001600020549050600081146121d6576000600182039050600060018660000180549050039050600086600001828154811061214557fe5b906000526020600020015490508087600001848154811061216257fe5b906000526020600020018190555060018301876001016000838152602001908152602001600020819055508660000180548061219a57fe5b600190038181906000526020600020016000905590558660010160008781526020019081526020016000206000905560019450505050506121dc565b60009150505b92915050565b60006121ee8383612585565b61224757826000018290806001815401808255809150506001900390600052602060002001600090919091909150558260000180549050836001016000848152602001908152602001600020819055506001905061224c565b600090505b92915050565b60008084600101600085815260200190815260200160002054905060008114156122f957846000016040518060400160405280868152602001858152509080600181540180825580915050600190039060005260206000209060020201600090919091909150600082015181600001556020820151816001015550508460000180549050856001016000868152602001908152602001600020819055506001915050612327565b8285600001600183038154811061230c57fe5b90600052602060002090600202016001018190555060009150505b9392505050565b600073ffffffffffffffffffffffffffffffffffffffff168273ffffffffffffffffffffffffffffffffffffffff1614156123d1576040517f08c379a00000000000000000000000000000000000000000000000000000000081526004018080602001828103825260208152602001807f4552433732313a206d696e7420746f20746865207a65726f206164647265737381525060200191505060405180910390fd5b6123da816114a2565b1561244d576040517f08c379a000000000000000000000000000000000000000000000000000000000815260040180806020018281038252601c8152602001807f4552433732313a20746f6b656e20616c7265616479206d696e7465640000000081525060200191505060405180910390fd5b61245960008383611bbc565b6124aa81600160008573ffffffffffffffffffffffffffffffffffffffff1673ffffffffffffffffffffffffffffffffffffffff168152602001908152602001600020611bdb90919063ffffffff16565b506124c181836002611bf59092919063ffffffff16565b50808273ffffffffffffffffffffffffffffffffffffffff16600073ffffffffffffffffffffffffffffffffffffffff167fddf252ad1be2c89b69c2b068fc378daa952ba7f163c4a11628f55a4df523b3ef60405160405180910390a45050565b60008060007fc5d2460186f7233c927e7db2dcc703c0e500b653ca82273b7bfad8045d85a47060001b9050833f915080821415801561256457506000801b8214155b92505050919050565b606061257c84846000856125a8565b90509392505050565b600080836001016000848152602001908152602001600020541415905092915050565b60606125b385612522565b612625576040517f08c379a000000000000000000000000000000000000000000000000000000000815260040180806020018281038252601d8152602001807f416464726573733a2063616c6c20746f206e6f6e2d636f6e747261637400000081525060200191505060405180910390fd5b6000808673ffffffffffffffffffffffffffffffffffffffff1685876040518082805190602001908083835b602083106126745780518252602082019150602081019050602083039250612651565b6001836020036101000a03801982511681845116808217855250505050505090500191505060006040518083038185875af1925050503d80600081146126d6576040519150601f19603f3d011682016040523d82523d6000602084013e6126db565b606091505b509150915081156126f05780925050506127a5565b6000815111156127035780518082602001fd5b836040517f08c379a00000000000000000000000000000000000000000000000000000000081526004018080602001828103825283818151815260200191508051906020019080838360005b8381101561276a57808201518184015260208101905061274f565b50505050905090810190601f1680156127975780820380516001836020036101000a031916815260200191505b509250505060405180910390fd5b949350505050565b828054600181600116156101000203166002900490600052602060002090601f0160209004810192826127e3576000855561282a565b82601f106127fc57805160ff191683800117855561282a565b8280016001018555821561282a579182015b8281111561282957825182559160200191906001019061280e565b5b509050612837919061283b565b5090565b5b8082111561285457600081600090555060010161283c565b5090565b600061286b61286684612d46565b612d15565b90508281526020810184848401111561288357600080fd5b61288e848285612e36565b509392505050565b60006128a96128a484612d76565b612d15565b9050828152602081018484840111156128c157600080fd5b6128cc848285612e36565b509392505050565b6000813590506128e381612e8b565b92915050565b6000813590506128f881612ea2565b92915050565b60008135905061290d81612eb9565b92915050565b600082601f83011261292457600080fd5b8135612934848260208601612858565b91505092915050565b600082601f83011261294e57600080fd5b813561295e848260208601612896565b91505092915050565b60008135905061297681612ed0565b92915050565b60006020828403121561298e57600080fd5b600061299c848285016128d4565b91505092915050565b600080604083850312156129b857600080fd5b60006129c6858286016128d4565b92505060206129d7858286016128d4565b9150509250929050565b6000806000606084860312156129f657600080fd5b6000612a04868287016128d4565b9350506020612a15868287016128d4565b9250506040612a2686828701612967565b9150509250925092565b60008060008060808587031215612a4657600080fd5b6000612a54878288016128d4565b9450506020612a65878288016128d4565b9350506040612a7687828801612967565b925050606085013567ffffffffffffffff811115612a9357600080fd5b612a9f87828801612913565b91505092959194509250565b60008060408385031215612abe57600080fd5b6000612acc858286016128d4565b9250506020612add858286016128e9565b9150509250929050565b60008060408385031215612afa57600080fd5b6000612b08858286016128d4565b9250506020612b1985828601612967565b9150509250929050565b600060208284031215612b3557600080fd5b6000612b43848285016128fe565b91505092915050565b600060208284031215612b5e57600080fd5b600082013567ffffffffffffffff811115612b7857600080fd5b612b848482850161293d565b91505092915050565b600060208284031215612b9f57600080fd5b6000612bad84828501612967565b91505092915050565b612bbf81612dc2565b82525050565b612bce81612dd4565b82525050565b6000612bdf82612da6565b612be98185612db1565b9350612bf9818560208601612e45565b612c0281612e7a565b840191505092915050565b6000612c1a602c83612db1565b91507f4552433732314d657461646174613a2055524920736574206f66206e6f6e657860008301527f697374656e7420746f6b656e00000000000000000000000000000000000000006020830152604082019050919050565b612c7c81612e2c565b82525050565b6000602082019050612c976000830184612bb6565b92915050565b6000602082019050612cb26000830184612bc5565b92915050565b60006020820190508181036000830152612cd28184612bd4565b905092915050565b60006020820190508181036000830152612cf381612c0d565b9050919050565b6000602082019050612d0f6000830184612c73565b92915050565b6000604051905081810181811067ffffffffffffffff82111715612d3c57612d3b612e78565b5b8060405250919050565b600067ffffffffffffffff821115612d6157612d60612e78565b5b601f19601f8301169050602081019050919050565b600067ffffffffffffffff821115612d9157612d90612e78565b5b601f19601f8301169050602081019050919050565b600081519050919050565b600082825260208201905092915050565b6000612dcd82612e0c565b9050919050565b60008115159050919050565b60007fffffffff0000000000000000000000000000000000000000000000000000000082169050919050565b600073ffffffffffffffffffffffffffffffffffffffff82169050919050565b6000819050919050565b82818337600083830152505050565b60005b83811015612e63578082015181840152602081019050612e48565b83811115612e72576000848401525b50505050565bfe5b6000601f19601f8301169050919050565b612e9481612dc2565b8114612e9f57600080fd5b50565b612eab81612dd4565b8114612eb657600080fd5b50565b612ec281612de0565b8114612ecd57600080fd5b50565b612ed981612e2c565b8114612ee457600080fd5b5056fe456e756d657261626c655365743a20696e646578206f7574206f6620626f756e64734552433732313a207472616e7366657220746f206e6f6e20455243373231526563656976657220696d706c656d656e7465724f776e61626c653a206e6577206f776e657220697320746865207a65726f20616464726573734552433732313a207472616e7366657220746f20746865207a65726f20616464726573734552433732313a206f70657261746f7220717565727920666f72206e6f6e6578697374656e7420746f6b656e4552433732313a20617070726f76652063616c6c6572206973206e6f74206f776e6572206e6f7220617070726f76656420666f7220616c6c4552433732313a2062616c616e636520717565727920666f7220746865207a65726f20616464726573734552433732313a206f776e657220717565727920666f72206e6f6e6578697374656e7420746f6b656e456e756d657261626c654d61703a20696e646578206f7574206f6620626f756e64734552433732313a20617070726f76656420717565727920666f72206e6f6e6578697374656e7420746f6b656e4552433732313a207472616e73666572206f6620746f6b656e2074686174206973206e6f74206f776e4552433732314d657461646174613a2055524920717565727920666f72206e6f6e6578697374656e7420746f6b656e4552433732313a20617070726f76616c20746f2063757272656e74206f776e65724552433732313a207472616e736665722063616c6c6572206973206e6f74206f776e6572206e6f7220617070726f766564a26469706673582212205c12501d569fec53126eaca2c22bbf0483b2543dafea328cde3ce94ad8febc3864736f6c63430007060033",
  "immutableReferences": {},
  "source": "// SPDX-License-Identifier: MIT\n\npragma solidity 0.7.6;\npragma abicoder v2;\nimport \"@openzeppelin/contracts/token/ERC721/ERC721.sol\";\nimport \"@openzeppelin/contracts/access/Ownable.sol\";\n\ncontract SimpleNFT is ERC721, Ownable {\n  using Strings for uint256;\n  uint256 public tokenCounter;\n  mapping (uint256 => string) private _tokenURIs;\n\n    // Base URI\n  string private _baseURIextended;\n  constructor () public ERC721 (\"Elf\", \"ELF\"){\n    tokenCounter = 0;\n  }\n  function setBaseURI(string memory baseURI_) external {\n        _baseURIextended = baseURI_;\n    }\n \n  function _setTokenURI(uint256 tokenId, string memory _tokenURI) internal virtual override {\n    require(_exists(tokenId), \"ERC721Metadata: URI set of nonexistent token\");\n    _tokenURIs[tokenId] = _tokenURI;\n  }\n    \n  function _baseURI() internal view virtual returns (string memory) {\n    return _baseURIextended;\n  }\n  function createSimpleNFT(string memory tokenURI) public returns (uint256) {\n    uint256 newItemId = tokenCounter;\n    _safeMint(msg.sender, newItemId);\n    _setTokenURI(newItemId, tokenURI);\n    tokenCounter = tokenCounter + 1;\n    return newItemId;\n  }\n\n}",
  "sourcePath": "/Users/Karlo/faks/Web3/challenge3/eth-dapp/truffle project/contracts/4_SimpleNFT.sol",
  "compiler": {
    "name": "solc",
    "version": "0.7.6+commit.7338295f.Emscripten.clang"
  },
  "schemaVersion": "3.4.1",
  "updatedAt": "2021-08-28T15:24:42.518Z",
  "devdoc": {
    "kind": "dev",
    "methods": {
      "approve(address,uint256)": {
        "details": "See {IERC721-approve}."
      },
      "balanceOf(address)": {
        "details": "See {IERC721-balanceOf}."
      },
      "baseURI()": {
        "details": "Returns the base URI set via {_setBaseURI}. This will be automatically added as a prefix in {tokenURI} to each token's URI, or to the token ID if no specific URI is set for that token ID."
      },
      "getApproved(uint256)": {
        "details": "See {IERC721-getApproved}."
      },
      "isApprovedForAll(address,address)": {
        "details": "See {IERC721-isApprovedForAll}."
      },
      "name()": {
        "details": "See {IERC721Metadata-name}."
      },
      "owner()": {
        "details": "Returns the address of the current owner."
      },
      "ownerOf(uint256)": {
        "details": "See {IERC721-ownerOf}."
      },
      "renounceOwnership()": {
        "details": "Leaves the contract without owner. It will not be possible to call `onlyOwner` functions anymore. Can only be called by the current owner. NOTE: Renouncing ownership will leave the contract without an owner, thereby removing any functionality that is only available to the owner."
      },
      "safeTransferFrom(address,address,uint256)": {
        "details": "See {IERC721-safeTransferFrom}."
      },
      "safeTransferFrom(address,address,uint256,bytes)": {
        "details": "See {IERC721-safeTransferFrom}."
      },
      "setApprovalForAll(address,bool)": {
        "details": "See {IERC721-setApprovalForAll}."
      },
      "supportsInterface(bytes4)": {
        "details": "See {IERC165-supportsInterface}. Time complexity O(1), guaranteed to always use less than 30 000 gas."
      },
      "symbol()": {
        "details": "See {IERC721Metadata-symbol}."
      },
      "tokenByIndex(uint256)": {
        "details": "See {IERC721Enumerable-tokenByIndex}."
      },
      "tokenOfOwnerByIndex(address,uint256)": {
        "details": "See {IERC721Enumerable-tokenOfOwnerByIndex}."
      },
      "tokenURI(uint256)": {
        "details": "See {IERC721Metadata-tokenURI}."
      },
      "totalSupply()": {
        "details": "See {IERC721Enumerable-totalSupply}."
      },
      "transferFrom(address,address,uint256)": {
        "details": "See {IERC721-transferFrom}."
      },
      "transferOwnership(address)": {
        "details": "Transfers ownership of the contract to a new account (`newOwner`). Can only be called by the current owner."
      }
    },
    "version": 1
  },
  "userdoc": {
    "kind": "user",
    "methods": {},
    "version": 1
  }
}