{
  "contractName": "Organisation",
  "abi": [
    {
      "inputs": [
        {
          "internalType": "address",
          "name": "_nft",
          "type": "address"
        }
      ],
      "stateMutability": "nonpayable",
      "type": "constructor"
    },
    {
      "inputs": [],
      "name": "campaignCounter",
      "outputs": [
        {
          "internalType": "uint256",
          "name": "",
          "type": "uint256"
        }
      ],
      "stateMutability": "view",
      "type": "function"
    },
    {
      "inputs": [
        {
          "internalType": "uint256",
          "name": "",
          "type": "uint256"
        }
      ],
      "name": "campaigns",
      "outputs": [
        {
          "internalType": "contract Campaign",
          "name": "",
          "type": "address"
        }
      ],
      "stateMutability": "view",
      "type": "function"
    },
    {
      "inputs": [
        {
          "internalType": "address",
          "name": "",
          "type": "address"
        }
      ],
      "name": "members",
      "outputs": [
        {
          "internalType": "uint256",
          "name": "",
          "type": "uint256"
        }
      ],
      "stateMutability": "view",
      "type": "function"
    },
    {
      "inputs": [],
      "name": "nft",
      "outputs": [
        {
          "internalType": "address",
          "name": "",
          "type": "address"
        }
      ],
      "stateMutability": "view",
      "type": "function"
    },
    {
      "inputs": [],
      "name": "owner",
      "outputs": [
        {
          "internalType": "address",
          "name": "",
          "type": "address"
        }
      ],
      "stateMutability": "view",
      "type": "function"
    },
    {
      "inputs": [
        {
          "internalType": "string",
          "name": "_name",
          "type": "string"
        },
        {
          "internalType": "uint256",
          "name": "_goal",
          "type": "uint256"
        },
        {
          "internalType": "string",
          "name": "_description",
          "type": "string"
        },
        {
          "internalType": "uint256",
          "name": "_endTimestamp",
          "type": "uint256"
        },
        {
          "internalType": "address payable",
          "name": "_beneficiary",
          "type": "address"
        }
      ],
      "name": "addCampaign",
      "outputs": [],
      "stateMutability": "nonpayable",
      "type": "function"
    },
    {
      "inputs": [
        {
          "internalType": "address",
          "name": "_member",
          "type": "address"
        }
      ],
      "name": "addMember",
      "outputs": [],
      "stateMutability": "nonpayable",
      "type": "function"
    }
  ],
  "bytecode": "0x608060405234801561001057600080fd5b506040516126f53803806126f583398181016040528101906100329190610136565b33600160006101000a81548173ffffffffffffffffffffffffffffffffffffffff021916908373ffffffffffffffffffffffffffffffffffffffff160217905550600160026000600160009054906101000a900473ffffffffffffffffffffffffffffffffffffffff1673ffffffffffffffffffffffffffffffffffffffff1673ffffffffffffffffffffffffffffffffffffffff1681526020019081526020016000208190555080600460006101000a81548173ffffffffffffffffffffffffffffffffffffffff021916908373ffffffffffffffffffffffffffffffffffffffff160217905550506101a8565b60008151905061013081610191565b92915050565b60006020828403121561014857600080fd5b600061015684828501610121565b91505092915050565b600061016a82610171565b9050919050565b600073ffffffffffffffffffffffffffffffffffffffff82169050919050565b61019a8161015f565b81146101a557600080fd5b50565b61253e806101b76000396000f3fe60806040523480156200001157600080fd5b5060043610620000885760003560e01c806347ccca02116200006357806347ccca0214620001195780638da5cb5b146200013b578063ca6d56dc146200015d578063fca604d7146200017d5762000088565b806308ae4b0c146200008d578063141961bc14620000c35780631668ea5414620000f9575b600080fd5b620000ab6004803603810190620000a59190620004b6565b6200019f565b604051620000ba91906200070b565b60405180910390f35b620000e16004803603810190620000db919062000596565b620001b7565b604051620000f09190620006cc565b60405180910390f35b620001176004803603810190620001119190620004e2565b620001ea565b005b6200012362000357565b604051620001329190620006af565b60405180910390f35b620001456200037d565b604051620001549190620006af565b60405180910390f35b6200017b6004803603810190620001759190620004b6565b620003a3565b005b62000187620003eb565b6040516200019691906200070b565b60405180910390f35b60026020528060005260406000206000915090505481565b60036020528060005260406000206000915054906101000a900473ffffffffffffffffffffffffffffffffffffffff1681565b6001600260003373ffffffffffffffffffffffffffffffffffffffff1673ffffffffffffffffffffffffffffffffffffffff16815260200190815260200160002054146200023757600080fd5b4282116200027c576040517f08c379a00000000000000000000000000000000000000000000000000000000081526004016200027390620006e9565b60405180910390fd5b6000808154809291906200029090620008f5565b91905055506000548585858585600460009054906101000a900473ffffffffffffffffffffffffffffffffffffffff16604051620002ce90620003f1565b620002e0979695949392919062000728565b604051809103906000f080158015620002fd573d6000803e3d6000fd5b50600360008054815260200190815260200160002060006101000a81548173ffffffffffffffffffffffffffffffffffffffff021916908373ffffffffffffffffffffffffffffffffffffffff1602179055505050505050565b600460009054906101000a900473ffffffffffffffffffffffffffffffffffffffff1681565b600160009054906101000a900473ffffffffffffffffffffffffffffffffffffffff1681565b6001600260008373ffffffffffffffffffffffffffffffffffffffff1673ffffffffffffffffffffffffffffffffffffffff1681526020019081526020016000208190555050565b60005481565b611b088062000a0183390190565b6000620004166200041084620007e7565b620007b3565b9050828152602081018484840111156200042f57600080fd5b6200043c848285620008b0565b509392505050565b6000813590506200045581620009b2565b92915050565b6000813590506200046c81620009cc565b92915050565b600082601f8301126200048457600080fd5b813562000496848260208601620003ff565b91505092915050565b600081359050620004b081620009e6565b92915050565b600060208284031215620004c957600080fd5b6000620004d98482850162000444565b91505092915050565b600080600080600060a08688031215620004fb57600080fd5b600086013567ffffffffffffffff8111156200051657600080fd5b620005248882890162000472565b955050602062000537888289016200049f565b945050604086013567ffffffffffffffff8111156200055557600080fd5b620005638882890162000472565b935050606062000576888289016200049f565b925050608062000589888289016200045b565b9150509295509295909350565b600060208284031215620005a957600080fd5b6000620005b9848285016200049f565b91505092915050565b620005cd816200084a565b82525050565b620005de8162000836565b82525050565b620005ef8162000888565b82525050565b600062000602826200081a565b6200060e818562000825565b935062000620818560208601620008bf565b6200062b81620009a1565b840191505092915050565b600062000645603a8362000825565b91507f4f7267616e69736174696f6e3a3a61646443616d706169676e3a2043616d706160008301527f69676e206d75737420656e6420696e20746865206675747572650000000000006020830152604082019050919050565b620006a9816200087e565b82525050565b6000602082019050620006c66000830184620005d3565b92915050565b6000602082019050620006e36000830184620005e4565b92915050565b60006020820190508181036000830152620007048162000636565b9050919050565b60006020820190506200072260008301846200069e565b92915050565b600060e0820190506200073f600083018a6200069e565b8181036020830152620007538189620005f5565b90506200076460408301886200069e565b8181036060830152620007788187620005f5565b90506200078960808301866200069e565b6200079860a0830185620005c2565b620007a760c0830184620005d3565b98975050505050505050565b6000604051905081810181811067ffffffffffffffff82111715620007dd57620007dc62000972565b5b8060405250919050565b600067ffffffffffffffff82111562000805576200080462000972565b5b601f19601f8301169050602081019050919050565b600081519050919050565b600082825260208201905092915050565b600062000843826200085e565b9050919050565b600062000857826200085e565b9050919050565b600073ffffffffffffffffffffffffffffffffffffffff82169050919050565b6000819050919050565b600062000895826200089c565b9050919050565b6000620008a9826200085e565b9050919050565b82818337600083830152505050565b60005b83811015620008df578082015181840152602081019050620008c2565b83811115620008ef576000848401525b50505050565b600062000902826200087e565b91507fffffffffffffffffffffffffffffffffffffffffffffffffffffffffffffffff82141562000938576200093762000943565b5b600182019050919050565b7f4e487b7100000000000000000000000000000000000000000000000000000000600052601160045260246000fd5b7f4e487b7100000000000000000000000000000000000000000000000000000000600052604160045260246000fd5b6000601f19601f8301169050919050565b620009bd8162000836565b8114620009c957600080fd5b50565b620009d7816200084a565b8114620009e357600080fd5b50565b620009f1816200087e565b8114620009fd57600080fd5b5056fe60806040526000600460146101000a81548160ff0219169083151502179055503480156200002c57600080fd5b5060405162001b0838038062001b08833981810160405281019062000052919062000297565b8660008190555085600190805190602001906200007192919062000130565b5060006002819055508460038190555083600590805190602001906200009992919062000130565b5081600460006101000a81548173ffffffffffffffffffffffffffffffffffffffff021916908373ffffffffffffffffffffffffffffffffffffffff1602179055508260088190555080600a60006101000a81548173ffffffffffffffffffffffffffffffffffffffff021916908373ffffffffffffffffffffffffffffffffffffffff1602179055505050505050505062000547565b8280546200013e9062000465565b90600052602060002090601f016020900481019282620001625760008555620001ae565b82601f106200017d57805160ff1916838001178555620001ae565b82800160010185558215620001ae579182015b82811115620001ad57825182559160200191906001019062000190565b5b509050620001bd9190620001c1565b5090565b5b80821115620001dc576000816000905550600101620001c2565b5090565b6000620001f7620001f184620003aa565b62000376565b9050828152602081018484840111156200021057600080fd5b6200021d8482856200042f565b509392505050565b6000815190506200023681620004f9565b92915050565b6000815190506200024d8162000513565b92915050565b600082601f8301126200026557600080fd5b815162000277848260208601620001e0565b91505092915050565b60008151905062000291816200052d565b92915050565b600080600080600080600060e0888a031215620002b357600080fd5b6000620002c38a828b0162000280565b975050602088015167ffffffffffffffff811115620002e157600080fd5b620002ef8a828b0162000253565b9650506040620003028a828b0162000280565b955050606088015167ffffffffffffffff8111156200032057600080fd5b6200032e8a828b0162000253565b9450506080620003418a828b0162000280565b93505060a0620003548a828b016200023c565b92505060c0620003678a828b0162000225565b91505092959891949750929550565b6000604051905081810181811067ffffffffffffffff82111715620003a0576200039f620004ca565b5b8060405250919050565b600067ffffffffffffffff821115620003c857620003c7620004ca565b5b601f19601f8301169050602081019050919050565b6000620003ea8262000405565b9050919050565b6000620003fe8262000405565b9050919050565b600073ffffffffffffffffffffffffffffffffffffffff82169050919050565b6000819050919050565b60005b838110156200044f57808201518184015260208101905062000432565b838111156200045f576000848401525b50505050565b600060028204905060018216806200047e57607f821691505b602082108114156200049557620004946200049b565b5b50919050565b7f4e487b7100000000000000000000000000000000000000000000000000000000600052602260045260246000fd5b7f4e487b7100000000000000000000000000000000000000000000000000000000600052604160045260246000fd5b6200050481620003dd565b81146200051057600080fd5b50565b6200051e81620003f1565b81146200052a57600080fd5b50565b620005388162000425565b81146200054457600080fd5b50565b6115b180620005576000396000f3fe6080604052600436106100c25760003560e01c806351906bb01161007f578063af640d0f11610059578063af640d0f1461024d578063bb66834e14610278578063bef4876b146102a3578063dec97828146102ce576100c2565b806351906bb0146101cc5780637284e416146101f75780638da5cb5b14610222576100c2565b806306fdde03146100c75780631653441c146100f25780631714f2e0146101225780631eaa1c8b1461014d5780632fdef9c31461016457806340193883146101a1575b600080fd5b3480156100d357600080fd5b506100dc6102f9565b6040516100e991906110d5565b60405180910390f35b61010c60048036038101906101079190610ba5565b610387565b604051610119919061109f565b60405180910390f35b34801561012e57600080fd5b50610137610708565b60405161014491906110ba565b60405180910390f35b34801561015957600080fd5b5061016261072e565b005b34801561017057600080fd5b5061018b60048036038101906101869190610c11565b61086d565b60405161019891906110d5565b60405180910390f35b3480156101ad57600080fd5b506101b6610919565b6040516101c39190611197565b60405180910390f35b3480156101d857600080fd5b506101e161091f565b6040516101ee9190611197565b60405180910390f35b34801561020357600080fd5b5061020c610925565b60405161021991906110d5565b60405180910390f35b34801561022e57600080fd5b506102376109b3565b6040516102449190611084565b60405180910390f35b34801561025957600080fd5b506102626109d9565b60405161026f9190611197565b60405180910390f35b34801561028457600080fd5b5061028d6109df565b60405161029a9190611197565b60405180910390f35b3480156102af57600080fd5b506102b86109e5565b6040516102c5919061109f565b60405180910390f35b3480156102da57600080fd5b506102e36109f8565b6040516102f09190611197565b60405180910390f35b600180546103069061144b565b80601f01602080910402602001604051908101604052809291908181526020018280546103329061144b565b801561037f5780601f106103545761010080835404028352916020019161037f565b820191906000526020600020905b81548152906001019060200180831161036257829003601f168201915b505050505081565b6000343273ffffffffffffffffffffffffffffffffffffffff163110156103e3576040517f08c379a00000000000000000000000000000000000000000000000000000000081526004016103da90611117565b60405180910390fd5b4260085411610427576040517f08c379a000000000000000000000000000000000000000000000000000000000815260040161041e90611157565b60405180910390fd5b600354346002546104389190611347565b1115610479576040517f08c379a0000000000000000000000000000000000000000000000000000000008152600401610470906110f7565b60405180910390fd5b346002600082825461048b9190611347565b925050819055506006839080600181540180825580915050600190039060005260206000200160009091909190915090805190602001906104cd929190610a70565b50600760008154809291906104e19061147d565b9190505550600354600254141561055e577f314217ebdf17981d4a26c0519c8810c5b95359d28c649f331ae684df59190db260025460035460005460016006604051610531959493929190611205565b60405180910390a16001600460146101000a81548160ff02191690831515021790555061055c6109fe565b505b7f603e3549dc91f5ea5c20e81f07db1876962790e50a9c3d3bbdc07821b0b045cd3460005460018660405161059694939291906111b2565b60405180910390a160001515600960003273ffffffffffffffffffffffffffffffffffffffff1673ffffffffffffffffffffffffffffffffffffffff16815260200190815260200160002060009054906101000a900460ff16151514156106fe57600a60009054906101000a900473ffffffffffffffffffffffffffffffffffffffff1673ffffffffffffffffffffffffffffffffffffffff16636eff88ff836040518263ffffffff1660e01b815260040161065291906110d5565b602060405180830381600087803b15801561066c57600080fd5b505af1158015610680573d6000803e3d6000fd5b505050506040513d601f19601f820116820180604052508101906106a49190610c3a565b506001600960003273ffffffffffffffffffffffffffffffffffffffff1673ffffffffffffffffffffffffffffffffffffffff16815260200190815260200160002060006101000a81548160ff0219169083151502179055505b6001905092915050565b600a60009054906101000a900473ffffffffffffffffffffffffffffffffffffffff1681565b4260085410610772576040517f08c379a000000000000000000000000000000000000000000000000000000000815260040161076990611177565b60405180910390fd5b600460009054906101000a900473ffffffffffffffffffffffffffffffffffffffff1673ffffffffffffffffffffffffffffffffffffffff163373ffffffffffffffffffffffffffffffffffffffff1614610802576040517f08c379a00000000000000000000000000000000000000000000000000000000081526004016107f990611137565b60405180910390fd5b600460009054906101000a900473ffffffffffffffffffffffffffffffffffffffff1673ffffffffffffffffffffffffffffffffffffffff166108fc479081150290604051600060405180830381858888f1935050505015801561086a573d6000803e3d6000fd5b50565b6006818154811061087d57600080fd5b9060005260206000200160009150905080546108989061144b565b80601f01602080910402602001604051908101604052809291908181526020018280546108c49061144b565b80156109115780601f106108e657610100808354040283529160200191610911565b820191906000526020600020905b8154815290600101906020018083116108f457829003601f168201915b505050505081565b60035481565b60085481565b600580546109329061144b565b80601f016020809104026020016040519081016040528092919081815260200182805461095e9061144b565b80156109ab5780601f10610980576101008083540402835291602001916109ab565b820191906000526020600020905b81548152906001019060200180831161098e57829003601f168201915b505050505081565b600460009054906101000a900473ffffffffffffffffffffffffffffffffffffffff1681565b60005481565b60025481565b600460149054906101000a900460ff1681565b60075481565b6000600460009054906101000a900473ffffffffffffffffffffffffffffffffffffffff1673ffffffffffffffffffffffffffffffffffffffff166108fc479081150290604051600060405180830381858888f19350505050158015610a68573d6000803e3d6000fd5b506001905090565b828054610a7c9061144b565b90600052602060002090601f016020900481019282610a9e5760008555610ae5565b82601f10610ab757805160ff1916838001178555610ae5565b82800160010185558215610ae5579182015b82811115610ae4578251825591602001919060010190610ac9565b5b509050610af29190610af6565b5090565b5b80821115610b0f576000816000905550600101610af7565b5090565b6000610b26610b2184611297565b611266565b905082815260208101848484011115610b3e57600080fd5b610b49848285611409565b509392505050565b600082601f830112610b6257600080fd5b8135610b72848260208601610b13565b91505092915050565b600081359050610b8a81611564565b92915050565b600081519050610b9f81611564565b92915050565b60008060408385031215610bb857600080fd5b600083013567ffffffffffffffff811115610bd257600080fd5b610bde85828601610b51565b925050602083013567ffffffffffffffff811115610bfb57600080fd5b610c0785828601610b51565b9150509250929050565b600060208284031215610c2357600080fd5b6000610c3184828501610b7b565b91505092915050565b600060208284031215610c4c57600080fd5b6000610c5a84828501610b90565b91505092915050565b6000610c6f8383610d51565b905092915050565b610c808161139d565b82525050565b6000610c91826112f1565b610c9b8185611314565b935083602082028501610cad856112c7565b8060005b85811015610ce857848403895281610cc98582610c63565b9450610cd483611307565b925060208a01995050600181019050610cb1565b50829750879550505050505092915050565b610d03816113af565b82525050565b610d12816113e5565b82525050565b6000610d23826112fc565b610d2d8185611336565b9350610d3d818560208601611418565b610d4681611553565b840191505092915050565b60008154610d5e8161144b565b610d688186611325565b94506001821660008114610d835760018114610d9557610dc8565b60ff1983168652602086019350610dc8565b610d9e856112dc565b60005b83811015610dc057815481890152600182019150602081019050610da1565b808801955050505b50505092915050565b60008154610dde8161144b565b610de88186611336565b94506001821660008114610e035760018114610e1557610e48565b60ff1983168652602086019350610e48565b610e1e856112dc565b60005b83811015610e4057815481890152600182019150602081019050610e21565b808801955050505b50505092915050565b6000610e5e602283611336565b91507f43616d706169676e3a3a646f6e6174653a20486172642063617020726561636860008301527f65640000000000000000000000000000000000000000000000000000000000006020830152604082019050919050565b6000610ec4602383611336565b91507f43616d706169676e3a3a646f6e6174653a20496e737566696369656e7420667560008301527f6e647300000000000000000000000000000000000000000000000000000000006020830152604082019050919050565b6000610f2a604683611336565b91507f63616d706169676e3a3a6578706972656457697468647261773a204f6e6c792060008301527f7468652062656e65666963696172792063616e2077697468647261772074686560208301527f2066756e647300000000000000000000000000000000000000000000000000006040830152606082019050919050565b6000610fb6603483611336565b91507f43616d706169676e3a3a646f6e6174653a20546869732063616d706169676e2060008301527f68617320616c72656164792066696e69736865640000000000000000000000006020830152604082019050919050565b600061101c603883611336565b91507f43616d706169676e3a3a6578706972656457697468647261773a20546869732060008301527f63616d706169676e206973207374696c6c2061637469766500000000000000006020830152604082019050919050565b61107e816113db565b82525050565b60006020820190506110996000830184610c77565b92915050565b60006020820190506110b46000830184610cfa565b92915050565b60006020820190506110cf6000830184610d09565b92915050565b600060208201905081810360008301526110ef8184610d18565b905092915050565b6000602082019050818103600083015261111081610e51565b9050919050565b6000602082019050818103600083015261113081610eb7565b9050919050565b6000602082019050818103600083015261115081610f1d565b9050919050565b6000602082019050818103600083015261117081610fa9565b9050919050565b600060208201905081810360008301526111908161100f565b9050919050565b60006020820190506111ac6000830184611075565b92915050565b60006080820190506111c76000830187611075565b6111d46020830186611075565b81810360408301526111e68185610dd1565b905081810360608301526111fa8184610d18565b905095945050505050565b600060a08201905061121a6000830188611075565b6112276020830187611075565b6112346040830186611075565b81810360608301526112468185610dd1565b9050818103608083015261125a8184610c86565b90509695505050505050565b6000604051905081810181811067ffffffffffffffff8211171561128d5761128c611524565b5b8060405250919050565b600067ffffffffffffffff8211156112b2576112b1611524565b5b601f19601f8301169050602081019050919050565b60008190508160005260206000209050919050565b60008190508160005260206000209050919050565b600081549050919050565b600081519050919050565b6000600182019050919050565b600082825260208201905092915050565b600082825260208201905092915050565b600082825260208201905092915050565b6000611352826113db565b915061135d836113db565b9250827fffffffffffffffffffffffffffffffffffffffffffffffffffffffffffffffff03821115611392576113916114c6565b5b828201905092915050565b60006113a8826113bb565b9050919050565b60008115159050919050565b600073ffffffffffffffffffffffffffffffffffffffff82169050919050565b6000819050919050565b60006113f0826113f7565b9050919050565b6000611402826113bb565b9050919050565b82818337600083830152505050565b60005b8381101561143657808201518184015260208101905061141b565b83811115611445576000848401525b50505050565b6000600282049050600182168061146357607f821691505b60208210811415611477576114766114f5565b5b50919050565b6000611488826113db565b91507fffffffffffffffffffffffffffffffffffffffffffffffffffffffffffffffff8214156114bb576114ba6114c6565b5b600182019050919050565b7f4e487b7100000000000000000000000000000000000000000000000000000000600052601160045260246000fd5b7f4e487b7100000000000000000000000000000000000000000000000000000000600052602260045260246000fd5b7f4e487b7100000000000000000000000000000000000000000000000000000000600052604160045260246000fd5b6000601f19601f8301169050919050565b61156d816113db565b811461157857600080fd5b5056fea26469706673582212208f95337f05632704d91084602e4b630667ace1aea5b54d4c7eed82fae73283ce64736f6c63430008000033a26469706673582212202ed4e468c58779df336d4fbc9e30131377e21a40980cecb96b9824c3807bcd5164736f6c63430008000033",
  "immutableReferences": {},
  "source": "pragma solidity >=0.8.0 <0.9.0;\npragma abicoder v2;\nimport \"./1_Campaign.sol\";\nimport \"@openzeppelin/contracts/access/Ownable.sol\";\nimport \"@openzeppelin/contracts/utils/math/SafeMath.sol\";\nimport \"@openzeppelin/contracts/token/ERC20/utils/SafeERC20.sol\";\nimport \"@openzeppelin/contracts/token/ERC20/IERC20.sol\";\n\n// SPDX-License-Identifier: MIT\n\ncontract Organisation {\n    \n        \n    using SafeMath for uint;\n    using SafeERC20 for IERC20;\n    \n    uint public campaignCounter;\n    address public owner;\n    mapping(address => uint) public members;\n    mapping(uint => Campaign) public campaigns;\n    address public nft;\n    constructor(address _nft){\n        owner = msg.sender;\n        members[owner] = 1;\n        nft = _nft;\n    }\n    \n    \n    function addCampaign(string memory _name, uint _goal, string memory _description, uint _endTimestamp, address payable _beneficiary) public {\n        require(members[msg.sender] == 1);\n        require(_endTimestamp > block.timestamp, \"Organisation::addCampaign: Campaign must end in the future\");\n        campaignCounter ++;\n        campaigns[campaignCounter] = new Campaign(campaignCounter, _name, _goal, _description, _endTimestamp, _beneficiary, nft);\n    }\n    \n    function addMember(address _member) public {\n        members[_member] = 1;\n    }\n}",
  "sourcePath": "/Users/Karlo/faks/Web3/challenge1/eth-dapp/truffle project/contracts/2_Organisation.sol",
  "compiler": {
    "name": "solc",
    "version": "0.8.0+commit.c7dfd78e.Emscripten.clang"
  },
  "schemaVersion": "3.4.1",
  "updatedAt": "2021-08-09T23:29:39.386Z",
  "devdoc": {
    "kind": "dev",
    "methods": {},
    "version": 1
  },
  "userdoc": {
    "kind": "user",
    "methods": {},
    "version": 1
  }
}